{
  "_format": "hh-sol-artifact-1",
  "contractName": "Vault",
  "sourceName": "contracts/Vault.sol",
  "abi": [
    {
      "anonymous": false,
      "inputs": [
        {
          "indexed": true,
          "internalType": "address",
          "name": "user",
          "type": "address"
        },
        {
          "indexed": true,
          "internalType": "uint256",
          "name": "pid",
          "type": "uint256"
        },
        {
          "indexed": false,
          "internalType": "uint256",
          "name": "amount",
          "type": "uint256"
        }
      ],
      "name": "Deposit",
      "type": "event"
    },
    {
      "anonymous": false,
      "inputs": [
        {
          "indexed": true,
          "internalType": "address",
          "name": "user",
          "type": "address"
        },
        {
          "indexed": true,
          "internalType": "uint256",
          "name": "pid",
          "type": "uint256"
        },
        {
          "indexed": false,
          "internalType": "uint256",
          "name": "amount",
          "type": "uint256"
        }
      ],
      "name": "EmergencyWithdraw",
      "type": "event"
    },
    {
      "anonymous": false,
      "inputs": [
        {
          "indexed": true,
          "internalType": "address",
          "name": "previousOwner",
          "type": "address"
        },
        {
          "indexed": true,
          "internalType": "address",
          "name": "newOwner",
          "type": "address"
        }
      ],
      "name": "OwnershipTransferred",
      "type": "event"
    },
    {
      "anonymous": false,
      "inputs": [
        {
          "indexed": true,
          "internalType": "address",
          "name": "user",
          "type": "address"
        },
        {
          "indexed": true,
          "internalType": "uint256",
          "name": "pid",
          "type": "uint256"
        },
        {
          "indexed": false,
          "internalType": "uint256",
          "name": "amount",
          "type": "uint256"
        }
      ],
      "name": "Withdraw",
      "type": "event"
    },
    {
      "inputs": [
        {
          "internalType": "contract IERC20",
          "name": "_token",
          "type": "address"
        },
        {
          "internalType": "uint256",
          "name": "_type",
          "type": "uint256"
        },
        {
          "internalType": "uint256",
          "name": "_endBlock",
          "type": "uint256"
        },
        {
          "internalType": "uint256",
          "name": "_amount",
          "type": "uint256"
        }
      ],
      "name": "createPool",
      "outputs": [],
      "stateMutability": "nonpayable",
      "type": "function"
    },
    {
      "inputs": [
        {
          "internalType": "uint256",
          "name": "_pid",
          "type": "uint256"
        },
        {
          "internalType": "uint256",
          "name": "_amount",
          "type": "uint256"
        }
      ],
      "name": "deposit",
      "outputs": [],
      "stateMutability": "nonpayable",
      "type": "function"
    },
    {
      "inputs": [],
      "name": "owner",
      "outputs": [
        {
          "internalType": "address",
          "name": "",
          "type": "address"
        }
      ],
      "stateMutability": "view",
      "type": "function"
    },
    {
      "inputs": [
        {
          "internalType": "uint256",
          "name": "",
          "type": "uint256"
        }
      ],
      "name": "poolInfo",
      "outputs": [
        {
          "internalType": "uint256",
          "name": "pid",
          "type": "uint256"
        },
        {
          "internalType": "contract IERC20",
          "name": "token",
          "type": "address"
        },
        {
          "internalType": "uint256",
          "name": "amount",
          "type": "uint256"
        }
      ],
      "stateMutability": "view",
      "type": "function"
    },
    {
      "inputs": [],
      "name": "renounceOwnership",
      "outputs": [],
      "stateMutability": "nonpayable",
      "type": "function"
    },
    {
      "inputs": [
        {
          "internalType": "address",
          "name": "newOwner",
          "type": "address"
        }
      ],
      "name": "transferOwnership",
      "outputs": [],
      "stateMutability": "nonpayable",
      "type": "function"
    },
    {
      "inputs": [
        {
          "internalType": "uint256",
          "name": "",
          "type": "uint256"
        },
        {
          "internalType": "address",
          "name": "",
          "type": "address"
        }
      ],
      "name": "userInfo",
      "outputs": [
        {
          "internalType": "uint256",
          "name": "amount",
          "type": "uint256"
        },
        {
          "internalType": "uint256",
          "name": "rewardDebt",
          "type": "uint256"
        }
      ],
      "stateMutability": "view",
      "type": "function"
    },
    {
      "inputs": [],
      "name": "vaultId",
      "outputs": [
        {
          "internalType": "uint256",
          "name": "",
          "type": "uint256"
        }
      ],
      "stateMutability": "view",
      "type": "function"
    }
  ],
  "bytecode": "0x6080604052600060015534801561001557600080fd5b5061003261002761003760201b60201c565b61003f60201b60201c565b610103565b600033905090565b60008060009054906101000a900473ffffffffffffffffffffffffffffffffffffffff169050816000806101000a81548173ffffffffffffffffffffffffffffffffffffffff021916908373ffffffffffffffffffffffffffffffffffffffff1602179055508173ffffffffffffffffffffffffffffffffffffffff168173ffffffffffffffffffffffffffffffffffffffff167f8be0079c531659141344cd1fd0a4f28419497f9722a3daafe3b4186f6b6457e060405160405180910390a35050565b610e3d806101126000396000f3fe608060405234801561001057600080fd5b50600436106100885760003560e01c8063922d3e4c1161005b578063922d3e4c1461010557806393f1a40b14610121578063e2bbb15814610152578063f2fde38b1461016e57610088565b80631526fe271461008d57806333194c0a146100bf578063715018a6146100dd5780638da5cb5b146100e7575b600080fd5b6100a760048036038101906100a2919061090d565b61018a565b6040516100b693929190610bee565b60405180910390f35b6100c76101e4565b6040516100d49190610bd3565b60405180910390f35b6100e56101ea565b005b6100ef610272565b6040516100fc9190610b01565b60405180910390f35b61011f600480360381019061011a91906108aa565b61029b565b005b61013b60048036038101906101369190610936565b610495565b604051610149929190610c25565b60405180910390f35b61016c60048036038101906101679190610972565b6104c6565b005b61018860048036038101906101839190610858565b610640565b005b6002818154811061019a57600080fd5b90600052602060002090600302016000915090508060000154908060010160009054906101000a900473ffffffffffffffffffffffffffffffffffffffff16908060020154905083565b60015481565b6101f2610738565b73ffffffffffffffffffffffffffffffffffffffff16610210610272565b73ffffffffffffffffffffffffffffffffffffffff1614610266576040517f08c379a000000000000000000000000000000000000000000000000000000000815260040161025d90610b73565b60405180910390fd5b6102706000610740565b565b60008060009054906101000a900473ffffffffffffffffffffffffffffffffffffffff16905090565b60018314806102aa5750600283145b6102e9576040517f08c379a00000000000000000000000000000000000000000000000000000000081526004016102e090610bb3565b60405180910390fd5b600160008154809291906102fc90610d33565b919050556001819055506002604051806060016040528060015481526020018673ffffffffffffffffffffffffffffffffffffffff1681526020018381525090806001815401808255809150506001900390600052602060002090600302016000909190919091506000820151816000015560208201518160010160006101000a81548173ffffffffffffffffffffffffffffffffffffffff021916908373ffffffffffffffffffffffffffffffffffffffff1602179055506040820151816002015550508373ffffffffffffffffffffffffffffffffffffffff166323b872dd3330846040518463ffffffff1660e01b81526004016103fe93929190610b1c565b602060405180830381600087803b15801561041857600080fd5b505af115801561042c573d6000803e3d6000fd5b505050506040513d601f19601f820116820180604052508101906104509190610881565b61048f576040517f08c379a000000000000000000000000000000000000000000000000000000000815260040161048690610b93565b60405180910390fd5b50505050565b6003602052816000526040600020602052806000526040600020600091509150508060000154908060010154905082565b600060028381548110610502577f4e487b7100000000000000000000000000000000000000000000000000000000600052603260045260246000fd5b9060005260206000209060030201905060006003600085815260200190815260200160002060003373ffffffffffffffffffffffffffffffffffffffff1673ffffffffffffffffffffffffffffffffffffffff16815260200190815260200160002090508160010160009054906101000a900473ffffffffffffffffffffffffffffffffffffffff1673ffffffffffffffffffffffffffffffffffffffff166323b872dd3330866040518463ffffffff1660e01b81526004016105c793929190610b1c565b602060405180830381600087803b1580156105e157600080fd5b505af11580156105f5573d6000803e3d6000fd5b505050506040513d601f19601f820116820180604052508101906106199190610881565b61062257600080fd5b8281600001546106329190610c5f565b816000018190555050505050565b610648610738565b73ffffffffffffffffffffffffffffffffffffffff16610666610272565b73ffffffffffffffffffffffffffffffffffffffff16146106bc576040517f08c379a00000000000000000000000000000000000000000000000000000000081526004016106b390610b73565b60405180910390fd5b600073ffffffffffffffffffffffffffffffffffffffff168173ffffffffffffffffffffffffffffffffffffffff16141561072c576040517f08c379a000000000000000000000000000000000000000000000000000000000815260040161072390610b53565b60405180910390fd5b61073581610740565b50565b600033905090565b60008060009054906101000a900473ffffffffffffffffffffffffffffffffffffffff169050816000806101000a81548173ffffffffffffffffffffffffffffffffffffffff021916908373ffffffffffffffffffffffffffffffffffffffff1602179055508173ffffffffffffffffffffffffffffffffffffffff168173ffffffffffffffffffffffffffffffffffffffff167f8be0079c531659141344cd1fd0a4f28419497f9722a3daafe3b4186f6b6457e060405160405180910390a35050565b60008135905061081381610dab565b92915050565b60008151905061082881610dc2565b92915050565b60008135905061083d81610dd9565b92915050565b60008135905061085281610df0565b92915050565b60006020828403121561086a57600080fd5b600061087884828501610804565b91505092915050565b60006020828403121561089357600080fd5b60006108a184828501610819565b91505092915050565b600080600080608085870312156108c057600080fd5b60006108ce8782880161082e565b94505060206108df87828801610843565b93505060406108f087828801610843565b925050606061090187828801610843565b91505092959194509250565b60006020828403121561091f57600080fd5b600061092d84828501610843565b91505092915050565b6000806040838503121561094957600080fd5b600061095785828601610843565b925050602061096885828601610804565b9150509250929050565b6000806040838503121561098557600080fd5b600061099385828601610843565b92505060206109a485828601610843565b9150509250929050565b6109b781610cb5565b82525050565b6109c681610d0f565b82525050565b60006109d9602683610c4e565b91507f4f776e61626c653a206e6577206f776e657220697320746865207a65726f206160008301527f64647265737300000000000000000000000000000000000000000000000000006020830152604082019050919050565b6000610a3f602083610c4e565b91507f4f776e61626c653a2063616c6c6572206973206e6f7420746865206f776e65726000830152602082019050919050565b6000610a7f601683610c4e565b91507f43616e2774207472616e7366657220746f6b656e732e000000000000000000006000830152602082019050919050565b6000610abf600c83610c4e565b91507f496e76616c6964207479706500000000000000000000000000000000000000006000830152602082019050919050565b610afb81610d05565b82525050565b6000602082019050610b1660008301846109ae565b92915050565b6000606082019050610b3160008301866109ae565b610b3e60208301856109ae565b610b4b6040830184610af2565b949350505050565b60006020820190508181036000830152610b6c816109cc565b9050919050565b60006020820190508181036000830152610b8c81610a32565b9050919050565b60006020820190508181036000830152610bac81610a72565b9050919050565b60006020820190508181036000830152610bcc81610ab2565b9050919050565b6000602082019050610be86000830184610af2565b92915050565b6000606082019050610c036000830186610af2565b610c1060208301856109bd565b610c1d6040830184610af2565b949350505050565b6000604082019050610c3a6000830185610af2565b610c476020830184610af2565b9392505050565b600082825260208201905092915050565b6000610c6a82610d05565b9150610c7583610d05565b9250827fffffffffffffffffffffffffffffffffffffffffffffffffffffffffffffffff03821115610caa57610ca9610d7c565b5b828201905092915050565b6000610cc082610ce5565b9050919050565b60008115159050919050565b6000610cde82610cb5565b9050919050565b600073ffffffffffffffffffffffffffffffffffffffff82169050919050565b6000819050919050565b6000610d1a82610d21565b9050919050565b6000610d2c82610ce5565b9050919050565b6000610d3e82610d05565b91507fffffffffffffffffffffffffffffffffffffffffffffffffffffffffffffffff821415610d7157610d70610d7c565b5b600182019050919050565b7f4e487b7100000000000000000000000000000000000000000000000000000000600052601160045260246000fd5b610db481610cb5565b8114610dbf57600080fd5b50565b610dcb81610cc7565b8114610dd657600080fd5b50565b610de281610cd3565b8114610ded57600080fd5b50565b610df981610d05565b8114610e0457600080fd5b5056fea2646970667358221220e49852c467742ed68e07dca653febecfebf46c369f7719c01ac9e7f3e23ed98664736f6c63430008000033",
  "linkReferences": {},
  "deployedLinkReferences": {}
}