{
  "_format": "hh-sol-artifact-1",
  "contractName": "Vault",
  "sourceName": "contracts/Vault.sol",
  "abi": [
    {
      "inputs": [
        {
          "internalType": "contract IERC20",
          "name": "_babydoge",
          "type": "address"
        },
        {
          "internalType": "uint256",
          "name": "_taxForNonBabyDogeCoin",
          "type": "uint256"
        }
      ],
      "stateMutability": "nonpayable",
      "type": "constructor"
    },
    {
      "anonymous": false,
      "inputs": [
        {
          "indexed": true,
          "internalType": "address",
          "name": "user",
          "type": "address"
        },
        {
          "indexed": true,
          "internalType": "uint256",
          "name": "pid",
          "type": "uint256"
        },
        {
          "indexed": false,
          "internalType": "uint256",
          "name": "amount",
          "type": "uint256"
        }
      ],
      "name": "Deposit",
      "type": "event"
    },
    {
      "anonymous": false,
      "inputs": [
        {
          "indexed": true,
          "internalType": "address",
          "name": "previousOwner",
          "type": "address"
        },
        {
          "indexed": true,
          "internalType": "address",
          "name": "newOwner",
          "type": "address"
        }
      ],
      "name": "OwnershipTransferred",
      "type": "event"
    },
    {
      "anonymous": false,
      "inputs": [
        {
          "indexed": true,
          "internalType": "address",
          "name": "user",
          "type": "address"
        },
        {
          "indexed": true,
          "internalType": "uint256",
          "name": "pid",
          "type": "uint256"
        },
        {
          "indexed": false,
          "internalType": "uint256",
          "name": "amount",
          "type": "uint256"
        }
      ],
      "name": "Withdraw",
      "type": "event"
    },
    {
      "inputs": [],
      "name": "babydoge",
      "outputs": [
        {
          "internalType": "contract IERC20",
          "name": "",
          "type": "address"
        }
      ],
      "stateMutability": "view",
      "type": "function"
    },
    {
      "inputs": [
        {
          "internalType": "uint256",
          "name": "_vid",
          "type": "uint256"
        },
        {
          "internalType": "address",
          "name": "_user",
          "type": "address"
        }
      ],
      "name": "calcRewardsUser",
      "outputs": [
        {
          "internalType": "uint256",
          "name": "",
          "type": "uint256"
        }
      ],
      "stateMutability": "view",
      "type": "function"
    },
    {
      "inputs": [
        {
          "internalType": "contract IERC20",
          "name": "_token",
          "type": "address"
        },
        {
          "internalType": "bool",
          "name": "_isLp",
          "type": "bool"
        },
        {
          "internalType": "uint256",
          "name": "_lockDays",
          "type": "uint256"
        },
        {
          "internalType": "uint256",
          "name": "_amount",
          "type": "uint256"
        }
      ],
      "name": "createVault",
      "outputs": [],
      "stateMutability": "nonpayable",
      "type": "function"
    },
    {
      "inputs": [
        {
          "internalType": "uint256",
          "name": "_vid",
          "type": "uint256"
        },
        {
          "internalType": "uint256",
          "name": "_lockDays",
          "type": "uint256"
        },
        {
          "internalType": "uint256",
          "name": "value",
          "type": "uint256"
        }
      ],
      "name": "deposit",
      "outputs": [
        {
          "internalType": "bool",
          "name": "",
          "type": "bool"
        }
      ],
      "stateMutability": "nonpayable",
      "type": "function"
    },
    {
      "inputs": [
        {
          "internalType": "uint256",
          "name": "_vid",
          "type": "uint256"
        },
        {
          "internalType": "address",
          "name": "_user",
          "type": "address"
        }
      ],
      "name": "getUserInfo",
      "outputs": [
        {
          "internalType": "uint256",
          "name": "",
          "type": "uint256"
        },
        {
          "internalType": "uint256",
          "name": "",
          "type": "uint256"
        },
        {
          "internalType": "uint256",
          "name": "",
          "type": "uint256"
        },
        {
          "internalType": "uint256",
          "name": "",
          "type": "uint256"
        },
        {
          "internalType": "uint256",
          "name": "",
          "type": "uint256"
        }
      ],
      "stateMutability": "view",
      "type": "function"
    },
    {
      "inputs": [
        {
          "internalType": "uint256",
          "name": "_vid",
          "type": "uint256"
        }
      ],
      "name": "getVault",
      "outputs": [
        {
          "internalType": "contract IERC20",
          "name": "",
          "type": "address"
        },
        {
          "internalType": "uint256",
          "name": "",
          "type": "uint256"
        },
        {
          "internalType": "uint256",
          "name": "",
          "type": "uint256"
        },
        {
          "internalType": "uint256",
          "name": "",
          "type": "uint256"
        },
        {
          "internalType": "uint256",
          "name": "",
          "type": "uint256"
        },
        {
          "internalType": "uint256",
          "name": "",
          "type": "uint256"
        }
      ],
      "stateMutability": "view",
      "type": "function"
    },
    {
      "inputs": [],
      "name": "owner",
      "outputs": [
        {
          "internalType": "address",
          "name": "",
          "type": "address"
        }
      ],
      "stateMutability": "view",
      "type": "function"
    },
    {
      "inputs": [],
      "name": "renounceOwnership",
      "outputs": [],
      "stateMutability": "nonpayable",
      "type": "function"
    },
    {
      "inputs": [],
      "name": "taxForNonBabyDogeCoin",
      "outputs": [
        {
          "internalType": "uint256",
          "name": "",
          "type": "uint256"
        }
      ],
      "stateMutability": "view",
      "type": "function"
    },
    {
      "inputs": [
        {
          "internalType": "uint256",
          "name": "",
          "type": "uint256"
        },
        {
          "internalType": "uint256",
          "name": "",
          "type": "uint256"
        }
      ],
      "name": "totalDay",
      "outputs": [
        {
          "internalType": "uint256",
          "name": "amount",
          "type": "uint256"
        },
        {
          "internalType": "uint256",
          "name": "weight",
          "type": "uint256"
        }
      ],
      "stateMutability": "view",
      "type": "function"
    },
    {
      "inputs": [
        {
          "internalType": "address",
          "name": "newOwner",
          "type": "address"
        }
      ],
      "name": "transferOwnership",
      "outputs": [],
      "stateMutability": "nonpayable",
      "type": "function"
    },
    {
      "inputs": [
        {
          "internalType": "uint256",
          "name": "",
          "type": "uint256"
        },
        {
          "internalType": "address",
          "name": "",
          "type": "address"
        }
      ],
      "name": "userInfo",
      "outputs": [
        {
          "internalType": "uint256",
          "name": "amount",
          "type": "uint256"
        },
        {
          "internalType": "uint256",
          "name": "weight",
          "type": "uint256"
        },
        {
          "internalType": "uint256",
          "name": "rewardDebt",
          "type": "uint256"
        },
        {
          "internalType": "uint256",
          "name": "rewardWithdraw",
          "type": "uint256"
        },
        {
          "internalType": "uint256",
          "name": "lockTime",
          "type": "uint256"
        },
        {
          "internalType": "uint256",
          "name": "lockDays",
          "type": "uint256"
        },
        {
          "internalType": "uint256",
          "name": "lastRewardDay",
          "type": "uint256"
        },
        {
          "internalType": "bool",
          "name": "exists",
          "type": "bool"
        }
      ],
      "stateMutability": "view",
      "type": "function"
    },
    {
      "inputs": [
        {
          "internalType": "uint256",
          "name": "",
          "type": "uint256"
        }
      ],
      "name": "vaultInfo",
      "outputs": [
        {
          "internalType": "contract IERC20",
          "name": "token",
          "type": "address"
        },
        {
          "internalType": "uint256",
          "name": "amountReward",
          "type": "uint256"
        },
        {
          "internalType": "uint256",
          "name": "vaultTokenTax",
          "type": "uint256"
        },
        {
          "internalType": "uint256",
          "name": "startVault",
          "type": "uint256"
        },
        {
          "internalType": "uint256",
          "name": "lockDays",
          "type": "uint256"
        },
        {
          "internalType": "uint256",
          "name": "userCount",
          "type": "uint256"
        },
        {
          "internalType": "uint256",
          "name": "usersAmount",
          "type": "uint256"
        },
        {
          "internalType": "uint256",
          "name": "usersWeight",
          "type": "uint256"
        },
        {
          "internalType": "bool",
          "name": "isLpVault",
          "type": "bool"
        },
        {
          "internalType": "bool",
          "name": "paused",
          "type": "bool"
        },
        {
          "internalType": "uint256",
          "name": "lastTotalDay",
          "type": "uint256"
        }
      ],
      "stateMutability": "view",
      "type": "function"
    },
    {
      "inputs": [
        {
          "internalType": "uint256",
          "name": "_vid",
          "type": "uint256"
        }
      ],
      "name": "withdraw",
      "outputs": [],
      "stateMutability": "nonpayable",
      "type": "function"
    },
    {
      "inputs": [
        {
          "internalType": "uint256",
          "name": "_vid",
          "type": "uint256"
        }
      ],
      "name": "withdrawTax",
      "outputs": [],
      "stateMutability": "nonpayable",
      "type": "function"
    }
  ],
  "bytecode": "0x60806040523480156200001157600080fd5b5060405162002d8e38038062002d8e8339818101604052810190620000379190620001a1565b620000576200004b620000a760201b60201c565b620000af60201b60201c565b81600260006101000a81548173ffffffffffffffffffffffffffffffffffffffff021916908373ffffffffffffffffffffffffffffffffffffffff16021790555080600181905550505062000268565b600033905090565b60008060009054906101000a900473ffffffffffffffffffffffffffffffffffffffff169050816000806101000a81548173ffffffffffffffffffffffffffffffffffffffff021916908373ffffffffffffffffffffffffffffffffffffffff1602179055508173ffffffffffffffffffffffffffffffffffffffff168173ffffffffffffffffffffffffffffffffffffffff167f8be0079c531659141344cd1fd0a4f28419497f9722a3daafe3b4186f6b6457e060405160405180910390a35050565b600081519050620001848162000234565b92915050565b6000815190506200019b816200024e565b92915050565b60008060408385031215620001b557600080fd5b6000620001c58582860162000173565b9250506020620001d8858286016200018a565b9150509250929050565b6000620001ef826200020a565b9050919050565b60006200020382620001e2565b9050919050565b600073ffffffffffffffffffffffffffffffffffffffff82169050919050565b6000819050919050565b6200023f81620001f6565b81146200024b57600080fd5b50565b62000259816200022a565b81146200026557600080fd5b50565b612b1680620002786000396000f3fe608060405234801561001057600080fd5b50600436106100f45760003560e01c80638f7ed4b311610097578063c06487f311610066578063c06487f3146102b2578063e85c7442146102ce578063f22fcf36146102fe578063f2fde38b1461031c576100f4565b80638f7ed4b3146101ee578063929060d81461020c57806393f1a40b146102465780639403b6341461027d576100f4565b8063249ae3e2116100d3578063249ae3e21461018e5780632e1a7d4d146101aa578063715018a6146101c65780638da5cb5b146101d0576100f4565b8062aeef8a146100f957806302525222146101295780631069f3b51461015a575b600080fd5b610113600480360381019061010e9190612119565b610338565b60405161012091906124eb565b60405180910390f35b610143600480360381019061013e91906120dd565b61079d565b604051610151929190612788565b60405180910390f35b610174600480360381019061016f91906120a1565b6107ce565b6040516101859594939291906127b1565b60405180910390f35b6101a860048036038101906101a3919061204f565b6108c4565b005b6101c460048036038101906101bf919061204f565b610aa3565b005b6101ce610de0565b005b6101d8610e68565b6040516101e59190612470565b60405180910390f35b6101f6610e91565b604051610203919061276d565b60405180910390f35b6102266004803603810190610221919061204f565b610e97565b60405161023d9b9a99989796959493929190612582565b60405180910390f35b610260600480360381019061025b91906120a1565b610f3b565b604051610274989796959493929190612804565b60405180910390f35b6102976004803603810190610292919061204f565b610f9d565b6040516102a996959493929190612521565b60405180910390f35b6102cc60048036038101906102c79190611fec565b611112565b005b6102e860048036038101906102e391906120a1565b6114fd565b6040516102f5919061276d565b60405180910390f35b610306611847565b6040516103139190612506565b60405180910390f35b61033660048036038101906103319190611f9a565b61186d565b005b600080821161037c576040517f08c379a00000000000000000000000000000000000000000000000000000000081526004016103739061272d565b60405180910390fd5b6000600585815481106103b8577f4e487b7100000000000000000000000000000000000000000000000000000000600052603260045260246000fd5b90600052602060002090600a0201905060006103d386611965565b9050600015158260080160019054906101000a900460ff1615151461042d576040517f08c379a0000000000000000000000000000000000000000000000000000000008152600401610424906126cd565b60405180910390fd5b8160030154421015610474576040517f08c379a000000000000000000000000000000000000000000000000000000000815260040161046b9061264d565b60405180910390fd5b804211156104b7576040517f08c379a00000000000000000000000000000000000000000000000000000000081526004016104ae9061262d565b60405180910390fd5b8160000160009054906101000a900473ffffffffffffffffffffffffffffffffffffffff1673ffffffffffffffffffffffffffffffffffffffff166323b872dd3330876040518463ffffffff1660e01b81526004016105189392919061248b565b602060405180830381600087803b15801561053257600080fd5b505af1158015610546573d6000803e3d6000fd5b505050506040513d601f19601f8201168201806040525081019061056a9190611fc3565b61057357600080fd5b600061057d611ae0565b905060006003600089815260200190815260200160002060003373ffffffffffffffffffffffffffffffffffffffff1673ffffffffffffffffffffffffffffffffffffffff168152602001908152602001600020905060008160070160009054906101000a900460ff166106e25760018260070160006101000a81548160ff0219169083151502179055506000610640603c8060188c61061d919061291a565b610627919061291a565b610631919061291a565b42611afd90919063ffffffff16565b905084811161064f5780610651565b845b905080836004018190555088836005018190555083836006018190555060018660050160008282546106839190612893565b925050819055506106d1633b9aca006106c388600401546106b5633b9aca008860050154611b1390919063ffffffff16565b611b2990919063ffffffff16565b611afd90919063ffffffff16565b9150818360010181905550506106e7565b600090505b868260000160008282546106fb9190612893565b9250508190555061070b89611b3f565b828560090181905550868560060160008282546107289190612893565b92505081905550808560070160008282546107439190612893565b925050819055506000600460008b8152602001908152602001600020600085815260200190815260200160002090508560060154816000018190555085600701548160010181905550600196505050505050509392505050565b6004602052816000526040600020602052806000526040600020600091509150508060000154908060010154905082565b6000806000806000806003600089815260200190815260200160002060008873ffffffffffffffffffffffffffffffffffffffff1673ffffffffffffffffffffffffffffffffffffffff16815260200190815260200160002060405180610100016040529081600082015481526020016001820154815260200160028201548152602001600382015481526020016004820154815260200160058201548152602001600682015481526020016007820160009054906101000a900460ff16151515158152505090508060000151816020015182604001518360600151846080015195509550955095509550509295509295909350565b6108cc611d6b565b73ffffffffffffffffffffffffffffffffffffffff166108ea610e68565b73ffffffffffffffffffffffffffffffffffffffff1614610940576040517f08c379a0000000000000000000000000000000000000000000000000000000008152600401610937906126ed565b60405180910390fd5b60006005828154811061097c577f4e487b7100000000000000000000000000000000000000000000000000000000600052603260045260246000fd5b90600052602060002090600a02019050600081600201541115610a9f578060000160009054906101000a900473ffffffffffffffffffffffffffffffffffffffff1673ffffffffffffffffffffffffffffffffffffffff1663a9059cbb6109e1610e68565b83600201546040518363ffffffff1660e01b8152600401610a039291906124c2565b602060405180830381600087803b158015610a1d57600080fd5b505af1158015610a31573d6000803e3d6000fd5b505050506040513d601f19601f82011682018060405250810190610a559190611fc3565b610a94576040517f08c379a0000000000000000000000000000000000000000000000000000000008152600401610a8b906126ad565b60405180910390fd5b600081600201819055505b5050565b600060058281548110610adf577f4e487b7100000000000000000000000000000000000000000000000000000000600052603260045260246000fd5b90600052602060002090600a02019050600015158160080160019054906101000a900460ff16151514610b47576040517f08c379a0000000000000000000000000000000000000000000000000000000008152600401610b3e906126cd565b60405180910390fd5b60006003600084815260200190815260200160002060003373ffffffffffffffffffffffffffffffffffffffff1673ffffffffffffffffffffffffffffffffffffffff16815260200190815260200160002090504281600401541115610be2576040517f08c379a0000000000000000000000000000000000000000000000000000000008152600401610bd99061274d565b60405180910390fd5b610beb83611b3f565b6000610bf5611ae0565b90506000610c0385336114fd565b905081836006018190555080836002016000828254610c229190612893565b925050819055506000818460000154610c3b9190612893565b90508460000160009054906101000a900473ffffffffffffffffffffffffffffffffffffffff1673ffffffffffffffffffffffffffffffffffffffff1663a9059cbb33836040518363ffffffff1660e01b8152600401610c9c9291906124c2565b602060405180830381600087803b158015610cb657600080fd5b505af1158015610cca573d6000803e3d6000fd5b505050506040513d601f19601f82011682018060405250810190610cee9190611fc3565b610cf757600080fd5b81846003018190555060008460070160006101000a81548160ff02191690831515021790555060018560050154610d2e9190612974565b85600501819055508360000154856006016000828254610d4e9190612974565b925050819055508360010154856007016000828254610d6d9190612974565b9250508190555083600601548560090181905550600060046000888152602001908152602001600020600085815260200190815260200160002090508560060154816000018190555085600701548160010181905550600085600001819055506000856001018190555050505050505050565b610de8611d6b565b73ffffffffffffffffffffffffffffffffffffffff16610e06610e68565b73ffffffffffffffffffffffffffffffffffffffff1614610e5c576040517f08c379a0000000000000000000000000000000000000000000000000000000008152600401610e53906126ed565b60405180910390fd5b610e666000611d73565b565b60008060009054906101000a900473ffffffffffffffffffffffffffffffffffffffff16905090565b60015481565b60058181548110610ea757600080fd5b90600052602060002090600a02016000915090508060000160009054906101000a900473ffffffffffffffffffffffffffffffffffffffff16908060010154908060020154908060030154908060040154908060050154908060060154908060070154908060080160009054906101000a900460ff16908060080160019054906101000a900460ff1690806009015490508b565b6003602052816000526040600020602052806000526040600020600091509150508060000154908060010154908060020154908060030154908060040154908060050154908060060154908060070160009054906101000a900460ff16905088565b600080600080600080600060058881548110610fe2577f4e487b7100000000000000000000000000000000000000000000000000000000600052603260045260246000fd5b90600052602060002090600a0201604051806101600160405290816000820160009054906101000a900473ffffffffffffffffffffffffffffffffffffffff1673ffffffffffffffffffffffffffffffffffffffff1673ffffffffffffffffffffffffffffffffffffffff168152602001600182015481526020016002820154815260200160038201548152602001600482015481526020016005820154815260200160068201548152602001600782015481526020016008820160009054906101000a900460ff161515151581526020016008820160019054906101000a900460ff161515151581526020016009820154815250509050806000015181602001518260400151836080015184606001516110fc8d611965565b9650965096509650965096505091939550919395565b808473ffffffffffffffffffffffffffffffffffffffff166370a08231336040518263ffffffff1660e01b815260040161114c9190612470565b60206040518083038186803b15801561116457600080fd5b505afa158015611178573d6000803e3d6000fd5b505050506040513d601f19601f8201168201806040525081019061119c9190612078565b10156111dd576040517f08c379a00000000000000000000000000000000000000000000000000000000081526004016111d49061268d565b60405180910390fd5b60006111e885611e37565b6111f25760015490505b60008160646112019190612974565b60648461120e91906128e9565b611218919061291a565b905060008260648561122a91906128e9565b611234919061291a565b905060056040518061016001604052808973ffffffffffffffffffffffffffffffffffffffff16815260200184815260200183815260200142815260200187815260200160008152602001600081526020016000815260200188151581526020016000151581526020016112c760016112b96201518042611b2990919063ffffffff16565b611e9190919063ffffffff16565b81525090806001815401808255809150506001900390600052602060002090600a020160009091909190915060008201518160000160006101000a81548173ffffffffffffffffffffffffffffffffffffffff021916908373ffffffffffffffffffffffffffffffffffffffff1602179055506020820151816001015560408201518160020155606082015181600301556080820151816004015560a0820151816005015560c0820151816006015560e082015181600701556101008201518160080160006101000a81548160ff0219169083151502179055506101208201518160080160016101000a81548160ff02191690831515021790555061014082015181600901555050600060016005805490506113e39190612974565b905060006113ef611ae0565b905060006004600084815260200190815260200160002060008381526020019081526020016000209050600081600001819055508973ffffffffffffffffffffffffffffffffffffffff166323b872dd33308a6040518463ffffffff1660e01b81526004016114609392919061248b565b602060405180830381600087803b15801561147a57600080fd5b505af115801561148e573d6000803e3d6000fd5b505050506040513d601f19601f820116820180604052508101906114b29190611fc3565b6114f1576040517f08c379a00000000000000000000000000000000000000000000000000000000081526004016114e89061270d565b60405180910390fd5b50505050505050505050565b6000806003600085815260200190815260200160002060008473ffffffffffffffffffffffffffffffffffffffff1673ffffffffffffffffffffffffffffffffffffffff16815260200190815260200160002060405180610100016040529081600082015481526020016001820154815260200160028201548152602001600382015481526020016004820154815260200160058201548152602001600682015481526020016007820160009054906101000a900460ff16151515158152505090506000600585815481106115fb577f4e487b7100000000000000000000000000000000000000000000000000000000600052603260045260246000fd5b90600052602060002090600a0201604051806101600160405290816000820160009054906101000a900473ffffffffffffffffffffffffffffffffffffffff1673ffffffffffffffffffffffffffffffffffffffff1673ffffffffffffffffffffffffffffffffffffffff168152602001600182015481526020016002820154815260200160038201548152602001600482015481526020016005820154815260200160068201548152602001600782015481526020016008820160009054906101000a900460ff161515151581526020016008820160019054906101000a900460ff16151515158152602001600982015481525050905060006116fe86611ea7565b905060008061171e84608001518560200151611b2990919063ffffffff16565b90506000808660200151905060008760c0015190505b858111611836576000600460008d81526020019081526020016000206000838152602001908152602001600020604051806040016040529081600082015481526020016001820154815250509050600081602001511115611821576117aa81602001518260000151611b2990919063ffffffff16565b9350611813633b9aca006118056117f684600001516117e8633b9aca006117da8a8c611b1390919063ffffffff16565b611b1390919063ffffffff16565b611b2990919063ffffffff16565b88611b1390919063ffffffff16565b611b2990919063ffffffff16565b8661181e9190612893565b95505b5060018161182f9190612893565b9050611734565b508397505050505050505092915050565b600260009054906101000a900473ffffffffffffffffffffffffffffffffffffffff1681565b611875611d6b565b73ffffffffffffffffffffffffffffffffffffffff16611893610e68565b73ffffffffffffffffffffffffffffffffffffffff16146118e9576040517f08c379a00000000000000000000000000000000000000000000000000000000081526004016118e0906126ed565b60405180910390fd5b600073ffffffffffffffffffffffffffffffffffffffff168173ffffffffffffffffffffffffffffffffffffffff161415611959576040517f08c379a00000000000000000000000000000000000000000000000000000000081526004016119509061266d565b60405180910390fd5b61196281611d73565b50565b600080600583815481106119a2577f4e487b7100000000000000000000000000000000000000000000000000000000600052603260045260246000fd5b90600052602060002090600a0201604051806101600160405290816000820160009054906101000a900473ffffffffffffffffffffffffffffffffffffffff1673ffffffffffffffffffffffffffffffffffffffff1673ffffffffffffffffffffffffffffffffffffffff168152602001600182015481526020016002820154815260200160038201548152602001600482015481526020016005820154815260200160068201548152602001600782015481526020016008820160009054906101000a900460ff161515151581526020016008820160019054906101000a900460ff161515151581526020016009820154815250509050611ad8603c8060188460800151611ab1919061291a565b611abb919061291a565b611ac5919061291a565b8260600151611afd90919063ffffffff16565b915050919050565b6000611af86201518042611b2990919063ffffffff16565b905090565b60008183611b0b9190612893565b905092915050565b60008183611b21919061291a565b905092915050565b60008183611b3791906128e9565b905092915050565b600060058281548110611b7b577f4e487b7100000000000000000000000000000000000000000000000000000000600052603260045260246000fd5b90600052602060002090600a0201604051806101600160405290816000820160009054906101000a900473ffffffffffffffffffffffffffffffffffffffff1673ffffffffffffffffffffffffffffffffffffffff1673ffffffffffffffffffffffffffffffffffffffff168152602001600182015481526020016002820154815260200160038201548152602001600482015481526020016005820154815260200160068201548152602001600782015481526020016008820160009054906101000a900460ff161515151581526020016008820160019054906101000a900460ff1615151515815260200160098201548152505090506000611c7e83611ea7565b90506000611c8a611ae0565b90508183610140015110611ca057505050611d68565b6000600460008681526020019081526020016000206000856101400151815260200190815260200160002060405180604001604052908160008201548152602001600182015481525050905060006001856101400151611d009190612893565b90505b82811015611d625760006004600088815260200190815260200160002060008381526020019081526020016000209050826000015181600001819055508260200151816001018190555050600181611d5b9190612893565b9050611d03565b50505050505b50565b600033905090565b60008060009054906101000a900473ffffffffffffffffffffffffffffffffffffffff169050816000806101000a81548173ffffffffffffffffffffffffffffffffffffffff021916908373ffffffffffffffffffffffffffffffffffffffff1602179055508173ffffffffffffffffffffffffffffffffffffffff168173ffffffffffffffffffffffffffffffffffffffff167f8be0079c531659141344cd1fd0a4f28419497f9722a3daafe3b4186f6b6457e060405160405180910390a35050565b6000600260009054906101000a900473ffffffffffffffffffffffffffffffffffffffff1673ffffffffffffffffffffffffffffffffffffffff168273ffffffffffffffffffffffffffffffffffffffff16149050919050565b60008183611e9f9190612974565b905092915050565b600080611eb383611965565b9050804211611eea57611ee56001611ed76201518042611b2990919063ffffffff16565b611e9190919063ffffffff16565b611f14565b611f136001611f056201518084611b2990919063ffffffff16565b611e9190919063ffffffff16565b5b915050919050565b600081359050611f2b81612a84565b92915050565b600081359050611f4081612a9b565b92915050565b600081519050611f5581612a9b565b92915050565b600081359050611f6a81612ab2565b92915050565b600081359050611f7f81612ac9565b92915050565b600081519050611f9481612ac9565b92915050565b600060208284031215611fac57600080fd5b6000611fba84828501611f1c565b91505092915050565b600060208284031215611fd557600080fd5b6000611fe384828501611f46565b91505092915050565b6000806000806080858703121561200257600080fd5b600061201087828801611f5b565b945050602061202187828801611f31565b935050604061203287828801611f70565b925050606061204387828801611f70565b91505092959194509250565b60006020828403121561206157600080fd5b600061206f84828501611f70565b91505092915050565b60006020828403121561208a57600080fd5b600061209884828501611f85565b91505092915050565b600080604083850312156120b457600080fd5b60006120c285828601611f70565b92505060206120d385828601611f1c565b9150509250929050565b600080604083850312156120f057600080fd5b60006120fe85828601611f70565b925050602061210f85828601611f70565b9150509250929050565b60008060006060848603121561212e57600080fd5b600061213c86828701611f70565b935050602061214d86828701611f70565b925050604061215e86828701611f70565b9150509250925092565b612171816129a8565b82525050565b612180816129ba565b82525050565b61218f81612a02565b82525050565b60006121a2600e83612882565b91507f5661756c742066696e69636865640000000000000000000000000000000000006000830152602082019050919050565b60006121e2601183612882565b91507f5661756c74206e6f7420737461727465640000000000000000000000000000006000830152602082019050919050565b6000612222602683612882565b91507f4f776e61626c653a206e6577206f776e657220697320746865207a65726f206160008301527f64647265737300000000000000000000000000000000000000000000000000006020830152604082019050919050565b6000612288601283612882565b91507f5573657220686173206e6f20746f6b656e7300000000000000000000000000006000830152602082019050919050565b60006122c8601b83612882565b91507f43616e2774207472616e736665722074617820746f206f776e657200000000006000830152602082019050919050565b6000612308600c83612882565b91507f5661756c742070617573656400000000000000000000000000000000000000006000830152602082019050919050565b6000612348602083612882565b91507f4f776e61626c653a2063616c6c6572206973206e6f7420746865206f776e65726000830152602082019050919050565b6000612388601683612882565b91507f43616e2774207472616e7366657220746f6b656e732e000000000000000000006000830152602082019050919050565b60006123c8602183612882565b91507f4465706f736974206d7573742062652067726561746572207468616e207a657260008301527f6f000000000000000000000000000000000000000000000000000000000000006020830152604082019050919050565b600061242e601183612882565b91507f5573657220696e206c6f636b2074696d650000000000000000000000000000006000830152602082019050919050565b61246a816129f8565b82525050565b60006020820190506124856000830184612168565b92915050565b60006060820190506124a06000830186612168565b6124ad6020830185612168565b6124ba6040830184612461565b949350505050565b60006040820190506124d76000830185612168565b6124e46020830184612461565b9392505050565b60006020820190506125006000830184612177565b92915050565b600060208201905061251b6000830184612186565b92915050565b600060c0820190506125366000830189612186565b6125436020830188612461565b6125506040830187612461565b61255d6060830186612461565b61256a6080830185612461565b61257760a0830184612461565b979650505050505050565b600061016082019050612598600083018e612186565b6125a5602083018d612461565b6125b2604083018c612461565b6125bf606083018b612461565b6125cc608083018a612461565b6125d960a0830189612461565b6125e660c0830188612461565b6125f360e0830187612461565b612601610100830186612177565b61260f610120830185612177565b61261d610140830184612461565b9c9b505050505050505050505050565b6000602082019050818103600083015261264681612195565b9050919050565b60006020820190508181036000830152612666816121d5565b9050919050565b6000602082019050818103600083015261268681612215565b9050919050565b600060208201905081810360008301526126a68161227b565b9050919050565b600060208201905081810360008301526126c6816122bb565b9050919050565b600060208201905081810360008301526126e6816122fb565b9050919050565b600060208201905081810360008301526127068161233b565b9050919050565b600060208201905081810360008301526127268161237b565b9050919050565b60006020820190508181036000830152612746816123bb565b9050919050565b6000602082019050818103600083015261276681612421565b9050919050565b60006020820190506127826000830184612461565b92915050565b600060408201905061279d6000830185612461565b6127aa6020830184612461565b9392505050565b600060a0820190506127c66000830188612461565b6127d36020830187612461565b6127e06040830186612461565b6127ed6060830185612461565b6127fa6080830184612461565b9695505050505050565b60006101008201905061281a600083018b612461565b612827602083018a612461565b6128346040830189612461565b6128416060830188612461565b61284e6080830187612461565b61285b60a0830186612461565b61286860c0830185612461565b61287560e0830184612177565b9998505050505050505050565b600082825260208201905092915050565b600061289e826129f8565b91506128a9836129f8565b9250827fffffffffffffffffffffffffffffffffffffffffffffffffffffffffffffffff038211156128de576128dd612a26565b5b828201905092915050565b60006128f4826129f8565b91506128ff836129f8565b92508261290f5761290e612a55565b5b828204905092915050565b6000612925826129f8565b9150612930836129f8565b9250817fffffffffffffffffffffffffffffffffffffffffffffffffffffffffffffffff048311821515161561296957612968612a26565b5b828202905092915050565b600061297f826129f8565b915061298a836129f8565b92508282101561299d5761299c612a26565b5b828203905092915050565b60006129b3826129d8565b9050919050565b60008115159050919050565b60006129d1826129a8565b9050919050565b600073ffffffffffffffffffffffffffffffffffffffff82169050919050565b6000819050919050565b6000612a0d82612a14565b9050919050565b6000612a1f826129d8565b9050919050565b7f4e487b7100000000000000000000000000000000000000000000000000000000600052601160045260246000fd5b7f4e487b7100000000000000000000000000000000000000000000000000000000600052601260045260246000fd5b612a8d816129a8565b8114612a9857600080fd5b50565b612aa4816129ba565b8114612aaf57600080fd5b50565b612abb816129c6565b8114612ac657600080fd5b50565b612ad2816129f8565b8114612add57600080fd5b5056fea2646970667358221220a102903e03135a54a3209102b701b77b1a8d085896a40bebf8d72b5513cf131964736f6c63430008000033",
  "linkReferences": {},
  "deployedLinkReferences": {}
}