{
  "_format": "hh-sol-artifact-1",
  "contractName": "Vault",
  "sourceName": "contracts/Vault.sol",
  "abi": [
    {
      "inputs": [
        {
          "internalType": "contract IERC20",
          "name": "_babydoge",
          "type": "address"
        },
        {
          "internalType": "uint256",
          "name": "_taxForNonBabyDogeCoin",
          "type": "uint256"
        }
      ],
      "stateMutability": "nonpayable",
      "type": "constructor"
    },
    {
      "anonymous": false,
      "inputs": [
        {
          "indexed": true,
          "internalType": "address",
          "name": "user",
          "type": "address"
        },
        {
          "indexed": true,
          "internalType": "uint256",
          "name": "pid",
          "type": "uint256"
        },
        {
          "indexed": false,
          "internalType": "uint256",
          "name": "amount",
          "type": "uint256"
        }
      ],
      "name": "Deposit",
      "type": "event"
    },
    {
      "anonymous": false,
      "inputs": [
        {
          "indexed": true,
          "internalType": "address",
          "name": "previousOwner",
          "type": "address"
        },
        {
          "indexed": true,
          "internalType": "address",
          "name": "newOwner",
          "type": "address"
        }
      ],
      "name": "OwnershipTransferred",
      "type": "event"
    },
    {
      "anonymous": false,
      "inputs": [
        {
          "indexed": true,
          "internalType": "address",
          "name": "user",
          "type": "address"
        },
        {
          "indexed": true,
          "internalType": "uint256",
          "name": "pid",
          "type": "uint256"
        },
        {
          "indexed": false,
          "internalType": "uint256",
          "name": "amount",
          "type": "uint256"
        }
      ],
      "name": "Withdraw",
      "type": "event"
    },
    {
      "inputs": [],
      "name": "babydoge",
      "outputs": [
        {
          "internalType": "contract IERC20",
          "name": "",
          "type": "address"
        }
      ],
      "stateMutability": "view",
      "type": "function"
    },
    {
      "inputs": [
        {
          "internalType": "uint256",
          "name": "_vid",
          "type": "uint256"
        },
        {
          "internalType": "address",
          "name": "_user",
          "type": "address"
        }
      ],
      "name": "calcRewardsUser",
      "outputs": [
        {
          "internalType": "uint256",
          "name": "",
          "type": "uint256"
        }
      ],
      "stateMutability": "view",
      "type": "function"
    },
    {
      "inputs": [
        {
          "internalType": "uint256",
          "name": "_vid",
          "type": "uint256"
        }
      ],
      "name": "claimRewards",
      "outputs": [],
      "stateMutability": "nonpayable",
      "type": "function"
    },
    {
      "inputs": [
        {
          "internalType": "contract IERC20",
          "name": "_tokenStake",
          "type": "address"
        },
        {
          "internalType": "contract IERC20",
          "name": "_tokenReward",
          "type": "address"
        },
        {
          "internalType": "bool",
          "name": "_isLp",
          "type": "bool"
        },
        {
          "internalType": "uint256",
          "name": "_vaultDays",
          "type": "uint256"
        },
        {
          "internalType": "uint256",
          "name": "_minLockDays",
          "type": "uint256"
        },
        {
          "internalType": "uint256",
          "name": "_amount",
          "type": "uint256"
        }
      ],
      "name": "createVault",
      "outputs": [
        {
          "internalType": "uint256",
          "name": "",
          "type": "uint256"
        }
      ],
      "stateMutability": "nonpayable",
      "type": "function"
    },
    {
      "inputs": [
        {
          "internalType": "uint256",
          "name": "_vid",
          "type": "uint256"
        },
        {
          "internalType": "uint256",
          "name": "_lockDays",
          "type": "uint256"
        },
        {
          "internalType": "uint256",
          "name": "value",
          "type": "uint256"
        }
      ],
      "name": "deposit",
      "outputs": [
        {
          "internalType": "bool",
          "name": "",
          "type": "bool"
        }
      ],
      "stateMutability": "nonpayable",
      "type": "function"
    },
    {
      "inputs": [
        {
          "internalType": "uint256",
          "name": "_vid",
          "type": "uint256"
        },
        {
          "internalType": "address",
          "name": "_user",
          "type": "address"
        }
      ],
      "name": "getUserInfo",
      "outputs": [
        {
          "internalType": "uint256",
          "name": "",
          "type": "uint256"
        },
        {
          "internalType": "uint256",
          "name": "",
          "type": "uint256"
        },
        {
          "internalType": "uint256",
          "name": "",
          "type": "uint256"
        },
        {
          "internalType": "uint256",
          "name": "",
          "type": "uint256"
        },
        {
          "internalType": "uint256",
          "name": "",
          "type": "uint256"
        }
      ],
      "stateMutability": "view",
      "type": "function"
    },
    {
      "inputs": [
        {
          "internalType": "uint256",
          "name": "_vid",
          "type": "uint256"
        }
      ],
      "name": "getVaultInfo",
      "outputs": [
        {
          "internalType": "uint256",
          "name": "",
          "type": "uint256"
        },
        {
          "internalType": "uint256",
          "name": "",
          "type": "uint256"
        },
        {
          "internalType": "uint256",
          "name": "",
          "type": "uint256"
        },
        {
          "internalType": "uint256",
          "name": "",
          "type": "uint256"
        },
        {
          "internalType": "uint256",
          "name": "",
          "type": "uint256"
        },
        {
          "internalType": "uint256",
          "name": "",
          "type": "uint256"
        }
      ],
      "stateMutability": "view",
      "type": "function"
    },
    {
      "inputs": [
        {
          "internalType": "uint256",
          "name": "_vid",
          "type": "uint256"
        }
      ],
      "name": "getVaultToken",
      "outputs": [
        {
          "internalType": "contract IERC20",
          "name": "",
          "type": "address"
        },
        {
          "internalType": "contract IERC20",
          "name": "",
          "type": "address"
        }
      ],
      "stateMutability": "view",
      "type": "function"
    },
    {
      "inputs": [],
      "name": "owner",
      "outputs": [
        {
          "internalType": "address",
          "name": "",
          "type": "address"
        }
      ],
      "stateMutability": "view",
      "type": "function"
    },
    {
      "inputs": [],
      "name": "renounceOwnership",
      "outputs": [],
      "stateMutability": "nonpayable",
      "type": "function"
    },
    {
      "inputs": [],
      "name": "taxForNonBabyDogeCoin",
      "outputs": [
        {
          "internalType": "uint256",
          "name": "",
          "type": "uint256"
        }
      ],
      "stateMutability": "view",
      "type": "function"
    },
    {
      "inputs": [
        {
          "internalType": "uint256",
          "name": "",
          "type": "uint256"
        },
        {
          "internalType": "uint256",
          "name": "",
          "type": "uint256"
        }
      ],
      "name": "totalDay",
      "outputs": [
        {
          "internalType": "uint256",
          "name": "amount",
          "type": "uint256"
        },
        {
          "internalType": "uint256",
          "name": "weight",
          "type": "uint256"
        }
      ],
      "stateMutability": "view",
      "type": "function"
    },
    {
      "inputs": [
        {
          "internalType": "address",
          "name": "newOwner",
          "type": "address"
        }
      ],
      "name": "transferOwnership",
      "outputs": [],
      "stateMutability": "nonpayable",
      "type": "function"
    },
    {
      "inputs": [
        {
          "internalType": "uint256",
          "name": "",
          "type": "uint256"
        },
        {
          "internalType": "address",
          "name": "",
          "type": "address"
        }
      ],
      "name": "userInfo",
      "outputs": [
        {
          "internalType": "uint256",
          "name": "amount",
          "type": "uint256"
        },
        {
          "internalType": "uint256",
          "name": "weight",
          "type": "uint256"
        },
        {
          "internalType": "uint256",
          "name": "rewardTotal",
          "type": "uint256"
        },
        {
          "internalType": "uint256",
          "name": "rewardWithdraw",
          "type": "uint256"
        },
        {
          "internalType": "uint256",
          "name": "lockTime",
          "type": "uint256"
        },
        {
          "internalType": "uint256",
          "name": "lockDays",
          "type": "uint256"
        },
        {
          "internalType": "uint256",
          "name": "lastRewardDay",
          "type": "uint256"
        },
        {
          "internalType": "bool",
          "name": "exists",
          "type": "bool"
        }
      ],
      "stateMutability": "view",
      "type": "function"
    },
    {
      "inputs": [
        {
          "internalType": "uint256",
          "name": "",
          "type": "uint256"
        }
      ],
      "name": "vaultInfo",
      "outputs": [
        {
          "internalType": "uint256",
          "name": "amountReward",
          "type": "uint256"
        },
        {
          "internalType": "uint256",
          "name": "vaultTokenTax",
          "type": "uint256"
        },
        {
          "internalType": "uint256",
          "name": "startVault",
          "type": "uint256"
        },
        {
          "internalType": "uint256",
          "name": "vaultDays",
          "type": "uint256"
        },
        {
          "internalType": "uint256",
          "name": "minLockDays",
          "type": "uint256"
        },
        {
          "internalType": "uint256",
          "name": "userCount",
          "type": "uint256"
        },
        {
          "internalType": "uint256",
          "name": "usersAmount",
          "type": "uint256"
        },
        {
          "internalType": "uint256",
          "name": "usersWeight",
          "type": "uint256"
        },
        {
          "internalType": "bool",
          "name": "isLpVault",
          "type": "bool"
        },
        {
          "internalType": "bool",
          "name": "paused",
          "type": "bool"
        },
        {
          "internalType": "uint256",
          "name": "lastTotalDay",
          "type": "uint256"
        }
      ],
      "stateMutability": "view",
      "type": "function"
    },
    {
      "inputs": [
        {
          "internalType": "uint256",
          "name": "",
          "type": "uint256"
        }
      ],
      "name": "vaultToken",
      "outputs": [
        {
          "internalType": "contract IERC20",
          "name": "tokenStake",
          "type": "address"
        },
        {
          "internalType": "contract IERC20",
          "name": "tokenReward",
          "type": "address"
        },
        {
          "internalType": "address",
          "name": "vaultCreator",
          "type": "address"
        }
      ],
      "stateMutability": "view",
      "type": "function"
    },
    {
      "inputs": [
        {
          "internalType": "uint256",
          "name": "_vid",
          "type": "uint256"
        }
      ],
      "name": "withdraw",
      "outputs": [],
      "stateMutability": "nonpayable",
      "type": "function"
    },
    {
      "inputs": [
        {
          "internalType": "uint256",
          "name": "_vid",
          "type": "uint256"
        }
      ],
      "name": "withdrawTax",
      "outputs": [],
      "stateMutability": "nonpayable",
      "type": "function"
    }
  ],
  "bytecode": "0x60806040523480156200001157600080fd5b5060405162003c8038038062003c808339818101604052810190620000379190620001a1565b620000576200004b620000a760201b60201c565b620000af60201b60201c565b81600260006101000a81548173ffffffffffffffffffffffffffffffffffffffff021916908373ffffffffffffffffffffffffffffffffffffffff16021790555080600181905550505062000268565b600033905090565b60008060009054906101000a900473ffffffffffffffffffffffffffffffffffffffff169050816000806101000a81548173ffffffffffffffffffffffffffffffffffffffff021916908373ffffffffffffffffffffffffffffffffffffffff1602179055508173ffffffffffffffffffffffffffffffffffffffff168173ffffffffffffffffffffffffffffffffffffffff167f8be0079c531659141344cd1fd0a4f28419497f9722a3daafe3b4186f6b6457e060405160405180910390a35050565b600081519050620001848162000234565b92915050565b6000815190506200019b816200024e565b92915050565b60008060408385031215620001b557600080fd5b6000620001c58582860162000173565b9250506020620001d8858286016200018a565b9150509250929050565b6000620001ef826200020a565b9050919050565b60006200020382620001e2565b9050919050565b600073ffffffffffffffffffffffffffffffffffffffff82169050919050565b6000819050919050565b6200023f81620001f6565b81146200024b57600080fd5b50565b62000259816200022a565b81146200026557600080fd5b50565b613a0880620002786000396000f3fe608060405234801561001057600080fd5b50600436106101155760003560e01c80638da5cb5b116100a2578063b1ba962011610071578063b1ba96201461031b578063bced618114610350578063e85c744214610382578063f22fcf36146103b2578063f2fde38b146103d057610115565b80638da5cb5b1461026e5780638f7ed4b31461028c578063929060d8146102aa57806393f1a40b146102e457610115565b80631069f3b5116100e95780631069f3b5146101c8578063249ae3e2146101fc5780632e1a7d4d14610218578063390be65f14610234578063715018a61461026457610115565b8062aeef8a1461011a578063025252221461014a57806308ee8d6a1461017b5780630962ef79146101ac575b600080fd5b610134600480360381019061012f9190612d7f565b6103ec565b60405161014191906132dd565b60405180910390f35b610164600480360381019061015f9190612d43565b6109d2565b60405161017292919061356e565b60405180910390f35b61019560048036038101906101909190612cb5565b610a03565b6040516101a3929190613313565b60405180910390f35b6101c660048036038101906101c19190612cb5565b610b73565b005b6101e260048036038101906101dd9190612d07565b610fbb565b6040516101f3959493929190613597565b60405180910390f35b61021660048036038101906102119190612cb5565b6110b1565b005b610232600480360381019061022d9190612cb5565b611403565b005b61024e60048036038101906102499190612c2c565b611935565b60405161025b9190613553565b60405180910390f35b61026c611ec1565b005b610276611f49565b6040516102839190613262565b60405180910390f35b610294611f72565b6040516102a19190613553565b60405180910390f35b6102c460048036038101906102bf9190612cb5565b611f78565b6040516102db9b9a999897969594939291906136c9565b60405180910390f35b6102fe60048036038101906102f99190612d07565b611ffc565b60405161031298979695949392919061364b565b60405180910390f35b61033560048036038101906103309190612cb5565b61205e565b604051610347969594939291906135ea565b60405180910390f35b61036a60048036038101906103659190612cb5565b612187565b6040516103799392919061333c565b60405180910390f35b61039c60048036038101906103979190612d07565b612221565b6040516103a99190613553565b60405180910390f35b6103ba61251f565b6040516103c791906132f8565b60405180910390f35b6103ea60048036038101906103e59190612bda565b612545565b005b6000808211610430576040517f08c379a000000000000000000000000000000000000000000000000000000000815260040161042790613493565b60405180910390fd5b60006006858154811061046c577f4e487b7100000000000000000000000000000000000000000000000000000000600052603260045260246000fd5b90600052602060002090600a020190506000600586815481106104b8577f4e487b7100000000000000000000000000000000000000000000000000000000600052603260045260246000fd5b90600052602060002090600302016040518060600160405290816000820160009054906101000a900473ffffffffffffffffffffffffffffffffffffffff1673ffffffffffffffffffffffffffffffffffffffff1673ffffffffffffffffffffffffffffffffffffffff1681526020016001820160009054906101000a900473ffffffffffffffffffffffffffffffffffffffff1673ffffffffffffffffffffffffffffffffffffffff1673ffffffffffffffffffffffffffffffffffffffff1681526020016002820160009054906101000a900473ffffffffffffffffffffffffffffffffffffffff1673ffffffffffffffffffffffffffffffffffffffff1673ffffffffffffffffffffffffffffffffffffffff1681525050905060006105e08761263d565b9050600015158360080160019054906101000a900460ff1615151461063a576040517f08c379a000000000000000000000000000000000000000000000000000000000815260040161063190613413565b60405180910390fd5b8260020154421015610681576040517f08c379a000000000000000000000000000000000000000000000000000000000815260040161067890613393565b60405180910390fd5b804211156106c4576040517f08c379a00000000000000000000000000000000000000000000000000000000081526004016106bb90613373565b60405180910390fd5b826004015486101561070b576040517f08c379a000000000000000000000000000000000000000000000000000000000815260040161070290613453565b60405180910390fd5b816000015173ffffffffffffffffffffffffffffffffffffffff166323b872dd3330886040518463ffffffff1660e01b815260040161074c9392919061327d565b602060405180830381600087803b15801561076657600080fd5b505af115801561077a573d6000803e3d6000fd5b505050506040513d601f19601f8201168201806040525081019061079e9190612c03565b6107a757600080fd5b60006107b161276c565b90506000600360008a815260200190815260200160002060003373ffffffffffffffffffffffffffffffffffffffff1673ffffffffffffffffffffffffffffffffffffffff168152602001908152602001600020905060008160070160009054906101000a900460ff166109165760018260070160006101000a81548160ff0219169083151502179055506000610874603c8060188d610851919061380c565b61085b919061380c565b610865919061380c565b4261278990919063ffffffff16565b90508481116108835780610885565b845b905080836004018190555089836005018190555083836006018190555060018760050160008282546108b79190613785565b92505081905550610905633b9aca006108f789600301546108e9633b9aca00886005015461279f90919063ffffffff16565b6127b590919063ffffffff16565b61278990919063ffffffff16565b91508183600101819055505061091b565b600090505b8782600001600082825461092f9190613785565b9250508190555061093f8a6127cb565b8286600901819055508786600601600082825461095c9190613785565b92505081905550808660070160008282546109779190613785565b925050819055506000600460008c815260200190815260200160002060008581526020019081526020016000209050866006015481600001819055508660070154816001018190555060019750505050505050509392505050565b6004602052816000526040600020602052806000526040600020600091509150508060000154908060010154905082565b600080600060058481548110610a42577f4e487b7100000000000000000000000000000000000000000000000000000000600052603260045260246000fd5b90600052602060002090600302016040518060600160405290816000820160009054906101000a900473ffffffffffffffffffffffffffffffffffffffff1673ffffffffffffffffffffffffffffffffffffffff1673ffffffffffffffffffffffffffffffffffffffff1681526020016001820160009054906101000a900473ffffffffffffffffffffffffffffffffffffffff1673ffffffffffffffffffffffffffffffffffffffff1673ffffffffffffffffffffffffffffffffffffffff1681526020016002820160009054906101000a900473ffffffffffffffffffffffffffffffffffffffff1673ffffffffffffffffffffffffffffffffffffffff1673ffffffffffffffffffffffffffffffffffffffff16815250509050806000015181602001519250925050915091565b600060058281548110610baf577f4e487b7100000000000000000000000000000000000000000000000000000000600052603260045260246000fd5b90600052602060002090600302016040518060600160405290816000820160009054906101000a900473ffffffffffffffffffffffffffffffffffffffff1673ffffffffffffffffffffffffffffffffffffffff1673ffffffffffffffffffffffffffffffffffffffff1681526020016001820160009054906101000a900473ffffffffffffffffffffffffffffffffffffffff1673ffffffffffffffffffffffffffffffffffffffff1673ffffffffffffffffffffffffffffffffffffffff1681526020016002820160009054906101000a900473ffffffffffffffffffffffffffffffffffffffff1673ffffffffffffffffffffffffffffffffffffffff1673ffffffffffffffffffffffffffffffffffffffff16815250509050600060068381548110610d08577f4e487b7100000000000000000000000000000000000000000000000000000000600052603260045260246000fd5b90600052602060002090600a02016040518061016001604052908160008201548152602001600182015481526020016002820154815260200160038201548152602001600482015481526020016005820154815260200160068201548152602001600782015481526020016008820160009054906101000a900460ff161515151581526020016008820160019054906101000a900460ff16151515158152602001600982015481525050905060001515816101200151151514610e00576040517f08c379a0000000000000000000000000000000000000000000000000000000008152600401610df790613413565b60405180910390fd5b60006003600085815260200190815260200160002060003373ffffffffffffffffffffffffffffffffffffffff1673ffffffffffffffffffffffffffffffffffffffff1681526020019081526020016000209050610e5d846127cb565b6000610e6761276c565b90506000610e758633612221565b905081836006018190555080836002016000828254610e949190613785565b925050819055506000610eb8846003015485600201546129ab90919063ffffffff16565b905060008111610efd576040517f08c379a0000000000000000000000000000000000000000000000000000000008152600401610ef4906134f3565b60405180910390fd5b856020015173ffffffffffffffffffffffffffffffffffffffff1663a9059cbb33836040518363ffffffff1660e01b8152600401610f3c9291906132b4565b602060405180830381600087803b158015610f5657600080fd5b505af1158015610f6a573d6000803e3d6000fd5b505050506040513d601f19601f82011682018060405250810190610f8e9190612c03565b610f9757600080fd5b80846003016000828254610fab9190613785565b9250508190555050505050505050565b6000806000806000806003600089815260200190815260200160002060008873ffffffffffffffffffffffffffffffffffffffff1673ffffffffffffffffffffffffffffffffffffffff16815260200190815260200160002060405180610100016040529081600082015481526020016001820154815260200160028201548152602001600382015481526020016004820154815260200160058201548152602001600682015481526020016007820160009054906101000a900460ff16151515158152505090508060000151816020015182604001518360600151846080015195509550955095509550509295509295909350565b6110b96129c1565b73ffffffffffffffffffffffffffffffffffffffff166110d7611f49565b73ffffffffffffffffffffffffffffffffffffffff161461112d576040517f08c379a000000000000000000000000000000000000000000000000000000000815260040161112490613433565b60405180910390fd5b600060068281548110611169577f4e487b7100000000000000000000000000000000000000000000000000000000600052603260045260246000fd5b90600052602060002090600a020190506000600583815481106111b5577f4e487b7100000000000000000000000000000000000000000000000000000000600052603260045260246000fd5b90600052602060002090600302016040518060600160405290816000820160009054906101000a900473ffffffffffffffffffffffffffffffffffffffff1673ffffffffffffffffffffffffffffffffffffffff1673ffffffffffffffffffffffffffffffffffffffff1681526020016001820160009054906101000a900473ffffffffffffffffffffffffffffffffffffffff1673ffffffffffffffffffffffffffffffffffffffff1673ffffffffffffffffffffffffffffffffffffffff1681526020016002820160009054906101000a900473ffffffffffffffffffffffffffffffffffffffff1673ffffffffffffffffffffffffffffffffffffffff1673ffffffffffffffffffffffffffffffffffffffff168152505090506000826001015411611319576040517f08c379a0000000000000000000000000000000000000000000000000000000008152600401611310906134b3565b60405180910390fd5b806020015173ffffffffffffffffffffffffffffffffffffffff1663a9059cbb611341611f49565b84600101546040518363ffffffff1660e01b81526004016113639291906132b4565b602060405180830381600087803b15801561137d57600080fd5b505af1158015611391573d6000803e3d6000fd5b505050506040513d601f19601f820116820180604052508101906113b59190612c03565b6113f4576040517f08c379a00000000000000000000000000000000000000000000000000000000081526004016113eb906133f3565b60405180910390fd5b60008260010181905550505050565b60006006828154811061143f577f4e487b7100000000000000000000000000000000000000000000000000000000600052603260045260246000fd5b90600052602060002090600a0201905060006005838154811061148b577f4e487b7100000000000000000000000000000000000000000000000000000000600052603260045260246000fd5b90600052602060002090600302016040518060600160405290816000820160009054906101000a900473ffffffffffffffffffffffffffffffffffffffff1673ffffffffffffffffffffffffffffffffffffffff1673ffffffffffffffffffffffffffffffffffffffff1681526020016001820160009054906101000a900473ffffffffffffffffffffffffffffffffffffffff1673ffffffffffffffffffffffffffffffffffffffff1673ffffffffffffffffffffffffffffffffffffffff1681526020016002820160009054906101000a900473ffffffffffffffffffffffffffffffffffffffff1673ffffffffffffffffffffffffffffffffffffffff1673ffffffffffffffffffffffffffffffffffffffff16815250509050600015158260080160019054906101000a900460ff16151514611600576040517f08c379a00000000000000000000000000000000000000000000000000000000081526004016115f790613413565b60405180910390fd5b60006003600085815260200190815260200160002060003373ffffffffffffffffffffffffffffffffffffffff1673ffffffffffffffffffffffffffffffffffffffff1681526020019081526020016000209050428160040154111561169b576040517f08c379a000000000000000000000000000000000000000000000000000000000815260040161169290613513565b60405180910390fd5b6116a4846127cb565b60006116ae61276c565b905060006116bc8633612221565b9050818360060181905550808360020160008282546116db9190613785565b9250508190555060006116ff846003015485600201546129ab90919063ffffffff16565b9050846000015173ffffffffffffffffffffffffffffffffffffffff1663a9059cbb3386600001546040518363ffffffff1660e01b81526004016117449291906132b4565b602060405180830381600087803b15801561175e57600080fd5b505af1158015611772573d6000803e3d6000fd5b505050506040513d601f19601f820116820180604052508101906117969190612c03565b61179f57600080fd5b846020015173ffffffffffffffffffffffffffffffffffffffff1663a9059cbb33836040518363ffffffff1660e01b81526004016117de9291906132b4565b602060405180830381600087803b1580156117f857600080fd5b505af115801561180c573d6000803e3d6000fd5b505050506040513d601f19601f820116820180604052508101906118309190612c03565b61183957600080fd5b8084600301600082825461184d9190613785565b9250508190555060008460070160006101000a81548160ff021916908315150217905550600186600501546118829190613866565b866005018190555083600001548660060160008282546118a29190613866565b9250508190555083600101548660070160008282546118c19190613866565b925050819055508360060154866009018190555060006004600089815260200190815260200160002060008581526020019081526020016000209050866006015481600001819055508660070154816001018190555060008560000181905550600085600101819055505050505050505050565b6000818773ffffffffffffffffffffffffffffffffffffffff166370a08231336040518263ffffffff1660e01b81526004016119719190613262565b60206040518083038186803b15801561198957600080fd5b505afa15801561199d573d6000803e3d6000fd5b505050506040513d601f19601f820116820180604052508101906119c19190612cde565b1015611a02576040517f08c379a00000000000000000000000000000000000000000000000000000000081526004016119f9906133d3565b60405180910390fd5b60008411611a45576040517f08c379a0000000000000000000000000000000000000000000000000000000008152600401611a3c90613533565b60405180910390fd5b83831115611a88576040517f08c379a0000000000000000000000000000000000000000000000000000000008152600401611a7f906134d3565b60405180910390fd5b6000611a93876129c9565b611a9d5760015490505b6000816064611aac9190613866565b606485611ab991906137db565b611ac3919061380c565b9050600082606486611ad591906137db565b611adf919061380c565b9050600560405180606001604052808c73ffffffffffffffffffffffffffffffffffffffff1681526020018b73ffffffffffffffffffffffffffffffffffffffff1681526020013373ffffffffffffffffffffffffffffffffffffffff16815250908060018154018082558091505060019003906000526020600020906003020160009091909190915060008201518160000160006101000a81548173ffffffffffffffffffffffffffffffffffffffff021916908373ffffffffffffffffffffffffffffffffffffffff16021790555060208201518160010160006101000a81548173ffffffffffffffffffffffffffffffffffffffff021916908373ffffffffffffffffffffffffffffffffffffffff16021790555060408201518160020160006101000a81548173ffffffffffffffffffffffffffffffffffffffff021916908373ffffffffffffffffffffffffffffffffffffffff160217905550505060006040518061016001604052808481526020018381526020014281526020018981526020018881526020016000815260200160008152602001600081526020018a15158152602001600015158152602001611cbb6001611cad62015180426127b590919063ffffffff16565b6129ab90919063ffffffff16565b815250905060068190806001815401808255809150506001900390600052602060002090600a0201600090919091909150600082015181600001556020820151816001015560408201518160020155606082015181600301556080820151816004015560a0820151816005015560c0820151816006015560e082015181600701556101008201518160080160006101000a81548160ff0219169083151502179055506101208201518160080160016101000a81548160ff0219169083151502179055506101408201518160090155505060006001600680549050611d9f9190613866565b90506000611dab61276c565b905060006004600084815260200190815260200160002060008381526020019081526020016000209050600081600001819055508c73ffffffffffffffffffffffffffffffffffffffff166323b872dd33308c6040518463ffffffff1660e01b8152600401611e1c9392919061327d565b602060405180830381600087803b158015611e3657600080fd5b505af1158015611e4a573d6000803e3d6000fd5b505050506040513d601f19601f82011682018060405250810190611e6e9190612c03565b611ead576040517f08c379a0000000000000000000000000000000000000000000000000000000008152600401611ea490613473565b60405180910390fd5b829750505050505050509695505050505050565b611ec96129c1565b73ffffffffffffffffffffffffffffffffffffffff16611ee7611f49565b73ffffffffffffffffffffffffffffffffffffffff1614611f3d576040517f08c379a0000000000000000000000000000000000000000000000000000000008152600401611f3490613433565b60405180910390fd5b611f476000612a23565b565b60008060009054906101000a900473ffffffffffffffffffffffffffffffffffffffff16905090565b60015481565b60068181548110611f8857600080fd5b90600052602060002090600a02016000915090508060000154908060010154908060020154908060030154908060040154908060050154908060060154908060070154908060080160009054906101000a900460ff16908060080160019054906101000a900460ff1690806009015490508b565b6003602052816000526040600020602052806000526040600020600091509150508060000154908060010154908060020154908060030154908060040154908060050154908060060154908060070160009054906101000a900460ff16905088565b6000806000806000806000600688815481106120a3577f4e487b7100000000000000000000000000000000000000000000000000000000600052603260045260246000fd5b90600052602060002090600a02016040518061016001604052908160008201548152602001600182015481526020016002820154815260200160038201548152602001600482015481526020016005820154815260200160068201548152602001600782015481526020016008820160009054906101000a900460ff161515151581526020016008820160019054906101000a900460ff161515151581526020016009820154815250509050806000015181602001518260600151836080015184604001516121718d61263d565b9650965096509650965096505091939550919395565b6005818154811061219757600080fd5b90600052602060002090600302016000915090508060000160009054906101000a900473ffffffffffffffffffffffffffffffffffffffff16908060010160009054906101000a900473ffffffffffffffffffffffffffffffffffffffff16908060020160009054906101000a900473ffffffffffffffffffffffffffffffffffffffff16905083565b6000806003600085815260200190815260200160002060008473ffffffffffffffffffffffffffffffffffffffff1673ffffffffffffffffffffffffffffffffffffffff16815260200190815260200160002060405180610100016040529081600082015481526020016001820154815260200160028201548152602001600382015481526020016004820154815260200160058201548152602001600682015481526020016007820160009054906101000a900460ff161515151581525050905060006006858154811061231f577f4e487b7100000000000000000000000000000000000000000000000000000000600052603260045260246000fd5b90600052602060002090600a02016040518061016001604052908160008201548152602001600182015481526020016002820154815260200160038201548152602001600482015481526020016005820154815260200160068201548152602001600782015481526020016008820160009054906101000a900460ff161515151581526020016008820160019054906101000a900460ff16151515158152602001600982015481525050905060006123d686612ae7565b90506000806123f6846060015185600001516127b590919063ffffffff16565b90506000808660200151905060008760c0015190505b85811161250e576000600460008d815260200190815260200160002060008381526020019081526020016000206040518060400160405290816000820154815260200160018201548152505090506000816020015111156124f957612482816020015182600001516127b590919063ffffffff16565b93506124eb633b9aca006124dd6124ce84600001516124c0633b9aca006124b28a8c61279f90919063ffffffff16565b61279f90919063ffffffff16565b6127b590919063ffffffff16565b8861279f90919063ffffffff16565b6127b590919063ffffffff16565b866124f69190613785565b95505b506001816125079190613785565b905061240c565b508397505050505050505092915050565b600260009054906101000a900473ffffffffffffffffffffffffffffffffffffffff1681565b61254d6129c1565b73ffffffffffffffffffffffffffffffffffffffff1661256b611f49565b73ffffffffffffffffffffffffffffffffffffffff16146125c1576040517f08c379a00000000000000000000000000000000000000000000000000000000081526004016125b890613433565b60405180910390fd5b600073ffffffffffffffffffffffffffffffffffffffff168173ffffffffffffffffffffffffffffffffffffffff161415612631576040517f08c379a0000000000000000000000000000000000000000000000000000000008152600401612628906133b3565b60405180910390fd5b61263a81612a23565b50565b6000806006838154811061267a577f4e487b7100000000000000000000000000000000000000000000000000000000600052603260045260246000fd5b90600052602060002090600a02016040518061016001604052908160008201548152602001600182015481526020016002820154815260200160038201548152602001600482015481526020016005820154815260200160068201548152602001600782015481526020016008820160009054906101000a900460ff161515151581526020016008820160019054906101000a900460ff161515151581526020016009820154815250509050612764603c806018846060015161273d919061380c565b612747919061380c565b612751919061380c565b826040015161278990919063ffffffff16565b915050919050565b600061278462015180426127b590919063ffffffff16565b905090565b600081836127979190613785565b905092915050565b600081836127ad919061380c565b905092915050565b600081836127c391906137db565b905092915050565b600060068281548110612807577f4e487b7100000000000000000000000000000000000000000000000000000000600052603260045260246000fd5b90600052602060002090600a02016040518061016001604052908160008201548152602001600182015481526020016002820154815260200160038201548152602001600482015481526020016005820154815260200160068201548152602001600782015481526020016008820160009054906101000a900460ff161515151581526020016008820160019054906101000a900460ff16151515158152602001600982015481525050905060006128be83612ae7565b905060006128ca61276c565b905081836101400151106128e0575050506129a8565b60006004600086815260200190815260200160002060008561014001518152602001908152602001600020604051806040016040529081600082015481526020016001820154815250509050600060018561014001516129409190613785565b90505b828110156129a2576000600460008881526020019081526020016000206000838152602001908152602001600020905082600001518160000181905550826020015181600101819055505060018161299b9190613785565b9050612943565b50505050505b50565b600081836129b99190613866565b905092915050565b600033905090565b6000600260009054906101000a900473ffffffffffffffffffffffffffffffffffffffff1673ffffffffffffffffffffffffffffffffffffffff168273ffffffffffffffffffffffffffffffffffffffff16149050919050565b60008060009054906101000a900473ffffffffffffffffffffffffffffffffffffffff169050816000806101000a81548173ffffffffffffffffffffffffffffffffffffffff021916908373ffffffffffffffffffffffffffffffffffffffff1602179055508173ffffffffffffffffffffffffffffffffffffffff168173ffffffffffffffffffffffffffffffffffffffff167f8be0079c531659141344cd1fd0a4f28419497f9722a3daafe3b4186f6b6457e060405160405180910390a35050565b600080612af38361263d565b9050804211612b2a57612b256001612b1762015180426127b590919063ffffffff16565b6129ab90919063ffffffff16565b612b54565b612b536001612b4562015180846127b590919063ffffffff16565b6129ab90919063ffffffff16565b5b915050919050565b600081359050612b6b81613976565b92915050565b600081359050612b808161398d565b92915050565b600081519050612b958161398d565b92915050565b600081359050612baa816139a4565b92915050565b600081359050612bbf816139bb565b92915050565b600081519050612bd4816139bb565b92915050565b600060208284031215612bec57600080fd5b6000612bfa84828501612b5c565b91505092915050565b600060208284031215612c1557600080fd5b6000612c2384828501612b86565b91505092915050565b60008060008060008060c08789031215612c4557600080fd5b6000612c5389828a01612b9b565b9650506020612c6489828a01612b9b565b9550506040612c7589828a01612b71565b9450506060612c8689828a01612bb0565b9350506080612c9789828a01612bb0565b92505060a0612ca889828a01612bb0565b9150509295509295509295565b600060208284031215612cc757600080fd5b6000612cd584828501612bb0565b91505092915050565b600060208284031215612cf057600080fd5b6000612cfe84828501612bc5565b91505092915050565b60008060408385031215612d1a57600080fd5b6000612d2885828601612bb0565b9250506020612d3985828601612b5c565b9150509250929050565b60008060408385031215612d5657600080fd5b6000612d6485828601612bb0565b9250506020612d7585828601612bb0565b9150509250929050565b600080600060608486031215612d9457600080fd5b6000612da286828701612bb0565b9350506020612db386828701612bb0565b9250506040612dc486828701612bb0565b9150509250925092565b612dd78161389a565b82525050565b612de6816138ac565b82525050565b612df5816138f4565b82525050565b6000612e08600e83613774565b91507f5661756c742066696e69636865640000000000000000000000000000000000006000830152602082019050919050565b6000612e48601183613774565b91507f5661756c74206e6f7420737461727465640000000000000000000000000000006000830152602082019050919050565b6000612e88602683613774565b91507f4f776e61626c653a206e6577206f776e657220697320746865207a65726f206160008301527f64647265737300000000000000000000000000000000000000000000000000006020830152604082019050919050565b6000612eee601283613774565b91507f5573657220686173206e6f20746f6b656e7300000000000000000000000000006000830152602082019050919050565b6000612f2e601b83613774565b91507f43616e2774207472616e736665722074617820746f206f776e657200000000006000830152602082019050919050565b6000612f6e600c83613774565b91507f5661756c742070617573656400000000000000000000000000000000000000006000830152602082019050919050565b6000612fae602083613774565b91507f4f776e61626c653a2063616c6c6572206973206e6f7420746865206f776e65726000830152602082019050919050565b6000612fee603d83613774565b91507f4c6f636b65642064617973206f66207468652075736572206973206c6573732060008301527f7468616e206d696e696d756d206c6f636b206461792773205661756c740000006020830152604082019050919050565b6000613054601683613774565b91507f43616e2774207472616e7366657220746f6b656e732e000000000000000000006000830152602082019050919050565b6000613094602183613774565b91507f4465706f736974206d7573742062652067726561746572207468616e207a657260008301527f6f000000000000000000000000000000000000000000000000000000000000006020830152604082019050919050565b60006130fa601c83613774565b91507f5661756c7420776974686f757420746f6b656e20746178206c656674000000006000830152602082019050919050565b600061313a602983613774565b91507f4d696e696d756d206c6f636b20646179732067726561746572207468656e205660008301527f61756c74206461797300000000000000000000000000000000000000000000006020830152604082019050919050565b60006131a0601183613774565b91507f4e6f2076616c756520746f20636c61696d0000000000000000000000000000006000830152602082019050919050565b60006131e0601183613774565b91507f5573657220696e206c6f636b2074696d650000000000000000000000000000006000830152602082019050919050565b6000613220600f83613774565b91507f5661756c742064617973207a65726f00000000000000000000000000000000006000830152602082019050919050565b61325c816138ea565b82525050565b60006020820190506132776000830184612dce565b92915050565b60006060820190506132926000830186612dce565b61329f6020830185612dce565b6132ac6040830184613253565b949350505050565b60006040820190506132c96000830185612dce565b6132d66020830184613253565b9392505050565b60006020820190506132f26000830184612ddd565b92915050565b600060208201905061330d6000830184612dec565b92915050565b60006040820190506133286000830185612dec565b6133356020830184612dec565b9392505050565b60006060820190506133516000830186612dec565b61335e6020830185612dec565b61336b6040830184612dce565b949350505050565b6000602082019050818103600083015261338c81612dfb565b9050919050565b600060208201905081810360008301526133ac81612e3b565b9050919050565b600060208201905081810360008301526133cc81612e7b565b9050919050565b600060208201905081810360008301526133ec81612ee1565b9050919050565b6000602082019050818103600083015261340c81612f21565b9050919050565b6000602082019050818103600083015261342c81612f61565b9050919050565b6000602082019050818103600083015261344c81612fa1565b9050919050565b6000602082019050818103600083015261346c81612fe1565b9050919050565b6000602082019050818103600083015261348c81613047565b9050919050565b600060208201905081810360008301526134ac81613087565b9050919050565b600060208201905081810360008301526134cc816130ed565b9050919050565b600060208201905081810360008301526134ec8161312d565b9050919050565b6000602082019050818103600083015261350c81613193565b9050919050565b6000602082019050818103600083015261352c816131d3565b9050919050565b6000602082019050818103600083015261354c81613213565b9050919050565b60006020820190506135686000830184613253565b92915050565b60006040820190506135836000830185613253565b6135906020830184613253565b9392505050565b600060a0820190506135ac6000830188613253565b6135b96020830187613253565b6135c66040830186613253565b6135d36060830185613253565b6135e06080830184613253565b9695505050505050565b600060c0820190506135ff6000830189613253565b61360c6020830188613253565b6136196040830187613253565b6136266060830186613253565b6136336080830185613253565b61364060a0830184613253565b979650505050505050565b600061010082019050613661600083018b613253565b61366e602083018a613253565b61367b6040830189613253565b6136886060830188613253565b6136956080830187613253565b6136a260a0830186613253565b6136af60c0830185613253565b6136bc60e0830184612ddd565b9998505050505050505050565b6000610160820190506136df600083018e613253565b6136ec602083018d613253565b6136f9604083018c613253565b613706606083018b613253565b613713608083018a613253565b61372060a0830189613253565b61372d60c0830188613253565b61373a60e0830187613253565b613748610100830186612ddd565b613756610120830185612ddd565b613764610140830184613253565b9c9b505050505050505050505050565b600082825260208201905092915050565b6000613790826138ea565b915061379b836138ea565b9250827fffffffffffffffffffffffffffffffffffffffffffffffffffffffffffffffff038211156137d0576137cf613918565b5b828201905092915050565b60006137e6826138ea565b91506137f1836138ea565b92508261380157613800613947565b5b828204905092915050565b6000613817826138ea565b9150613822836138ea565b9250817fffffffffffffffffffffffffffffffffffffffffffffffffffffffffffffffff048311821515161561385b5761385a613918565b5b828202905092915050565b6000613871826138ea565b915061387c836138ea565b92508282101561388f5761388e613918565b5b828203905092915050565b60006138a5826138ca565b9050919050565b60008115159050919050565b60006138c38261389a565b9050919050565b600073ffffffffffffffffffffffffffffffffffffffff82169050919050565b6000819050919050565b60006138ff82613906565b9050919050565b6000613911826138ca565b9050919050565b7f4e487b7100000000000000000000000000000000000000000000000000000000600052601160045260246000fd5b7f4e487b7100000000000000000000000000000000000000000000000000000000600052601260045260246000fd5b61397f8161389a565b811461398a57600080fd5b50565b613996816138ac565b81146139a157600080fd5b50565b6139ad816138b8565b81146139b857600080fd5b50565b6139c4816138ea565b81146139cf57600080fd5b5056fea2646970667358221220095690d515931ff477b2d98c0dc0a7f595bfabbb51255ad7802a9c6ae794e6fd64736f6c63430008000033",
  "linkReferences": {},
  "deployedLinkReferences": {}
}