{
  "_format": "hh-sol-artifact-1",
  "contractName": "Vault",
  "sourceName": "contracts/Vault.sol",
  "abi": [
    {
      "inputs": [
        {
          "internalType": "contract IERC20",
          "name": "_babydoge",
          "type": "address"
        },
        {
          "internalType": "uint256",
          "name": "_taxForNonBabyDogeCoin",
          "type": "uint256"
        }
      ],
      "stateMutability": "nonpayable",
      "type": "constructor"
    },
    {
      "anonymous": false,
      "inputs": [
        {
          "indexed": true,
          "internalType": "address",
          "name": "user",
          "type": "address"
        },
        {
          "indexed": true,
          "internalType": "uint256",
          "name": "pid",
          "type": "uint256"
        },
        {
          "indexed": false,
          "internalType": "uint256",
          "name": "amount",
          "type": "uint256"
        }
      ],
      "name": "Deposit",
      "type": "event"
    },
    {
      "anonymous": false,
      "inputs": [
        {
          "indexed": true,
          "internalType": "address",
          "name": "previousOwner",
          "type": "address"
        },
        {
          "indexed": true,
          "internalType": "address",
          "name": "newOwner",
          "type": "address"
        }
      ],
      "name": "OwnershipTransferred",
      "type": "event"
    },
    {
      "anonymous": false,
      "inputs": [
        {
          "indexed": true,
          "internalType": "address",
          "name": "user",
          "type": "address"
        },
        {
          "indexed": true,
          "internalType": "uint256",
          "name": "pid",
          "type": "uint256"
        },
        {
          "indexed": false,
          "internalType": "uint256",
          "name": "amount",
          "type": "uint256"
        }
      ],
      "name": "Withdraw",
      "type": "event"
    },
    {
      "inputs": [],
      "name": "babydoge",
      "outputs": [
        {
          "internalType": "contract IERC20",
          "name": "",
          "type": "address"
        }
      ],
      "stateMutability": "view",
      "type": "function"
    },
    {
      "inputs": [
        {
          "internalType": "uint256",
          "name": "_vid",
          "type": "uint256"
        },
        {
          "internalType": "address",
          "name": "_user",
          "type": "address"
        }
      ],
      "name": "calcRewardsUser",
      "outputs": [
        {
          "internalType": "uint256",
          "name": "",
          "type": "uint256"
        }
      ],
      "stateMutability": "view",
      "type": "function"
    },
    {
      "inputs": [
        {
          "internalType": "uint256",
          "name": "_vid",
          "type": "uint256"
        },
        {
          "internalType": "uint256",
          "name": "_value",
          "type": "uint256"
        }
      ],
      "name": "claimRewards",
      "outputs": [],
      "stateMutability": "nonpayable",
      "type": "function"
    },
    {
      "inputs": [
        {
          "internalType": "contract IERC20",
          "name": "_tokenStake",
          "type": "address"
        },
        {
          "internalType": "contract IERC20",
          "name": "_tokenReward",
          "type": "address"
        },
        {
          "internalType": "bool",
          "name": "_isLp",
          "type": "bool"
        },
        {
          "internalType": "uint256",
          "name": "_vaultDays",
          "type": "uint256"
        },
        {
          "internalType": "uint256",
          "name": "_amount",
          "type": "uint256"
        }
      ],
      "name": "createVault",
      "outputs": [
        {
          "internalType": "uint256",
          "name": "",
          "type": "uint256"
        }
      ],
      "stateMutability": "nonpayable",
      "type": "function"
    },
    {
      "inputs": [
        {
          "internalType": "uint256",
          "name": "_vid",
          "type": "uint256"
        },
        {
          "internalType": "uint256",
          "name": "_lockDays",
          "type": "uint256"
        },
        {
          "internalType": "uint256",
          "name": "value",
          "type": "uint256"
        }
      ],
      "name": "deposit",
      "outputs": [
        {
          "internalType": "bool",
          "name": "",
          "type": "bool"
        }
      ],
      "stateMutability": "nonpayable",
      "type": "function"
    },
    {
      "inputs": [
        {
          "internalType": "uint256",
          "name": "_vid",
          "type": "uint256"
        },
        {
          "internalType": "address",
          "name": "_user",
          "type": "address"
        }
      ],
      "name": "getUserInfo",
      "outputs": [
        {
          "internalType": "uint256",
          "name": "",
          "type": "uint256"
        },
        {
          "internalType": "uint256",
          "name": "",
          "type": "uint256"
        },
        {
          "internalType": "uint256",
          "name": "",
          "type": "uint256"
        },
        {
          "internalType": "uint256",
          "name": "",
          "type": "uint256"
        },
        {
          "internalType": "uint256",
          "name": "",
          "type": "uint256"
        }
      ],
      "stateMutability": "view",
      "type": "function"
    },
    {
      "inputs": [
        {
          "internalType": "uint256",
          "name": "_vid",
          "type": "uint256"
        }
      ],
      "name": "getVault",
      "outputs": [
        {
          "internalType": "contract IERC20",
          "name": "",
          "type": "address"
        },
        {
          "internalType": "contract IERC20",
          "name": "",
          "type": "address"
        },
        {
          "internalType": "uint256",
          "name": "",
          "type": "uint256"
        },
        {
          "internalType": "uint256",
          "name": "",
          "type": "uint256"
        },
        {
          "internalType": "uint256",
          "name": "",
          "type": "uint256"
        },
        {
          "internalType": "uint256",
          "name": "",
          "type": "uint256"
        },
        {
          "internalType": "uint256",
          "name": "",
          "type": "uint256"
        }
      ],
      "stateMutability": "view",
      "type": "function"
    },
    {
      "inputs": [],
      "name": "owner",
      "outputs": [
        {
          "internalType": "address",
          "name": "",
          "type": "address"
        }
      ],
      "stateMutability": "view",
      "type": "function"
    },
    {
      "inputs": [],
      "name": "renounceOwnership",
      "outputs": [],
      "stateMutability": "nonpayable",
      "type": "function"
    },
    {
      "inputs": [],
      "name": "taxForNonBabyDogeCoin",
      "outputs": [
        {
          "internalType": "uint256",
          "name": "",
          "type": "uint256"
        }
      ],
      "stateMutability": "view",
      "type": "function"
    },
    {
      "inputs": [
        {
          "internalType": "uint256",
          "name": "",
          "type": "uint256"
        },
        {
          "internalType": "uint256",
          "name": "",
          "type": "uint256"
        }
      ],
      "name": "totalDay",
      "outputs": [
        {
          "internalType": "uint256",
          "name": "amount",
          "type": "uint256"
        },
        {
          "internalType": "uint256",
          "name": "weight",
          "type": "uint256"
        }
      ],
      "stateMutability": "view",
      "type": "function"
    },
    {
      "inputs": [
        {
          "internalType": "address",
          "name": "newOwner",
          "type": "address"
        }
      ],
      "name": "transferOwnership",
      "outputs": [],
      "stateMutability": "nonpayable",
      "type": "function"
    },
    {
      "inputs": [
        {
          "internalType": "uint256",
          "name": "",
          "type": "uint256"
        },
        {
          "internalType": "address",
          "name": "",
          "type": "address"
        }
      ],
      "name": "userInfo",
      "outputs": [
        {
          "internalType": "uint256",
          "name": "amount",
          "type": "uint256"
        },
        {
          "internalType": "uint256",
          "name": "weight",
          "type": "uint256"
        },
        {
          "internalType": "uint256",
          "name": "rewardTotal",
          "type": "uint256"
        },
        {
          "internalType": "uint256",
          "name": "rewardWithdraw",
          "type": "uint256"
        },
        {
          "internalType": "uint256",
          "name": "lockTime",
          "type": "uint256"
        },
        {
          "internalType": "uint256",
          "name": "lockDays",
          "type": "uint256"
        },
        {
          "internalType": "uint256",
          "name": "lastRewardDay",
          "type": "uint256"
        },
        {
          "internalType": "bool",
          "name": "exists",
          "type": "bool"
        }
      ],
      "stateMutability": "view",
      "type": "function"
    },
    {
      "inputs": [
        {
          "internalType": "uint256",
          "name": "",
          "type": "uint256"
        }
      ],
      "name": "vaultInfo",
      "outputs": [
        {
          "internalType": "contract IERC20",
          "name": "tokenStake",
          "type": "address"
        },
        {
          "internalType": "contract IERC20",
          "name": "tokenReward",
          "type": "address"
        },
        {
          "internalType": "uint256",
          "name": "amountReward",
          "type": "uint256"
        },
        {
          "internalType": "uint256",
          "name": "vaultTokenTax",
          "type": "uint256"
        },
        {
          "internalType": "uint256",
          "name": "startVault",
          "type": "uint256"
        },
        {
          "internalType": "uint256",
          "name": "vaultDays",
          "type": "uint256"
        },
        {
          "internalType": "uint256",
          "name": "userCount",
          "type": "uint256"
        },
        {
          "internalType": "uint256",
          "name": "usersAmount",
          "type": "uint256"
        },
        {
          "internalType": "uint256",
          "name": "usersWeight",
          "type": "uint256"
        },
        {
          "internalType": "bool",
          "name": "isLpVault",
          "type": "bool"
        },
        {
          "internalType": "bool",
          "name": "paused",
          "type": "bool"
        },
        {
          "internalType": "uint256",
          "name": "lastTotalDay",
          "type": "uint256"
        }
      ],
      "stateMutability": "view",
      "type": "function"
    },
    {
      "inputs": [
        {
          "internalType": "uint256",
          "name": "_vid",
          "type": "uint256"
        }
      ],
      "name": "withdraw",
      "outputs": [],
      "stateMutability": "nonpayable",
      "type": "function"
    },
    {
      "inputs": [
        {
          "internalType": "uint256",
          "name": "_vid",
          "type": "uint256"
        }
      ],
      "name": "withdrawTax",
      "outputs": [],
      "stateMutability": "nonpayable",
      "type": "function"
    }
  ],
  "bytecode": "0x60806040523480156200001157600080fd5b5060405162003553380380620035538339818101604052810190620000379190620001a1565b620000576200004b620000a760201b60201c565b620000af60201b60201c565b81600260006101000a81548173ffffffffffffffffffffffffffffffffffffffff021916908373ffffffffffffffffffffffffffffffffffffffff16021790555080600181905550505062000268565b600033905090565b60008060009054906101000a900473ffffffffffffffffffffffffffffffffffffffff169050816000806101000a81548173ffffffffffffffffffffffffffffffffffffffff021916908373ffffffffffffffffffffffffffffffffffffffff1602179055508173ffffffffffffffffffffffffffffffffffffffff168173ffffffffffffffffffffffffffffffffffffffff167f8be0079c531659141344cd1fd0a4f28419497f9722a3daafe3b4186f6b6457e060405160405180910390a35050565b600081519050620001848162000234565b92915050565b6000815190506200019b816200024e565b92915050565b60008060408385031215620001b557600080fd5b6000620001c58582860162000173565b9250506020620001d8858286016200018a565b9150509250929050565b6000620001ef826200020a565b9050919050565b60006200020382620001e2565b9050919050565b600073ffffffffffffffffffffffffffffffffffffffff82169050919050565b6000819050919050565b6200023f81620001f6565b81146200024b57600080fd5b50565b62000259816200022a565b81146200026557600080fd5b50565b6132db80620002786000396000f3fe608060405234801561001057600080fd5b50600436106100ff5760003560e01c80638f7ed4b311610097578063d818b23711610066578063d818b237146102db578063e85c74421461030b578063f22fcf361461033b578063f2fde38b14610359576100ff565b80638f7ed4b314610215578063929060d81461023357806393f1a40b1461026e5780639403b634146102a5576100ff565b80632e1a7d4d116100d35780632e1a7d4d146101b5578063594dd432146101d1578063715018a6146101ed5780638da5cb5b146101f7576100ff565b8062aeef8a1461010457806302525222146101345780631069f3b514610165578063249ae3e214610199575b600080fd5b61011e6004803603810190610119919061277b565b610375565b60405161012b9190612c33565b60405180910390f35b61014e6004803603810190610149919061273f565b6107da565b60405161015c929190612f4d565b60405180910390f35b61017f600480360381019061017a9190612703565b61080b565b604051610190959493929190612f76565b60405180910390f35b6101b360048036038101906101ae91906126b1565b610901565b005b6101cf60048036038101906101ca91906126b1565b610b19565b005b6101eb60048036038101906101e6919061273f565b610f31565b005b6101f56111f7565b005b6101ff61127f565b60405161020c9190612bb8565b60405180910390f35b61021d6112a8565b60405161022a9190612f32565b60405180910390f35b61024d600480360381019061024891906126b1565b6112ae565b6040516102659c9b9a99989796959493929190612cd8565b60405180910390f35b61028860048036038101906102839190612703565b611378565b60405161029c989796959493929190612fc9565b60405180910390f35b6102bf60048036038101906102ba91906126b1565b6113da565b6040516102d29796959493929190612c69565b60405180910390f35b6102f560048036038101906102f0919061263a565b6115af565b6040516103029190612f32565b60405180910390f35b61032560048036038101906103209190612703565b611a49565b6040516103329190612f32565b60405180910390f35b610343611de9565b6040516103509190612c4e565b60405180910390f35b610373600480360381019061036e91906125e8565b611e0f565b005b60008082116103b9576040517f08c379a00000000000000000000000000000000000000000000000000000000081526004016103b090612eb2565b60405180910390fd5b6000600585815481106103f5577f4e487b7100000000000000000000000000000000000000000000000000000000600052603260045260246000fd5b90600052602060002090600b02019050600061041086611f07565b9050600015158260090160019054906101000a900460ff1615151461046a576040517f08c379a000000000000000000000000000000000000000000000000000000000815260040161046190612e52565b60405180910390fd5b81600401544210156104b1576040517f08c379a00000000000000000000000000000000000000000000000000000000081526004016104a890612db2565b60405180910390fd5b804211156104f4576040517f08c379a00000000000000000000000000000000000000000000000000000000081526004016104eb90612d92565b60405180910390fd5b8160000160009054906101000a900473ffffffffffffffffffffffffffffffffffffffff1673ffffffffffffffffffffffffffffffffffffffff166323b872dd3330876040518463ffffffff1660e01b815260040161055593929190612bd3565b602060405180830381600087803b15801561056f57600080fd5b505af1158015610583573d6000803e3d6000fd5b505050506040513d601f19601f820116820180604052508101906105a79190612611565b6105b057600080fd5b60006105ba6120d8565b905060006003600089815260200190815260200160002060003373ffffffffffffffffffffffffffffffffffffffff1673ffffffffffffffffffffffffffffffffffffffff168152602001908152602001600020905060008160070160009054906101000a900460ff1661071f5760018260070160006101000a81548160ff021916908315150217905550600061067d603c8060188c61065a91906130df565b61066491906130df565b61066e91906130df565b426120f590919063ffffffff16565b905084811161068c578061068e565b845b905080836004018190555088836005018190555083836006018190555060018660060160008282546106c09190613058565b9250508190555061070e633b9aca0061070088600501546106f2633b9aca00886005015461210b90919063ffffffff16565b61212190919063ffffffff16565b6120f590919063ffffffff16565b915081836001018190555050610724565b600090505b868260000160008282546107389190613058565b9250508190555061074889612137565b8285600a0181905550868560070160008282546107659190613058565b92505081905550808560080160008282546107809190613058565b925050819055506000600460008b8152602001908152602001600020600085815260200190815260200160002090508560070154816000018190555085600801548160010181905550600196505050505050509392505050565b6004602052816000526040600020602052806000526040600020600091509150508060000154908060010154905082565b6000806000806000806003600089815260200190815260200160002060008873ffffffffffffffffffffffffffffffffffffffff1673ffffffffffffffffffffffffffffffffffffffff16815260200190815260200160002060405180610100016040529081600082015481526020016001820154815260200160028201548152602001600382015481526020016004820154815260200160058201548152602001600682015481526020016007820160009054906101000a900460ff16151515158152505090508060000151816020015182604001518360600151846080015195509550955095509550509295509295909350565b6109096123b9565b73ffffffffffffffffffffffffffffffffffffffff1661092761127f565b73ffffffffffffffffffffffffffffffffffffffff161461097d576040517f08c379a000000000000000000000000000000000000000000000000000000000815260040161097490612e72565b60405180910390fd5b6000600582815481106109b9577f4e487b7100000000000000000000000000000000000000000000000000000000600052603260045260246000fd5b90600052602060002090600b020190506000816003015411610a10576040517f08c379a0000000000000000000000000000000000000000000000000000000008152600401610a0790612ed2565b60405180910390fd5b8060010160009054906101000a900473ffffffffffffffffffffffffffffffffffffffff1673ffffffffffffffffffffffffffffffffffffffff1663a9059cbb610a5861127f565b83600301546040518363ffffffff1660e01b8152600401610a7a929190612c0a565b602060405180830381600087803b158015610a9457600080fd5b505af1158015610aa8573d6000803e3d6000fd5b505050506040513d601f19601f82011682018060405250810190610acc9190612611565b610b0b576040517f08c379a0000000000000000000000000000000000000000000000000000000008152600401610b0290612e12565b60405180910390fd5b600081600301819055505050565b600060058281548110610b55577f4e487b7100000000000000000000000000000000000000000000000000000000600052603260045260246000fd5b90600052602060002090600b02019050600015158160090160019054906101000a900460ff16151514610bbd576040517f08c379a0000000000000000000000000000000000000000000000000000000008152600401610bb490612e52565b60405180910390fd5b60006003600084815260200190815260200160002060003373ffffffffffffffffffffffffffffffffffffffff1673ffffffffffffffffffffffffffffffffffffffff16815260200190815260200160002090504281600401541115610c58576040517f08c379a0000000000000000000000000000000000000000000000000000000008152600401610c4f90612ef2565b60405180910390fd5b610c6183612137565b6000610c6b6120d8565b90506000610c798533611a49565b905081836006018190555080836002016000828254610c989190613058565b925050819055506000610cbc846003015485600201546123c190919063ffffffff16565b90508460000160009054906101000a900473ffffffffffffffffffffffffffffffffffffffff1673ffffffffffffffffffffffffffffffffffffffff1663a9059cbb3386600001546040518363ffffffff1660e01b8152600401610d21929190612c0a565b602060405180830381600087803b158015610d3b57600080fd5b505af1158015610d4f573d6000803e3d6000fd5b505050506040513d601f19601f82011682018060405250810190610d739190612611565b610d7c57600080fd5b8460010160009054906101000a900473ffffffffffffffffffffffffffffffffffffffff1673ffffffffffffffffffffffffffffffffffffffff1663a9059cbb33836040518363ffffffff1660e01b8152600401610ddb929190612c0a565b602060405180830381600087803b158015610df557600080fd5b505af1158015610e09573d6000803e3d6000fd5b505050506040513d601f19601f82011682018060405250810190610e2d9190612611565b610e3657600080fd5b80846003016000828254610e4a9190613058565b9250508190555060008460070160006101000a81548160ff02191690831515021790555060018560060154610e7f9190613139565b85600601819055508360000154856007016000828254610e9f9190613139565b925050819055508360010154856008016000828254610ebe9190613139565b92505081905550836006015485600a0181905550600060046000888152602001908152602001600020600085815260200190815260200160002090508560070154816000018190555085600801548160010181905550600085600001819055506000856001018190555050505050505050565b600060058381548110610f6d577f4e487b7100000000000000000000000000000000000000000000000000000000600052603260045260246000fd5b90600052602060002090600b02019050600015158160090160019054906101000a900460ff16151514610fd5576040517f08c379a0000000000000000000000000000000000000000000000000000000008152600401610fcc90612e52565b60405180910390fd5b60006003600085815260200190815260200160002060003373ffffffffffffffffffffffffffffffffffffffff1673ffffffffffffffffffffffffffffffffffffffff16815260200190815260200160002090504281600401541115611070576040517f08c379a000000000000000000000000000000000000000000000000000000000815260040161106790612ef2565b60405180910390fd5b61107984612137565b60006110836120d8565b905060006110918633611a49565b9050818360060181905550808360020160008282546110b09190613058565b9250508190555060006110d4846003015485600201546123c190919063ffffffff16565b905080861115611119576040517f08c379a000000000000000000000000000000000000000000000000000000000815260040161111090612e32565b60405180910390fd5b8460010160009054906101000a900473ffffffffffffffffffffffffffffffffffffffff1673ffffffffffffffffffffffffffffffffffffffff1663a9059cbb33886040518363ffffffff1660e01b8152600401611178929190612c0a565b602060405180830381600087803b15801561119257600080fd5b505af11580156111a6573d6000803e3d6000fd5b505050506040513d601f19601f820116820180604052508101906111ca9190612611565b6111d357600080fd5b858460030160008282546111e79190613058565b9250508190555050505050505050565b6111ff6123b9565b73ffffffffffffffffffffffffffffffffffffffff1661121d61127f565b73ffffffffffffffffffffffffffffffffffffffff1614611273576040517f08c379a000000000000000000000000000000000000000000000000000000000815260040161126a90612e72565b60405180910390fd5b61127d60006123d7565b565b60008060009054906101000a900473ffffffffffffffffffffffffffffffffffffffff16905090565b60015481565b600581815481106112be57600080fd5b90600052602060002090600b02016000915090508060000160009054906101000a900473ffffffffffffffffffffffffffffffffffffffff16908060010160009054906101000a900473ffffffffffffffffffffffffffffffffffffffff16908060020154908060030154908060040154908060050154908060060154908060070154908060080154908060090160009054906101000a900460ff16908060090160019054906101000a900460ff169080600a015490508c565b6003602052816000526040600020602052806000526040600020600091509150508060000154908060010154908060020154908060030154908060040154908060050154908060060154908060070160009054906101000a900460ff16905088565b60008060008060008060008060058981548110611420577f4e487b7100000000000000000000000000000000000000000000000000000000600052603260045260246000fd5b90600052602060002090600b0201604051806101800160405290816000820160009054906101000a900473ffffffffffffffffffffffffffffffffffffffff1673ffffffffffffffffffffffffffffffffffffffff1673ffffffffffffffffffffffffffffffffffffffff1681526020016001820160009054906101000a900473ffffffffffffffffffffffffffffffffffffffff1673ffffffffffffffffffffffffffffffffffffffff1673ffffffffffffffffffffffffffffffffffffffff168152602001600282015481526020016003820154815260200160048201548152602001600582015481526020016006820154815260200160078201548152602001600882015481526020016009820160009054906101000a900460ff161515151581526020016009820160019054906101000a900460ff16151515158152602001600a82015481525050905080600001518160200151826040015183606001518460a0015185608001516115958f611f07565b975097509750975097509750975050919395979092949650565b6000818673ffffffffffffffffffffffffffffffffffffffff166370a08231336040518263ffffffff1660e01b81526004016115eb9190612bb8565b60206040518083038186803b15801561160357600080fd5b505afa158015611617573d6000803e3d6000fd5b505050506040513d601f19601f8201168201806040525081019061163b91906126da565b101561167c576040517f08c379a000000000000000000000000000000000000000000000000000000000815260040161167390612df2565b60405180910390fd5b600083116116bf576040517f08c379a00000000000000000000000000000000000000000000000000000000081526004016116b690612f12565b60405180910390fd5b60006116ca8661249b565b6116d45760015490505b60008160646116e39190613139565b6064856116f091906130ae565b6116fa91906130df565b905060008260648661170c91906130ae565b61171691906130df565b905060056040518061018001604052808b73ffffffffffffffffffffffffffffffffffffffff1681526020018a73ffffffffffffffffffffffffffffffffffffffff16815260200184815260200183815260200142815260200188815260200160008152602001600081526020016000815260200189151581526020016000151581526020016117c560016117b7620151804261212190919063ffffffff16565b6123c190919063ffffffff16565b81525090806001815401808255809150506001900390600052602060002090600b020160009091909190915060008201518160000160006101000a81548173ffffffffffffffffffffffffffffffffffffffff021916908373ffffffffffffffffffffffffffffffffffffffff16021790555060208201518160010160006101000a81548173ffffffffffffffffffffffffffffffffffffffff021916908373ffffffffffffffffffffffffffffffffffffffff16021790555060408201518160020155606082015181600301556080820151816004015560a0820151816005015560c0820151816006015560e0820151816007015561010082015181600801556101208201518160090160006101000a81548160ff0219169083151502179055506101408201518160090160016101000a81548160ff02191690831515021790555061016082015181600a01555050600060016005805490506119299190613139565b905060006119356120d8565b905060006004600084815260200190815260200160002060008381526020019081526020016000209050600081600001819055508a73ffffffffffffffffffffffffffffffffffffffff166323b872dd33308b6040518463ffffffff1660e01b81526004016119a693929190612bd3565b602060405180830381600087803b1580156119c057600080fd5b505af11580156119d4573d6000803e3d6000fd5b505050506040513d601f19601f820116820180604052508101906119f89190612611565b611a37576040517f08c379a0000000000000000000000000000000000000000000000000000000008152600401611a2e90612e92565b60405180910390fd5b82965050505050505095945050505050565b6000806003600085815260200190815260200160002060008473ffffffffffffffffffffffffffffffffffffffff1673ffffffffffffffffffffffffffffffffffffffff16815260200190815260200160002060405180610100016040529081600082015481526020016001820154815260200160028201548152602001600382015481526020016004820154815260200160058201548152602001600682015481526020016007820160009054906101000a900460ff1615151515815250509050600060058581548110611b47577f4e487b7100000000000000000000000000000000000000000000000000000000600052603260045260246000fd5b90600052602060002090600b0201604051806101800160405290816000820160009054906101000a900473ffffffffffffffffffffffffffffffffffffffff1673ffffffffffffffffffffffffffffffffffffffff1673ffffffffffffffffffffffffffffffffffffffff1681526020016001820160009054906101000a900473ffffffffffffffffffffffffffffffffffffffff1673ffffffffffffffffffffffffffffffffffffffff1673ffffffffffffffffffffffffffffffffffffffff168152602001600282015481526020016003820154815260200160048201548152602001600582015481526020016006820154815260200160078201548152602001600882015481526020016009820160009054906101000a900460ff161515151581526020016009820160019054906101000a900460ff16151515158152602001600a8201548152505090506000611ca0866124f5565b9050600080611cc08460a00151856040015161212190919063ffffffff16565b90506000808660200151905060008760c0015190505b858111611dd8576000600460008d81526020019081526020016000206000838152602001908152602001600020604051806040016040529081600082015481526020016001820154815250509050600081602001511115611dc357611d4c8160200151826000015161212190919063ffffffff16565b9350611db5633b9aca00611da7611d988460000151611d8a633b9aca00611d7c8a8c61210b90919063ffffffff16565b61210b90919063ffffffff16565b61212190919063ffffffff16565b8861210b90919063ffffffff16565b61212190919063ffffffff16565b86611dc09190613058565b95505b50600181611dd19190613058565b9050611cd6565b508397505050505050505092915050565b600260009054906101000a900473ffffffffffffffffffffffffffffffffffffffff1681565b611e176123b9565b73ffffffffffffffffffffffffffffffffffffffff16611e3561127f565b73ffffffffffffffffffffffffffffffffffffffff1614611e8b576040517f08c379a0000000000000000000000000000000000000000000000000000000008152600401611e8290612e72565b60405180910390fd5b600073ffffffffffffffffffffffffffffffffffffffff168173ffffffffffffffffffffffffffffffffffffffff161415611efb576040517f08c379a0000000000000000000000000000000000000000000000000000000008152600401611ef290612dd2565b60405180910390fd5b611f04816123d7565b50565b60008060058381548110611f44577f4e487b7100000000000000000000000000000000000000000000000000000000600052603260045260246000fd5b90600052602060002090600b0201604051806101800160405290816000820160009054906101000a900473ffffffffffffffffffffffffffffffffffffffff1673ffffffffffffffffffffffffffffffffffffffff1673ffffffffffffffffffffffffffffffffffffffff1681526020016001820160009054906101000a900473ffffffffffffffffffffffffffffffffffffffff1673ffffffffffffffffffffffffffffffffffffffff1673ffffffffffffffffffffffffffffffffffffffff168152602001600282015481526020016003820154815260200160048201548152602001600582015481526020016006820154815260200160078201548152602001600882015481526020016009820160009054906101000a900460ff161515151581526020016009820160019054906101000a900460ff16151515158152602001600a8201548152505090506120d0603c8060188460a001516120a991906130df565b6120b391906130df565b6120bd91906130df565b82608001516120f590919063ffffffff16565b915050919050565b60006120f0620151804261212190919063ffffffff16565b905090565b600081836121039190613058565b905092915050565b6000818361211991906130df565b905092915050565b6000818361212f91906130ae565b905092915050565b600060058281548110612173577f4e487b7100000000000000000000000000000000000000000000000000000000600052603260045260246000fd5b90600052602060002090600b0201604051806101800160405290816000820160009054906101000a900473ffffffffffffffffffffffffffffffffffffffff1673ffffffffffffffffffffffffffffffffffffffff1673ffffffffffffffffffffffffffffffffffffffff1681526020016001820160009054906101000a900473ffffffffffffffffffffffffffffffffffffffff1673ffffffffffffffffffffffffffffffffffffffff1673ffffffffffffffffffffffffffffffffffffffff168152602001600282015481526020016003820154815260200160048201548152602001600582015481526020016006820154815260200160078201548152602001600882015481526020016009820160009054906101000a900460ff161515151581526020016009820160019054906101000a900460ff16151515158152602001600a82015481525050905060006122cc836124f5565b905060006122d86120d8565b905081836101600151106122ee575050506123b6565b600060046000868152602001908152602001600020600085610160015181526020019081526020016000206040518060400160405290816000820154815260200160018201548152505090506000600185610160015161234e9190613058565b90505b828110156123b057600060046000888152602001908152602001600020600083815260200190815260200160002090508260000151816000018190555082602001518160010181905550506001816123a99190613058565b9050612351565b50505050505b50565b600033905090565b600081836123cf9190613139565b905092915050565b60008060009054906101000a900473ffffffffffffffffffffffffffffffffffffffff169050816000806101000a81548173ffffffffffffffffffffffffffffffffffffffff021916908373ffffffffffffffffffffffffffffffffffffffff1602179055508173ffffffffffffffffffffffffffffffffffffffff168173ffffffffffffffffffffffffffffffffffffffff167f8be0079c531659141344cd1fd0a4f28419497f9722a3daafe3b4186f6b6457e060405160405180910390a35050565b6000600260009054906101000a900473ffffffffffffffffffffffffffffffffffffffff1673ffffffffffffffffffffffffffffffffffffffff168273ffffffffffffffffffffffffffffffffffffffff16149050919050565b60008061250183611f07565b9050804211612538576125336001612525620151804261212190919063ffffffff16565b6123c190919063ffffffff16565b612562565b6125616001612553620151808461212190919063ffffffff16565b6123c190919063ffffffff16565b5b915050919050565b60008135905061257981613249565b92915050565b60008135905061258e81613260565b92915050565b6000815190506125a381613260565b92915050565b6000813590506125b881613277565b92915050565b6000813590506125cd8161328e565b92915050565b6000815190506125e28161328e565b92915050565b6000602082840312156125fa57600080fd5b60006126088482850161256a565b91505092915050565b60006020828403121561262357600080fd5b600061263184828501612594565b91505092915050565b600080600080600060a0868803121561265257600080fd5b6000612660888289016125a9565b9550506020612671888289016125a9565b94505060406126828882890161257f565b9350506060612693888289016125be565b92505060806126a4888289016125be565b9150509295509295909350565b6000602082840312156126c357600080fd5b60006126d1848285016125be565b91505092915050565b6000602082840312156126ec57600080fd5b60006126fa848285016125d3565b91505092915050565b6000806040838503121561271657600080fd5b6000612724858286016125be565b92505060206127358582860161256a565b9150509250929050565b6000806040838503121561275257600080fd5b6000612760858286016125be565b9250506020612771858286016125be565b9150509250929050565b60008060006060848603121561279057600080fd5b600061279e868287016125be565b93505060206127af868287016125be565b92505060406127c0868287016125be565b9150509250925092565b6127d38161316d565b82525050565b6127e28161317f565b82525050565b6127f1816131c7565b82525050565b6000612804600e83613047565b91507f5661756c742066696e69636865640000000000000000000000000000000000006000830152602082019050919050565b6000612844601183613047565b91507f5661756c74206e6f7420737461727465640000000000000000000000000000006000830152602082019050919050565b6000612884602683613047565b91507f4f776e61626c653a206e6577206f776e657220697320746865207a65726f206160008301527f64647265737300000000000000000000000000000000000000000000000000006020830152604082019050919050565b60006128ea601283613047565b91507f5573657220686173206e6f20746f6b656e7300000000000000000000000000006000830152602082019050919050565b600061292a601b83613047565b91507f43616e2774207472616e736665722074617820746f206f776e657200000000006000830152602082019050919050565b600061296a602783613047565b91507f56616c756520636c61696d65642067726561746572207468616e20757365722060008301527f72657761726473000000000000000000000000000000000000000000000000006020830152604082019050919050565b60006129d0600c83613047565b91507f5661756c742070617573656400000000000000000000000000000000000000006000830152602082019050919050565b6000612a10602083613047565b91507f4f776e61626c653a2063616c6c6572206973206e6f7420746865206f776e65726000830152602082019050919050565b6000612a50601683613047565b91507f43616e2774207472616e7366657220746f6b656e732e000000000000000000006000830152602082019050919050565b6000612a90602183613047565b91507f4465706f736974206d7573742062652067726561746572207468616e207a657260008301527f6f000000000000000000000000000000000000000000000000000000000000006020830152604082019050919050565b6000612af6601c83613047565b91507f5661756c7420776974686f757420746f6b656e20746178206c656674000000006000830152602082019050919050565b6000612b36601183613047565b91507f5573657220696e206c6f636b2074696d650000000000000000000000000000006000830152602082019050919050565b6000612b76600f83613047565b91507f5661756c742064617973207a65726f00000000000000000000000000000000006000830152602082019050919050565b612bb2816131bd565b82525050565b6000602082019050612bcd60008301846127ca565b92915050565b6000606082019050612be860008301866127ca565b612bf560208301856127ca565b612c026040830184612ba9565b949350505050565b6000604082019050612c1f60008301856127ca565b612c2c6020830184612ba9565b9392505050565b6000602082019050612c4860008301846127d9565b92915050565b6000602082019050612c6360008301846127e8565b92915050565b600060e082019050612c7e600083018a6127e8565b612c8b60208301896127e8565b612c986040830188612ba9565b612ca56060830187612ba9565b612cb26080830186612ba9565b612cbf60a0830185612ba9565b612ccc60c0830184612ba9565b98975050505050505050565b600061018082019050612cee600083018f6127e8565b612cfb602083018e6127e8565b612d08604083018d612ba9565b612d15606083018c612ba9565b612d22608083018b612ba9565b612d2f60a083018a612ba9565b612d3c60c0830189612ba9565b612d4960e0830188612ba9565b612d57610100830187612ba9565b612d656101208301866127d9565b612d736101408301856127d9565b612d81610160830184612ba9565b9d9c50505050505050505050505050565b60006020820190508181036000830152612dab816127f7565b9050919050565b60006020820190508181036000830152612dcb81612837565b9050919050565b60006020820190508181036000830152612deb81612877565b9050919050565b60006020820190508181036000830152612e0b816128dd565b9050919050565b60006020820190508181036000830152612e2b8161291d565b9050919050565b60006020820190508181036000830152612e4b8161295d565b9050919050565b60006020820190508181036000830152612e6b816129c3565b9050919050565b60006020820190508181036000830152612e8b81612a03565b9050919050565b60006020820190508181036000830152612eab81612a43565b9050919050565b60006020820190508181036000830152612ecb81612a83565b9050919050565b60006020820190508181036000830152612eeb81612ae9565b9050919050565b60006020820190508181036000830152612f0b81612b29565b9050919050565b60006020820190508181036000830152612f2b81612b69565b9050919050565b6000602082019050612f476000830184612ba9565b92915050565b6000604082019050612f626000830185612ba9565b612f6f6020830184612ba9565b9392505050565b600060a082019050612f8b6000830188612ba9565b612f986020830187612ba9565b612fa56040830186612ba9565b612fb26060830185612ba9565b612fbf6080830184612ba9565b9695505050505050565b600061010082019050612fdf600083018b612ba9565b612fec602083018a612ba9565b612ff96040830189612ba9565b6130066060830188612ba9565b6130136080830187612ba9565b61302060a0830186612ba9565b61302d60c0830185612ba9565b61303a60e08301846127d9565b9998505050505050505050565b600082825260208201905092915050565b6000613063826131bd565b915061306e836131bd565b9250827fffffffffffffffffffffffffffffffffffffffffffffffffffffffffffffffff038211156130a3576130a26131eb565b5b828201905092915050565b60006130b9826131bd565b91506130c4836131bd565b9250826130d4576130d361321a565b5b828204905092915050565b60006130ea826131bd565b91506130f5836131bd565b9250817fffffffffffffffffffffffffffffffffffffffffffffffffffffffffffffffff048311821515161561312e5761312d6131eb565b5b828202905092915050565b6000613144826131bd565b915061314f836131bd565b925082821015613162576131616131eb565b5b828203905092915050565b60006131788261319d565b9050919050565b60008115159050919050565b60006131968261316d565b9050919050565b600073ffffffffffffffffffffffffffffffffffffffff82169050919050565b6000819050919050565b60006131d2826131d9565b9050919050565b60006131e48261319d565b9050919050565b7f4e487b7100000000000000000000000000000000000000000000000000000000600052601160045260246000fd5b7f4e487b7100000000000000000000000000000000000000000000000000000000600052601260045260246000fd5b6132528161316d565b811461325d57600080fd5b50565b6132698161317f565b811461327457600080fd5b50565b6132808161318b565b811461328b57600080fd5b50565b613297816131bd565b81146132a257600080fd5b5056fea2646970667358221220beb28fc403aa32058c87f350d41c07d0ca6a65498502ca4e6caa0a8e26b6fb2e64736f6c63430008000033",
  "linkReferences": {},
  "deployedLinkReferences": {}
}