{
  "_format": "hh-sol-artifact-1",
  "contractName": "Vault",
  "sourceName": "contracts/Vault.sol",
  "abi": [
    {
      "anonymous": false,
      "inputs": [
        {
          "indexed": true,
          "internalType": "address",
          "name": "user",
          "type": "address"
        },
        {
          "indexed": true,
          "internalType": "uint256",
          "name": "pid",
          "type": "uint256"
        },
        {
          "indexed": false,
          "internalType": "uint256",
          "name": "amount",
          "type": "uint256"
        }
      ],
      "name": "Deposit",
      "type": "event"
    },
    {
      "anonymous": false,
      "inputs": [
        {
          "indexed": true,
          "internalType": "address",
          "name": "previousOwner",
          "type": "address"
        },
        {
          "indexed": true,
          "internalType": "address",
          "name": "newOwner",
          "type": "address"
        }
      ],
      "name": "OwnershipTransferred",
      "type": "event"
    },
    {
      "anonymous": false,
      "inputs": [
        {
          "indexed": true,
          "internalType": "address",
          "name": "user",
          "type": "address"
        },
        {
          "indexed": true,
          "internalType": "uint256",
          "name": "pid",
          "type": "uint256"
        },
        {
          "indexed": false,
          "internalType": "uint256",
          "name": "amount",
          "type": "uint256"
        }
      ],
      "name": "Withdraw",
      "type": "event"
    },
    {
      "inputs": [
        {
          "internalType": "uint256",
          "name": "",
          "type": "uint256"
        }
      ],
      "name": "addressList",
      "outputs": [
        {
          "internalType": "uint256",
          "name": "",
          "type": "uint256"
        }
      ],
      "stateMutability": "view",
      "type": "function"
    },
    {
      "inputs": [
        {
          "internalType": "contract IERC20",
          "name": "_token",
          "type": "address"
        },
        {
          "internalType": "bool",
          "name": "_isLp",
          "type": "bool"
        },
        {
          "internalType": "uint256",
          "name": "_amount",
          "type": "uint256"
        }
      ],
      "name": "createVault",
      "outputs": [],
      "stateMutability": "nonpayable",
      "type": "function"
    },
    {
      "inputs": [
        {
          "internalType": "uint256",
          "name": "_vid",
          "type": "uint256"
        },
        {
          "internalType": "uint256",
          "name": "_lockTime",
          "type": "uint256"
        },
        {
          "internalType": "uint256",
          "name": "_amount",
          "type": "uint256"
        }
      ],
      "name": "deposit",
      "outputs": [],
      "stateMutability": "nonpayable",
      "type": "function"
    },
    {
      "inputs": [
        {
          "internalType": "uint256",
          "name": "_vid",
          "type": "uint256"
        },
        {
          "internalType": "address",
          "name": "_user",
          "type": "address"
        }
      ],
      "name": "getUserVaultInfo",
      "outputs": [
        {
          "internalType": "uint256",
          "name": "",
          "type": "uint256"
        },
        {
          "internalType": "uint256",
          "name": "",
          "type": "uint256"
        },
        {
          "internalType": "uint256",
          "name": "",
          "type": "uint256"
        }
      ],
      "stateMutability": "view",
      "type": "function"
    },
    {
      "inputs": [
        {
          "internalType": "uint256",
          "name": "_vid",
          "type": "uint256"
        }
      ],
      "name": "getVault",
      "outputs": [
        {
          "internalType": "uint256",
          "name": "",
          "type": "uint256"
        },
        {
          "internalType": "contract IERC20",
          "name": "",
          "type": "address"
        },
        {
          "internalType": "uint256",
          "name": "",
          "type": "uint256"
        },
        {
          "internalType": "uint256",
          "name": "",
          "type": "uint256"
        },
        {
          "internalType": "uint256",
          "name": "",
          "type": "uint256"
        }
      ],
      "stateMutability": "view",
      "type": "function"
    },
    {
      "inputs": [],
      "name": "owner",
      "outputs": [
        {
          "internalType": "address",
          "name": "",
          "type": "address"
        }
      ],
      "stateMutability": "view",
      "type": "function"
    },
    {
      "inputs": [
        {
          "internalType": "uint256",
          "name": "_pid",
          "type": "uint256"
        },
        {
          "internalType": "address",
          "name": "_user",
          "type": "address"
        }
      ],
      "name": "pendingReward",
      "outputs": [],
      "stateMutability": "nonpayable",
      "type": "function"
    },
    {
      "inputs": [],
      "name": "renounceOwnership",
      "outputs": [],
      "stateMutability": "nonpayable",
      "type": "function"
    },
    {
      "inputs": [
        {
          "internalType": "address",
          "name": "newOwner",
          "type": "address"
        }
      ],
      "name": "transferOwnership",
      "outputs": [],
      "stateMutability": "nonpayable",
      "type": "function"
    },
    {
      "inputs": [],
      "name": "updateVault",
      "outputs": [],
      "stateMutability": "nonpayable",
      "type": "function"
    },
    {
      "inputs": [
        {
          "internalType": "uint256",
          "name": "",
          "type": "uint256"
        },
        {
          "internalType": "address",
          "name": "",
          "type": "address"
        }
      ],
      "name": "userInfo",
      "outputs": [
        {
          "internalType": "uint256",
          "name": "amount",
          "type": "uint256"
        },
        {
          "internalType": "uint256",
          "name": "rewardDebt",
          "type": "uint256"
        },
        {
          "internalType": "uint256",
          "name": "lockTime",
          "type": "uint256"
        }
      ],
      "stateMutability": "view",
      "type": "function"
    },
    {
      "inputs": [],
      "name": "vaultId",
      "outputs": [
        {
          "internalType": "uint256",
          "name": "",
          "type": "uint256"
        }
      ],
      "stateMutability": "view",
      "type": "function"
    },
    {
      "inputs": [
        {
          "internalType": "uint256",
          "name": "",
          "type": "uint256"
        }
      ],
      "name": "vaultInfo",
      "outputs": [
        {
          "internalType": "uint256",
          "name": "vid",
          "type": "uint256"
        },
        {
          "internalType": "contract IERC20",
          "name": "token",
          "type": "address"
        },
        {
          "internalType": "uint256",
          "name": "vaultRewardsPerWeight",
          "type": "uint256"
        },
        {
          "internalType": "uint256",
          "name": "vaultTokenReserve",
          "type": "uint256"
        },
        {
          "internalType": "uint256",
          "name": "startBlockTime",
          "type": "uint256"
        },
        {
          "internalType": "uint256",
          "name": "endBlockTime",
          "type": "uint256"
        },
        {
          "internalType": "uint256",
          "name": "userCount",
          "type": "uint256"
        },
        {
          "internalType": "bool",
          "name": "isLpVault",
          "type": "bool"
        },
        {
          "internalType": "bool",
          "name": "created",
          "type": "bool"
        }
      ],
      "stateMutability": "view",
      "type": "function"
    },
    {
      "inputs": [
        {
          "internalType": "uint256",
          "name": "_pid",
          "type": "uint256"
        },
        {
          "internalType": "uint256",
          "name": "_amount",
          "type": "uint256"
        }
      ],
      "name": "withdraw",
      "outputs": [],
      "stateMutability": "nonpayable",
      "type": "function"
    }
  ],
  "bytecode": "0x6080604052600060015534801561001557600080fd5b5061003261002761003760201b60201c565b61003f60201b60201c565b610103565b600033905090565b60008060009054906101000a900473ffffffffffffffffffffffffffffffffffffffff169050816000806101000a81548173ffffffffffffffffffffffffffffffffffffffff021916908373ffffffffffffffffffffffffffffffffffffffff1602179055508173ffffffffffffffffffffffffffffffffffffffff168173ffffffffffffffffffffffffffffffffffffffff167f8be0079c531659141344cd1fd0a4f28419497f9722a3daafe3b4186f6b6457e060405160405180910390a35050565b611800806101126000396000f3fe608060405234801561001057600080fd5b50600436106100e95760003560e01c8063929060d81161008c57806398969e821161006657806398969e8214610246578063b810fb4314610262578063bc65f0bc14610292578063f2fde38b146102ae576100e9565b8063929060d8146101a857806393f1a40b146101e05780639403b63414610212576100e9565b8063441a3e70116100c8578063441a3e701461015a578063715018a6146101765780637196e841146101805780638da5cb5b1461018a576100e9565b8062aeef8a146100ee57806324f518331461010a57806333194c0a1461013c575b600080fd5b6101086004803603810190610103919061113c565b6102ca565b005b610124600480360381019061011f91906110c4565b6105af565b604051610133939291906115da565b60405180910390f35b61014461064d565b60405161015191906114df565b60405180910390f35b610174600480360381019061016f9190611100565b610653565b005b61017e610783565b005b61018861080b565b005b61019261080d565b60405161019f91906113ad565b60405180910390f35b6101c260048036038101906101bd9190611072565b610836565b6040516101d79998979695949392919061154d565b60405180910390f35b6101fa60048036038101906101f591906110c4565b6108ce565b604051610209939291906115da565b60405180910390f35b61022c60048036038101906102279190611072565b610905565b60405161023d9594939291906114fa565b60405180910390f35b610260600480360381019061025b91906110c4565b610a59565b005b61027c60048036038101906102779190611072565b610a5d565b60405161028991906114df565b60405180910390f35b6102ac60048036038101906102a79190611023565b610a81565b005b6102c860048036038101906102c39190610fd1565b610d8f565b005b6001151560028481548110610308577f4e487b7100000000000000000000000000000000000000000000000000000000600052603260045260246000fd5b906000526020600020906008020160070160019054906101000a900460ff16151514610369576040517f08c379a0000000000000000000000000000000000000000000000000000000008152600401610360906114bf565b60405180910390fd5b6000600284815481106103a5577f4e487b7100000000000000000000000000000000000000000000000000000000600052603260045260246000fd5b906000526020600020906008020160405180610120016040529081600082015481526020016001820160009054906101000a900473ffffffffffffffffffffffffffffffffffffffff1673ffffffffffffffffffffffffffffffffffffffff1673ffffffffffffffffffffffffffffffffffffffff16815260200160028201548152602001600382015481526020016004820154815260200160058201548152602001600682015481526020016007820160009054906101000a900460ff161515151581526020016007820160019054906101000a900460ff161515151581525050905060006003600086815260200190815260200160002060003373ffffffffffffffffffffffffffffffffffffffff1673ffffffffffffffffffffffffffffffffffffffff1681526020019081526020016000209050816020015173ffffffffffffffffffffffffffffffffffffffff166323b872dd3330866040518463ffffffff1660e01b815260040161051e939291906113c8565b602060405180830381600087803b15801561053857600080fd5b505af115801561054c573d6000803e3d6000fd5b505050506040513d601f19601f820116820180604052508101906105709190610ffa565b61057957600080fd5b8281600001546105899190611622565b81600001819055506000816002015414156105a8578381600201819055505b5050505050565b6000806000806003600087815260200190815260200160002060008673ffffffffffffffffffffffffffffffffffffffff1673ffffffffffffffffffffffffffffffffffffffff16815260200190815260200160002060405180606001604052908160008201548152602001600182015481526020016002820154815250509050806000015181602001518260400151935093509350509250925092565b60015481565b60008111610696576040517f08c379a000000000000000000000000000000000000000000000000000000000815260040161068d9061149f565b60405180910390fd5b60006003600084815260200190815260200160002060003373ffffffffffffffffffffffffffffffffffffffff1673ffffffffffffffffffffffffffffffffffffffff16815260200190815260200160002090508181600001541015610731576040517f08c379a00000000000000000000000000000000000000000000000000000000081526004016107289061143f565b60405180910390fd5b60006002848154811061076d577f4e487b7100000000000000000000000000000000000000000000000000000000600052603260045260246000fd5b9060005260206000209060080201905050505050565b61078b610e87565b73ffffffffffffffffffffffffffffffffffffffff166107a961080d565b73ffffffffffffffffffffffffffffffffffffffff16146107ff576040517f08c379a00000000000000000000000000000000000000000000000000000000081526004016107f69061145f565b60405180910390fd5b6108096000610e8f565b565b565b60008060009054906101000a900473ffffffffffffffffffffffffffffffffffffffff16905090565b6002818154811061084657600080fd5b90600052602060002090600802016000915090508060000154908060010160009054906101000a900473ffffffffffffffffffffffffffffffffffffffff16908060020154908060030154908060040154908060050154908060060154908060070160009054906101000a900460ff16908060070160019054906101000a900460ff16905089565b6003602052816000526040600020602052806000526040600020600091509150508060000154908060010154908060020154905083565b60008060008060008060028781548110610948577f4e487b7100000000000000000000000000000000000000000000000000000000600052603260045260246000fd5b906000526020600020906008020160405180610120016040529081600082015481526020016001820160009054906101000a900473ffffffffffffffffffffffffffffffffffffffff1673ffffffffffffffffffffffffffffffffffffffff1673ffffffffffffffffffffffffffffffffffffffff16815260200160028201548152602001600382015481526020016004820154815260200160058201548152602001600682015481526020016007820160009054906101000a900460ff161515151581526020016007820160019054906101000a900460ff161515151581525050905080600001518160200151826060015183608001518460a00151955095509550955095505091939590929450565b5050565b60048181548110610a6d57600080fd5b906000526020600020016000915090505481565b808373ffffffffffffffffffffffffffffffffffffffff166370a08231336040518263ffffffff1660e01b8152600401610abb91906113ad565b60206040518083038186803b158015610ad357600080fd5b505afa158015610ae7573d6000803e3d6000fd5b505050506040513d601f19601f82011682018060405250810190610b0b919061109b565b1015610b4c576040517f08c379a0000000000000000000000000000000000000000000000000000000008152600401610b439061141f565b60405180910390fd5b600260405180610120016040528060015481526020018573ffffffffffffffffffffffffffffffffffffffff168152602001600181526020018381526020014281526020016220f58081526020016000815260200184151581526020016001151581525090806001815401808255809150506001900390600052602060002090600802016000909190919091506000820151816000015560208201518160010160006101000a81548173ffffffffffffffffffffffffffffffffffffffff021916908373ffffffffffffffffffffffffffffffffffffffff16021790555060408201518160020155606082015181600301556080820151816004015560a0820151816005015560c0820151816006015560e08201518160070160006101000a81548160ff0219169083151502179055506101008201518160070160016101000a81548160ff021916908315150217905550505060016000815480929190610cb2906116f6565b919050556001819055508273ffffffffffffffffffffffffffffffffffffffff166323b872dd3330846040518463ffffffff1660e01b8152600401610cf9939291906113c8565b602060405180830381600087803b158015610d1357600080fd5b505af1158015610d27573d6000803e3d6000fd5b505050506040513d601f19601f82011682018060405250810190610d4b9190610ffa565b610d8a576040517f08c379a0000000000000000000000000000000000000000000000000000000008152600401610d819061147f565b60405180910390fd5b505050565b610d97610e87565b73ffffffffffffffffffffffffffffffffffffffff16610db561080d565b73ffffffffffffffffffffffffffffffffffffffff1614610e0b576040517f08c379a0000000000000000000000000000000000000000000000000000000008152600401610e029061145f565b60405180910390fd5b600073ffffffffffffffffffffffffffffffffffffffff168173ffffffffffffffffffffffffffffffffffffffff161415610e7b576040517f08c379a0000000000000000000000000000000000000000000000000000000008152600401610e72906113ff565b60405180910390fd5b610e8481610e8f565b50565b600033905090565b60008060009054906101000a900473ffffffffffffffffffffffffffffffffffffffff169050816000806101000a81548173ffffffffffffffffffffffffffffffffffffffff021916908373ffffffffffffffffffffffffffffffffffffffff1602179055508173ffffffffffffffffffffffffffffffffffffffff168173ffffffffffffffffffffffffffffffffffffffff167f8be0079c531659141344cd1fd0a4f28419497f9722a3daafe3b4186f6b6457e060405160405180910390a35050565b600081359050610f628161176e565b92915050565b600081359050610f7781611785565b92915050565b600081519050610f8c81611785565b92915050565b600081359050610fa18161179c565b92915050565b600081359050610fb6816117b3565b92915050565b600081519050610fcb816117b3565b92915050565b600060208284031215610fe357600080fd5b6000610ff184828501610f53565b91505092915050565b60006020828403121561100c57600080fd5b600061101a84828501610f7d565b91505092915050565b60008060006060848603121561103857600080fd5b600061104686828701610f92565b935050602061105786828701610f68565b925050604061106886828701610fa7565b9150509250925092565b60006020828403121561108457600080fd5b600061109284828501610fa7565b91505092915050565b6000602082840312156110ad57600080fd5b60006110bb84828501610fbc565b91505092915050565b600080604083850312156110d757600080fd5b60006110e585828601610fa7565b92505060206110f685828601610f53565b9150509250929050565b6000806040838503121561111357600080fd5b600061112185828601610fa7565b925050602061113285828601610fa7565b9150509250929050565b60008060006060848603121561115157600080fd5b600061115f86828701610fa7565b935050602061117086828701610fa7565b925050604061118186828701610fa7565b9150509250925092565b61119481611678565b82525050565b6111a38161168a565b82525050565b6111b2816116d2565b82525050565b60006111c5602683611611565b91507f4f776e61626c653a206e6577206f776e657220697320746865207a65726f206160008301527f64647265737300000000000000000000000000000000000000000000000000006020830152604082019050919050565b600061122b601283611611565b91507f5573657220686173206e6f20746f6b656e7300000000000000000000000000006000830152602082019050919050565b600061126b601483611611565b91507f77697468647261773a206e6f7420656e6f7567680000000000000000000000006000830152602082019050919050565b60006112ab602083611611565b91507f4f776e61626c653a2063616c6c6572206973206e6f7420746865206f776e65726000830152602082019050919050565b60006112eb601683611611565b91507f43616e2774207472616e7366657220746f6b656e732e000000000000000000006000830152602082019050919050565b600061132b600883611611565b91507f616d6f756e7420300000000000000000000000000000000000000000000000006000830152602082019050919050565b600061136b600f83611611565b91507f5661756c74206e6f7420666f756e6400000000000000000000000000000000006000830152602082019050919050565b6113a7816116c8565b82525050565b60006020820190506113c2600083018461118b565b92915050565b60006060820190506113dd600083018661118b565b6113ea602083018561118b565b6113f7604083018461139e565b949350505050565b60006020820190508181036000830152611418816111b8565b9050919050565b600060208201905081810360008301526114388161121e565b9050919050565b600060208201905081810360008301526114588161125e565b9050919050565b600060208201905081810360008301526114788161129e565b9050919050565b60006020820190508181036000830152611498816112de565b9050919050565b600060208201905081810360008301526114b88161131e565b9050919050565b600060208201905081810360008301526114d88161135e565b9050919050565b60006020820190506114f4600083018461139e565b92915050565b600060a08201905061150f600083018861139e565b61151c60208301876111a9565b611529604083018661139e565b611536606083018561139e565b611543608083018461139e565b9695505050505050565b600061012082019050611563600083018c61139e565b611570602083018b6111a9565b61157d604083018a61139e565b61158a606083018961139e565b611597608083018861139e565b6115a460a083018761139e565b6115b160c083018661139e565b6115be60e083018561119a565b6115cc61010083018461119a565b9a9950505050505050505050565b60006060820190506115ef600083018661139e565b6115fc602083018561139e565b611609604083018461139e565b949350505050565b600082825260208201905092915050565b600061162d826116c8565b9150611638836116c8565b9250827fffffffffffffffffffffffffffffffffffffffffffffffffffffffffffffffff0382111561166d5761166c61173f565b5b828201905092915050565b6000611683826116a8565b9050919050565b60008115159050919050565b60006116a182611678565b9050919050565b600073ffffffffffffffffffffffffffffffffffffffff82169050919050565b6000819050919050565b60006116dd826116e4565b9050919050565b60006116ef826116a8565b9050919050565b6000611701826116c8565b91507fffffffffffffffffffffffffffffffffffffffffffffffffffffffffffffffff8214156117345761173361173f565b5b600182019050919050565b7f4e487b7100000000000000000000000000000000000000000000000000000000600052601160045260246000fd5b61177781611678565b811461178257600080fd5b50565b61178e8161168a565b811461179957600080fd5b50565b6117a581611696565b81146117b057600080fd5b50565b6117bc816116c8565b81146117c757600080fd5b5056fea26469706673582212201486156f7d6a0a714e90b231238aea819d8ed058dde9e01d8bad4d1d8ae3994c64736f6c63430008000033",
  "linkReferences": {},
  "deployedLinkReferences": {}
}