{
  "_format": "hh-sol-artifact-1",
  "contractName": "Vault",
  "sourceName": "contracts/Vault.sol",
  "abi": [
    {
      "anonymous": false,
      "inputs": [
        {
          "indexed": true,
          "internalType": "address",
          "name": "user",
          "type": "address"
        },
        {
          "indexed": true,
          "internalType": "uint256",
          "name": "pid",
          "type": "uint256"
        },
        {
          "indexed": false,
          "internalType": "uint256",
          "name": "amount",
          "type": "uint256"
        }
      ],
      "name": "Deposit",
      "type": "event"
    },
    {
      "anonymous": false,
      "inputs": [
        {
          "indexed": true,
          "internalType": "address",
          "name": "previousOwner",
          "type": "address"
        },
        {
          "indexed": true,
          "internalType": "address",
          "name": "newOwner",
          "type": "address"
        }
      ],
      "name": "OwnershipTransferred",
      "type": "event"
    },
    {
      "anonymous": false,
      "inputs": [
        {
          "indexed": true,
          "internalType": "address",
          "name": "user",
          "type": "address"
        },
        {
          "indexed": true,
          "internalType": "uint256",
          "name": "pid",
          "type": "uint256"
        },
        {
          "indexed": false,
          "internalType": "uint256",
          "name": "amount",
          "type": "uint256"
        }
      ],
      "name": "Withdraw",
      "type": "event"
    },
    {
      "inputs": [
        {
          "internalType": "uint256",
          "name": "",
          "type": "uint256"
        }
      ],
      "name": "addressList",
      "outputs": [
        {
          "internalType": "uint256",
          "name": "",
          "type": "uint256"
        }
      ],
      "stateMutability": "view",
      "type": "function"
    },
    {
      "inputs": [
        {
          "internalType": "contract IERC20",
          "name": "_token",
          "type": "address"
        },
        {
          "internalType": "bool",
          "name": "_isLp",
          "type": "bool"
        },
        {
          "internalType": "uint256",
          "name": "_amount",
          "type": "uint256"
        }
      ],
      "name": "createVault",
      "outputs": [],
      "stateMutability": "nonpayable",
      "type": "function"
    },
    {
      "inputs": [
        {
          "internalType": "uint256",
          "name": "_pid",
          "type": "uint256"
        },
        {
          "internalType": "uint256",
          "name": "_lockTime",
          "type": "uint256"
        },
        {
          "internalType": "uint256",
          "name": "_amount",
          "type": "uint256"
        }
      ],
      "name": "deposit",
      "outputs": [],
      "stateMutability": "nonpayable",
      "type": "function"
    },
    {
      "inputs": [
        {
          "internalType": "uint256",
          "name": "_vid",
          "type": "uint256"
        }
      ],
      "name": "getVault",
      "outputs": [
        {
          "internalType": "uint256",
          "name": "",
          "type": "uint256"
        },
        {
          "internalType": "contract IERC20",
          "name": "",
          "type": "address"
        },
        {
          "internalType": "uint256",
          "name": "",
          "type": "uint256"
        },
        {
          "internalType": "uint256",
          "name": "",
          "type": "uint256"
        },
        {
          "internalType": "uint256",
          "name": "",
          "type": "uint256"
        }
      ],
      "stateMutability": "view",
      "type": "function"
    },
    {
      "inputs": [],
      "name": "owner",
      "outputs": [
        {
          "internalType": "address",
          "name": "",
          "type": "address"
        }
      ],
      "stateMutability": "view",
      "type": "function"
    },
    {
      "inputs": [
        {
          "internalType": "uint256",
          "name": "_pid",
          "type": "uint256"
        },
        {
          "internalType": "address",
          "name": "_user",
          "type": "address"
        }
      ],
      "name": "pendingReward",
      "outputs": [],
      "stateMutability": "nonpayable",
      "type": "function"
    },
    {
      "inputs": [],
      "name": "renounceOwnership",
      "outputs": [],
      "stateMutability": "nonpayable",
      "type": "function"
    },
    {
      "inputs": [
        {
          "internalType": "address",
          "name": "newOwner",
          "type": "address"
        }
      ],
      "name": "transferOwnership",
      "outputs": [],
      "stateMutability": "nonpayable",
      "type": "function"
    },
    {
      "inputs": [],
      "name": "updateVault",
      "outputs": [],
      "stateMutability": "nonpayable",
      "type": "function"
    },
    {
      "inputs": [
        {
          "internalType": "uint256",
          "name": "",
          "type": "uint256"
        },
        {
          "internalType": "address",
          "name": "",
          "type": "address"
        }
      ],
      "name": "userInfo",
      "outputs": [
        {
          "internalType": "uint256",
          "name": "amount",
          "type": "uint256"
        },
        {
          "internalType": "uint256",
          "name": "rewardDebt",
          "type": "uint256"
        }
      ],
      "stateMutability": "view",
      "type": "function"
    },
    {
      "inputs": [],
      "name": "vaultId",
      "outputs": [
        {
          "internalType": "uint256",
          "name": "",
          "type": "uint256"
        }
      ],
      "stateMutability": "view",
      "type": "function"
    },
    {
      "inputs": [
        {
          "internalType": "uint256",
          "name": "",
          "type": "uint256"
        }
      ],
      "name": "vaultInfo",
      "outputs": [
        {
          "internalType": "uint256",
          "name": "vid",
          "type": "uint256"
        },
        {
          "internalType": "contract IERC20",
          "name": "token",
          "type": "address"
        },
        {
          "internalType": "uint256",
          "name": "vaultRewardsPerWeight",
          "type": "uint256"
        },
        {
          "internalType": "uint256",
          "name": "vaultTokenReserve",
          "type": "uint256"
        },
        {
          "internalType": "uint256",
          "name": "startBlockTime",
          "type": "uint256"
        },
        {
          "internalType": "uint256",
          "name": "endBlockTime",
          "type": "uint256"
        },
        {
          "internalType": "bool",
          "name": "isLpVault",
          "type": "bool"
        }
      ],
      "stateMutability": "view",
      "type": "function"
    },
    {
      "inputs": [
        {
          "internalType": "uint256",
          "name": "_pid",
          "type": "uint256"
        },
        {
          "internalType": "uint256",
          "name": "_amount",
          "type": "uint256"
        }
      ],
      "name": "withdraw",
      "outputs": [],
      "stateMutability": "nonpayable",
      "type": "function"
    }
  ],
  "bytecode": "0x6080604052600060015534801561001557600080fd5b5061003261002761003760201b60201c565b61003f60201b60201c565b610103565b600033905090565b60008060009054906101000a900473ffffffffffffffffffffffffffffffffffffffff169050816000806101000a81548173ffffffffffffffffffffffffffffffffffffffff021916908373ffffffffffffffffffffffffffffffffffffffff1602179055508173ffffffffffffffffffffffffffffffffffffffff168173ffffffffffffffffffffffffffffffffffffffff167f8be0079c531659141344cd1fd0a4f28419497f9722a3daafe3b4186f6b6457e060405160405180910390a35050565b61140d806101126000396000f3fe608060405234801561001057600080fd5b50600436106100ce5760003560e01c8063929060d81161008c57806398969e821161006657806398969e82146101f6578063b810fb4314610212578063bc65f0bc14610242578063f2fde38b1461025e576100ce565b8063929060d81461015b57806393f1a40b146101915780639403b634146101c2576100ce565b8062aeef8a146100d357806333194c0a146100ef578063441a3e701461010d578063715018a6146101295780637196e841146101335780638da5cb5b1461013d575b600080fd5b6100ed60048036038101906100e89190610dd5565b61027a565b005b6100f76103f5565b6040516101049190611118565b60405180910390f35b61012760048036038101906101229190610d99565b6103fb565b005b61013161052b565b005b61013b6105b3565b005b6101456105b5565b6040516101529190611006565b60405180910390f35b61017560048036038101906101709190610d0b565b6105de565b6040516101889796959493929190611186565b60405180910390f35b6101ab60048036038101906101a69190610d5d565b61065d565b6040516101b99291906111f5565b60405180910390f35b6101dc60048036038101906101d79190610d0b565b61068e565b6040516101ed959493929190611133565b60405180910390f35b610210600480360381019061020b9190610d5d565b61072e565b005b61022c60048036038101906102279190610d0b565b610732565b6040516102399190611118565b60405180910390f35b61025c60048036038101906102579190610cbc565b610756565b005b61027860048036038101906102739190610c6a565b610a28565b005b6000600284815481106102b6577f4e487b7100000000000000000000000000000000000000000000000000000000600052603260045260246000fd5b9060005260206000209060070201905060006003600086815260200190815260200160002060003373ffffffffffffffffffffffffffffffffffffffff1673ffffffffffffffffffffffffffffffffffffffff16815260200190815260200160002090508160010160009054906101000a900473ffffffffffffffffffffffffffffffffffffffff1673ffffffffffffffffffffffffffffffffffffffff166323b872dd3330866040518463ffffffff1660e01b815260040161037b93929190611021565b602060405180830381600087803b15801561039557600080fd5b505af11580156103a9573d6000803e3d6000fd5b505050506040513d601f19601f820116820180604052508101906103cd9190610c93565b6103d657600080fd5b8281600001546103e6919061122f565b81600001819055505050505050565b60015481565b6000811161043e576040517f08c379a0000000000000000000000000000000000000000000000000000000008152600401610435906110f8565b60405180910390fd5b60006003600084815260200190815260200160002060003373ffffffffffffffffffffffffffffffffffffffff1673ffffffffffffffffffffffffffffffffffffffff168152602001908152602001600020905081816000015410156104d9576040517f08c379a00000000000000000000000000000000000000000000000000000000081526004016104d090611098565b60405180910390fd5b600060028481548110610515577f4e487b7100000000000000000000000000000000000000000000000000000000600052603260045260246000fd5b9060005260206000209060070201905050505050565b610533610b20565b73ffffffffffffffffffffffffffffffffffffffff166105516105b5565b73ffffffffffffffffffffffffffffffffffffffff16146105a7576040517f08c379a000000000000000000000000000000000000000000000000000000000815260040161059e906110b8565b60405180910390fd5b6105b16000610b28565b565b565b60008060009054906101000a900473ffffffffffffffffffffffffffffffffffffffff16905090565b600281815481106105ee57600080fd5b90600052602060002090600702016000915090508060000154908060010160009054906101000a900473ffffffffffffffffffffffffffffffffffffffff16908060020154908060030154908060040154908060050154908060060160009054906101000a900460ff16905087565b6003602052816000526040600020602052806000526040600020600091509150508060000154908060010154905082565b600080600080600080600287815481106106d1577f4e487b7100000000000000000000000000000000000000000000000000000000600052603260045260246000fd5b9060005260206000209060070201905080600001548160010160009054906101000a900473ffffffffffffffffffffffffffffffffffffffff16826003015483600401548460050154955095509550955095505091939590929450565b5050565b6004818154811061074257600080fd5b906000526020600020016000915090505481565b808373ffffffffffffffffffffffffffffffffffffffff166370a08231336040518263ffffffff1660e01b81526004016107909190611006565b60206040518083038186803b1580156107a857600080fd5b505afa1580156107bc573d6000803e3d6000fd5b505050506040513d601f19601f820116820180604052508101906107e09190610d34565b1015610821576040517f08c379a000000000000000000000000000000000000000000000000000000000815260040161081890611078565b60405180910390fd5b60026040518060e0016040528060015481526020018573ffffffffffffffffffffffffffffffffffffffff168152602001600181526020018381526020014281526020016220f580815260200184151581525090806001815401808255809150506001900390600052602060002090600702016000909190919091506000820151816000015560208201518160010160006101000a81548173ffffffffffffffffffffffffffffffffffffffff021916908373ffffffffffffffffffffffffffffffffffffffff16021790555060408201518160020155606082015181600301556080820151816004015560a0820151816005015560c08201518160060160006101000a81548160ff02191690831515021790555050506001600081548092919061094b90611303565b919050556001819055508273ffffffffffffffffffffffffffffffffffffffff166323b872dd3330846040518463ffffffff1660e01b815260040161099293929190611021565b602060405180830381600087803b1580156109ac57600080fd5b505af11580156109c0573d6000803e3d6000fd5b505050506040513d601f19601f820116820180604052508101906109e49190610c93565b610a23576040517f08c379a0000000000000000000000000000000000000000000000000000000008152600401610a1a906110d8565b60405180910390fd5b505050565b610a30610b20565b73ffffffffffffffffffffffffffffffffffffffff16610a4e6105b5565b73ffffffffffffffffffffffffffffffffffffffff1614610aa4576040517f08c379a0000000000000000000000000000000000000000000000000000000008152600401610a9b906110b8565b60405180910390fd5b600073ffffffffffffffffffffffffffffffffffffffff168173ffffffffffffffffffffffffffffffffffffffff161415610b14576040517f08c379a0000000000000000000000000000000000000000000000000000000008152600401610b0b90611058565b60405180910390fd5b610b1d81610b28565b50565b600033905090565b60008060009054906101000a900473ffffffffffffffffffffffffffffffffffffffff169050816000806101000a81548173ffffffffffffffffffffffffffffffffffffffff021916908373ffffffffffffffffffffffffffffffffffffffff1602179055508173ffffffffffffffffffffffffffffffffffffffff168173ffffffffffffffffffffffffffffffffffffffff167f8be0079c531659141344cd1fd0a4f28419497f9722a3daafe3b4186f6b6457e060405160405180910390a35050565b600081359050610bfb8161137b565b92915050565b600081359050610c1081611392565b92915050565b600081519050610c2581611392565b92915050565b600081359050610c3a816113a9565b92915050565b600081359050610c4f816113c0565b92915050565b600081519050610c64816113c0565b92915050565b600060208284031215610c7c57600080fd5b6000610c8a84828501610bec565b91505092915050565b600060208284031215610ca557600080fd5b6000610cb384828501610c16565b91505092915050565b600080600060608486031215610cd157600080fd5b6000610cdf86828701610c2b565b9350506020610cf086828701610c01565b9250506040610d0186828701610c40565b9150509250925092565b600060208284031215610d1d57600080fd5b6000610d2b84828501610c40565b91505092915050565b600060208284031215610d4657600080fd5b6000610d5484828501610c55565b91505092915050565b60008060408385031215610d7057600080fd5b6000610d7e85828601610c40565b9250506020610d8f85828601610bec565b9150509250929050565b60008060408385031215610dac57600080fd5b6000610dba85828601610c40565b9250506020610dcb85828601610c40565b9150509250929050565b600080600060608486031215610dea57600080fd5b6000610df886828701610c40565b9350506020610e0986828701610c40565b9250506040610e1a86828701610c40565b9150509250925092565b610e2d81611285565b82525050565b610e3c81611297565b82525050565b610e4b816112df565b82525050565b6000610e5e60268361121e565b91507f4f776e61626c653a206e6577206f776e657220697320746865207a65726f206160008301527f64647265737300000000000000000000000000000000000000000000000000006020830152604082019050919050565b6000610ec460128361121e565b91507f5573657220686173206e6f20746f6b656e7300000000000000000000000000006000830152602082019050919050565b6000610f0460148361121e565b91507f77697468647261773a206e6f7420656e6f7567680000000000000000000000006000830152602082019050919050565b6000610f4460208361121e565b91507f4f776e61626c653a2063616c6c6572206973206e6f7420746865206f776e65726000830152602082019050919050565b6000610f8460168361121e565b91507f43616e2774207472616e7366657220746f6b656e732e000000000000000000006000830152602082019050919050565b6000610fc460088361121e565b91507f616d6f756e7420300000000000000000000000000000000000000000000000006000830152602082019050919050565b611000816112d5565b82525050565b600060208201905061101b6000830184610e24565b92915050565b60006060820190506110366000830186610e24565b6110436020830185610e24565b6110506040830184610ff7565b949350505050565b6000602082019050818103600083015261107181610e51565b9050919050565b6000602082019050818103600083015261109181610eb7565b9050919050565b600060208201905081810360008301526110b181610ef7565b9050919050565b600060208201905081810360008301526110d181610f37565b9050919050565b600060208201905081810360008301526110f181610f77565b9050919050565b6000602082019050818103600083015261111181610fb7565b9050919050565b600060208201905061112d6000830184610ff7565b92915050565b600060a0820190506111486000830188610ff7565b6111556020830187610e42565b6111626040830186610ff7565b61116f6060830185610ff7565b61117c6080830184610ff7565b9695505050505050565b600060e08201905061119b600083018a610ff7565b6111a86020830189610e42565b6111b56040830188610ff7565b6111c26060830187610ff7565b6111cf6080830186610ff7565b6111dc60a0830185610ff7565b6111e960c0830184610e33565b98975050505050505050565b600060408201905061120a6000830185610ff7565b6112176020830184610ff7565b9392505050565b600082825260208201905092915050565b600061123a826112d5565b9150611245836112d5565b9250827fffffffffffffffffffffffffffffffffffffffffffffffffffffffffffffffff0382111561127a5761127961134c565b5b828201905092915050565b6000611290826112b5565b9050919050565b60008115159050919050565b60006112ae82611285565b9050919050565b600073ffffffffffffffffffffffffffffffffffffffff82169050919050565b6000819050919050565b60006112ea826112f1565b9050919050565b60006112fc826112b5565b9050919050565b600061130e826112d5565b91507fffffffffffffffffffffffffffffffffffffffffffffffffffffffffffffffff8214156113415761134061134c565b5b600182019050919050565b7f4e487b7100000000000000000000000000000000000000000000000000000000600052601160045260246000fd5b61138481611285565b811461138f57600080fd5b50565b61139b81611297565b81146113a657600080fd5b50565b6113b2816112a3565b81146113bd57600080fd5b50565b6113c9816112d5565b81146113d457600080fd5b5056fea2646970667358221220e6c0052a789b0e17fd1060915eee29c3ec8d99363d9bd4ce14f42b8417c559bc64736f6c63430008000033",
  "linkReferences": {},
  "deployedLinkReferences": {}
}