{
  "_format": "hh-sol-artifact-1",
  "contractName": "Vault",
  "sourceName": "contracts/Vault.sol",
  "abi": [
    {
      "inputs": [
        {
          "internalType": "contract IERC20",
          "name": "_babydoge",
          "type": "address"
        },
        {
          "internalType": "uint256",
          "name": "_taxForNonBabyDogeCoin",
          "type": "uint256"
        }
      ],
      "stateMutability": "nonpayable",
      "type": "constructor"
    },
    {
      "anonymous": false,
      "inputs": [
        {
          "indexed": true,
          "internalType": "address",
          "name": "user",
          "type": "address"
        },
        {
          "indexed": true,
          "internalType": "uint256",
          "name": "pid",
          "type": "uint256"
        },
        {
          "indexed": false,
          "internalType": "uint256",
          "name": "amount",
          "type": "uint256"
        }
      ],
      "name": "Deposit",
      "type": "event"
    },
    {
      "anonymous": false,
      "inputs": [
        {
          "indexed": true,
          "internalType": "address",
          "name": "previousOwner",
          "type": "address"
        },
        {
          "indexed": true,
          "internalType": "address",
          "name": "newOwner",
          "type": "address"
        }
      ],
      "name": "OwnershipTransferred",
      "type": "event"
    },
    {
      "anonymous": false,
      "inputs": [
        {
          "indexed": true,
          "internalType": "address",
          "name": "user",
          "type": "address"
        },
        {
          "indexed": true,
          "internalType": "uint256",
          "name": "pid",
          "type": "uint256"
        },
        {
          "indexed": false,
          "internalType": "uint256",
          "name": "amount",
          "type": "uint256"
        }
      ],
      "name": "Withdraw",
      "type": "event"
    },
    {
      "inputs": [],
      "name": "babydoge",
      "outputs": [
        {
          "internalType": "contract IERC20",
          "name": "",
          "type": "address"
        }
      ],
      "stateMutability": "view",
      "type": "function"
    },
    {
      "inputs": [
        {
          "internalType": "uint256",
          "name": "_vid",
          "type": "uint256"
        },
        {
          "internalType": "address",
          "name": "_user",
          "type": "address"
        }
      ],
      "name": "calcRewardsUser",
      "outputs": [
        {
          "internalType": "uint256",
          "name": "",
          "type": "uint256"
        }
      ],
      "stateMutability": "view",
      "type": "function"
    },
    {
      "inputs": [
        {
          "internalType": "contract IERC20",
          "name": "_tokenStake",
          "type": "address"
        },
        {
          "internalType": "contract IERC20",
          "name": "_tokenReward",
          "type": "address"
        },
        {
          "internalType": "bool",
          "name": "_isLp",
          "type": "bool"
        },
        {
          "internalType": "uint256",
          "name": "_lockDays",
          "type": "uint256"
        },
        {
          "internalType": "uint256",
          "name": "_amount",
          "type": "uint256"
        }
      ],
      "name": "createVault",
      "outputs": [
        {
          "internalType": "uint256",
          "name": "",
          "type": "uint256"
        }
      ],
      "stateMutability": "nonpayable",
      "type": "function"
    },
    {
      "inputs": [
        {
          "internalType": "uint256",
          "name": "_vid",
          "type": "uint256"
        },
        {
          "internalType": "uint256",
          "name": "_lockDays",
          "type": "uint256"
        },
        {
          "internalType": "uint256",
          "name": "value",
          "type": "uint256"
        }
      ],
      "name": "deposit",
      "outputs": [
        {
          "internalType": "bool",
          "name": "",
          "type": "bool"
        }
      ],
      "stateMutability": "nonpayable",
      "type": "function"
    },
    {
      "inputs": [
        {
          "internalType": "uint256",
          "name": "_vid",
          "type": "uint256"
        },
        {
          "internalType": "address",
          "name": "_user",
          "type": "address"
        }
      ],
      "name": "getUserInfo",
      "outputs": [
        {
          "internalType": "uint256",
          "name": "",
          "type": "uint256"
        },
        {
          "internalType": "uint256",
          "name": "",
          "type": "uint256"
        },
        {
          "internalType": "uint256",
          "name": "",
          "type": "uint256"
        },
        {
          "internalType": "uint256",
          "name": "",
          "type": "uint256"
        },
        {
          "internalType": "uint256",
          "name": "",
          "type": "uint256"
        }
      ],
      "stateMutability": "view",
      "type": "function"
    },
    {
      "inputs": [
        {
          "internalType": "uint256",
          "name": "_vid",
          "type": "uint256"
        }
      ],
      "name": "getVault",
      "outputs": [
        {
          "internalType": "contract IERC20",
          "name": "",
          "type": "address"
        },
        {
          "internalType": "contract IERC20",
          "name": "",
          "type": "address"
        },
        {
          "internalType": "uint256",
          "name": "",
          "type": "uint256"
        },
        {
          "internalType": "uint256",
          "name": "",
          "type": "uint256"
        },
        {
          "internalType": "uint256",
          "name": "",
          "type": "uint256"
        },
        {
          "internalType": "uint256",
          "name": "",
          "type": "uint256"
        },
        {
          "internalType": "uint256",
          "name": "",
          "type": "uint256"
        }
      ],
      "stateMutability": "view",
      "type": "function"
    },
    {
      "inputs": [],
      "name": "owner",
      "outputs": [
        {
          "internalType": "address",
          "name": "",
          "type": "address"
        }
      ],
      "stateMutability": "view",
      "type": "function"
    },
    {
      "inputs": [],
      "name": "renounceOwnership",
      "outputs": [],
      "stateMutability": "nonpayable",
      "type": "function"
    },
    {
      "inputs": [],
      "name": "taxForNonBabyDogeCoin",
      "outputs": [
        {
          "internalType": "uint256",
          "name": "",
          "type": "uint256"
        }
      ],
      "stateMutability": "view",
      "type": "function"
    },
    {
      "inputs": [
        {
          "internalType": "uint256",
          "name": "",
          "type": "uint256"
        },
        {
          "internalType": "uint256",
          "name": "",
          "type": "uint256"
        }
      ],
      "name": "totalDay",
      "outputs": [
        {
          "internalType": "uint256",
          "name": "amount",
          "type": "uint256"
        },
        {
          "internalType": "uint256",
          "name": "weight",
          "type": "uint256"
        }
      ],
      "stateMutability": "view",
      "type": "function"
    },
    {
      "inputs": [
        {
          "internalType": "address",
          "name": "newOwner",
          "type": "address"
        }
      ],
      "name": "transferOwnership",
      "outputs": [],
      "stateMutability": "nonpayable",
      "type": "function"
    },
    {
      "inputs": [
        {
          "internalType": "uint256",
          "name": "",
          "type": "uint256"
        },
        {
          "internalType": "address",
          "name": "",
          "type": "address"
        }
      ],
      "name": "userInfo",
      "outputs": [
        {
          "internalType": "uint256",
          "name": "amount",
          "type": "uint256"
        },
        {
          "internalType": "uint256",
          "name": "weight",
          "type": "uint256"
        },
        {
          "internalType": "uint256",
          "name": "rewardDebt",
          "type": "uint256"
        },
        {
          "internalType": "uint256",
          "name": "rewardWithdraw",
          "type": "uint256"
        },
        {
          "internalType": "uint256",
          "name": "lockTime",
          "type": "uint256"
        },
        {
          "internalType": "uint256",
          "name": "lockDays",
          "type": "uint256"
        },
        {
          "internalType": "uint256",
          "name": "lastRewardDay",
          "type": "uint256"
        },
        {
          "internalType": "bool",
          "name": "exists",
          "type": "bool"
        }
      ],
      "stateMutability": "view",
      "type": "function"
    },
    {
      "inputs": [
        {
          "internalType": "uint256",
          "name": "",
          "type": "uint256"
        }
      ],
      "name": "vaultInfo",
      "outputs": [
        {
          "internalType": "contract IERC20",
          "name": "tokenStake",
          "type": "address"
        },
        {
          "internalType": "contract IERC20",
          "name": "tokenReward",
          "type": "address"
        },
        {
          "internalType": "uint256",
          "name": "amountReward",
          "type": "uint256"
        },
        {
          "internalType": "uint256",
          "name": "vaultTokenTax",
          "type": "uint256"
        },
        {
          "internalType": "uint256",
          "name": "startVault",
          "type": "uint256"
        },
        {
          "internalType": "uint256",
          "name": "lockDays",
          "type": "uint256"
        },
        {
          "internalType": "uint256",
          "name": "userCount",
          "type": "uint256"
        },
        {
          "internalType": "uint256",
          "name": "usersAmount",
          "type": "uint256"
        },
        {
          "internalType": "uint256",
          "name": "usersWeight",
          "type": "uint256"
        },
        {
          "internalType": "bool",
          "name": "isLpVault",
          "type": "bool"
        },
        {
          "internalType": "bool",
          "name": "paused",
          "type": "bool"
        },
        {
          "internalType": "uint256",
          "name": "lastTotalDay",
          "type": "uint256"
        }
      ],
      "stateMutability": "view",
      "type": "function"
    },
    {
      "inputs": [
        {
          "internalType": "uint256",
          "name": "_vid",
          "type": "uint256"
        }
      ],
      "name": "withdraw",
      "outputs": [],
      "stateMutability": "nonpayable",
      "type": "function"
    },
    {
      "inputs": [
        {
          "internalType": "uint256",
          "name": "_vid",
          "type": "uint256"
        }
      ],
      "name": "withdrawTax",
      "outputs": [],
      "stateMutability": "nonpayable",
      "type": "function"
    }
  ],
  "bytecode": "0x60806040523480156200001157600080fd5b506040516200310b3803806200310b8339818101604052810190620000379190620001a1565b620000576200004b620000a760201b60201c565b620000af60201b60201c565b81600260006101000a81548173ffffffffffffffffffffffffffffffffffffffff021916908373ffffffffffffffffffffffffffffffffffffffff16021790555080600181905550505062000268565b600033905090565b60008060009054906101000a900473ffffffffffffffffffffffffffffffffffffffff169050816000806101000a81548173ffffffffffffffffffffffffffffffffffffffff021916908373ffffffffffffffffffffffffffffffffffffffff1602179055508173ffffffffffffffffffffffffffffffffffffffff168173ffffffffffffffffffffffffffffffffffffffff167f8be0079c531659141344cd1fd0a4f28419497f9722a3daafe3b4186f6b6457e060405160405180910390a35050565b600081519050620001848162000234565b92915050565b6000815190506200019b816200024e565b92915050565b60008060408385031215620001b557600080fd5b6000620001c58582860162000173565b9250506020620001d8858286016200018a565b9150509250929050565b6000620001ef826200020a565b9050919050565b60006200020382620001e2565b9050919050565b600073ffffffffffffffffffffffffffffffffffffffff82169050919050565b6000819050919050565b6200023f81620001f6565b81146200024b57600080fd5b50565b62000259816200022a565b81146200026557600080fd5b50565b612e9380620002786000396000f3fe608060405234801561001057600080fd5b50600436106100f45760003560e01c80638f7ed4b311610097578063d818b23711610066578063d818b237146102b4578063e85c7442146102e4578063f22fcf3614610314578063f2fde38b14610332576100f4565b80638f7ed4b3146101ee578063929060d81461020c57806393f1a40b146102475780639403b6341461027e576100f4565b8063249ae3e2116100d3578063249ae3e21461018e5780632e1a7d4d146101aa578063715018a6146101c65780638da5cb5b146101d0576100f4565b8062aeef8a146100f957806302525222146101295780631069f3b51461015a575b600080fd5b610113600480360381019061010e9190612419565b61034e565b604051610120919061282b565b60405180910390f35b610143600480360381019061013e91906123dd565b6107b3565b604051610151929190612b05565b60405180910390f35b610174600480360381019061016f91906123a1565b6107e4565b604051610185959493929190612b2e565b60405180910390f35b6101a860048036038101906101a3919061234f565b6108da565b005b6101c460048036038101906101bf919061234f565b610af2565b005b6101ce610ed8565b005b6101d8610f60565b6040516101e591906127b0565b60405180910390f35b6101f6610f89565b6040516102039190612aea565b60405180910390f35b6102266004803603810190610221919061234f565b610f8f565b60405161023e9c9b9a999897969594939291906128d0565b60405180910390f35b610261600480360381019061025c91906123a1565b611059565b604051610275989796959493929190612b81565b60405180910390f35b6102986004803603810190610293919061234f565b6110bb565b6040516102ab9796959493929190612861565b60405180910390f35b6102ce60048036038101906102c991906122d8565b611290565b6040516102db9190612aea565b60405180910390f35b6102fe60048036038101906102f991906123a1565b6116e7565b60405161030b9190612aea565b60405180910390f35b61031c611a87565b6040516103299190612846565b60405180910390f35b61034c60048036038101906103479190612286565b611aad565b005b6000808211610392576040517f08c379a000000000000000000000000000000000000000000000000000000000815260040161038990612a8a565b60405180910390fd5b6000600585815481106103ce577f4e487b7100000000000000000000000000000000000000000000000000000000600052603260045260246000fd5b90600052602060002090600b0201905060006103e986611ba5565b9050600015158260090160019054906101000a900460ff16151514610443576040517f08c379a000000000000000000000000000000000000000000000000000000000815260040161043a90612a2a565b60405180910390fd5b816004015442101561048a576040517f08c379a0000000000000000000000000000000000000000000000000000000008152600401610481906129aa565b60405180910390fd5b804211156104cd576040517f08c379a00000000000000000000000000000000000000000000000000000000081526004016104c49061298a565b60405180910390fd5b8160000160009054906101000a900473ffffffffffffffffffffffffffffffffffffffff1673ffffffffffffffffffffffffffffffffffffffff166323b872dd3330876040518463ffffffff1660e01b815260040161052e939291906127cb565b602060405180830381600087803b15801561054857600080fd5b505af115801561055c573d6000803e3d6000fd5b505050506040513d601f19601f8201168201806040525081019061058091906122af565b61058957600080fd5b6000610593611d76565b905060006003600089815260200190815260200160002060003373ffffffffffffffffffffffffffffffffffffffff1673ffffffffffffffffffffffffffffffffffffffff168152602001908152602001600020905060008160070160009054906101000a900460ff166106f85760018260070160006101000a81548160ff0219169083151502179055506000610656603c8060188c6106339190612c97565b61063d9190612c97565b6106479190612c97565b42611d9390919063ffffffff16565b90508481116106655780610667565b845b905080836004018190555088836005018190555083836006018190555060018660060160008282546106999190612c10565b925050819055506106e7633b9aca006106d988600501546106cb633b9aca008860050154611da990919063ffffffff16565b611dbf90919063ffffffff16565b611d9390919063ffffffff16565b9150818360010181905550506106fd565b600090505b868260000160008282546107119190612c10565b9250508190555061072189611dd5565b8285600a01819055508685600701600082825461073e9190612c10565b92505081905550808560080160008282546107599190612c10565b925050819055506000600460008b8152602001908152602001600020600085815260200190815260200160002090508560070154816000018190555085600801548160010181905550600196505050505050509392505050565b6004602052816000526040600020602052806000526040600020600091509150508060000154908060010154905082565b6000806000806000806003600089815260200190815260200160002060008873ffffffffffffffffffffffffffffffffffffffff1673ffffffffffffffffffffffffffffffffffffffff16815260200190815260200160002060405180610100016040529081600082015481526020016001820154815260200160028201548152602001600382015481526020016004820154815260200160058201548152602001600682015481526020016007820160009054906101000a900460ff16151515158152505090508060000151816020015182604001518360600151846080015195509550955095509550509295509295909350565b6108e2612057565b73ffffffffffffffffffffffffffffffffffffffff16610900610f60565b73ffffffffffffffffffffffffffffffffffffffff1614610956576040517f08c379a000000000000000000000000000000000000000000000000000000000815260040161094d90612a4a565b60405180910390fd5b600060058281548110610992577f4e487b7100000000000000000000000000000000000000000000000000000000600052603260045260246000fd5b90600052602060002090600b0201905060008160030154116109e9576040517f08c379a00000000000000000000000000000000000000000000000000000000081526004016109e090612aaa565b60405180910390fd5b8060010160009054906101000a900473ffffffffffffffffffffffffffffffffffffffff1673ffffffffffffffffffffffffffffffffffffffff1663a9059cbb610a31610f60565b83600301546040518363ffffffff1660e01b8152600401610a53929190612802565b602060405180830381600087803b158015610a6d57600080fd5b505af1158015610a81573d6000803e3d6000fd5b505050506040513d601f19601f82011682018060405250810190610aa591906122af565b610ae4576040517f08c379a0000000000000000000000000000000000000000000000000000000008152600401610adb90612a0a565b60405180910390fd5b600081600301819055505050565b600060058281548110610b2e577f4e487b7100000000000000000000000000000000000000000000000000000000600052603260045260246000fd5b90600052602060002090600b02019050600015158160090160019054906101000a900460ff16151514610b96576040517f08c379a0000000000000000000000000000000000000000000000000000000008152600401610b8d90612a2a565b60405180910390fd5b60006003600084815260200190815260200160002060003373ffffffffffffffffffffffffffffffffffffffff1673ffffffffffffffffffffffffffffffffffffffff16815260200190815260200160002090504281600401541115610c31576040517f08c379a0000000000000000000000000000000000000000000000000000000008152600401610c2890612aca565b60405180910390fd5b610c3a83611dd5565b6000610c44611d76565b90506000610c5285336116e7565b905081836006018190555080836002016000828254610c719190612c10565b925050819055508360000160009054906101000a900473ffffffffffffffffffffffffffffffffffffffff1673ffffffffffffffffffffffffffffffffffffffff1663a9059cbb3385600001546040518363ffffffff1660e01b8152600401610cdb929190612802565b602060405180830381600087803b158015610cf557600080fd5b505af1158015610d09573d6000803e3d6000fd5b505050506040513d601f19601f82011682018060405250810190610d2d91906122af565b610d3657600080fd5b8360010160009054906101000a900473ffffffffffffffffffffffffffffffffffffffff1673ffffffffffffffffffffffffffffffffffffffff1663a9059cbb33836040518363ffffffff1660e01b8152600401610d95929190612802565b602060405180830381600087803b158015610daf57600080fd5b505af1158015610dc3573d6000803e3d6000fd5b505050506040513d601f19601f82011682018060405250810190610de791906122af565b610df057600080fd5b80836003018190555060008360070160006101000a81548160ff02191690831515021790555060018460060154610e279190612cf1565b84600601819055508260000154846007016000828254610e479190612cf1565b925050819055508260010154846008016000828254610e669190612cf1565b92505081905550826006015484600a01819055506000600460008781526020019081526020016000206000848152602001908152602001600020905084600701548160000181905550846008015481600101819055506000846000018190555060008460010181905550505050505050565b610ee0612057565b73ffffffffffffffffffffffffffffffffffffffff16610efe610f60565b73ffffffffffffffffffffffffffffffffffffffff1614610f54576040517f08c379a0000000000000000000000000000000000000000000000000000000008152600401610f4b90612a4a565b60405180910390fd5b610f5e600061205f565b565b60008060009054906101000a900473ffffffffffffffffffffffffffffffffffffffff16905090565b60015481565b60058181548110610f9f57600080fd5b90600052602060002090600b02016000915090508060000160009054906101000a900473ffffffffffffffffffffffffffffffffffffffff16908060010160009054906101000a900473ffffffffffffffffffffffffffffffffffffffff16908060020154908060030154908060040154908060050154908060060154908060070154908060080154908060090160009054906101000a900460ff16908060090160019054906101000a900460ff169080600a015490508c565b6003602052816000526040600020602052806000526040600020600091509150508060000154908060010154908060020154908060030154908060040154908060050154908060060154908060070160009054906101000a900460ff16905088565b60008060008060008060008060058981548110611101577f4e487b7100000000000000000000000000000000000000000000000000000000600052603260045260246000fd5b90600052602060002090600b0201604051806101800160405290816000820160009054906101000a900473ffffffffffffffffffffffffffffffffffffffff1673ffffffffffffffffffffffffffffffffffffffff1673ffffffffffffffffffffffffffffffffffffffff1681526020016001820160009054906101000a900473ffffffffffffffffffffffffffffffffffffffff1673ffffffffffffffffffffffffffffffffffffffff1673ffffffffffffffffffffffffffffffffffffffff168152602001600282015481526020016003820154815260200160048201548152602001600582015481526020016006820154815260200160078201548152602001600882015481526020016009820160009054906101000a900460ff161515151581526020016009820160019054906101000a900460ff16151515158152602001600a82015481525050905080600001518160200151826040015183606001518460a0015185608001516112768f611ba5565b975097509750975097509750975050919395979092949650565b6000818673ffffffffffffffffffffffffffffffffffffffff166370a08231336040518263ffffffff1660e01b81526004016112cc91906127b0565b60206040518083038186803b1580156112e457600080fd5b505afa1580156112f8573d6000803e3d6000fd5b505050506040513d601f19601f8201168201806040525081019061131c9190612378565b101561135d576040517f08c379a0000000000000000000000000000000000000000000000000000000008152600401611354906129ea565b60405180910390fd5b600061136887612123565b6113725760015490505b60008160646113819190612cf1565b60648561138e9190612c66565b6113989190612c97565b90506000826064866113aa9190612c66565b6113b49190612c97565b905060056040518061018001604052808b73ffffffffffffffffffffffffffffffffffffffff1681526020018a73ffffffffffffffffffffffffffffffffffffffff168152602001848152602001838152602001428152602001888152602001600081526020016000815260200160008152602001891515815260200160001515815260200161146360016114556201518042611dbf90919063ffffffff16565b61217d90919063ffffffff16565b81525090806001815401808255809150506001900390600052602060002090600b020160009091909190915060008201518160000160006101000a81548173ffffffffffffffffffffffffffffffffffffffff021916908373ffffffffffffffffffffffffffffffffffffffff16021790555060208201518160010160006101000a81548173ffffffffffffffffffffffffffffffffffffffff021916908373ffffffffffffffffffffffffffffffffffffffff16021790555060408201518160020155606082015181600301556080820151816004015560a0820151816005015560c0820151816006015560e0820151816007015561010082015181600801556101208201518160090160006101000a81548160ff0219169083151502179055506101408201518160090160016101000a81548160ff02191690831515021790555061016082015181600a01555050600060016005805490506115c79190612cf1565b905060006115d3611d76565b905060006004600084815260200190815260200160002060008381526020019081526020016000209050600081600001819055508a73ffffffffffffffffffffffffffffffffffffffff166323b872dd33308b6040518463ffffffff1660e01b8152600401611644939291906127cb565b602060405180830381600087803b15801561165e57600080fd5b505af1158015611672573d6000803e3d6000fd5b505050506040513d601f19601f8201168201806040525081019061169691906122af565b6116d5576040517f08c379a00000000000000000000000000000000000000000000000000000000081526004016116cc90612a6a565b60405180910390fd5b82965050505050505095945050505050565b6000806003600085815260200190815260200160002060008473ffffffffffffffffffffffffffffffffffffffff1673ffffffffffffffffffffffffffffffffffffffff16815260200190815260200160002060405180610100016040529081600082015481526020016001820154815260200160028201548152602001600382015481526020016004820154815260200160058201548152602001600682015481526020016007820160009054906101000a900460ff16151515158152505090506000600585815481106117e5577f4e487b7100000000000000000000000000000000000000000000000000000000600052603260045260246000fd5b90600052602060002090600b0201604051806101800160405290816000820160009054906101000a900473ffffffffffffffffffffffffffffffffffffffff1673ffffffffffffffffffffffffffffffffffffffff1673ffffffffffffffffffffffffffffffffffffffff1681526020016001820160009054906101000a900473ffffffffffffffffffffffffffffffffffffffff1673ffffffffffffffffffffffffffffffffffffffff1673ffffffffffffffffffffffffffffffffffffffff168152602001600282015481526020016003820154815260200160048201548152602001600582015481526020016006820154815260200160078201548152602001600882015481526020016009820160009054906101000a900460ff161515151581526020016009820160019054906101000a900460ff16151515158152602001600a820154815250509050600061193e86612193565b905060008061195e8460a001518560400151611dbf90919063ffffffff16565b90506000808660200151905060008760c0015190505b858111611a76576000600460008d81526020019081526020016000206000838152602001908152602001600020604051806040016040529081600082015481526020016001820154815250509050600081602001511115611a61576119ea81602001518260000151611dbf90919063ffffffff16565b9350611a53633b9aca00611a45611a368460000151611a28633b9aca00611a1a8a8c611da990919063ffffffff16565b611da990919063ffffffff16565b611dbf90919063ffffffff16565b88611da990919063ffffffff16565b611dbf90919063ffffffff16565b86611a5e9190612c10565b95505b50600181611a6f9190612c10565b9050611974565b508397505050505050505092915050565b600260009054906101000a900473ffffffffffffffffffffffffffffffffffffffff1681565b611ab5612057565b73ffffffffffffffffffffffffffffffffffffffff16611ad3610f60565b73ffffffffffffffffffffffffffffffffffffffff1614611b29576040517f08c379a0000000000000000000000000000000000000000000000000000000008152600401611b2090612a4a565b60405180910390fd5b600073ffffffffffffffffffffffffffffffffffffffff168173ffffffffffffffffffffffffffffffffffffffff161415611b99576040517f08c379a0000000000000000000000000000000000000000000000000000000008152600401611b90906129ca565b60405180910390fd5b611ba28161205f565b50565b60008060058381548110611be2577f4e487b7100000000000000000000000000000000000000000000000000000000600052603260045260246000fd5b90600052602060002090600b0201604051806101800160405290816000820160009054906101000a900473ffffffffffffffffffffffffffffffffffffffff1673ffffffffffffffffffffffffffffffffffffffff1673ffffffffffffffffffffffffffffffffffffffff1681526020016001820160009054906101000a900473ffffffffffffffffffffffffffffffffffffffff1673ffffffffffffffffffffffffffffffffffffffff1673ffffffffffffffffffffffffffffffffffffffff168152602001600282015481526020016003820154815260200160048201548152602001600582015481526020016006820154815260200160078201548152602001600882015481526020016009820160009054906101000a900460ff161515151581526020016009820160019054906101000a900460ff16151515158152602001600a820154815250509050611d6e603c8060188460a00151611d479190612c97565b611d519190612c97565b611d5b9190612c97565b8260800151611d9390919063ffffffff16565b915050919050565b6000611d8e6201518042611dbf90919063ffffffff16565b905090565b60008183611da19190612c10565b905092915050565b60008183611db79190612c97565b905092915050565b60008183611dcd9190612c66565b905092915050565b600060058281548110611e11577f4e487b7100000000000000000000000000000000000000000000000000000000600052603260045260246000fd5b90600052602060002090600b0201604051806101800160405290816000820160009054906101000a900473ffffffffffffffffffffffffffffffffffffffff1673ffffffffffffffffffffffffffffffffffffffff1673ffffffffffffffffffffffffffffffffffffffff1681526020016001820160009054906101000a900473ffffffffffffffffffffffffffffffffffffffff1673ffffffffffffffffffffffffffffffffffffffff1673ffffffffffffffffffffffffffffffffffffffff168152602001600282015481526020016003820154815260200160048201548152602001600582015481526020016006820154815260200160078201548152602001600882015481526020016009820160009054906101000a900460ff161515151581526020016009820160019054906101000a900460ff16151515158152602001600a8201548152505090506000611f6a83612193565b90506000611f76611d76565b90508183610160015110611f8c57505050612054565b6000600460008681526020019081526020016000206000856101600151815260200190815260200160002060405180604001604052908160008201548152602001600182015481525050905060006001856101600151611fec9190612c10565b90505b8281101561204e57600060046000888152602001908152602001600020600083815260200190815260200160002090508260000151816000018190555082602001518160010181905550506001816120479190612c10565b9050611fef565b50505050505b50565b600033905090565b60008060009054906101000a900473ffffffffffffffffffffffffffffffffffffffff169050816000806101000a81548173ffffffffffffffffffffffffffffffffffffffff021916908373ffffffffffffffffffffffffffffffffffffffff1602179055508173ffffffffffffffffffffffffffffffffffffffff168173ffffffffffffffffffffffffffffffffffffffff167f8be0079c531659141344cd1fd0a4f28419497f9722a3daafe3b4186f6b6457e060405160405180910390a35050565b6000600260009054906101000a900473ffffffffffffffffffffffffffffffffffffffff1673ffffffffffffffffffffffffffffffffffffffff168273ffffffffffffffffffffffffffffffffffffffff16149050919050565b6000818361218b9190612cf1565b905092915050565b60008061219f83611ba5565b90508042116121d6576121d160016121c36201518042611dbf90919063ffffffff16565b61217d90919063ffffffff16565b612200565b6121ff60016121f16201518084611dbf90919063ffffffff16565b61217d90919063ffffffff16565b5b915050919050565b60008135905061221781612e01565b92915050565b60008135905061222c81612e18565b92915050565b60008151905061224181612e18565b92915050565b60008135905061225681612e2f565b92915050565b60008135905061226b81612e46565b92915050565b60008151905061228081612e46565b92915050565b60006020828403121561229857600080fd5b60006122a684828501612208565b91505092915050565b6000602082840312156122c157600080fd5b60006122cf84828501612232565b91505092915050565b600080600080600060a086880312156122f057600080fd5b60006122fe88828901612247565b955050602061230f88828901612247565b94505060406123208882890161221d565b93505060606123318882890161225c565b92505060806123428882890161225c565b9150509295509295909350565b60006020828403121561236157600080fd5b600061236f8482850161225c565b91505092915050565b60006020828403121561238a57600080fd5b600061239884828501612271565b91505092915050565b600080604083850312156123b457600080fd5b60006123c28582860161225c565b92505060206123d385828601612208565b9150509250929050565b600080604083850312156123f057600080fd5b60006123fe8582860161225c565b925050602061240f8582860161225c565b9150509250929050565b60008060006060848603121561242e57600080fd5b600061243c8682870161225c565b935050602061244d8682870161225c565b925050604061245e8682870161225c565b9150509250925092565b61247181612d25565b82525050565b61248081612d37565b82525050565b61248f81612d7f565b82525050565b60006124a2600e83612bff565b91507f5661756c742066696e69636865640000000000000000000000000000000000006000830152602082019050919050565b60006124e2601183612bff565b91507f5661756c74206e6f7420737461727465640000000000000000000000000000006000830152602082019050919050565b6000612522602683612bff565b91507f4f776e61626c653a206e6577206f776e657220697320746865207a65726f206160008301527f64647265737300000000000000000000000000000000000000000000000000006020830152604082019050919050565b6000612588601283612bff565b91507f5573657220686173206e6f20746f6b656e7300000000000000000000000000006000830152602082019050919050565b60006125c8601b83612bff565b91507f43616e2774207472616e736665722074617820746f206f776e657200000000006000830152602082019050919050565b6000612608600c83612bff565b91507f5661756c742070617573656400000000000000000000000000000000000000006000830152602082019050919050565b6000612648602083612bff565b91507f4f776e61626c653a2063616c6c6572206973206e6f7420746865206f776e65726000830152602082019050919050565b6000612688601683612bff565b91507f43616e2774207472616e7366657220746f6b656e732e000000000000000000006000830152602082019050919050565b60006126c8602183612bff565b91507f4465706f736974206d7573742062652067726561746572207468616e207a657260008301527f6f000000000000000000000000000000000000000000000000000000000000006020830152604082019050919050565b600061272e601c83612bff565b91507f5661756c7420776974686f757420746f6b656e20746178206c656674000000006000830152602082019050919050565b600061276e601183612bff565b91507f5573657220696e206c6f636b2074696d650000000000000000000000000000006000830152602082019050919050565b6127aa81612d75565b82525050565b60006020820190506127c56000830184612468565b92915050565b60006060820190506127e06000830186612468565b6127ed6020830185612468565b6127fa60408301846127a1565b949350505050565b60006040820190506128176000830185612468565b61282460208301846127a1565b9392505050565b60006020820190506128406000830184612477565b92915050565b600060208201905061285b6000830184612486565b92915050565b600060e082019050612876600083018a612486565b6128836020830189612486565b61289060408301886127a1565b61289d60608301876127a1565b6128aa60808301866127a1565b6128b760a08301856127a1565b6128c460c08301846127a1565b98975050505050505050565b6000610180820190506128e6600083018f612486565b6128f3602083018e612486565b612900604083018d6127a1565b61290d606083018c6127a1565b61291a608083018b6127a1565b61292760a083018a6127a1565b61293460c08301896127a1565b61294160e08301886127a1565b61294f6101008301876127a1565b61295d610120830186612477565b61296b610140830185612477565b6129796101608301846127a1565b9d9c50505050505050505050505050565b600060208201905081810360008301526129a381612495565b9050919050565b600060208201905081810360008301526129c3816124d5565b9050919050565b600060208201905081810360008301526129e381612515565b9050919050565b60006020820190508181036000830152612a038161257b565b9050919050565b60006020820190508181036000830152612a23816125bb565b9050919050565b60006020820190508181036000830152612a43816125fb565b9050919050565b60006020820190508181036000830152612a638161263b565b9050919050565b60006020820190508181036000830152612a838161267b565b9050919050565b60006020820190508181036000830152612aa3816126bb565b9050919050565b60006020820190508181036000830152612ac381612721565b9050919050565b60006020820190508181036000830152612ae381612761565b9050919050565b6000602082019050612aff60008301846127a1565b92915050565b6000604082019050612b1a60008301856127a1565b612b2760208301846127a1565b9392505050565b600060a082019050612b4360008301886127a1565b612b5060208301876127a1565b612b5d60408301866127a1565b612b6a60608301856127a1565b612b7760808301846127a1565b9695505050505050565b600061010082019050612b97600083018b6127a1565b612ba4602083018a6127a1565b612bb160408301896127a1565b612bbe60608301886127a1565b612bcb60808301876127a1565b612bd860a08301866127a1565b612be560c08301856127a1565b612bf260e0830184612477565b9998505050505050505050565b600082825260208201905092915050565b6000612c1b82612d75565b9150612c2683612d75565b9250827fffffffffffffffffffffffffffffffffffffffffffffffffffffffffffffffff03821115612c5b57612c5a612da3565b5b828201905092915050565b6000612c7182612d75565b9150612c7c83612d75565b925082612c8c57612c8b612dd2565b5b828204905092915050565b6000612ca282612d75565b9150612cad83612d75565b9250817fffffffffffffffffffffffffffffffffffffffffffffffffffffffffffffffff0483118215151615612ce657612ce5612da3565b5b828202905092915050565b6000612cfc82612d75565b9150612d0783612d75565b925082821015612d1a57612d19612da3565b5b828203905092915050565b6000612d3082612d55565b9050919050565b60008115159050919050565b6000612d4e82612d25565b9050919050565b600073ffffffffffffffffffffffffffffffffffffffff82169050919050565b6000819050919050565b6000612d8a82612d91565b9050919050565b6000612d9c82612d55565b9050919050565b7f4e487b7100000000000000000000000000000000000000000000000000000000600052601160045260246000fd5b7f4e487b7100000000000000000000000000000000000000000000000000000000600052601260045260246000fd5b612e0a81612d25565b8114612e1557600080fd5b50565b612e2181612d37565b8114612e2c57600080fd5b50565b612e3881612d43565b8114612e4357600080fd5b50565b612e4f81612d75565b8114612e5a57600080fd5b5056fea2646970667358221220284dbb3745f329477ea526b77549c0947c6f82019515dab333d04b592c14486164736f6c63430008000033",
  "linkReferences": {},
  "deployedLinkReferences": {}
}