{
  "_format": "hh-sol-artifact-1",
  "contractName": "Vault",
  "sourceName": "contracts/Vault.sol",
  "abi": [
    {
      "inputs": [
        {
          "internalType": "contract IERC20",
          "name": "_babydoge",
          "type": "address"
        },
        {
          "internalType": "uint256",
          "name": "_taxForNonBabyDogeCoin",
          "type": "uint256"
        }
      ],
      "stateMutability": "nonpayable",
      "type": "constructor"
    },
    {
      "anonymous": false,
      "inputs": [
        {
          "indexed": true,
          "internalType": "address",
          "name": "user",
          "type": "address"
        },
        {
          "indexed": true,
          "internalType": "uint256",
          "name": "pid",
          "type": "uint256"
        },
        {
          "indexed": false,
          "internalType": "uint256",
          "name": "amount",
          "type": "uint256"
        }
      ],
      "name": "Deposit",
      "type": "event"
    },
    {
      "anonymous": false,
      "inputs": [
        {
          "indexed": true,
          "internalType": "address",
          "name": "previousOwner",
          "type": "address"
        },
        {
          "indexed": true,
          "internalType": "address",
          "name": "newOwner",
          "type": "address"
        }
      ],
      "name": "OwnershipTransferred",
      "type": "event"
    },
    {
      "anonymous": false,
      "inputs": [
        {
          "indexed": true,
          "internalType": "address",
          "name": "user",
          "type": "address"
        },
        {
          "indexed": true,
          "internalType": "uint256",
          "name": "pid",
          "type": "uint256"
        },
        {
          "indexed": false,
          "internalType": "uint256",
          "name": "amount",
          "type": "uint256"
        }
      ],
      "name": "Withdraw",
      "type": "event"
    },
    {
      "inputs": [],
      "name": "babydoge",
      "outputs": [
        {
          "internalType": "contract IERC20",
          "name": "",
          "type": "address"
        }
      ],
      "stateMutability": "view",
      "type": "function"
    },
    {
      "inputs": [
        {
          "internalType": "uint256",
          "name": "_vid",
          "type": "uint256"
        },
        {
          "internalType": "address",
          "name": "_user",
          "type": "address"
        }
      ],
      "name": "calcRewardsUser",
      "outputs": [
        {
          "internalType": "uint256",
          "name": "",
          "type": "uint256"
        }
      ],
      "stateMutability": "view",
      "type": "function"
    },
    {
      "inputs": [
        {
          "internalType": "uint256",
          "name": "_vid",
          "type": "uint256"
        }
      ],
      "name": "claimRewards",
      "outputs": [],
      "stateMutability": "nonpayable",
      "type": "function"
    },
    {
      "inputs": [
        {
          "internalType": "contract IERC20",
          "name": "_tokenStake",
          "type": "address"
        },
        {
          "internalType": "contract IERC20",
          "name": "_tokenReward",
          "type": "address"
        },
        {
          "internalType": "bool",
          "name": "_isLp",
          "type": "bool"
        },
        {
          "internalType": "uint256",
          "name": "_vaultDays",
          "type": "uint256"
        },
        {
          "internalType": "uint256",
          "name": "_amount",
          "type": "uint256"
        }
      ],
      "name": "createVault",
      "outputs": [
        {
          "internalType": "uint256",
          "name": "",
          "type": "uint256"
        }
      ],
      "stateMutability": "nonpayable",
      "type": "function"
    },
    {
      "inputs": [
        {
          "internalType": "uint256",
          "name": "_vid",
          "type": "uint256"
        },
        {
          "internalType": "uint256",
          "name": "_lockDays",
          "type": "uint256"
        },
        {
          "internalType": "uint256",
          "name": "value",
          "type": "uint256"
        }
      ],
      "name": "deposit",
      "outputs": [
        {
          "internalType": "bool",
          "name": "",
          "type": "bool"
        }
      ],
      "stateMutability": "nonpayable",
      "type": "function"
    },
    {
      "inputs": [
        {
          "internalType": "uint256",
          "name": "_vid",
          "type": "uint256"
        },
        {
          "internalType": "address",
          "name": "_user",
          "type": "address"
        }
      ],
      "name": "getUserInfo",
      "outputs": [
        {
          "internalType": "uint256",
          "name": "",
          "type": "uint256"
        },
        {
          "internalType": "uint256",
          "name": "",
          "type": "uint256"
        },
        {
          "internalType": "uint256",
          "name": "",
          "type": "uint256"
        },
        {
          "internalType": "uint256",
          "name": "",
          "type": "uint256"
        },
        {
          "internalType": "uint256",
          "name": "",
          "type": "uint256"
        }
      ],
      "stateMutability": "view",
      "type": "function"
    },
    {
      "inputs": [
        {
          "internalType": "uint256",
          "name": "_vid",
          "type": "uint256"
        }
      ],
      "name": "getVault",
      "outputs": [
        {
          "internalType": "contract IERC20",
          "name": "",
          "type": "address"
        },
        {
          "internalType": "contract IERC20",
          "name": "",
          "type": "address"
        },
        {
          "internalType": "uint256",
          "name": "",
          "type": "uint256"
        },
        {
          "internalType": "uint256",
          "name": "",
          "type": "uint256"
        },
        {
          "internalType": "uint256",
          "name": "",
          "type": "uint256"
        },
        {
          "internalType": "uint256",
          "name": "",
          "type": "uint256"
        },
        {
          "internalType": "uint256",
          "name": "",
          "type": "uint256"
        }
      ],
      "stateMutability": "view",
      "type": "function"
    },
    {
      "inputs": [],
      "name": "owner",
      "outputs": [
        {
          "internalType": "address",
          "name": "",
          "type": "address"
        }
      ],
      "stateMutability": "view",
      "type": "function"
    },
    {
      "inputs": [],
      "name": "renounceOwnership",
      "outputs": [],
      "stateMutability": "nonpayable",
      "type": "function"
    },
    {
      "inputs": [],
      "name": "taxForNonBabyDogeCoin",
      "outputs": [
        {
          "internalType": "uint256",
          "name": "",
          "type": "uint256"
        }
      ],
      "stateMutability": "view",
      "type": "function"
    },
    {
      "inputs": [
        {
          "internalType": "uint256",
          "name": "",
          "type": "uint256"
        },
        {
          "internalType": "uint256",
          "name": "",
          "type": "uint256"
        }
      ],
      "name": "totalDay",
      "outputs": [
        {
          "internalType": "uint256",
          "name": "amount",
          "type": "uint256"
        },
        {
          "internalType": "uint256",
          "name": "weight",
          "type": "uint256"
        }
      ],
      "stateMutability": "view",
      "type": "function"
    },
    {
      "inputs": [
        {
          "internalType": "address",
          "name": "newOwner",
          "type": "address"
        }
      ],
      "name": "transferOwnership",
      "outputs": [],
      "stateMutability": "nonpayable",
      "type": "function"
    },
    {
      "inputs": [
        {
          "internalType": "uint256",
          "name": "",
          "type": "uint256"
        },
        {
          "internalType": "address",
          "name": "",
          "type": "address"
        }
      ],
      "name": "userInfo",
      "outputs": [
        {
          "internalType": "uint256",
          "name": "amount",
          "type": "uint256"
        },
        {
          "internalType": "uint256",
          "name": "weight",
          "type": "uint256"
        },
        {
          "internalType": "uint256",
          "name": "rewardTotal",
          "type": "uint256"
        },
        {
          "internalType": "uint256",
          "name": "rewardWithdraw",
          "type": "uint256"
        },
        {
          "internalType": "uint256",
          "name": "lockTime",
          "type": "uint256"
        },
        {
          "internalType": "uint256",
          "name": "lockDays",
          "type": "uint256"
        },
        {
          "internalType": "uint256",
          "name": "lastRewardDay",
          "type": "uint256"
        },
        {
          "internalType": "bool",
          "name": "exists",
          "type": "bool"
        }
      ],
      "stateMutability": "view",
      "type": "function"
    },
    {
      "inputs": [
        {
          "internalType": "uint256",
          "name": "",
          "type": "uint256"
        }
      ],
      "name": "vaultInfo",
      "outputs": [
        {
          "internalType": "contract IERC20",
          "name": "tokenStake",
          "type": "address"
        },
        {
          "internalType": "contract IERC20",
          "name": "tokenReward",
          "type": "address"
        },
        {
          "internalType": "uint256",
          "name": "amountReward",
          "type": "uint256"
        },
        {
          "internalType": "uint256",
          "name": "vaultTokenTax",
          "type": "uint256"
        },
        {
          "internalType": "uint256",
          "name": "startVault",
          "type": "uint256"
        },
        {
          "internalType": "uint256",
          "name": "vaultDays",
          "type": "uint256"
        },
        {
          "internalType": "uint256",
          "name": "userCount",
          "type": "uint256"
        },
        {
          "internalType": "uint256",
          "name": "usersAmount",
          "type": "uint256"
        },
        {
          "internalType": "uint256",
          "name": "usersWeight",
          "type": "uint256"
        },
        {
          "internalType": "bool",
          "name": "isLpVault",
          "type": "bool"
        },
        {
          "internalType": "bool",
          "name": "paused",
          "type": "bool"
        },
        {
          "internalType": "uint256",
          "name": "lastTotalDay",
          "type": "uint256"
        }
      ],
      "stateMutability": "view",
      "type": "function"
    },
    {
      "inputs": [
        {
          "internalType": "uint256",
          "name": "_vid",
          "type": "uint256"
        }
      ],
      "name": "withdraw",
      "outputs": [],
      "stateMutability": "nonpayable",
      "type": "function"
    },
    {
      "inputs": [
        {
          "internalType": "uint256",
          "name": "_vid",
          "type": "uint256"
        }
      ],
      "name": "withdrawTax",
      "outputs": [],
      "stateMutability": "nonpayable",
      "type": "function"
    }
  ],
  "bytecode": "0x60806040523480156200001157600080fd5b506040516200352c3803806200352c8339818101604052810190620000379190620001a1565b620000576200004b620000a760201b60201c565b620000af60201b60201c565b81600260006101000a81548173ffffffffffffffffffffffffffffffffffffffff021916908373ffffffffffffffffffffffffffffffffffffffff16021790555080600181905550505062000268565b600033905090565b60008060009054906101000a900473ffffffffffffffffffffffffffffffffffffffff169050816000806101000a81548173ffffffffffffffffffffffffffffffffffffffff021916908373ffffffffffffffffffffffffffffffffffffffff1602179055508173ffffffffffffffffffffffffffffffffffffffff168173ffffffffffffffffffffffffffffffffffffffff167f8be0079c531659141344cd1fd0a4f28419497f9722a3daafe3b4186f6b6457e060405160405180910390a35050565b600081519050620001848162000234565b92915050565b6000815190506200019b816200024e565b92915050565b60008060408385031215620001b557600080fd5b6000620001c58582860162000173565b9250506020620001d8858286016200018a565b9150509250929050565b6000620001ef826200020a565b9050919050565b60006200020382620001e2565b9050919050565b600073ffffffffffffffffffffffffffffffffffffffff82169050919050565b6000819050919050565b6200023f81620001f6565b81146200024b57600080fd5b50565b62000259816200022a565b81146200026557600080fd5b50565b6132b480620002786000396000f3fe608060405234801561001057600080fd5b50600436106100ff5760003560e01c80638f7ed4b311610097578063d818b23711610066578063d818b237146102db578063e85c74421461030b578063f22fcf361461033b578063f2fde38b14610359576100ff565b80638f7ed4b314610215578063929060d81461023357806393f1a40b1461026e5780639403b634146102a5576100ff565b8063249ae3e2116100d3578063249ae3e2146101b55780632e1a7d4d146101d1578063715018a6146101ed5780638da5cb5b146101f7576100ff565b8062aeef8a1461010457806302525222146101345780630962ef79146101655780631069f3b514610181575b600080fd5b61011e6004803603810190610119919061277a565b610375565b60405161012b9190612c0c565b60405180910390f35b61014e6004803603810190610149919061273e565b6107da565b60405161015c929190612f26565b60405180910390f35b61017f600480360381019061017a91906126b0565b61080b565b005b61019b60048036038101906101969190612702565b610ad0565b6040516101ac959493929190612f4f565b60405180910390f35b6101cf60048036038101906101ca91906126b0565b610bc6565b005b6101eb60048036038101906101e691906126b0565b610dde565b005b6101f56111f6565b005b6101ff61127e565b60405161020c9190612b91565b60405180910390f35b61021d6112a7565b60405161022a9190612f0b565b60405180910390f35b61024d600480360381019061024891906126b0565b6112ad565b6040516102659c9b9a99989796959493929190612cb1565b60405180910390f35b61028860048036038101906102839190612702565b611377565b60405161029c989796959493929190612fa2565b60405180910390f35b6102bf60048036038101906102ba91906126b0565b6113d9565b6040516102d29796959493929190612c42565b60405180910390f35b6102f560048036038101906102f09190612639565b6115ae565b6040516103029190612f0b565b60405180910390f35b61032560048036038101906103209190612702565b611a48565b6040516103329190612f0b565b60405180910390f35b610343611de8565b6040516103509190612c27565b60405180910390f35b610373600480360381019061036e91906125e7565b611e0e565b005b60008082116103b9576040517f08c379a00000000000000000000000000000000000000000000000000000000081526004016103b090612e6b565b60405180910390fd5b6000600585815481106103f5577f4e487b7100000000000000000000000000000000000000000000000000000000600052603260045260246000fd5b90600052602060002090600b02019050600061041086611f06565b9050600015158260090160019054906101000a900460ff1615151461046a576040517f08c379a000000000000000000000000000000000000000000000000000000000815260040161046190612e0b565b60405180910390fd5b81600401544210156104b1576040517f08c379a00000000000000000000000000000000000000000000000000000000081526004016104a890612d8b565b60405180910390fd5b804211156104f4576040517f08c379a00000000000000000000000000000000000000000000000000000000081526004016104eb90612d6b565b60405180910390fd5b8160000160009054906101000a900473ffffffffffffffffffffffffffffffffffffffff1673ffffffffffffffffffffffffffffffffffffffff166323b872dd3330876040518463ffffffff1660e01b815260040161055593929190612bac565b602060405180830381600087803b15801561056f57600080fd5b505af1158015610583573d6000803e3d6000fd5b505050506040513d601f19601f820116820180604052508101906105a79190612610565b6105b057600080fd5b60006105ba6120d7565b905060006003600089815260200190815260200160002060003373ffffffffffffffffffffffffffffffffffffffff1673ffffffffffffffffffffffffffffffffffffffff168152602001908152602001600020905060008160070160009054906101000a900460ff1661071f5760018260070160006101000a81548160ff021916908315150217905550600061067d603c8060188c61065a91906130b8565b61066491906130b8565b61066e91906130b8565b426120f490919063ffffffff16565b905084811161068c578061068e565b845b905080836004018190555088836005018190555083836006018190555060018660060160008282546106c09190613031565b9250508190555061070e633b9aca0061070088600501546106f2633b9aca00886005015461210a90919063ffffffff16565b61212090919063ffffffff16565b6120f490919063ffffffff16565b915081836001018190555050610724565b600090505b868260000160008282546107389190613031565b9250508190555061074889612136565b8285600a0181905550868560070160008282546107659190613031565b92505081905550808560080160008282546107809190613031565b925050819055506000600460008b8152602001908152602001600020600085815260200190815260200160002090508560070154816000018190555085600801548160010181905550600196505050505050509392505050565b6004602052816000526040600020602052806000526040600020600091509150508060000154908060010154905082565b600060058281548110610847577f4e487b7100000000000000000000000000000000000000000000000000000000600052603260045260246000fd5b90600052602060002090600b02019050600015158160090160019054906101000a900460ff161515146108af576040517f08c379a00000000000000000000000000000000000000000000000000000000081526004016108a690612e0b565b60405180910390fd5b60006003600084815260200190815260200160002060003373ffffffffffffffffffffffffffffffffffffffff1673ffffffffffffffffffffffffffffffffffffffff1681526020019081526020016000209050428160040154111561094a576040517f08c379a000000000000000000000000000000000000000000000000000000000815260040161094190612ecb565b60405180910390fd5b61095383612136565b600061095d6120d7565b9050600061096b8533611a48565b90508183600601819055508083600201600082825461098a9190613031565b9250508190555060006109ae846003015485600201546123b890919063ffffffff16565b9050600081116109f3576040517f08c379a00000000000000000000000000000000000000000000000000000000081526004016109ea90612eab565b60405180910390fd5b8460010160009054906101000a900473ffffffffffffffffffffffffffffffffffffffff1673ffffffffffffffffffffffffffffffffffffffff1663a9059cbb33836040518363ffffffff1660e01b8152600401610a52929190612be3565b602060405180830381600087803b158015610a6c57600080fd5b505af1158015610a80573d6000803e3d6000fd5b505050506040513d601f19601f82011682018060405250810190610aa49190612610565b610aad57600080fd5b80846003016000828254610ac19190613031565b92505081905550505050505050565b6000806000806000806003600089815260200190815260200160002060008873ffffffffffffffffffffffffffffffffffffffff1673ffffffffffffffffffffffffffffffffffffffff16815260200190815260200160002060405180610100016040529081600082015481526020016001820154815260200160028201548152602001600382015481526020016004820154815260200160058201548152602001600682015481526020016007820160009054906101000a900460ff16151515158152505090508060000151816020015182604001518360600151846080015195509550955095509550509295509295909350565b610bce6123ce565b73ffffffffffffffffffffffffffffffffffffffff16610bec61127e565b73ffffffffffffffffffffffffffffffffffffffff1614610c42576040517f08c379a0000000000000000000000000000000000000000000000000000000008152600401610c3990612e2b565b60405180910390fd5b600060058281548110610c7e577f4e487b7100000000000000000000000000000000000000000000000000000000600052603260045260246000fd5b90600052602060002090600b020190506000816003015411610cd5576040517f08c379a0000000000000000000000000000000000000000000000000000000008152600401610ccc90612e8b565b60405180910390fd5b8060010160009054906101000a900473ffffffffffffffffffffffffffffffffffffffff1673ffffffffffffffffffffffffffffffffffffffff1663a9059cbb610d1d61127e565b83600301546040518363ffffffff1660e01b8152600401610d3f929190612be3565b602060405180830381600087803b158015610d5957600080fd5b505af1158015610d6d573d6000803e3d6000fd5b505050506040513d601f19601f82011682018060405250810190610d919190612610565b610dd0576040517f08c379a0000000000000000000000000000000000000000000000000000000008152600401610dc790612deb565b60405180910390fd5b600081600301819055505050565b600060058281548110610e1a577f4e487b7100000000000000000000000000000000000000000000000000000000600052603260045260246000fd5b90600052602060002090600b02019050600015158160090160019054906101000a900460ff16151514610e82576040517f08c379a0000000000000000000000000000000000000000000000000000000008152600401610e7990612e0b565b60405180910390fd5b60006003600084815260200190815260200160002060003373ffffffffffffffffffffffffffffffffffffffff1673ffffffffffffffffffffffffffffffffffffffff16815260200190815260200160002090504281600401541115610f1d576040517f08c379a0000000000000000000000000000000000000000000000000000000008152600401610f1490612ecb565b60405180910390fd5b610f2683612136565b6000610f306120d7565b90506000610f3e8533611a48565b905081836006018190555080836002016000828254610f5d9190613031565b925050819055506000610f81846003015485600201546123b890919063ffffffff16565b90508460000160009054906101000a900473ffffffffffffffffffffffffffffffffffffffff1673ffffffffffffffffffffffffffffffffffffffff1663a9059cbb3386600001546040518363ffffffff1660e01b8152600401610fe6929190612be3565b602060405180830381600087803b15801561100057600080fd5b505af1158015611014573d6000803e3d6000fd5b505050506040513d601f19601f820116820180604052508101906110389190612610565b61104157600080fd5b8460010160009054906101000a900473ffffffffffffffffffffffffffffffffffffffff1673ffffffffffffffffffffffffffffffffffffffff1663a9059cbb33836040518363ffffffff1660e01b81526004016110a0929190612be3565b602060405180830381600087803b1580156110ba57600080fd5b505af11580156110ce573d6000803e3d6000fd5b505050506040513d601f19601f820116820180604052508101906110f29190612610565b6110fb57600080fd5b8084600301600082825461110f9190613031565b9250508190555060008460070160006101000a81548160ff021916908315150217905550600185600601546111449190613112565b856006018190555083600001548560070160008282546111649190613112565b9250508190555083600101548560080160008282546111839190613112565b92505081905550836006015485600a0181905550600060046000888152602001908152602001600020600085815260200190815260200160002090508560070154816000018190555085600801548160010181905550600085600001819055506000856001018190555050505050505050565b6111fe6123ce565b73ffffffffffffffffffffffffffffffffffffffff1661121c61127e565b73ffffffffffffffffffffffffffffffffffffffff1614611272576040517f08c379a000000000000000000000000000000000000000000000000000000000815260040161126990612e2b565b60405180910390fd5b61127c60006123d6565b565b60008060009054906101000a900473ffffffffffffffffffffffffffffffffffffffff16905090565b60015481565b600581815481106112bd57600080fd5b90600052602060002090600b02016000915090508060000160009054906101000a900473ffffffffffffffffffffffffffffffffffffffff16908060010160009054906101000a900473ffffffffffffffffffffffffffffffffffffffff16908060020154908060030154908060040154908060050154908060060154908060070154908060080154908060090160009054906101000a900460ff16908060090160019054906101000a900460ff169080600a015490508c565b6003602052816000526040600020602052806000526040600020600091509150508060000154908060010154908060020154908060030154908060040154908060050154908060060154908060070160009054906101000a900460ff16905088565b6000806000806000806000806005898154811061141f577f4e487b7100000000000000000000000000000000000000000000000000000000600052603260045260246000fd5b90600052602060002090600b0201604051806101800160405290816000820160009054906101000a900473ffffffffffffffffffffffffffffffffffffffff1673ffffffffffffffffffffffffffffffffffffffff1673ffffffffffffffffffffffffffffffffffffffff1681526020016001820160009054906101000a900473ffffffffffffffffffffffffffffffffffffffff1673ffffffffffffffffffffffffffffffffffffffff1673ffffffffffffffffffffffffffffffffffffffff168152602001600282015481526020016003820154815260200160048201548152602001600582015481526020016006820154815260200160078201548152602001600882015481526020016009820160009054906101000a900460ff161515151581526020016009820160019054906101000a900460ff16151515158152602001600a82015481525050905080600001518160200151826040015183606001518460a0015185608001516115948f611f06565b975097509750975097509750975050919395979092949650565b6000818673ffffffffffffffffffffffffffffffffffffffff166370a08231336040518263ffffffff1660e01b81526004016115ea9190612b91565b60206040518083038186803b15801561160257600080fd5b505afa158015611616573d6000803e3d6000fd5b505050506040513d601f19601f8201168201806040525081019061163a91906126d9565b101561167b576040517f08c379a000000000000000000000000000000000000000000000000000000000815260040161167290612dcb565b60405180910390fd5b600083116116be576040517f08c379a00000000000000000000000000000000000000000000000000000000081526004016116b590612eeb565b60405180910390fd5b60006116c98661249a565b6116d35760015490505b60008160646116e29190613112565b6064856116ef9190613087565b6116f991906130b8565b905060008260648661170b9190613087565b61171591906130b8565b905060056040518061018001604052808b73ffffffffffffffffffffffffffffffffffffffff1681526020018a73ffffffffffffffffffffffffffffffffffffffff16815260200184815260200183815260200142815260200188815260200160008152602001600081526020016000815260200189151581526020016000151581526020016117c460016117b6620151804261212090919063ffffffff16565b6123b890919063ffffffff16565b81525090806001815401808255809150506001900390600052602060002090600b020160009091909190915060008201518160000160006101000a81548173ffffffffffffffffffffffffffffffffffffffff021916908373ffffffffffffffffffffffffffffffffffffffff16021790555060208201518160010160006101000a81548173ffffffffffffffffffffffffffffffffffffffff021916908373ffffffffffffffffffffffffffffffffffffffff16021790555060408201518160020155606082015181600301556080820151816004015560a0820151816005015560c0820151816006015560e0820151816007015561010082015181600801556101208201518160090160006101000a81548160ff0219169083151502179055506101408201518160090160016101000a81548160ff02191690831515021790555061016082015181600a01555050600060016005805490506119289190613112565b905060006119346120d7565b905060006004600084815260200190815260200160002060008381526020019081526020016000209050600081600001819055508a73ffffffffffffffffffffffffffffffffffffffff166323b872dd33308b6040518463ffffffff1660e01b81526004016119a593929190612bac565b602060405180830381600087803b1580156119bf57600080fd5b505af11580156119d3573d6000803e3d6000fd5b505050506040513d601f19601f820116820180604052508101906119f79190612610565b611a36576040517f08c379a0000000000000000000000000000000000000000000000000000000008152600401611a2d90612e4b565b60405180910390fd5b82965050505050505095945050505050565b6000806003600085815260200190815260200160002060008473ffffffffffffffffffffffffffffffffffffffff1673ffffffffffffffffffffffffffffffffffffffff16815260200190815260200160002060405180610100016040529081600082015481526020016001820154815260200160028201548152602001600382015481526020016004820154815260200160058201548152602001600682015481526020016007820160009054906101000a900460ff1615151515815250509050600060058581548110611b46577f4e487b7100000000000000000000000000000000000000000000000000000000600052603260045260246000fd5b90600052602060002090600b0201604051806101800160405290816000820160009054906101000a900473ffffffffffffffffffffffffffffffffffffffff1673ffffffffffffffffffffffffffffffffffffffff1673ffffffffffffffffffffffffffffffffffffffff1681526020016001820160009054906101000a900473ffffffffffffffffffffffffffffffffffffffff1673ffffffffffffffffffffffffffffffffffffffff1673ffffffffffffffffffffffffffffffffffffffff168152602001600282015481526020016003820154815260200160048201548152602001600582015481526020016006820154815260200160078201548152602001600882015481526020016009820160009054906101000a900460ff161515151581526020016009820160019054906101000a900460ff16151515158152602001600a8201548152505090506000611c9f866124f4565b9050600080611cbf8460a00151856040015161212090919063ffffffff16565b90506000808660200151905060008760c0015190505b858111611dd7576000600460008d81526020019081526020016000206000838152602001908152602001600020604051806040016040529081600082015481526020016001820154815250509050600081602001511115611dc257611d4b8160200151826000015161212090919063ffffffff16565b9350611db4633b9aca00611da6611d978460000151611d89633b9aca00611d7b8a8c61210a90919063ffffffff16565b61210a90919063ffffffff16565b61212090919063ffffffff16565b8861210a90919063ffffffff16565b61212090919063ffffffff16565b86611dbf9190613031565b95505b50600181611dd09190613031565b9050611cd5565b508397505050505050505092915050565b600260009054906101000a900473ffffffffffffffffffffffffffffffffffffffff1681565b611e166123ce565b73ffffffffffffffffffffffffffffffffffffffff16611e3461127e565b73ffffffffffffffffffffffffffffffffffffffff1614611e8a576040517f08c379a0000000000000000000000000000000000000000000000000000000008152600401611e8190612e2b565b60405180910390fd5b600073ffffffffffffffffffffffffffffffffffffffff168173ffffffffffffffffffffffffffffffffffffffff161415611efa576040517f08c379a0000000000000000000000000000000000000000000000000000000008152600401611ef190612dab565b60405180910390fd5b611f03816123d6565b50565b60008060058381548110611f43577f4e487b7100000000000000000000000000000000000000000000000000000000600052603260045260246000fd5b90600052602060002090600b0201604051806101800160405290816000820160009054906101000a900473ffffffffffffffffffffffffffffffffffffffff1673ffffffffffffffffffffffffffffffffffffffff1673ffffffffffffffffffffffffffffffffffffffff1681526020016001820160009054906101000a900473ffffffffffffffffffffffffffffffffffffffff1673ffffffffffffffffffffffffffffffffffffffff1673ffffffffffffffffffffffffffffffffffffffff168152602001600282015481526020016003820154815260200160048201548152602001600582015481526020016006820154815260200160078201548152602001600882015481526020016009820160009054906101000a900460ff161515151581526020016009820160019054906101000a900460ff16151515158152602001600a8201548152505090506120cf603c8060188460a001516120a891906130b8565b6120b291906130b8565b6120bc91906130b8565b82608001516120f490919063ffffffff16565b915050919050565b60006120ef620151804261212090919063ffffffff16565b905090565b600081836121029190613031565b905092915050565b6000818361211891906130b8565b905092915050565b6000818361212e9190613087565b905092915050565b600060058281548110612172577f4e487b7100000000000000000000000000000000000000000000000000000000600052603260045260246000fd5b90600052602060002090600b0201604051806101800160405290816000820160009054906101000a900473ffffffffffffffffffffffffffffffffffffffff1673ffffffffffffffffffffffffffffffffffffffff1673ffffffffffffffffffffffffffffffffffffffff1681526020016001820160009054906101000a900473ffffffffffffffffffffffffffffffffffffffff1673ffffffffffffffffffffffffffffffffffffffff1673ffffffffffffffffffffffffffffffffffffffff168152602001600282015481526020016003820154815260200160048201548152602001600582015481526020016006820154815260200160078201548152602001600882015481526020016009820160009054906101000a900460ff161515151581526020016009820160019054906101000a900460ff16151515158152602001600a82015481525050905060006122cb836124f4565b905060006122d76120d7565b905081836101600151106122ed575050506123b5565b600060046000868152602001908152602001600020600085610160015181526020019081526020016000206040518060400160405290816000820154815260200160018201548152505090506000600185610160015161234d9190613031565b90505b828110156123af57600060046000888152602001908152602001600020600083815260200190815260200160002090508260000151816000018190555082602001518160010181905550506001816123a89190613031565b9050612350565b50505050505b50565b600081836123c69190613112565b905092915050565b600033905090565b60008060009054906101000a900473ffffffffffffffffffffffffffffffffffffffff169050816000806101000a81548173ffffffffffffffffffffffffffffffffffffffff021916908373ffffffffffffffffffffffffffffffffffffffff1602179055508173ffffffffffffffffffffffffffffffffffffffff168173ffffffffffffffffffffffffffffffffffffffff167f8be0079c531659141344cd1fd0a4f28419497f9722a3daafe3b4186f6b6457e060405160405180910390a35050565b6000600260009054906101000a900473ffffffffffffffffffffffffffffffffffffffff1673ffffffffffffffffffffffffffffffffffffffff168273ffffffffffffffffffffffffffffffffffffffff16149050919050565b60008061250083611f06565b9050804211612537576125326001612524620151804261212090919063ffffffff16565b6123b890919063ffffffff16565b612561565b6125606001612552620151808461212090919063ffffffff16565b6123b890919063ffffffff16565b5b915050919050565b60008135905061257881613222565b92915050565b60008135905061258d81613239565b92915050565b6000815190506125a281613239565b92915050565b6000813590506125b781613250565b92915050565b6000813590506125cc81613267565b92915050565b6000815190506125e181613267565b92915050565b6000602082840312156125f957600080fd5b600061260784828501612569565b91505092915050565b60006020828403121561262257600080fd5b600061263084828501612593565b91505092915050565b600080600080600060a0868803121561265157600080fd5b600061265f888289016125a8565b9550506020612670888289016125a8565b94505060406126818882890161257e565b9350506060612692888289016125bd565b92505060806126a3888289016125bd565b9150509295509295909350565b6000602082840312156126c257600080fd5b60006126d0848285016125bd565b91505092915050565b6000602082840312156126eb57600080fd5b60006126f9848285016125d2565b91505092915050565b6000806040838503121561271557600080fd5b6000612723858286016125bd565b925050602061273485828601612569565b9150509250929050565b6000806040838503121561275157600080fd5b600061275f858286016125bd565b9250506020612770858286016125bd565b9150509250929050565b60008060006060848603121561278f57600080fd5b600061279d868287016125bd565b93505060206127ae868287016125bd565b92505060406127bf868287016125bd565b9150509250925092565b6127d281613146565b82525050565b6127e181613158565b82525050565b6127f0816131a0565b82525050565b6000612803600e83613020565b91507f5661756c742066696e69636865640000000000000000000000000000000000006000830152602082019050919050565b6000612843601183613020565b91507f5661756c74206e6f7420737461727465640000000000000000000000000000006000830152602082019050919050565b6000612883602683613020565b91507f4f776e61626c653a206e6577206f776e657220697320746865207a65726f206160008301527f64647265737300000000000000000000000000000000000000000000000000006020830152604082019050919050565b60006128e9601283613020565b91507f5573657220686173206e6f20746f6b656e7300000000000000000000000000006000830152602082019050919050565b6000612929601b83613020565b91507f43616e2774207472616e736665722074617820746f206f776e657200000000006000830152602082019050919050565b6000612969600c83613020565b91507f5661756c742070617573656400000000000000000000000000000000000000006000830152602082019050919050565b60006129a9602083613020565b91507f4f776e61626c653a2063616c6c6572206973206e6f7420746865206f776e65726000830152602082019050919050565b60006129e9601683613020565b91507f43616e2774207472616e7366657220746f6b656e732e000000000000000000006000830152602082019050919050565b6000612a29602183613020565b91507f4465706f736974206d7573742062652067726561746572207468616e207a657260008301527f6f000000000000000000000000000000000000000000000000000000000000006020830152604082019050919050565b6000612a8f601c83613020565b91507f5661756c7420776974686f757420746f6b656e20746178206c656674000000006000830152602082019050919050565b6000612acf601183613020565b91507f4e6f2076616c756520746f20636c61696d0000000000000000000000000000006000830152602082019050919050565b6000612b0f601183613020565b91507f5573657220696e206c6f636b2074696d650000000000000000000000000000006000830152602082019050919050565b6000612b4f600f83613020565b91507f5661756c742064617973207a65726f00000000000000000000000000000000006000830152602082019050919050565b612b8b81613196565b82525050565b6000602082019050612ba660008301846127c9565b92915050565b6000606082019050612bc160008301866127c9565b612bce60208301856127c9565b612bdb6040830184612b82565b949350505050565b6000604082019050612bf860008301856127c9565b612c056020830184612b82565b9392505050565b6000602082019050612c2160008301846127d8565b92915050565b6000602082019050612c3c60008301846127e7565b92915050565b600060e082019050612c57600083018a6127e7565b612c6460208301896127e7565b612c716040830188612b82565b612c7e6060830187612b82565b612c8b6080830186612b82565b612c9860a0830185612b82565b612ca560c0830184612b82565b98975050505050505050565b600061018082019050612cc7600083018f6127e7565b612cd4602083018e6127e7565b612ce1604083018d612b82565b612cee606083018c612b82565b612cfb608083018b612b82565b612d0860a083018a612b82565b612d1560c0830189612b82565b612d2260e0830188612b82565b612d30610100830187612b82565b612d3e6101208301866127d8565b612d4c6101408301856127d8565b612d5a610160830184612b82565b9d9c50505050505050505050505050565b60006020820190508181036000830152612d84816127f6565b9050919050565b60006020820190508181036000830152612da481612836565b9050919050565b60006020820190508181036000830152612dc481612876565b9050919050565b60006020820190508181036000830152612de4816128dc565b9050919050565b60006020820190508181036000830152612e048161291c565b9050919050565b60006020820190508181036000830152612e248161295c565b9050919050565b60006020820190508181036000830152612e448161299c565b9050919050565b60006020820190508181036000830152612e64816129dc565b9050919050565b60006020820190508181036000830152612e8481612a1c565b9050919050565b60006020820190508181036000830152612ea481612a82565b9050919050565b60006020820190508181036000830152612ec481612ac2565b9050919050565b60006020820190508181036000830152612ee481612b02565b9050919050565b60006020820190508181036000830152612f0481612b42565b9050919050565b6000602082019050612f206000830184612b82565b92915050565b6000604082019050612f3b6000830185612b82565b612f486020830184612b82565b9392505050565b600060a082019050612f646000830188612b82565b612f716020830187612b82565b612f7e6040830186612b82565b612f8b6060830185612b82565b612f986080830184612b82565b9695505050505050565b600061010082019050612fb8600083018b612b82565b612fc5602083018a612b82565b612fd26040830189612b82565b612fdf6060830188612b82565b612fec6080830187612b82565b612ff960a0830186612b82565b61300660c0830185612b82565b61301360e08301846127d8565b9998505050505050505050565b600082825260208201905092915050565b600061303c82613196565b915061304783613196565b9250827fffffffffffffffffffffffffffffffffffffffffffffffffffffffffffffffff0382111561307c5761307b6131c4565b5b828201905092915050565b600061309282613196565b915061309d83613196565b9250826130ad576130ac6131f3565b5b828204905092915050565b60006130c382613196565b91506130ce83613196565b9250817fffffffffffffffffffffffffffffffffffffffffffffffffffffffffffffffff0483118215151615613107576131066131c4565b5b828202905092915050565b600061311d82613196565b915061312883613196565b92508282101561313b5761313a6131c4565b5b828203905092915050565b600061315182613176565b9050919050565b60008115159050919050565b600061316f82613146565b9050919050565b600073ffffffffffffffffffffffffffffffffffffffff82169050919050565b6000819050919050565b60006131ab826131b2565b9050919050565b60006131bd82613176565b9050919050565b7f4e487b7100000000000000000000000000000000000000000000000000000000600052601160045260246000fd5b7f4e487b7100000000000000000000000000000000000000000000000000000000600052601260045260246000fd5b61322b81613146565b811461323657600080fd5b50565b61324281613158565b811461324d57600080fd5b50565b61325981613164565b811461326457600080fd5b50565b61327081613196565b811461327b57600080fd5b5056fea264697066735822122055d8861be39ffc38ab17a614fc728e574ffae888d6e95d07cf682bcf110434a464736f6c63430008000033",
  "linkReferences": {},
  "deployedLinkReferences": {}
}