{
  "_format": "hh-sol-artifact-1",
  "contractName": "Vault",
  "sourceName": "contracts/Vault.sol",
  "abi": [
    {
      "inputs": [
        {
          "internalType": "contract IERC20",
          "name": "_babydoge",
          "type": "address"
        },
        {
          "internalType": "uint256",
          "name": "_taxForNonBabyDogeCoin",
          "type": "uint256"
        }
      ],
      "stateMutability": "nonpayable",
      "type": "constructor"
    },
    {
      "anonymous": false,
      "inputs": [
        {
          "indexed": true,
          "internalType": "address",
          "name": "user",
          "type": "address"
        },
        {
          "indexed": true,
          "internalType": "uint256",
          "name": "pid",
          "type": "uint256"
        },
        {
          "indexed": false,
          "internalType": "uint256",
          "name": "amount",
          "type": "uint256"
        }
      ],
      "name": "Deposit",
      "type": "event"
    },
    {
      "anonymous": false,
      "inputs": [
        {
          "indexed": true,
          "internalType": "address",
          "name": "previousOwner",
          "type": "address"
        },
        {
          "indexed": true,
          "internalType": "address",
          "name": "newOwner",
          "type": "address"
        }
      ],
      "name": "OwnershipTransferred",
      "type": "event"
    },
    {
      "anonymous": false,
      "inputs": [
        {
          "indexed": true,
          "internalType": "address",
          "name": "user",
          "type": "address"
        },
        {
          "indexed": true,
          "internalType": "uint256",
          "name": "pid",
          "type": "uint256"
        },
        {
          "indexed": false,
          "internalType": "uint256",
          "name": "amount",
          "type": "uint256"
        }
      ],
      "name": "Withdraw",
      "type": "event"
    },
    {
      "inputs": [],
      "name": "babydoge",
      "outputs": [
        {
          "internalType": "contract IERC20",
          "name": "",
          "type": "address"
        }
      ],
      "stateMutability": "view",
      "type": "function"
    },
    {
      "inputs": [
        {
          "internalType": "uint256",
          "name": "_vid",
          "type": "uint256"
        },
        {
          "internalType": "address",
          "name": "_user",
          "type": "address"
        }
      ],
      "name": "calcRewardsUser",
      "outputs": [
        {
          "internalType": "uint256",
          "name": "",
          "type": "uint256"
        }
      ],
      "stateMutability": "view",
      "type": "function"
    },
    {
      "inputs": [
        {
          "internalType": "contract IERC20",
          "name": "_token",
          "type": "address"
        },
        {
          "internalType": "bool",
          "name": "_isLp",
          "type": "bool"
        },
        {
          "internalType": "uint256",
          "name": "_lockDays",
          "type": "uint256"
        },
        {
          "internalType": "uint256",
          "name": "_amount",
          "type": "uint256"
        }
      ],
      "name": "createVault",
      "outputs": [
        {
          "internalType": "uint256",
          "name": "",
          "type": "uint256"
        }
      ],
      "stateMutability": "nonpayable",
      "type": "function"
    },
    {
      "inputs": [
        {
          "internalType": "uint256",
          "name": "_vid",
          "type": "uint256"
        },
        {
          "internalType": "uint256",
          "name": "_lockDays",
          "type": "uint256"
        },
        {
          "internalType": "uint256",
          "name": "value",
          "type": "uint256"
        }
      ],
      "name": "deposit",
      "outputs": [
        {
          "internalType": "bool",
          "name": "",
          "type": "bool"
        }
      ],
      "stateMutability": "nonpayable",
      "type": "function"
    },
    {
      "inputs": [
        {
          "internalType": "uint256",
          "name": "_vid",
          "type": "uint256"
        },
        {
          "internalType": "address",
          "name": "_user",
          "type": "address"
        }
      ],
      "name": "getUserInfo",
      "outputs": [
        {
          "internalType": "uint256",
          "name": "",
          "type": "uint256"
        },
        {
          "internalType": "uint256",
          "name": "",
          "type": "uint256"
        },
        {
          "internalType": "uint256",
          "name": "",
          "type": "uint256"
        },
        {
          "internalType": "uint256",
          "name": "",
          "type": "uint256"
        },
        {
          "internalType": "uint256",
          "name": "",
          "type": "uint256"
        }
      ],
      "stateMutability": "view",
      "type": "function"
    },
    {
      "inputs": [
        {
          "internalType": "uint256",
          "name": "_vid",
          "type": "uint256"
        }
      ],
      "name": "getVault",
      "outputs": [
        {
          "internalType": "contract IERC20",
          "name": "",
          "type": "address"
        },
        {
          "internalType": "uint256",
          "name": "",
          "type": "uint256"
        },
        {
          "internalType": "uint256",
          "name": "",
          "type": "uint256"
        },
        {
          "internalType": "uint256",
          "name": "",
          "type": "uint256"
        },
        {
          "internalType": "uint256",
          "name": "",
          "type": "uint256"
        },
        {
          "internalType": "uint256",
          "name": "",
          "type": "uint256"
        }
      ],
      "stateMutability": "view",
      "type": "function"
    },
    {
      "inputs": [],
      "name": "owner",
      "outputs": [
        {
          "internalType": "address",
          "name": "",
          "type": "address"
        }
      ],
      "stateMutability": "view",
      "type": "function"
    },
    {
      "inputs": [],
      "name": "renounceOwnership",
      "outputs": [],
      "stateMutability": "nonpayable",
      "type": "function"
    },
    {
      "inputs": [],
      "name": "taxForNonBabyDogeCoin",
      "outputs": [
        {
          "internalType": "uint256",
          "name": "",
          "type": "uint256"
        }
      ],
      "stateMutability": "view",
      "type": "function"
    },
    {
      "inputs": [
        {
          "internalType": "uint256",
          "name": "",
          "type": "uint256"
        },
        {
          "internalType": "uint256",
          "name": "",
          "type": "uint256"
        }
      ],
      "name": "totalDay",
      "outputs": [
        {
          "internalType": "uint256",
          "name": "amount",
          "type": "uint256"
        },
        {
          "internalType": "uint256",
          "name": "weight",
          "type": "uint256"
        }
      ],
      "stateMutability": "view",
      "type": "function"
    },
    {
      "inputs": [
        {
          "internalType": "address",
          "name": "newOwner",
          "type": "address"
        }
      ],
      "name": "transferOwnership",
      "outputs": [],
      "stateMutability": "nonpayable",
      "type": "function"
    },
    {
      "inputs": [
        {
          "internalType": "uint256",
          "name": "",
          "type": "uint256"
        },
        {
          "internalType": "address",
          "name": "",
          "type": "address"
        }
      ],
      "name": "userInfo",
      "outputs": [
        {
          "internalType": "uint256",
          "name": "amount",
          "type": "uint256"
        },
        {
          "internalType": "uint256",
          "name": "weight",
          "type": "uint256"
        },
        {
          "internalType": "uint256",
          "name": "rewardDebt",
          "type": "uint256"
        },
        {
          "internalType": "uint256",
          "name": "rewardWithdraw",
          "type": "uint256"
        },
        {
          "internalType": "uint256",
          "name": "lockTime",
          "type": "uint256"
        },
        {
          "internalType": "uint256",
          "name": "lockDays",
          "type": "uint256"
        },
        {
          "internalType": "uint256",
          "name": "lastRewardDay",
          "type": "uint256"
        },
        {
          "internalType": "bool",
          "name": "exists",
          "type": "bool"
        }
      ],
      "stateMutability": "view",
      "type": "function"
    },
    {
      "inputs": [
        {
          "internalType": "uint256",
          "name": "",
          "type": "uint256"
        }
      ],
      "name": "vaultInfo",
      "outputs": [
        {
          "internalType": "contract IERC20",
          "name": "token",
          "type": "address"
        },
        {
          "internalType": "uint256",
          "name": "amountReward",
          "type": "uint256"
        },
        {
          "internalType": "uint256",
          "name": "vaultTokenTax",
          "type": "uint256"
        },
        {
          "internalType": "uint256",
          "name": "startVault",
          "type": "uint256"
        },
        {
          "internalType": "uint256",
          "name": "lockDays",
          "type": "uint256"
        },
        {
          "internalType": "uint256",
          "name": "userCount",
          "type": "uint256"
        },
        {
          "internalType": "uint256",
          "name": "usersAmount",
          "type": "uint256"
        },
        {
          "internalType": "uint256",
          "name": "usersWeight",
          "type": "uint256"
        },
        {
          "internalType": "bool",
          "name": "isLpVault",
          "type": "bool"
        },
        {
          "internalType": "bool",
          "name": "paused",
          "type": "bool"
        },
        {
          "internalType": "uint256",
          "name": "lastTotalDay",
          "type": "uint256"
        }
      ],
      "stateMutability": "view",
      "type": "function"
    },
    {
      "inputs": [
        {
          "internalType": "uint256",
          "name": "_vid",
          "type": "uint256"
        }
      ],
      "name": "withdraw",
      "outputs": [],
      "stateMutability": "nonpayable",
      "type": "function"
    },
    {
      "inputs": [
        {
          "internalType": "uint256",
          "name": "_vid",
          "type": "uint256"
        }
      ],
      "name": "withdrawTax",
      "outputs": [],
      "stateMutability": "nonpayable",
      "type": "function"
    }
  ],
  "bytecode": "0x60806040523480156200001157600080fd5b5060405162002e4238038062002e428339818101604052810190620000379190620001a1565b620000576200004b620000a760201b60201c565b620000af60201b60201c565b81600260006101000a81548173ffffffffffffffffffffffffffffffffffffffff021916908373ffffffffffffffffffffffffffffffffffffffff16021790555080600181905550505062000268565b600033905090565b60008060009054906101000a900473ffffffffffffffffffffffffffffffffffffffff169050816000806101000a81548173ffffffffffffffffffffffffffffffffffffffff021916908373ffffffffffffffffffffffffffffffffffffffff1602179055508173ffffffffffffffffffffffffffffffffffffffff168173ffffffffffffffffffffffffffffffffffffffff167f8be0079c531659141344cd1fd0a4f28419497f9722a3daafe3b4186f6b6457e060405160405180910390a35050565b600081519050620001848162000234565b92915050565b6000815190506200019b816200024e565b92915050565b60008060408385031215620001b557600080fd5b6000620001c58582860162000173565b9250506020620001d8858286016200018a565b9150509250929050565b6000620001ef826200020a565b9050919050565b60006200020382620001e2565b9050919050565b600073ffffffffffffffffffffffffffffffffffffffff82169050919050565b6000819050919050565b6200023f81620001f6565b81146200024b57600080fd5b50565b62000259816200022a565b81146200026557600080fd5b50565b612bca80620002786000396000f3fe608060405234801561001057600080fd5b50600436106100f45760003560e01c80638f7ed4b311610097578063c06487f311610066578063c06487f3146102b2578063e85c7442146102e2578063f22fcf3614610312578063f2fde38b14610330576100f4565b80638f7ed4b3146101ee578063929060d81461020c57806393f1a40b146102465780639403b6341461027d576100f4565b8063249ae3e2116100d3578063249ae3e21461018e5780632e1a7d4d146101aa578063715018a6146101c65780638da5cb5b146101d0576100f4565b8062aeef8a146100f957806302525222146101295780631069f3b51461015a575b600080fd5b610113600480360381019061010e919061216d565b61034c565b604051610120919061257f565b60405180910390f35b610143600480360381019061013e9190612131565b6107b1565b60405161015192919061283c565b60405180910390f35b610174600480360381019061016f91906120f5565b6107e2565b604051610185959493929190612865565b60405180910390f35b6101a860048036038101906101a391906120a3565b6108d8565b005b6101c460048036038101906101bf91906120a3565b610af0565b005b6101ce610e2d565b005b6101d8610eb5565b6040516101e59190612504565b60405180910390f35b6101f6610ede565b6040516102039190612821565b60405180910390f35b610226600480360381019061022191906120a3565b610ee4565b60405161023d9b9a99989796959493929190612616565b60405180910390f35b610260600480360381019061025b91906120f5565b610f88565b6040516102749897969594939291906128b8565b60405180910390f35b610297600480360381019061029291906120a3565b610fea565b6040516102a9969594939291906125b5565b60405180910390f35b6102cc60048036038101906102c79190612040565b61115f565b6040516102d99190612821565b60405180910390f35b6102fc60048036038101906102f791906120f5565b611551565b6040516103099190612821565b60405180910390f35b61031a61189b565b604051610327919061259a565b60405180910390f35b61034a60048036038101906103459190611fee565b6118c1565b005b6000808211610390576040517f08c379a0000000000000000000000000000000000000000000000000000000008152600401610387906127c1565b60405180910390fd5b6000600585815481106103cc577f4e487b7100000000000000000000000000000000000000000000000000000000600052603260045260246000fd5b90600052602060002090600a0201905060006103e7866119b9565b9050600015158260080160019054906101000a900460ff16151514610441576040517f08c379a000000000000000000000000000000000000000000000000000000000815260040161043890612761565b60405180910390fd5b8160030154421015610488576040517f08c379a000000000000000000000000000000000000000000000000000000000815260040161047f906126e1565b60405180910390fd5b804211156104cb576040517f08c379a00000000000000000000000000000000000000000000000000000000081526004016104c2906126c1565b60405180910390fd5b8160000160009054906101000a900473ffffffffffffffffffffffffffffffffffffffff1673ffffffffffffffffffffffffffffffffffffffff166323b872dd3330876040518463ffffffff1660e01b815260040161052c9392919061251f565b602060405180830381600087803b15801561054657600080fd5b505af115801561055a573d6000803e3d6000fd5b505050506040513d601f19601f8201168201806040525081019061057e9190612017565b61058757600080fd5b6000610591611b34565b905060006003600089815260200190815260200160002060003373ffffffffffffffffffffffffffffffffffffffff1673ffffffffffffffffffffffffffffffffffffffff168152602001908152602001600020905060008160070160009054906101000a900460ff166106f65760018260070160006101000a81548160ff0219169083151502179055506000610654603c8060188c61063191906129ce565b61063b91906129ce565b61064591906129ce565b42611b5190919063ffffffff16565b90508481116106635780610665565b845b905080836004018190555088836005018190555083836006018190555060018660050160008282546106979190612947565b925050819055506106e5633b9aca006106d788600401546106c9633b9aca008860050154611b6790919063ffffffff16565b611b7d90919063ffffffff16565b611b5190919063ffffffff16565b9150818360010181905550506106fb565b600090505b8682600001600082825461070f9190612947565b9250508190555061071f89611b93565b8285600901819055508685600601600082825461073c9190612947565b92505081905550808560070160008282546107579190612947565b925050819055506000600460008b8152602001908152602001600020600085815260200190815260200160002090508560060154816000018190555085600701548160010181905550600196505050505050509392505050565b6004602052816000526040600020602052806000526040600020600091509150508060000154908060010154905082565b6000806000806000806003600089815260200190815260200160002060008873ffffffffffffffffffffffffffffffffffffffff1673ffffffffffffffffffffffffffffffffffffffff16815260200190815260200160002060405180610100016040529081600082015481526020016001820154815260200160028201548152602001600382015481526020016004820154815260200160058201548152602001600682015481526020016007820160009054906101000a900460ff16151515158152505090508060000151816020015182604001518360600151846080015195509550955095509550509295509295909350565b6108e0611dbf565b73ffffffffffffffffffffffffffffffffffffffff166108fe610eb5565b73ffffffffffffffffffffffffffffffffffffffff1614610954576040517f08c379a000000000000000000000000000000000000000000000000000000000815260040161094b90612781565b60405180910390fd5b600060058281548110610990577f4e487b7100000000000000000000000000000000000000000000000000000000600052603260045260246000fd5b90600052602060002090600a0201905060008160020154116109e7576040517f08c379a00000000000000000000000000000000000000000000000000000000081526004016109de906127e1565b60405180910390fd5b8060000160009054906101000a900473ffffffffffffffffffffffffffffffffffffffff1673ffffffffffffffffffffffffffffffffffffffff1663a9059cbb610a2f610eb5565b83600201546040518363ffffffff1660e01b8152600401610a51929190612556565b602060405180830381600087803b158015610a6b57600080fd5b505af1158015610a7f573d6000803e3d6000fd5b505050506040513d601f19601f82011682018060405250810190610aa39190612017565b610ae2576040517f08c379a0000000000000000000000000000000000000000000000000000000008152600401610ad990612741565b60405180910390fd5b600081600201819055505050565b600060058281548110610b2c577f4e487b7100000000000000000000000000000000000000000000000000000000600052603260045260246000fd5b90600052602060002090600a02019050600015158160080160019054906101000a900460ff16151514610b94576040517f08c379a0000000000000000000000000000000000000000000000000000000008152600401610b8b90612761565b60405180910390fd5b60006003600084815260200190815260200160002060003373ffffffffffffffffffffffffffffffffffffffff1673ffffffffffffffffffffffffffffffffffffffff16815260200190815260200160002090504281600401541115610c2f576040517f08c379a0000000000000000000000000000000000000000000000000000000008152600401610c2690612801565b60405180910390fd5b610c3883611b93565b6000610c42611b34565b90506000610c508533611551565b905081836006018190555080836002016000828254610c6f9190612947565b925050819055506000818460000154610c889190612947565b90508460000160009054906101000a900473ffffffffffffffffffffffffffffffffffffffff1673ffffffffffffffffffffffffffffffffffffffff1663a9059cbb33836040518363ffffffff1660e01b8152600401610ce9929190612556565b602060405180830381600087803b158015610d0357600080fd5b505af1158015610d17573d6000803e3d6000fd5b505050506040513d601f19601f82011682018060405250810190610d3b9190612017565b610d4457600080fd5b81846003018190555060008460070160006101000a81548160ff02191690831515021790555060018560050154610d7b9190612a28565b85600501819055508360000154856006016000828254610d9b9190612a28565b925050819055508360010154856007016000828254610dba9190612a28565b9250508190555083600601548560090181905550600060046000888152602001908152602001600020600085815260200190815260200160002090508560060154816000018190555085600701548160010181905550600085600001819055506000856001018190555050505050505050565b610e35611dbf565b73ffffffffffffffffffffffffffffffffffffffff16610e53610eb5565b73ffffffffffffffffffffffffffffffffffffffff1614610ea9576040517f08c379a0000000000000000000000000000000000000000000000000000000008152600401610ea090612781565b60405180910390fd5b610eb36000611dc7565b565b60008060009054906101000a900473ffffffffffffffffffffffffffffffffffffffff16905090565b60015481565b60058181548110610ef457600080fd5b90600052602060002090600a02016000915090508060000160009054906101000a900473ffffffffffffffffffffffffffffffffffffffff16908060010154908060020154908060030154908060040154908060050154908060060154908060070154908060080160009054906101000a900460ff16908060080160019054906101000a900460ff1690806009015490508b565b6003602052816000526040600020602052806000526040600020600091509150508060000154908060010154908060020154908060030154908060040154908060050154908060060154908060070160009054906101000a900460ff16905088565b60008060008060008060006005888154811061102f577f4e487b7100000000000000000000000000000000000000000000000000000000600052603260045260246000fd5b90600052602060002090600a0201604051806101600160405290816000820160009054906101000a900473ffffffffffffffffffffffffffffffffffffffff1673ffffffffffffffffffffffffffffffffffffffff1673ffffffffffffffffffffffffffffffffffffffff168152602001600182015481526020016002820154815260200160038201548152602001600482015481526020016005820154815260200160068201548152602001600782015481526020016008820160009054906101000a900460ff161515151581526020016008820160019054906101000a900460ff161515151581526020016009820154815250509050806000015181602001518260400151836080015184606001516111498d6119b9565b9650965096509650965096505091939550919395565b6000818573ffffffffffffffffffffffffffffffffffffffff166370a08231336040518263ffffffff1660e01b815260040161119b9190612504565b60206040518083038186803b1580156111b357600080fd5b505afa1580156111c7573d6000803e3d6000fd5b505050506040513d601f19601f820116820180604052508101906111eb91906120cc565b101561122c576040517f08c379a000000000000000000000000000000000000000000000000000000000815260040161122390612721565b60405180910390fd5b600061123786611e8b565b6112415760015490505b60008160646112509190612a28565b60648561125d919061299d565b61126791906129ce565b9050600082606486611279919061299d565b61128391906129ce565b905060056040518061016001604052808a73ffffffffffffffffffffffffffffffffffffffff168152602001848152602001838152602001428152602001888152602001600081526020016000815260200160008152602001891515815260200160001515815260200161131660016113086201518042611b7d90919063ffffffff16565b611ee590919063ffffffff16565b81525090806001815401808255809150506001900390600052602060002090600a020160009091909190915060008201518160000160006101000a81548173ffffffffffffffffffffffffffffffffffffffff021916908373ffffffffffffffffffffffffffffffffffffffff1602179055506020820151816001015560408201518160020155606082015181600301556080820151816004015560a0820151816005015560c0820151816006015560e082015181600701556101008201518160080160006101000a81548160ff0219169083151502179055506101208201518160080160016101000a81548160ff02191690831515021790555061014082015181600901555050600060016005805490506114329190612a28565b9050600061143e611b34565b905060006004600084815260200190815260200160002060008381526020019081526020016000209050600081600001819055508a73ffffffffffffffffffffffffffffffffffffffff166323b872dd33308b6040518463ffffffff1660e01b81526004016114af9392919061251f565b602060405180830381600087803b1580156114c957600080fd5b505af11580156114dd573d6000803e3d6000fd5b505050506040513d601f19601f820116820180604052508101906115019190612017565b611540576040517f08c379a0000000000000000000000000000000000000000000000000000000008152600401611537906127a1565b60405180910390fd5b829650505050505050949350505050565b6000806003600085815260200190815260200160002060008473ffffffffffffffffffffffffffffffffffffffff1673ffffffffffffffffffffffffffffffffffffffff16815260200190815260200160002060405180610100016040529081600082015481526020016001820154815260200160028201548152602001600382015481526020016004820154815260200160058201548152602001600682015481526020016007820160009054906101000a900460ff161515151581525050905060006005858154811061164f577f4e487b7100000000000000000000000000000000000000000000000000000000600052603260045260246000fd5b90600052602060002090600a0201604051806101600160405290816000820160009054906101000a900473ffffffffffffffffffffffffffffffffffffffff1673ffffffffffffffffffffffffffffffffffffffff1673ffffffffffffffffffffffffffffffffffffffff168152602001600182015481526020016002820154815260200160038201548152602001600482015481526020016005820154815260200160068201548152602001600782015481526020016008820160009054906101000a900460ff161515151581526020016008820160019054906101000a900460ff161515151581526020016009820154815250509050600061175286611efb565b905060008061177284608001518560200151611b7d90919063ffffffff16565b90506000808660200151905060008760c0015190505b85811161188a576000600460008d81526020019081526020016000206000838152602001908152602001600020604051806040016040529081600082015481526020016001820154815250509050600081602001511115611875576117fe81602001518260000151611b7d90919063ffffffff16565b9350611867633b9aca0061185961184a846000015161183c633b9aca0061182e8a8c611b6790919063ffffffff16565b611b6790919063ffffffff16565b611b7d90919063ffffffff16565b88611b6790919063ffffffff16565b611b7d90919063ffffffff16565b866118729190612947565b95505b506001816118839190612947565b9050611788565b508397505050505050505092915050565b600260009054906101000a900473ffffffffffffffffffffffffffffffffffffffff1681565b6118c9611dbf565b73ffffffffffffffffffffffffffffffffffffffff166118e7610eb5565b73ffffffffffffffffffffffffffffffffffffffff161461193d576040517f08c379a000000000000000000000000000000000000000000000000000000000815260040161193490612781565b60405180910390fd5b600073ffffffffffffffffffffffffffffffffffffffff168173ffffffffffffffffffffffffffffffffffffffff1614156119ad576040517f08c379a00000000000000000000000000000000000000000000000000000000081526004016119a490612701565b60405180910390fd5b6119b681611dc7565b50565b600080600583815481106119f6577f4e487b7100000000000000000000000000000000000000000000000000000000600052603260045260246000fd5b90600052602060002090600a0201604051806101600160405290816000820160009054906101000a900473ffffffffffffffffffffffffffffffffffffffff1673ffffffffffffffffffffffffffffffffffffffff1673ffffffffffffffffffffffffffffffffffffffff168152602001600182015481526020016002820154815260200160038201548152602001600482015481526020016005820154815260200160068201548152602001600782015481526020016008820160009054906101000a900460ff161515151581526020016008820160019054906101000a900460ff161515151581526020016009820154815250509050611b2c603c8060188460800151611b0591906129ce565b611b0f91906129ce565b611b1991906129ce565b8260600151611b5190919063ffffffff16565b915050919050565b6000611b4c6201518042611b7d90919063ffffffff16565b905090565b60008183611b5f9190612947565b905092915050565b60008183611b7591906129ce565b905092915050565b60008183611b8b919061299d565b905092915050565b600060058281548110611bcf577f4e487b7100000000000000000000000000000000000000000000000000000000600052603260045260246000fd5b90600052602060002090600a0201604051806101600160405290816000820160009054906101000a900473ffffffffffffffffffffffffffffffffffffffff1673ffffffffffffffffffffffffffffffffffffffff1673ffffffffffffffffffffffffffffffffffffffff168152602001600182015481526020016002820154815260200160038201548152602001600482015481526020016005820154815260200160068201548152602001600782015481526020016008820160009054906101000a900460ff161515151581526020016008820160019054906101000a900460ff1615151515815260200160098201548152505090506000611cd283611efb565b90506000611cde611b34565b90508183610140015110611cf457505050611dbc565b6000600460008681526020019081526020016000206000856101400151815260200190815260200160002060405180604001604052908160008201548152602001600182015481525050905060006001856101400151611d549190612947565b90505b82811015611db65760006004600088815260200190815260200160002060008381526020019081526020016000209050826000015181600001819055508260200151816001018190555050600181611daf9190612947565b9050611d57565b50505050505b50565b600033905090565b60008060009054906101000a900473ffffffffffffffffffffffffffffffffffffffff169050816000806101000a81548173ffffffffffffffffffffffffffffffffffffffff021916908373ffffffffffffffffffffffffffffffffffffffff1602179055508173ffffffffffffffffffffffffffffffffffffffff168173ffffffffffffffffffffffffffffffffffffffff167f8be0079c531659141344cd1fd0a4f28419497f9722a3daafe3b4186f6b6457e060405160405180910390a35050565b6000600260009054906101000a900473ffffffffffffffffffffffffffffffffffffffff1673ffffffffffffffffffffffffffffffffffffffff168273ffffffffffffffffffffffffffffffffffffffff16149050919050565b60008183611ef39190612a28565b905092915050565b600080611f07836119b9565b9050804211611f3e57611f396001611f2b6201518042611b7d90919063ffffffff16565b611ee590919063ffffffff16565b611f68565b611f676001611f596201518084611b7d90919063ffffffff16565b611ee590919063ffffffff16565b5b915050919050565b600081359050611f7f81612b38565b92915050565b600081359050611f9481612b4f565b92915050565b600081519050611fa981612b4f565b92915050565b600081359050611fbe81612b66565b92915050565b600081359050611fd381612b7d565b92915050565b600081519050611fe881612b7d565b92915050565b60006020828403121561200057600080fd5b600061200e84828501611f70565b91505092915050565b60006020828403121561202957600080fd5b600061203784828501611f9a565b91505092915050565b6000806000806080858703121561205657600080fd5b600061206487828801611faf565b945050602061207587828801611f85565b935050604061208687828801611fc4565b925050606061209787828801611fc4565b91505092959194509250565b6000602082840312156120b557600080fd5b60006120c384828501611fc4565b91505092915050565b6000602082840312156120de57600080fd5b60006120ec84828501611fd9565b91505092915050565b6000806040838503121561210857600080fd5b600061211685828601611fc4565b925050602061212785828601611f70565b9150509250929050565b6000806040838503121561214457600080fd5b600061215285828601611fc4565b925050602061216385828601611fc4565b9150509250929050565b60008060006060848603121561218257600080fd5b600061219086828701611fc4565b93505060206121a186828701611fc4565b92505060406121b286828701611fc4565b9150509250925092565b6121c581612a5c565b82525050565b6121d481612a6e565b82525050565b6121e381612ab6565b82525050565b60006121f6600e83612936565b91507f5661756c742066696e69636865640000000000000000000000000000000000006000830152602082019050919050565b6000612236601183612936565b91507f5661756c74206e6f7420737461727465640000000000000000000000000000006000830152602082019050919050565b6000612276602683612936565b91507f4f776e61626c653a206e6577206f776e657220697320746865207a65726f206160008301527f64647265737300000000000000000000000000000000000000000000000000006020830152604082019050919050565b60006122dc601283612936565b91507f5573657220686173206e6f20746f6b656e7300000000000000000000000000006000830152602082019050919050565b600061231c601b83612936565b91507f43616e2774207472616e736665722074617820746f206f776e657200000000006000830152602082019050919050565b600061235c600c83612936565b91507f5661756c742070617573656400000000000000000000000000000000000000006000830152602082019050919050565b600061239c602083612936565b91507f4f776e61626c653a2063616c6c6572206973206e6f7420746865206f776e65726000830152602082019050919050565b60006123dc601683612936565b91507f43616e2774207472616e7366657220746f6b656e732e000000000000000000006000830152602082019050919050565b600061241c602183612936565b91507f4465706f736974206d7573742062652067726561746572207468616e207a657260008301527f6f000000000000000000000000000000000000000000000000000000000000006020830152604082019050919050565b6000612482601c83612936565b91507f5661756c7420776974686f757420746f6b656e20746178206c656674000000006000830152602082019050919050565b60006124c2601183612936565b91507f5573657220696e206c6f636b2074696d650000000000000000000000000000006000830152602082019050919050565b6124fe81612aac565b82525050565b600060208201905061251960008301846121bc565b92915050565b600060608201905061253460008301866121bc565b61254160208301856121bc565b61254e60408301846124f5565b949350505050565b600060408201905061256b60008301856121bc565b61257860208301846124f5565b9392505050565b600060208201905061259460008301846121cb565b92915050565b60006020820190506125af60008301846121da565b92915050565b600060c0820190506125ca60008301896121da565b6125d760208301886124f5565b6125e460408301876124f5565b6125f160608301866124f5565b6125fe60808301856124f5565b61260b60a08301846124f5565b979650505050505050565b60006101608201905061262c600083018e6121da565b612639602083018d6124f5565b612646604083018c6124f5565b612653606083018b6124f5565b612660608083018a6124f5565b61266d60a08301896124f5565b61267a60c08301886124f5565b61268760e08301876124f5565b6126956101008301866121cb565b6126a36101208301856121cb565b6126b16101408301846124f5565b9c9b505050505050505050505050565b600060208201905081810360008301526126da816121e9565b9050919050565b600060208201905081810360008301526126fa81612229565b9050919050565b6000602082019050818103600083015261271a81612269565b9050919050565b6000602082019050818103600083015261273a816122cf565b9050919050565b6000602082019050818103600083015261275a8161230f565b9050919050565b6000602082019050818103600083015261277a8161234f565b9050919050565b6000602082019050818103600083015261279a8161238f565b9050919050565b600060208201905081810360008301526127ba816123cf565b9050919050565b600060208201905081810360008301526127da8161240f565b9050919050565b600060208201905081810360008301526127fa81612475565b9050919050565b6000602082019050818103600083015261281a816124b5565b9050919050565b600060208201905061283660008301846124f5565b92915050565b600060408201905061285160008301856124f5565b61285e60208301846124f5565b9392505050565b600060a08201905061287a60008301886124f5565b61288760208301876124f5565b61289460408301866124f5565b6128a160608301856124f5565b6128ae60808301846124f5565b9695505050505050565b6000610100820190506128ce600083018b6124f5565b6128db602083018a6124f5565b6128e860408301896124f5565b6128f560608301886124f5565b61290260808301876124f5565b61290f60a08301866124f5565b61291c60c08301856124f5565b61292960e08301846121cb565b9998505050505050505050565b600082825260208201905092915050565b600061295282612aac565b915061295d83612aac565b9250827fffffffffffffffffffffffffffffffffffffffffffffffffffffffffffffffff0382111561299257612991612ada565b5b828201905092915050565b60006129a882612aac565b91506129b383612aac565b9250826129c3576129c2612b09565b5b828204905092915050565b60006129d982612aac565b91506129e483612aac565b9250817fffffffffffffffffffffffffffffffffffffffffffffffffffffffffffffffff0483118215151615612a1d57612a1c612ada565b5b828202905092915050565b6000612a3382612aac565b9150612a3e83612aac565b925082821015612a5157612a50612ada565b5b828203905092915050565b6000612a6782612a8c565b9050919050565b60008115159050919050565b6000612a8582612a5c565b9050919050565b600073ffffffffffffffffffffffffffffffffffffffff82169050919050565b6000819050919050565b6000612ac182612ac8565b9050919050565b6000612ad382612a8c565b9050919050565b7f4e487b7100000000000000000000000000000000000000000000000000000000600052601160045260246000fd5b7f4e487b7100000000000000000000000000000000000000000000000000000000600052601260045260246000fd5b612b4181612a5c565b8114612b4c57600080fd5b50565b612b5881612a6e565b8114612b6357600080fd5b50565b612b6f81612a7a565b8114612b7a57600080fd5b50565b612b8681612aac565b8114612b9157600080fd5b5056fea2646970667358221220c847988e8914d3ebbdb0674fadb0fb3be52642943d3c8dbcb2f7b62938dbf52464736f6c63430008000033",
  "linkReferences": {},
  "deployedLinkReferences": {}
}