{
  "_format": "hh-sol-artifact-1",
  "contractName": "Vault",
  "sourceName": "contracts/Vault.sol",
  "abi": [
    {
      "inputs": [
        {
          "internalType": "contract IERC20",
          "name": "_babydoge",
          "type": "address"
        }
      ],
      "stateMutability": "nonpayable",
      "type": "constructor"
    },
    {
      "anonymous": false,
      "inputs": [
        {
          "indexed": true,
          "internalType": "address",
          "name": "user",
          "type": "address"
        },
        {
          "indexed": true,
          "internalType": "uint256",
          "name": "pid",
          "type": "uint256"
        },
        {
          "indexed": false,
          "internalType": "uint256",
          "name": "amount",
          "type": "uint256"
        }
      ],
      "name": "ClaimRewards",
      "type": "event"
    },
    {
      "anonymous": false,
      "inputs": [
        {
          "indexed": false,
          "internalType": "uint256",
          "name": "key",
          "type": "uint256"
        },
        {
          "indexed": false,
          "internalType": "contract IERC20",
          "name": "_tokenStake",
          "type": "address"
        },
        {
          "indexed": false,
          "internalType": "contract IERC20",
          "name": "_tokenReward",
          "type": "address"
        },
        {
          "indexed": false,
          "internalType": "bool",
          "name": "_isLp",
          "type": "bool"
        },
        {
          "indexed": false,
          "internalType": "uint256",
          "name": "_vaultDays",
          "type": "uint256"
        },
        {
          "indexed": false,
          "internalType": "uint256",
          "name": "_minLockDays",
          "type": "uint256"
        },
        {
          "indexed": false,
          "internalType": "uint256",
          "name": "_amount",
          "type": "uint256"
        }
      ],
      "name": "CreateVault",
      "type": "event"
    },
    {
      "anonymous": false,
      "inputs": [
        {
          "indexed": true,
          "internalType": "address",
          "name": "user",
          "type": "address"
        },
        {
          "indexed": true,
          "internalType": "uint256",
          "name": "pid",
          "type": "uint256"
        },
        {
          "indexed": false,
          "internalType": "uint256",
          "name": "amount",
          "type": "uint256"
        }
      ],
      "name": "Deposit",
      "type": "event"
    },
    {
      "anonymous": false,
      "inputs": [
        {
          "indexed": true,
          "internalType": "address",
          "name": "previousOwner",
          "type": "address"
        },
        {
          "indexed": true,
          "internalType": "address",
          "name": "newOwner",
          "type": "address"
        }
      ],
      "name": "OwnershipTransferred",
      "type": "event"
    },
    {
      "anonymous": false,
      "inputs": [
        {
          "indexed": false,
          "internalType": "uint256",
          "name": "_taxForNonBabyDogeCoin",
          "type": "uint256"
        }
      ],
      "name": "SetTaxForNonBabyDogeCoin",
      "type": "event"
    },
    {
      "anonymous": false,
      "inputs": [
        {
          "indexed": true,
          "internalType": "address",
          "name": "user",
          "type": "address"
        },
        {
          "indexed": true,
          "internalType": "uint256",
          "name": "pid",
          "type": "uint256"
        },
        {
          "indexed": false,
          "internalType": "uint256",
          "name": "amount",
          "type": "uint256"
        }
      ],
      "name": "Withdraw",
      "type": "event"
    },
    {
      "inputs": [],
      "name": "babydoge",
      "outputs": [
        {
          "internalType": "contract IERC20",
          "name": "",
          "type": "address"
        }
      ],
      "stateMutability": "view",
      "type": "function"
    },
    {
      "inputs": [
        {
          "internalType": "uint256",
          "name": "_vid",
          "type": "uint256"
        },
        {
          "internalType": "address",
          "name": "_user",
          "type": "address"
        }
      ],
      "name": "calcRewardsUser",
      "outputs": [
        {
          "internalType": "uint256",
          "name": "",
          "type": "uint256"
        }
      ],
      "stateMutability": "view",
      "type": "function"
    },
    {
      "inputs": [
        {
          "internalType": "uint256",
          "name": "_vid",
          "type": "uint256"
        }
      ],
      "name": "claimRewards",
      "outputs": [],
      "stateMutability": "nonpayable",
      "type": "function"
    },
    {
      "inputs": [
        {
          "internalType": "uint256",
          "name": "key",
          "type": "uint256"
        },
        {
          "internalType": "contract IERC20",
          "name": "_tokenStake",
          "type": "address"
        },
        {
          "internalType": "contract IERC20",
          "name": "_tokenReward",
          "type": "address"
        },
        {
          "internalType": "bool",
          "name": "_isLp",
          "type": "bool"
        },
        {
          "internalType": "uint256",
          "name": "_vaultDays",
          "type": "uint256"
        },
        {
          "internalType": "uint256",
          "name": "_minLockDays",
          "type": "uint256"
        },
        {
          "internalType": "uint256",
          "name": "_amount",
          "type": "uint256"
        }
      ],
      "name": "createVault",
      "outputs": [
        {
          "internalType": "uint256",
          "name": "",
          "type": "uint256"
        }
      ],
      "stateMutability": "nonpayable",
      "type": "function"
    },
    {
      "inputs": [
        {
          "internalType": "uint256",
          "name": "_vid",
          "type": "uint256"
        },
        {
          "internalType": "uint256",
          "name": "_lockDays",
          "type": "uint256"
        },
        {
          "internalType": "uint256",
          "name": "value",
          "type": "uint256"
        }
      ],
      "name": "deposit",
      "outputs": [
        {
          "internalType": "bool",
          "name": "",
          "type": "bool"
        }
      ],
      "stateMutability": "nonpayable",
      "type": "function"
    },
    {
      "inputs": [
        {
          "internalType": "uint256",
          "name": "_vid",
          "type": "uint256"
        },
        {
          "internalType": "address",
          "name": "_user",
          "type": "address"
        }
      ],
      "name": "getUserInfo",
      "outputs": [
        {
          "internalType": "uint256",
          "name": "",
          "type": "uint256"
        },
        {
          "internalType": "uint256",
          "name": "",
          "type": "uint256"
        },
        {
          "internalType": "uint256",
          "name": "",
          "type": "uint256"
        },
        {
          "internalType": "uint256",
          "name": "",
          "type": "uint256"
        },
        {
          "internalType": "uint256",
          "name": "",
          "type": "uint256"
        }
      ],
      "stateMutability": "view",
      "type": "function"
    },
    {
      "inputs": [
        {
          "internalType": "uint256",
          "name": "key",
          "type": "uint256"
        }
      ],
      "name": "getVaultId",
      "outputs": [
        {
          "internalType": "uint256",
          "name": "",
          "type": "uint256"
        }
      ],
      "stateMutability": "view",
      "type": "function"
    },
    {
      "inputs": [
        {
          "internalType": "uint256",
          "name": "_vid",
          "type": "uint256"
        }
      ],
      "name": "getVaultInfo",
      "outputs": [
        {
          "internalType": "uint256",
          "name": "",
          "type": "uint256"
        },
        {
          "internalType": "uint256",
          "name": "",
          "type": "uint256"
        },
        {
          "internalType": "uint256",
          "name": "",
          "type": "uint256"
        },
        {
          "internalType": "uint256",
          "name": "",
          "type": "uint256"
        },
        {
          "internalType": "uint256",
          "name": "",
          "type": "uint256"
        },
        {
          "internalType": "uint256",
          "name": "",
          "type": "uint256"
        }
      ],
      "stateMutability": "view",
      "type": "function"
    },
    {
      "inputs": [
        {
          "internalType": "uint256",
          "name": "_vid",
          "type": "uint256"
        }
      ],
      "name": "getVaultToken",
      "outputs": [
        {
          "internalType": "contract IERC20",
          "name": "",
          "type": "address"
        },
        {
          "internalType": "contract IERC20",
          "name": "",
          "type": "address"
        }
      ],
      "stateMutability": "view",
      "type": "function"
    },
    {
      "inputs": [],
      "name": "owner",
      "outputs": [
        {
          "internalType": "address",
          "name": "",
          "type": "address"
        }
      ],
      "stateMutability": "view",
      "type": "function"
    },
    {
      "inputs": [],
      "name": "renounceOwnership",
      "outputs": [],
      "stateMutability": "nonpayable",
      "type": "function"
    },
    {
      "inputs": [
        {
          "internalType": "uint256",
          "name": "_taxForNonBabyDogeCoin",
          "type": "uint256"
        }
      ],
      "name": "setTaxForNonBabyDogeCoin",
      "outputs": [],
      "stateMutability": "nonpayable",
      "type": "function"
    },
    {
      "inputs": [],
      "name": "taxForNonBabyDogeCoin",
      "outputs": [
        {
          "internalType": "uint256",
          "name": "",
          "type": "uint256"
        }
      ],
      "stateMutability": "view",
      "type": "function"
    },
    {
      "inputs": [
        {
          "internalType": "uint256",
          "name": "",
          "type": "uint256"
        },
        {
          "internalType": "uint256",
          "name": "",
          "type": "uint256"
        }
      ],
      "name": "totalDay",
      "outputs": [
        {
          "internalType": "uint256",
          "name": "amount",
          "type": "uint256"
        },
        {
          "internalType": "uint256",
          "name": "weight",
          "type": "uint256"
        }
      ],
      "stateMutability": "view",
      "type": "function"
    },
    {
      "inputs": [
        {
          "internalType": "address",
          "name": "newOwner",
          "type": "address"
        }
      ],
      "name": "transferOwnership",
      "outputs": [],
      "stateMutability": "nonpayable",
      "type": "function"
    },
    {
      "inputs": [
        {
          "internalType": "uint256",
          "name": "",
          "type": "uint256"
        },
        {
          "internalType": "address",
          "name": "",
          "type": "address"
        }
      ],
      "name": "userInfo",
      "outputs": [
        {
          "internalType": "uint256",
          "name": "amount",
          "type": "uint256"
        },
        {
          "internalType": "uint256",
          "name": "weight",
          "type": "uint256"
        },
        {
          "internalType": "uint256",
          "name": "rewardTotal",
          "type": "uint256"
        },
        {
          "internalType": "uint256",
          "name": "rewardWithdraw",
          "type": "uint256"
        },
        {
          "internalType": "uint256",
          "name": "lockTime",
          "type": "uint256"
        },
        {
          "internalType": "uint256",
          "name": "lockDays",
          "type": "uint256"
        },
        {
          "internalType": "uint256",
          "name": "lastRewardDay",
          "type": "uint256"
        },
        {
          "internalType": "bool",
          "name": "exists",
          "type": "bool"
        }
      ],
      "stateMutability": "view",
      "type": "function"
    },
    {
      "inputs": [
        {
          "internalType": "uint256",
          "name": "",
          "type": "uint256"
        }
      ],
      "name": "vaultInfo",
      "outputs": [
        {
          "internalType": "uint256",
          "name": "amountReward",
          "type": "uint256"
        },
        {
          "internalType": "uint256",
          "name": "vaultTokenTax",
          "type": "uint256"
        },
        {
          "internalType": "uint256",
          "name": "startVault",
          "type": "uint256"
        },
        {
          "internalType": "uint256",
          "name": "vaultDays",
          "type": "uint256"
        },
        {
          "internalType": "uint256",
          "name": "minLockDays",
          "type": "uint256"
        },
        {
          "internalType": "uint256",
          "name": "userCount",
          "type": "uint256"
        },
        {
          "internalType": "uint256",
          "name": "usersAmount",
          "type": "uint256"
        },
        {
          "internalType": "uint256",
          "name": "usersWeight",
          "type": "uint256"
        },
        {
          "internalType": "bool",
          "name": "isLpVault",
          "type": "bool"
        },
        {
          "internalType": "bool",
          "name": "paused",
          "type": "bool"
        },
        {
          "internalType": "uint256",
          "name": "lastTotalDay",
          "type": "uint256"
        }
      ],
      "stateMutability": "view",
      "type": "function"
    },
    {
      "inputs": [
        {
          "internalType": "uint256",
          "name": "",
          "type": "uint256"
        }
      ],
      "name": "vaultKeys",
      "outputs": [
        {
          "internalType": "uint256",
          "name": "",
          "type": "uint256"
        }
      ],
      "stateMutability": "view",
      "type": "function"
    },
    {
      "inputs": [
        {
          "internalType": "uint256",
          "name": "",
          "type": "uint256"
        }
      ],
      "name": "vaultToken",
      "outputs": [
        {
          "internalType": "contract IERC20",
          "name": "tokenStake",
          "type": "address"
        },
        {
          "internalType": "contract IERC20",
          "name": "tokenReward",
          "type": "address"
        },
        {
          "internalType": "address",
          "name": "vaultCreator",
          "type": "address"
        }
      ],
      "stateMutability": "view",
      "type": "function"
    },
    {
      "inputs": [
        {
          "internalType": "uint256",
          "name": "_vid",
          "type": "uint256"
        },
        {
          "internalType": "uint256",
          "name": "amount",
          "type": "uint256"
        }
      ],
      "name": "withdraw",
      "outputs": [],
      "stateMutability": "nonpayable",
      "type": "function"
    },
    {
      "inputs": [
        {
          "internalType": "uint256",
          "name": "_vid",
          "type": "uint256"
        }
      ],
      "name": "withdrawTax",
      "outputs": [],
      "stateMutability": "nonpayable",
      "type": "function"
    }
  ],
  "bytecode": "0x60806040523480156200001157600080fd5b50604051620041e0380380620041e08339818101604052810190620000379190620001e9565b620000576200004b6200009f60201b60201c565b620000a760201b60201c565b80600260006101000a81548173ffffffffffffffffffffffffffffffffffffffff021916908373ffffffffffffffffffffffffffffffffffffffff160217905550506200021b565b600033905090565b60008060009054906101000a900473ffffffffffffffffffffffffffffffffffffffff169050816000806101000a81548173ffffffffffffffffffffffffffffffffffffffff021916908373ffffffffffffffffffffffffffffffffffffffff1602179055508173ffffffffffffffffffffffffffffffffffffffff168173ffffffffffffffffffffffffffffffffffffffff167f8be0079c531659141344cd1fd0a4f28419497f9722a3daafe3b4186f6b6457e060405160405180910390a35050565b600080fd5b600073ffffffffffffffffffffffffffffffffffffffff82169050919050565b60006200019d8262000170565b9050919050565b6000620001b18262000190565b9050919050565b620001c381620001a4565b8114620001cf57600080fd5b50565b600081519050620001e381620001b8565b92915050565b6000602082840312156200020257620002016200016b565b5b60006200021284828501620001d2565b91505092915050565b613fb5806200022b6000396000f3fe608060405234801561001057600080fd5b50600436106101365760003560e01c80638f7ed4b3116100b8578063b540d2601161007c578063b540d260146103a1578063bced6181146103d1578063e85c744214610403578063f095cf7314610433578063f22fcf361461044f578063f2fde38b1461046d57610136565b80638f7ed4b3146102ad578063929060d8146102cb57806393f1a40b1461030557806394b2d7ab1461033c578063b1ba96201461036c57610136565b8063249ae3e2116100ff578063249ae3e21461021d578063441a3e7014610239578063491a6ca614610255578063715018a6146102855780638da5cb5b1461028f57610136565b8062aeef8a1461013b578063025252221461016b57806308ee8d6a1461019c5780630962ef79146101cd5780631069f3b5146101e9575b600080fd5b61015560048036038101906101509190612d24565b610489565b6040516101629190612d92565b60405180910390f35b61018560048036038101906101809190612dad565b610ab3565b604051610193929190612dfc565b60405180910390f35b6101b660048036038101906101b19190612e25565b610ae4565b6040516101c4929190612ed1565b60405180910390f35b6101e760048036038101906101e29190612e25565b610c2e565b005b61020360048036038101906101fe9190612f38565b611073565b604051610214959493929190612f78565b60405180910390f35b61023760048036038101906102329190612e25565b611169565b005b610253600480360381019061024e9190612dad565b61146f565b005b61026f600480360381019061026a9190612e25565b611973565b60405161027c9190612fcb565b60405180910390f35b61028d611990565b005b610297611a18565b6040516102a49190612ff5565b60405180910390f35b6102b5611a41565b6040516102c29190612fcb565b60405180910390f35b6102e560048036038101906102e09190612e25565b611a47565b6040516102fc9b9a99989796959493929190613010565b60405180910390f35b61031f600480360381019061031a9190612f38565b611acb565b6040516103339897969594939291906130bb565b60405180910390f35b61035660048036038101906103519190612e25565b611b2d565b6040516103639190612fcb565b60405180910390f35b61038660048036038101906103819190612e25565b611b45565b60405161039896959493929190613139565b60405180910390f35b6103bb60048036038101906103b69190613204565b611c48565b6040516103c89190612fcb565b60405180910390f35b6103eb60048036038101906103e69190612e25565b612285565b6040516103fa939291906132a6565b60405180910390f35b61041d60048036038101906104189190612f38565b61231f565b60405161042a9190612fcb565b60405180910390f35b61044d60048036038101906104489190612e25565b6125f7565b005b6104576126f8565b60405161046491906132dd565b60405180910390f35b610487600480360381019061048291906132f8565b61271e565b005b60008082116104cd576040517f08c379a00000000000000000000000000000000000000000000000000000000081526004016104c4906133a8565b60405180910390fd5b6000600785815481106104e3576104e26133c8565b5b90600052602060002090600a02019050600060068681548110610509576105086133c8565b5b90600052602060002090600302016040518060600160405290816000820160009054906101000a900473ffffffffffffffffffffffffffffffffffffffff1673ffffffffffffffffffffffffffffffffffffffff1673ffffffffffffffffffffffffffffffffffffffff1681526020016001820160009054906101000a900473ffffffffffffffffffffffffffffffffffffffff1673ffffffffffffffffffffffffffffffffffffffff1673ffffffffffffffffffffffffffffffffffffffff1681526020016002820160009054906101000a900473ffffffffffffffffffffffffffffffffffffffff1673ffffffffffffffffffffffffffffffffffffffff1673ffffffffffffffffffffffffffffffffffffffff16815250509050600061063187612816565b90508260080160019054906101000a900460ff1615610685576040517f08c379a000000000000000000000000000000000000000000000000000000000815260040161067c90613443565b60405180910390fd5b82600201544210156106cc576040517f08c379a00000000000000000000000000000000000000000000000000000000081526004016106c3906134af565b60405180910390fd5b8042111561070f576040517f08c379a00000000000000000000000000000000000000000000000000000000081526004016107069061351b565b60405180910390fd5b8260040154861015610756576040517f08c379a000000000000000000000000000000000000000000000000000000000815260040161074d906135ad565b60405180910390fd5b826003015486111561079d576040517f08c379a00000000000000000000000000000000000000000000000000000000081526004016107949061363f565b60405180910390fd5b816000015173ffffffffffffffffffffffffffffffffffffffff166323b872dd3330886040518463ffffffff1660e01b81526004016107de9392919061365f565b602060405180830381600087803b1580156107f857600080fd5b505af115801561080c573d6000803e3d6000fd5b505050506040513d601f19601f8201168201806040525081019061083091906136ab565b61083957600080fd5b600061084361291f565b90506000600360008a815260200190815260200160002060003373ffffffffffffffffffffffffffffffffffffffff1673ffffffffffffffffffffffffffffffffffffffff168152602001908152602001600020905060008160070160009054906101000a900460ff166109a85760018260070160006101000a81548160ff0219169083151502179055506000610906603c8060188d6108e39190613707565b6108ed9190613707565b6108f79190613707565b4261293c90919063ffffffff16565b90508481116109155780610917565b845b905080836004018190555089836005018190555083836006018190555060018760050160008282546109499190613761565b92505081905550610997633b9aca00610989896003015461097b633b9aca00886005015461295290919063ffffffff16565b61296890919063ffffffff16565b61293c90919063ffffffff16565b9150818360010181905550506109ad565b600090505b878260000160008282546109c19190613761565b925050819055506109d18a61297e565b828660090181905550878660060160008282546109ee9190613761565b9250508190555080866007016000828254610a099190613761565b925050819055506000600560008c81526020019081526020016000206000858152602001908152602001600020905086600601548160000181905550866007015481600101819055508a3373ffffffffffffffffffffffffffffffffffffffff167f90890809c654f11d6e72a28fa60149770a0d11ec6c92319d6ceb2bb0a4ea1a158b604051610a999190612fcb565b60405180910390a360019750505050505050509392505050565b6005602052816000526040600020602052806000526040600020600091509150508060000154908060010154905082565b600080600060068481548110610afd57610afc6133c8565b5b90600052602060002090600302016040518060600160405290816000820160009054906101000a900473ffffffffffffffffffffffffffffffffffffffff1673ffffffffffffffffffffffffffffffffffffffff1673ffffffffffffffffffffffffffffffffffffffff1681526020016001820160009054906101000a900473ffffffffffffffffffffffffffffffffffffffff1673ffffffffffffffffffffffffffffffffffffffff1673ffffffffffffffffffffffffffffffffffffffff1681526020016002820160009054906101000a900473ffffffffffffffffffffffffffffffffffffffff1673ffffffffffffffffffffffffffffffffffffffff1673ffffffffffffffffffffffffffffffffffffffff16815250509050806000015181602001519250925050915091565b600060068281548110610c4457610c436133c8565b5b90600052602060002090600302016040518060600160405290816000820160009054906101000a900473ffffffffffffffffffffffffffffffffffffffff1673ffffffffffffffffffffffffffffffffffffffff1673ffffffffffffffffffffffffffffffffffffffff1681526020016001820160009054906101000a900473ffffffffffffffffffffffffffffffffffffffff1673ffffffffffffffffffffffffffffffffffffffff1673ffffffffffffffffffffffffffffffffffffffff1681526020016002820160009054906101000a900473ffffffffffffffffffffffffffffffffffffffff1673ffffffffffffffffffffffffffffffffffffffff1673ffffffffffffffffffffffffffffffffffffffff16815250509050600060078381548110610d7757610d766133c8565b5b90600052602060002090600a02016040518061016001604052908160008201548152602001600182015481526020016002820154815260200160038201548152602001600482015481526020016005820154815260200160068201548152602001600782015481526020016008820160009054906101000a900460ff161515151581526020016008820160019054906101000a900460ff16151515158152602001600982015481525050905080610120015115610e69576040517f08c379a0000000000000000000000000000000000000000000000000000000008152600401610e6090613443565b60405180910390fd5b60006003600085815260200190815260200160002060003373ffffffffffffffffffffffffffffffffffffffff1673ffffffffffffffffffffffffffffffffffffffff1681526020019081526020016000209050610ec68461297e565b6000610ed061291f565b90506000610ede863361231f565b905081836006018190555080836002016000828254610efd9190613761565b925050819055506000610f2184600301548560020154612b3890919063ffffffff16565b905060008111610f66576040517f08c379a0000000000000000000000000000000000000000000000000000000008152600401610f5d90613803565b60405180910390fd5b856020015173ffffffffffffffffffffffffffffffffffffffff1663a9059cbb33836040518363ffffffff1660e01b8152600401610fa5929190613823565b602060405180830381600087803b158015610fbf57600080fd5b505af1158015610fd3573d6000803e3d6000fd5b505050506040513d601f19601f82011682018060405250810190610ff791906136ab565b61100057600080fd5b808460030160008282546110149190613761565b92505081905550863373ffffffffffffffffffffffffffffffffffffffff167f674a8930d4166ce2352c3dc1e9ff633595db479f71f3741270a0a73a52cb7b0f836040516110629190612fcb565b60405180910390a350505050505050565b6000806000806000806003600089815260200190815260200160002060008873ffffffffffffffffffffffffffffffffffffffff1673ffffffffffffffffffffffffffffffffffffffff16815260200190815260200160002060405180610100016040529081600082015481526020016001820154815260200160028201548152602001600382015481526020016004820154815260200160058201548152602001600682015481526020016007820160009054906101000a900460ff16151515158152505090508060000151816020015182604001518360600151846080015195509550955095509550509295509295909350565b611171612b4e565b73ffffffffffffffffffffffffffffffffffffffff1661118f611a18565b73ffffffffffffffffffffffffffffffffffffffff16146111e5576040517f08c379a00000000000000000000000000000000000000000000000000000000081526004016111dc90613898565b60405180910390fd5b6000600782815481106111fb576111fa6133c8565b5b90600052602060002090600a02019050600060068381548110611221576112206133c8565b5b90600052602060002090600302016040518060600160405290816000820160009054906101000a900473ffffffffffffffffffffffffffffffffffffffff1673ffffffffffffffffffffffffffffffffffffffff1673ffffffffffffffffffffffffffffffffffffffff1681526020016001820160009054906101000a900473ffffffffffffffffffffffffffffffffffffffff1673ffffffffffffffffffffffffffffffffffffffff1673ffffffffffffffffffffffffffffffffffffffff1681526020016002820160009054906101000a900473ffffffffffffffffffffffffffffffffffffffff1673ffffffffffffffffffffffffffffffffffffffff1673ffffffffffffffffffffffffffffffffffffffff168152505090506000826001015411611385576040517f08c379a000000000000000000000000000000000000000000000000000000000815260040161137c90613904565b60405180910390fd5b806020015173ffffffffffffffffffffffffffffffffffffffff1663a9059cbb6113ad611a18565b84600101546040518363ffffffff1660e01b81526004016113cf929190613823565b602060405180830381600087803b1580156113e957600080fd5b505af11580156113fd573d6000803e3d6000fd5b505050506040513d601f19601f8201168201806040525081019061142191906136ab565b611460576040517f08c379a000000000000000000000000000000000000000000000000000000000815260040161145790613970565b60405180910390fd5b60008260010181905550505050565b600081116114b2576040517f08c379a00000000000000000000000000000000000000000000000000000000081526004016114a9906139dc565b60405180910390fd5b6000600783815481106114c8576114c76133c8565b5b90600052602060002090600a020190506000600684815481106114ee576114ed6133c8565b5b90600052602060002090600302016040518060600160405290816000820160009054906101000a900473ffffffffffffffffffffffffffffffffffffffff1673ffffffffffffffffffffffffffffffffffffffff1673ffffffffffffffffffffffffffffffffffffffff1681526020016001820160009054906101000a900473ffffffffffffffffffffffffffffffffffffffff1673ffffffffffffffffffffffffffffffffffffffff1673ffffffffffffffffffffffffffffffffffffffff1681526020016002820160009054906101000a900473ffffffffffffffffffffffffffffffffffffffff1673ffffffffffffffffffffffffffffffffffffffff1673ffffffffffffffffffffffffffffffffffffffff168152505090508160080160019054906101000a900460ff161561165d576040517f08c379a000000000000000000000000000000000000000000000000000000000815260040161165490613443565b60405180910390fd5b60006003600086815260200190815260200160002060003373ffffffffffffffffffffffffffffffffffffffff1673ffffffffffffffffffffffffffffffffffffffff168152602001908152602001600020905042816004015411156116f8576040517f08c379a00000000000000000000000000000000000000000000000000000000081526004016116ef90613a48565b60405180910390fd5b838160000154101561173f576040517f08c379a000000000000000000000000000000000000000000000000000000000815260040161173690613ada565b60405180910390fd5b6117488561297e565b600061175261291f565b90506000611760873361231f565b90508183600601819055508083600201600082825461177f9190613761565b92505081905550836000015173ffffffffffffffffffffffffffffffffffffffff1663a9059cbb33886040518363ffffffff1660e01b81526004016117c5929190613823565b602060405180830381600087803b1580156117df57600080fd5b505af11580156117f3573d6000803e3d6000fd5b505050506040513d601f19601f8201168201806040525081019061181791906136ab565b61182057600080fd5b858360000160008282546118349190613afa565b9250508190555082600001548560060160008282546118539190613afa565b92505081905550826006015485600901819055506000836000015414156118d45760008360070160006101000a81548160ff021916908315150217905550600185600501546118a29190613afa565b856005018190555082600101548560070160008282546118c29190613afa565b92505081905550600083600101819055505b600060056000898152602001908152602001600020600084815260200190815260200160002090508560060154816000018190555085600701548160010181905550873373ffffffffffffffffffffffffffffffffffffffff167ff279e6a1f5e320cca91135676d9cb6e44ca8a08c0b88342bcdb1144f6511b56886600001546040516119619190612fcb565b60405180910390a35050505050505050565b600060046000838152602001908152602001600020549050919050565b611998612b4e565b73ffffffffffffffffffffffffffffffffffffffff166119b6611a18565b73ffffffffffffffffffffffffffffffffffffffff1614611a0c576040517f08c379a0000000000000000000000000000000000000000000000000000000008152600401611a0390613898565b60405180910390fd5b611a166000612b56565b565b60008060009054906101000a900473ffffffffffffffffffffffffffffffffffffffff16905090565b60015481565b60078181548110611a5757600080fd5b90600052602060002090600a02016000915090508060000154908060010154908060020154908060030154908060040154908060050154908060060154908060070154908060080160009054906101000a900460ff16908060080160019054906101000a900460ff1690806009015490508b565b6003602052816000526040600020602052806000526040600020600091509150508060000154908060010154908060020154908060030154908060040154908060050154908060060154908060070160009054906101000a900460ff16905088565b60046020528060005260406000206000915090505481565b600080600080600080600060078881548110611b6457611b636133c8565b5b90600052602060002090600a02016040518061016001604052908160008201548152602001600182015481526020016002820154815260200160038201548152602001600482015481526020016005820154815260200160068201548152602001600782015481526020016008820160009054906101000a900460ff161515151581526020016008820160019054906101000a900460ff16151515158152602001600982015481525050905080600001518160200151826060015183608001518460400151611c328d612816565b9650965096509650965096505091939550919395565b600080600460008a81526020019081526020016000205414611c9f576040517f08c379a0000000000000000000000000000000000000000000000000000000008152600401611c9690613b7a565b60405180910390fd5b818773ffffffffffffffffffffffffffffffffffffffff166370a08231336040518263ffffffff1660e01b8152600401611cd99190612ff5565b60206040518083038186803b158015611cf157600080fd5b505afa158015611d05573d6000803e3d6000fd5b505050506040513d601f19601f82011682018060405250810190611d299190613baf565b1015611d6a576040517f08c379a0000000000000000000000000000000000000000000000000000000008152600401611d6190613c28565b60405180910390fd5b60008411611dad576040517f08c379a0000000000000000000000000000000000000000000000000000000008152600401611da490613c94565b60405180910390fd5b83831115611df0576040517f08c379a0000000000000000000000000000000000000000000000000000000008152600401611de790613d26565b60405180910390fd5b6000611dfb87612c1a565b611e055760015490505b60006064826064611e169190613afa565b85611e219190613707565b611e2b9190613d75565b9050600060648386611e3d9190613707565b611e479190613d75565b9050600660405180606001604052808c73ffffffffffffffffffffffffffffffffffffffff1681526020018b73ffffffffffffffffffffffffffffffffffffffff1681526020013373ffffffffffffffffffffffffffffffffffffffff16815250908060018154018082558091505060019003906000526020600020906003020160009091909190915060008201518160000160006101000a81548173ffffffffffffffffffffffffffffffffffffffff021916908373ffffffffffffffffffffffffffffffffffffffff16021790555060208201518160010160006101000a81548173ffffffffffffffffffffffffffffffffffffffff021916908373ffffffffffffffffffffffffffffffffffffffff16021790555060408201518160020160006101000a81548173ffffffffffffffffffffffffffffffffffffffff021916908373ffffffffffffffffffffffffffffffffffffffff160217905550505060006040518061016001604052808481526020018381526020014281526020018981526020018881526020016000815260200160008152602001600081526020018a151581526020016000151581526020016120236001612015620151804261296890919063ffffffff16565b612b3890919063ffffffff16565b815250905060078190806001815401808255809150506001900390600052602060002090600a0201600090919091909150600082015181600001556020820151816001015560408201518160020155606082015181600301556080820151816004015560a0820151816005015560c0820151816006015560e082015181600701556101008201518160080160006101000a81548160ff0219169083151502179055506101208201518160080160016101000a81548160ff02191690831515021790555061014082015181600901555050600060016007805490506121079190613afa565b905080600460008f815260200190815260200160002081905550600061212b61291f565b905060006005600084815260200190815260200160002060008381526020019081526020016000209050600081600001819055508c73ffffffffffffffffffffffffffffffffffffffff166323b872dd33308c6040518463ffffffff1660e01b815260040161219c9392919061365f565b602060405180830381600087803b1580156121b657600080fd5b505af11580156121ca573d6000803e3d6000fd5b505050506040513d601f19601f820116820180604052508101906121ee91906136ab565b61222d576040517f08c379a000000000000000000000000000000000000000000000000000000000815260040161222490613df2565b60405180910390fd5b7f92a814b147b57ab54b9302b64e7c11e45e6b3582bbf6ad6b2ba702f8670dd29f8f8f8f8f8f8f8f6040516122689796959493929190613e12565b60405180910390a182975050505050505050979650505050505050565b6006818154811061229557600080fd5b90600052602060002090600302016000915090508060000160009054906101000a900473ffffffffffffffffffffffffffffffffffffffff16908060010160009054906101000a900473ffffffffffffffffffffffffffffffffffffffff16908060020160009054906101000a900473ffffffffffffffffffffffffffffffffffffffff16905083565b6000806003600085815260200190815260200160002060008473ffffffffffffffffffffffffffffffffffffffff1673ffffffffffffffffffffffffffffffffffffffff16815260200190815260200160002060405180610100016040529081600082015481526020016001820154815260200160028201548152602001600382015481526020016004820154815260200160058201548152602001600682015481526020016007820160009054906101000a900460ff16151515158152505090506000600785815481106123f7576123f66133c8565b5b90600052602060002090600a02016040518061016001604052908160008201548152602001600182015481526020016002820154815260200160038201548152602001600482015481526020016005820154815260200160068201548152602001600782015481526020016008820160009054906101000a900460ff161515151581526020016008820160019054906101000a900460ff16151515158152602001600982015481525050905060006124ae86612c74565b90506000806124ce8460600151856000015161296890919063ffffffff16565b90506000808660200151905060008760c0015190505b8581116125e6576000600560008d815260200190815260200160002060008381526020019081526020016000206040518060400160405290816000820154815260200160018201548152505090506000816020015111156125d15761255a8160200151826000015161296890919063ffffffff16565b93506125c3633b9aca006125b56125a68460000151612598633b9aca0061258a8a8c61295290919063ffffffff16565b61295290919063ffffffff16565b61296890919063ffffffff16565b8861295290919063ffffffff16565b61296890919063ffffffff16565b866125ce9190613761565b95505b506001816125df9190613761565b90506124e4565b508397505050505050505092915050565b6125ff612b4e565b73ffffffffffffffffffffffffffffffffffffffff1661261d611a18565b73ffffffffffffffffffffffffffffffffffffffff1614612673576040517f08c379a000000000000000000000000000000000000000000000000000000000815260040161266a90613898565b60405180910390fd5b60648111156126b7576040517f08c379a00000000000000000000000000000000000000000000000000000000081526004016126ae90613ecd565b60405180910390fd5b806001819055507f3c83f8e458fd063a4856ec1d765402ad8a2382c0073dd63d3dd353eba911d050816040516126ed9190612fcb565b60405180910390a150565b600260009054906101000a900473ffffffffffffffffffffffffffffffffffffffff1681565b612726612b4e565b73ffffffffffffffffffffffffffffffffffffffff16612744611a18565b73ffffffffffffffffffffffffffffffffffffffff161461279a576040517f08c379a000000000000000000000000000000000000000000000000000000000815260040161279190613898565b60405180910390fd5b600073ffffffffffffffffffffffffffffffffffffffff168173ffffffffffffffffffffffffffffffffffffffff16141561280a576040517f08c379a000000000000000000000000000000000000000000000000000000000815260040161280190613f5f565b60405180910390fd5b61281381612b56565b50565b6000806007838154811061282d5761282c6133c8565b5b90600052602060002090600a02016040518061016001604052908160008201548152602001600182015481526020016002820154815260200160038201548152602001600482015481526020016005820154815260200160068201548152602001600782015481526020016008820160009054906101000a900460ff161515151581526020016008820160019054906101000a900460ff161515151581526020016009820154815250509050612917603c80601884606001516128f09190613707565b6128fa9190613707565b6129049190613707565b826040015161293c90919063ffffffff16565b915050919050565b6000612937620151804261296890919063ffffffff16565b905090565b6000818361294a9190613761565b905092915050565b600081836129609190613707565b905092915050565b600081836129769190613d75565b905092915050565b600060078281548110612994576129936133c8565b5b90600052602060002090600a02016040518061016001604052908160008201548152602001600182015481526020016002820154815260200160038201548152602001600482015481526020016005820154815260200160068201548152602001600782015481526020016008820160009054906101000a900460ff161515151581526020016008820160019054906101000a900460ff1615151515815260200160098201548152505090506000612a4b83612c74565b90506000612a5761291f565b90508183610140015110612a6d57505050612b35565b6000600560008681526020019081526020016000206000856101400151815260200190815260200160002060405180604001604052908160008201548152602001600182015481525050905060006001856101400151612acd9190613761565b90505b82811015612b2f5760006005600088815260200190815260200160002060008381526020019081526020016000209050826000015181600001819055508260200151816001018190555050600181612b289190613761565b9050612ad0565b50505050505b50565b60008183612b469190613afa565b905092915050565b600033905090565b60008060009054906101000a900473ffffffffffffffffffffffffffffffffffffffff169050816000806101000a81548173ffffffffffffffffffffffffffffffffffffffff021916908373ffffffffffffffffffffffffffffffffffffffff1602179055508173ffffffffffffffffffffffffffffffffffffffff168173ffffffffffffffffffffffffffffffffffffffff167f8be0079c531659141344cd1fd0a4f28419497f9722a3daafe3b4186f6b6457e060405160405180910390a35050565b6000600260009054906101000a900473ffffffffffffffffffffffffffffffffffffffff1673ffffffffffffffffffffffffffffffffffffffff168273ffffffffffffffffffffffffffffffffffffffff16149050919050565b600080612c8083612816565b9050804211612cb757612cb26001612ca4620151804261296890919063ffffffff16565b612b3890919063ffffffff16565b612ce1565b612ce06001612cd2620151808461296890919063ffffffff16565b612b3890919063ffffffff16565b5b915050919050565b600080fd5b6000819050919050565b612d0181612cee565b8114612d0c57600080fd5b50565b600081359050612d1e81612cf8565b92915050565b600080600060608486031215612d3d57612d3c612ce9565b5b6000612d4b86828701612d0f565b9350506020612d5c86828701612d0f565b9250506040612d6d86828701612d0f565b9150509250925092565b60008115159050919050565b612d8c81612d77565b82525050565b6000602082019050612da76000830184612d83565b92915050565b60008060408385031215612dc457612dc3612ce9565b5b6000612dd285828601612d0f565b9250506020612de385828601612d0f565b9150509250929050565b612df681612cee565b82525050565b6000604082019050612e116000830185612ded565b612e1e6020830184612ded565b9392505050565b600060208284031215612e3b57612e3a612ce9565b5b6000612e4984828501612d0f565b91505092915050565b600073ffffffffffffffffffffffffffffffffffffffff82169050919050565b6000819050919050565b6000612e97612e92612e8d84612e52565b612e72565b612e52565b9050919050565b6000612ea982612e7c565b9050919050565b6000612ebb82612e9e565b9050919050565b612ecb81612eb0565b82525050565b6000604082019050612ee66000830185612ec2565b612ef36020830184612ec2565b9392505050565b6000612f0582612e52565b9050919050565b612f1581612efa565b8114612f2057600080fd5b50565b600081359050612f3281612f0c565b92915050565b60008060408385031215612f4f57612f4e612ce9565b5b6000612f5d85828601612d0f565b9250506020612f6e85828601612f23565b9150509250929050565b600060a082019050612f8d6000830188612ded565b612f9a6020830187612ded565b612fa76040830186612ded565b612fb46060830185612ded565b612fc16080830184612ded565b9695505050505050565b6000602082019050612fe06000830184612ded565b92915050565b612fef81612efa565b82525050565b600060208201905061300a6000830184612fe6565b92915050565b600061016082019050613026600083018e612ded565b613033602083018d612ded565b613040604083018c612ded565b61304d606083018b612ded565b61305a608083018a612ded565b61306760a0830189612ded565b61307460c0830188612ded565b61308160e0830187612ded565b61308f610100830186612d83565b61309d610120830185612d83565b6130ab610140830184612ded565b9c9b505050505050505050505050565b6000610100820190506130d1600083018b612ded565b6130de602083018a612ded565b6130eb6040830189612ded565b6130f86060830188612ded565b6131056080830187612ded565b61311260a0830186612ded565b61311f60c0830185612ded565b61312c60e0830184612d83565b9998505050505050505050565b600060c08201905061314e6000830189612ded565b61315b6020830188612ded565b6131686040830187612ded565b6131756060830186612ded565b6131826080830185612ded565b61318f60a0830184612ded565b979650505050505050565b60006131a582612efa565b9050919050565b6131b58161319a565b81146131c057600080fd5b50565b6000813590506131d2816131ac565b92915050565b6131e181612d77565b81146131ec57600080fd5b50565b6000813590506131fe816131d8565b92915050565b600080600080600080600060e0888a03121561322357613222612ce9565b5b60006132318a828b01612d0f565b97505060206132428a828b016131c3565b96505060406132538a828b016131c3565b95505060606132648a828b016131ef565b94505060806132758a828b01612d0f565b93505060a06132868a828b01612d0f565b92505060c06132978a828b01612d0f565b91505092959891949750929550565b60006060820190506132bb6000830186612ec2565b6132c86020830185612ec2565b6132d56040830184612fe6565b949350505050565b60006020820190506132f26000830184612ec2565b92915050565b60006020828403121561330e5761330d612ce9565b5b600061331c84828501612f23565b91505092915050565b600082825260208201905092915050565b7f4465706f736974206d7573742062652067726561746572207468616e207a657260008201527f6f00000000000000000000000000000000000000000000000000000000000000602082015250565b6000613392602183613325565b915061339d82613336565b604082019050919050565b600060208201905081810360008301526133c181613385565b9050919050565b7f4e487b7100000000000000000000000000000000000000000000000000000000600052603260045260246000fd5b7f5661756c74207061757365640000000000000000000000000000000000000000600082015250565b600061342d600c83613325565b9150613438826133f7565b602082019050919050565b6000602082019050818103600083015261345c81613420565b9050919050565b7f5661756c74206e6f742073746172746564000000000000000000000000000000600082015250565b6000613499601183613325565b91506134a482613463565b602082019050919050565b600060208201905081810360008301526134c88161348c565b9050919050565b7f5661756c742066696e6973686564000000000000000000000000000000000000600082015250565b6000613505600e83613325565b9150613510826134cf565b602082019050919050565b60006020820190508181036000830152613534816134f8565b9050919050565b7f4c6f636b65642064617973206f66207468652075736572206973206c6573732060008201527f7468616e206d696e696d756d206c6f636b206461792773205661756c74000000602082015250565b6000613597603d83613325565b91506135a28261353b565b604082019050919050565b600060208201905081810360008301526135c68161358a565b9050919050565b7f4c6f636b65642064617973206f6620746865207573657220697320677265617460008201527f6572207468616e206c6f636b206461792773205661756c740000000000000000602082015250565b6000613629603883613325565b9150613634826135cd565b604082019050919050565b600060208201905081810360008301526136588161361c565b9050919050565b60006060820190506136746000830186612fe6565b6136816020830185612fe6565b61368e6040830184612ded565b949350505050565b6000815190506136a5816131d8565b92915050565b6000602082840312156136c1576136c0612ce9565b5b60006136cf84828501613696565b91505092915050565b7f4e487b7100000000000000000000000000000000000000000000000000000000600052601160045260246000fd5b600061371282612cee565b915061371d83612cee565b9250817fffffffffffffffffffffffffffffffffffffffffffffffffffffffffffffffff0483118215151615613756576137556136d8565b5b828202905092915050565b600061376c82612cee565b915061377783612cee565b9250827fffffffffffffffffffffffffffffffffffffffffffffffffffffffffffffffff038211156137ac576137ab6136d8565b5b828201905092915050565b7f4e6f2076616c756520746f20636c61696d000000000000000000000000000000600082015250565b60006137ed601183613325565b91506137f8826137b7565b602082019050919050565b6000602082019050818103600083015261381c816137e0565b9050919050565b60006040820190506138386000830185612fe6565b6138456020830184612ded565b9392505050565b7f4f776e61626c653a2063616c6c6572206973206e6f7420746865206f776e6572600082015250565b6000613882602083613325565b915061388d8261384c565b602082019050919050565b600060208201905081810360008301526138b181613875565b9050919050565b7f5661756c7420776974686f757420746f6b656e20746178206c65667400000000600082015250565b60006138ee601c83613325565b91506138f9826138b8565b602082019050919050565b6000602082019050818103600083015261391d816138e1565b9050919050565b7f43616e2774207472616e736665722074617820746f206f776e65720000000000600082015250565b600061395a601b83613325565b915061396582613924565b602082019050919050565b600060208201905081810360008301526139898161394d565b9050919050565b7f576974686472617720616d6f756e74207a65726f000000000000000000000000600082015250565b60006139c6601483613325565b91506139d182613990565b602082019050919050565b600060208201905081810360008301526139f5816139b9565b9050919050565b7f5573657220696e206c6f636b2074696d65000000000000000000000000000000600082015250565b6000613a32601183613325565b9150613a3d826139fc565b602082019050919050565b60006020820190508181036000830152613a6181613a25565b9050919050565b7f576974686472617720616d6f756e742067726561746572207468616e2075736560008201527f7220616d6f756e74000000000000000000000000000000000000000000000000602082015250565b6000613ac4602883613325565b9150613acf82613a68565b604082019050919050565b60006020820190508181036000830152613af381613ab7565b9050919050565b6000613b0582612cee565b9150613b1083612cee565b925082821015613b2357613b226136d8565b5b828203905092915050565b7f5661756c74204b657920416c7265616479207573656400000000000000000000600082015250565b6000613b64601683613325565b9150613b6f82613b2e565b602082019050919050565b60006020820190508181036000830152613b9381613b57565b9050919050565b600081519050613ba981612cf8565b92915050565b600060208284031215613bc557613bc4612ce9565b5b6000613bd384828501613b9a565b91505092915050565b7f5573657220686173206e6f20746f6b656e730000000000000000000000000000600082015250565b6000613c12601283613325565b9150613c1d82613bdc565b602082019050919050565b60006020820190508181036000830152613c4181613c05565b9050919050565b7f5661756c742064617973207a65726f0000000000000000000000000000000000600082015250565b6000613c7e600f83613325565b9150613c8982613c48565b602082019050919050565b60006020820190508181036000830152613cad81613c71565b9050919050565b7f4d696e696d756d206c6f636b20646179732067726561746572207468656e205660008201527f61756c7420646179730000000000000000000000000000000000000000000000602082015250565b6000613d10602983613325565b9150613d1b82613cb4565b604082019050919050565b60006020820190508181036000830152613d3f81613d03565b9050919050565b7f4e487b7100000000000000000000000000000000000000000000000000000000600052601260045260246000fd5b6000613d8082612cee565b9150613d8b83612cee565b925082613d9b57613d9a613d46565b5b828204905092915050565b7f43616e2774207472616e7366657220746f6b656e732e00000000000000000000600082015250565b6000613ddc601683613325565b9150613de782613da6565b602082019050919050565b60006020820190508181036000830152613e0b81613dcf565b9050919050565b600060e082019050613e27600083018a612ded565b613e346020830189612ec2565b613e416040830188612ec2565b613e4e6060830187612d83565b613e5b6080830186612ded565b613e6860a0830185612ded565b613e7560c0830184612ded565b98975050505050505050565b7f5461782067726561746572207468616e20313030000000000000000000000000600082015250565b6000613eb7601483613325565b9150613ec282613e81565b602082019050919050565b60006020820190508181036000830152613ee681613eaa565b9050919050565b7f4f776e61626c653a206e6577206f776e657220697320746865207a65726f206160008201527f6464726573730000000000000000000000000000000000000000000000000000602082015250565b6000613f49602683613325565b9150613f5482613eed565b604082019050919050565b60006020820190508181036000830152613f7881613f3c565b905091905056fea2646970667358221220c5f425d490b678bfe96d1ada284ec1a7c71ccd7f7df1fccfedf7c3eaa6226fcd64736f6c63430008090033",
  "linkReferences": {},
  "deployedLinkReferences": {}
}