{
  "_format": "hh-sol-artifact-1",
  "contractName": "Vault",
  "sourceName": "contracts/Vault.sol",
  "abi": [
    {
      "inputs": [
        {
          "internalType": "uint256",
          "name": "_taxForNonBabyDogeCoin",
          "type": "uint256"
        }
      ],
      "stateMutability": "nonpayable",
      "type": "constructor"
    },
    {
      "anonymous": false,
      "inputs": [
        {
          "indexed": true,
          "internalType": "address",
          "name": "user",
          "type": "address"
        },
        {
          "indexed": true,
          "internalType": "uint256",
          "name": "pid",
          "type": "uint256"
        },
        {
          "indexed": false,
          "internalType": "uint256",
          "name": "amount",
          "type": "uint256"
        }
      ],
      "name": "Deposit",
      "type": "event"
    },
    {
      "anonymous": false,
      "inputs": [
        {
          "indexed": true,
          "internalType": "address",
          "name": "previousOwner",
          "type": "address"
        },
        {
          "indexed": true,
          "internalType": "address",
          "name": "newOwner",
          "type": "address"
        }
      ],
      "name": "OwnershipTransferred",
      "type": "event"
    },
    {
      "anonymous": false,
      "inputs": [
        {
          "indexed": true,
          "internalType": "address",
          "name": "user",
          "type": "address"
        },
        {
          "indexed": true,
          "internalType": "uint256",
          "name": "pid",
          "type": "uint256"
        },
        {
          "indexed": false,
          "internalType": "uint256",
          "name": "amount",
          "type": "uint256"
        }
      ],
      "name": "Withdraw",
      "type": "event"
    },
    {
      "inputs": [
        {
          "internalType": "uint256",
          "name": "_vid",
          "type": "uint256"
        },
        {
          "internalType": "address",
          "name": "_user",
          "type": "address"
        }
      ],
      "name": "calcRewardsUser",
      "outputs": [
        {
          "internalType": "uint256",
          "name": "",
          "type": "uint256"
        }
      ],
      "stateMutability": "view",
      "type": "function"
    },
    {
      "inputs": [
        {
          "internalType": "contract IERC20",
          "name": "_token",
          "type": "address"
        },
        {
          "internalType": "bool",
          "name": "_isLp",
          "type": "bool"
        },
        {
          "internalType": "uint256",
          "name": "_lockDays",
          "type": "uint256"
        },
        {
          "internalType": "uint256",
          "name": "_amount",
          "type": "uint256"
        }
      ],
      "name": "createVault",
      "outputs": [],
      "stateMutability": "nonpayable",
      "type": "function"
    },
    {
      "inputs": [
        {
          "internalType": "uint256",
          "name": "_vid",
          "type": "uint256"
        },
        {
          "internalType": "uint256",
          "name": "_lockDays",
          "type": "uint256"
        },
        {
          "internalType": "uint256",
          "name": "value",
          "type": "uint256"
        }
      ],
      "name": "deposit",
      "outputs": [
        {
          "internalType": "bool",
          "name": "",
          "type": "bool"
        }
      ],
      "stateMutability": "nonpayable",
      "type": "function"
    },
    {
      "inputs": [
        {
          "internalType": "uint256",
          "name": "_vid",
          "type": "uint256"
        },
        {
          "internalType": "address",
          "name": "_user",
          "type": "address"
        }
      ],
      "name": "getUserInfo",
      "outputs": [
        {
          "internalType": "uint256",
          "name": "",
          "type": "uint256"
        },
        {
          "internalType": "uint256",
          "name": "",
          "type": "uint256"
        },
        {
          "internalType": "uint256",
          "name": "",
          "type": "uint256"
        },
        {
          "internalType": "uint256",
          "name": "",
          "type": "uint256"
        },
        {
          "internalType": "uint256",
          "name": "",
          "type": "uint256"
        }
      ],
      "stateMutability": "view",
      "type": "function"
    },
    {
      "inputs": [
        {
          "internalType": "uint256",
          "name": "_vid",
          "type": "uint256"
        }
      ],
      "name": "getVault",
      "outputs": [
        {
          "internalType": "contract IERC20",
          "name": "",
          "type": "address"
        },
        {
          "internalType": "uint256",
          "name": "",
          "type": "uint256"
        },
        {
          "internalType": "uint256",
          "name": "",
          "type": "uint256"
        },
        {
          "internalType": "uint256",
          "name": "",
          "type": "uint256"
        },
        {
          "internalType": "uint256",
          "name": "",
          "type": "uint256"
        },
        {
          "internalType": "uint256",
          "name": "",
          "type": "uint256"
        }
      ],
      "stateMutability": "view",
      "type": "function"
    },
    {
      "inputs": [],
      "name": "owner",
      "outputs": [
        {
          "internalType": "address",
          "name": "",
          "type": "address"
        }
      ],
      "stateMutability": "view",
      "type": "function"
    },
    {
      "inputs": [],
      "name": "renounceOwnership",
      "outputs": [],
      "stateMutability": "nonpayable",
      "type": "function"
    },
    {
      "inputs": [],
      "name": "taxForNonBabyDogeCoin",
      "outputs": [
        {
          "internalType": "uint256",
          "name": "",
          "type": "uint256"
        }
      ],
      "stateMutability": "view",
      "type": "function"
    },
    {
      "inputs": [
        {
          "internalType": "uint256",
          "name": "",
          "type": "uint256"
        },
        {
          "internalType": "uint256",
          "name": "",
          "type": "uint256"
        }
      ],
      "name": "totalDay",
      "outputs": [
        {
          "internalType": "uint256",
          "name": "amount",
          "type": "uint256"
        },
        {
          "internalType": "uint256",
          "name": "weight",
          "type": "uint256"
        }
      ],
      "stateMutability": "view",
      "type": "function"
    },
    {
      "inputs": [
        {
          "internalType": "address",
          "name": "newOwner",
          "type": "address"
        }
      ],
      "name": "transferOwnership",
      "outputs": [],
      "stateMutability": "nonpayable",
      "type": "function"
    },
    {
      "inputs": [
        {
          "internalType": "uint256",
          "name": "",
          "type": "uint256"
        },
        {
          "internalType": "address",
          "name": "",
          "type": "address"
        }
      ],
      "name": "userInfo",
      "outputs": [
        {
          "internalType": "uint256",
          "name": "amount",
          "type": "uint256"
        },
        {
          "internalType": "uint256",
          "name": "weight",
          "type": "uint256"
        },
        {
          "internalType": "uint256",
          "name": "rewardDebt",
          "type": "uint256"
        },
        {
          "internalType": "uint256",
          "name": "rewardWithdraw",
          "type": "uint256"
        },
        {
          "internalType": "uint256",
          "name": "lockTime",
          "type": "uint256"
        },
        {
          "internalType": "uint256",
          "name": "lockDays",
          "type": "uint256"
        },
        {
          "internalType": "uint256",
          "name": "lastRewardDay",
          "type": "uint256"
        },
        {
          "internalType": "bool",
          "name": "exists",
          "type": "bool"
        }
      ],
      "stateMutability": "view",
      "type": "function"
    },
    {
      "inputs": [
        {
          "internalType": "uint256",
          "name": "",
          "type": "uint256"
        }
      ],
      "name": "vaultInfo",
      "outputs": [
        {
          "internalType": "contract IERC20",
          "name": "token",
          "type": "address"
        },
        {
          "internalType": "uint256",
          "name": "amountReward",
          "type": "uint256"
        },
        {
          "internalType": "uint256",
          "name": "vaultTokenTax",
          "type": "uint256"
        },
        {
          "internalType": "uint256",
          "name": "startVault",
          "type": "uint256"
        },
        {
          "internalType": "uint256",
          "name": "lockDays",
          "type": "uint256"
        },
        {
          "internalType": "uint256",
          "name": "userCount",
          "type": "uint256"
        },
        {
          "internalType": "uint256",
          "name": "usersAmount",
          "type": "uint256"
        },
        {
          "internalType": "uint256",
          "name": "usersWeight",
          "type": "uint256"
        },
        {
          "internalType": "bool",
          "name": "isLpVault",
          "type": "bool"
        },
        {
          "internalType": "bool",
          "name": "paused",
          "type": "bool"
        },
        {
          "internalType": "uint256",
          "name": "lastTotalDay",
          "type": "uint256"
        }
      ],
      "stateMutability": "view",
      "type": "function"
    },
    {
      "inputs": [
        {
          "internalType": "uint256",
          "name": "_vid",
          "type": "uint256"
        }
      ],
      "name": "withdraw",
      "outputs": [],
      "stateMutability": "nonpayable",
      "type": "function"
    }
  ],
  "bytecode": "0x608060405260006001553480156200001657600080fd5b50604051620029773803806200297783398181016040528101906200003c91906200014d565b6200005c620000506200006a60201b60201c565b6200007260201b60201c565b80600181905550506200019d565b600033905090565b60008060009054906101000a900473ffffffffffffffffffffffffffffffffffffffff169050816000806101000a81548173ffffffffffffffffffffffffffffffffffffffff021916908373ffffffffffffffffffffffffffffffffffffffff1602179055508173ffffffffffffffffffffffffffffffffffffffff168173ffffffffffffffffffffffffffffffffffffffff167f8be0079c531659141344cd1fd0a4f28419497f9722a3daafe3b4186f6b6457e060405160405180910390a35050565b600081519050620001478162000183565b92915050565b6000602082840312156200016057600080fd5b6000620001708482850162000136565b91505092915050565b6000819050919050565b6200018e8162000179565b81146200019a57600080fd5b50565b6127ca80620001ad6000396000f3fe608060405234801561001057600080fd5b50600436106100ce5760003560e01c80638f7ed4b31161008c5780639403b634116100665780639403b6341461023b578063c06487f314610270578063e85c74421461028c578063f2fde38b146102bc576100ce565b80638f7ed4b3146101ac578063929060d8146101ca57806393f1a40b14610204576100ce565b8062aeef8a146100d357806302525222146101035780631069f3b5146101345780632e1a7d4d14610168578063715018a6146101845780638da5cb5b1461018e575b600080fd5b6100ed60048036038101906100e89190611e48565b6102d8565b6040516100fa91906121da565b60405180910390f35b61011d60048036038101906101189190611e0c565b61073d565b60405161012b92919061243c565b60405180910390f35b61014e60048036038101906101499190611dd0565b61076e565b60405161015f959493929190612465565b60405180910390f35b610182600480360381019061017d9190611d7e565b610864565b005b61018c610ba1565b005b610196610c29565b6040516101a3919061215f565b60405180910390f35b6101b4610c52565b6040516101c19190612421565b60405180910390f35b6101e460048036038101906101df9190611d7e565b610c58565b6040516101fb9b9a99989796959493929190612256565b60405180910390f35b61021e60048036038101906102199190611dd0565b610cfc565b6040516102329897969594939291906124b8565b60405180910390f35b61025560048036038101906102509190611d7e565b610d5e565b604051610267969594939291906121f5565b60405180910390f35b61028a60048036038101906102859190611d1b565b610ed3565b005b6102a660048036038101906102a19190611dd0565b6112ac565b6040516102b39190612421565b60405180910390f35b6102d660048036038101906102d19190611cc9565b6115f6565b005b600080821161031c576040517f08c379a0000000000000000000000000000000000000000000000000000000008152600401610313906123e1565b60405180910390fd5b600060048581548110610358577f4e487b7100000000000000000000000000000000000000000000000000000000600052603260045260246000fd5b90600052602060002090600a020190506000610373866116ee565b9050600015158260080160019054906101000a900460ff161515146103cd576040517f08c379a00000000000000000000000000000000000000000000000000000000081526004016103c490612381565b60405180910390fd5b8160030154421015610414576040517f08c379a000000000000000000000000000000000000000000000000000000000815260040161040b90612321565b60405180910390fd5b80421115610457576040517f08c379a000000000000000000000000000000000000000000000000000000000815260040161044e90612301565b60405180910390fd5b8160000160009054906101000a900473ffffffffffffffffffffffffffffffffffffffff1673ffffffffffffffffffffffffffffffffffffffff166323b872dd3330876040518463ffffffff1660e01b81526004016104b89392919061217a565b602060405180830381600087803b1580156104d257600080fd5b505af11580156104e6573d6000803e3d6000fd5b505050506040513d601f19601f8201168201806040525081019061050a9190611cf2565b61051357600080fd5b600061051d611869565b905060006002600089815260200190815260200160002060003373ffffffffffffffffffffffffffffffffffffffff1673ffffffffffffffffffffffffffffffffffffffff168152602001908152602001600020905060008160070160009054906101000a900460ff166106825760018260070160006101000a81548160ff02191690831515021790555060006105e0603c8060188c6105bd91906125ce565b6105c791906125ce565b6105d191906125ce565b4261188690919063ffffffff16565b90508481116105ef57806105f1565b845b905080836004018190555088836005018190555083836006018190555060018660050160008282546106239190612547565b92505081905550610671633b9aca006106638860040154610655633b9aca00886005015461189c90919063ffffffff16565b6118b290919063ffffffff16565b61188690919063ffffffff16565b915081836001018190555050610687565b600090505b8682600001600082825461069b9190612547565b925050819055506106ab896118c8565b828560090181905550868560060160008282546106c89190612547565b92505081905550808560070160008282546106e39190612547565b925050819055506000600360008b8152602001908152602001600020600085815260200190815260200160002090508560060154816000018190555085600701548160010181905550600196505050505050509392505050565b6003602052816000526040600020602052806000526040600020600091509150508060000154908060010154905082565b6000806000806000806002600089815260200190815260200160002060008873ffffffffffffffffffffffffffffffffffffffff1673ffffffffffffffffffffffffffffffffffffffff16815260200190815260200160002060405180610100016040529081600082015481526020016001820154815260200160028201548152602001600382015481526020016004820154815260200160058201548152602001600682015481526020016007820160009054906101000a900460ff16151515158152505090508060000151816020015182604001518360600151846080015195509550955095509550509295509295909350565b6000600482815481106108a0577f4e487b7100000000000000000000000000000000000000000000000000000000600052603260045260246000fd5b90600052602060002090600a02019050600015158160080160019054906101000a900460ff16151514610908576040517f08c379a00000000000000000000000000000000000000000000000000000000081526004016108ff90612381565b60405180910390fd5b60006002600084815260200190815260200160002060003373ffffffffffffffffffffffffffffffffffffffff1673ffffffffffffffffffffffffffffffffffffffff168152602001908152602001600020905042816004015411156109a3576040517f08c379a000000000000000000000000000000000000000000000000000000000815260040161099a90612401565b60405180910390fd5b6109ac836118c8565b60006109b6611869565b905060006109c485336112ac565b9050818360060181905550808360020160008282546109e39190612547565b9250508190555060008184600001546109fc9190612547565b90508460000160009054906101000a900473ffffffffffffffffffffffffffffffffffffffff1673ffffffffffffffffffffffffffffffffffffffff1663a9059cbb33836040518363ffffffff1660e01b8152600401610a5d9291906121b1565b602060405180830381600087803b158015610a7757600080fd5b505af1158015610a8b573d6000803e3d6000fd5b505050506040513d601f19601f82011682018060405250810190610aaf9190611cf2565b610ab857600080fd5b81846003018190555060008460070160006101000a81548160ff02191690831515021790555060018560050154610aef9190612628565b85600501819055508360000154856006016000828254610b0f9190612628565b925050819055508360010154856007016000828254610b2e9190612628565b9250508190555083600601548560090181905550600060036000888152602001908152602001600020600085815260200190815260200160002090508560060154816000018190555085600701548160010181905550600085600001819055506000856001018190555050505050505050565b610ba9611af4565b73ffffffffffffffffffffffffffffffffffffffff16610bc7610c29565b73ffffffffffffffffffffffffffffffffffffffff1614610c1d576040517f08c379a0000000000000000000000000000000000000000000000000000000008152600401610c14906123a1565b60405180910390fd5b610c276000611afc565b565b60008060009054906101000a900473ffffffffffffffffffffffffffffffffffffffff16905090565b60015481565b60048181548110610c6857600080fd5b90600052602060002090600a02016000915090508060000160009054906101000a900473ffffffffffffffffffffffffffffffffffffffff16908060010154908060020154908060030154908060040154908060050154908060060154908060070154908060080160009054906101000a900460ff16908060080160019054906101000a900460ff1690806009015490508b565b6002602052816000526040600020602052806000526040600020600091509150508060000154908060010154908060020154908060030154908060040154908060050154908060060154908060070160009054906101000a900460ff16905088565b600080600080600080600060048881548110610da3577f4e487b7100000000000000000000000000000000000000000000000000000000600052603260045260246000fd5b90600052602060002090600a0201604051806101600160405290816000820160009054906101000a900473ffffffffffffffffffffffffffffffffffffffff1673ffffffffffffffffffffffffffffffffffffffff1673ffffffffffffffffffffffffffffffffffffffff168152602001600182015481526020016002820154815260200160038201548152602001600482015481526020016005820154815260200160068201548152602001600782015481526020016008820160009054906101000a900460ff161515151581526020016008820160019054906101000a900460ff16151515158152602001600982015481525050905080600001518160200151826040015183608001518460600151610ebd8d6116ee565b9650965096509650965096505091939550919395565b808473ffffffffffffffffffffffffffffffffffffffff166370a08231336040518263ffffffff1660e01b8152600401610f0d919061215f565b60206040518083038186803b158015610f2557600080fd5b505afa158015610f39573d6000803e3d6000fd5b505050506040513d601f19601f82011682018060405250810190610f5d9190611da7565b1015610f9e576040517f08c379a0000000000000000000000000000000000000000000000000000000008152600401610f9590612361565b60405180910390fd5b60006001546064610faf9190612628565b606483610fbc919061259d565b610fc691906125ce565b90506000600154606484610fda919061259d565b610fe491906125ce565b905060046040518061016001604052808873ffffffffffffffffffffffffffffffffffffffff1681526020018481526020018381526020014281526020018681526020016000815260200160008152602001600081526020018715158152602001600015158152602001611077600161106962015180426118b290919063ffffffff16565b611bc090919063ffffffff16565b81525090806001815401808255809150506001900390600052602060002090600a020160009091909190915060008201518160000160006101000a81548173ffffffffffffffffffffffffffffffffffffffff021916908373ffffffffffffffffffffffffffffffffffffffff1602179055506020820151816001015560408201518160020155606082015181600301556080820151816004015560a0820151816005015560c0820151816006015560e082015181600701556101008201518160080160006101000a81548160ff0219169083151502179055506101208201518160080160016101000a81548160ff02191690831515021790555061014082015181600901555050600060016004805490506111939190612628565b9050600061119f611869565b905060006003600084815260200190815260200160002060008381526020019081526020016000209050600081600001819055508873ffffffffffffffffffffffffffffffffffffffff166323b872dd3330896040518463ffffffff1660e01b81526004016112109392919061217a565b602060405180830381600087803b15801561122a57600080fd5b505af115801561123e573d6000803e3d6000fd5b505050506040513d601f19601f820116820180604052508101906112629190611cf2565b6112a1576040517f08c379a0000000000000000000000000000000000000000000000000000000008152600401611298906123c1565b60405180910390fd5b505050505050505050565b6000806002600085815260200190815260200160002060008473ffffffffffffffffffffffffffffffffffffffff1673ffffffffffffffffffffffffffffffffffffffff16815260200190815260200160002060405180610100016040529081600082015481526020016001820154815260200160028201548152602001600382015481526020016004820154815260200160058201548152602001600682015481526020016007820160009054906101000a900460ff16151515158152505090506000600485815481106113aa577f4e487b7100000000000000000000000000000000000000000000000000000000600052603260045260246000fd5b90600052602060002090600a0201604051806101600160405290816000820160009054906101000a900473ffffffffffffffffffffffffffffffffffffffff1673ffffffffffffffffffffffffffffffffffffffff1673ffffffffffffffffffffffffffffffffffffffff168152602001600182015481526020016002820154815260200160038201548152602001600482015481526020016005820154815260200160068201548152602001600782015481526020016008820160009054906101000a900460ff161515151581526020016008820160019054906101000a900460ff16151515158152602001600982015481525050905060006114ad86611bd6565b90506000806114cd846080015185602001516118b290919063ffffffff16565b90506000808660200151905060008760c0015190505b8581116115e5576000600360008d815260200190815260200160002060008381526020019081526020016000206040518060400160405290816000820154815260200160018201548152505090506000816020015111156115d057611559816020015182600001516118b290919063ffffffff16565b93506115c2633b9aca006115b46115a58460000151611597633b9aca006115898a8c61189c90919063ffffffff16565b61189c90919063ffffffff16565b6118b290919063ffffffff16565b8861189c90919063ffffffff16565b6118b290919063ffffffff16565b866115cd9190612547565b95505b506001816115de9190612547565b90506114e3565b508397505050505050505092915050565b6115fe611af4565b73ffffffffffffffffffffffffffffffffffffffff1661161c610c29565b73ffffffffffffffffffffffffffffffffffffffff1614611672576040517f08c379a0000000000000000000000000000000000000000000000000000000008152600401611669906123a1565b60405180910390fd5b600073ffffffffffffffffffffffffffffffffffffffff168173ffffffffffffffffffffffffffffffffffffffff1614156116e2576040517f08c379a00000000000000000000000000000000000000000000000000000000081526004016116d990612341565b60405180910390fd5b6116eb81611afc565b50565b6000806004838154811061172b577f4e487b7100000000000000000000000000000000000000000000000000000000600052603260045260246000fd5b90600052602060002090600a0201604051806101600160405290816000820160009054906101000a900473ffffffffffffffffffffffffffffffffffffffff1673ffffffffffffffffffffffffffffffffffffffff1673ffffffffffffffffffffffffffffffffffffffff168152602001600182015481526020016002820154815260200160038201548152602001600482015481526020016005820154815260200160068201548152602001600782015481526020016008820160009054906101000a900460ff161515151581526020016008820160019054906101000a900460ff161515151581526020016009820154815250509050611861603c806018846080015161183a91906125ce565b61184491906125ce565b61184e91906125ce565b826060015161188690919063ffffffff16565b915050919050565b600061188162015180426118b290919063ffffffff16565b905090565b600081836118949190612547565b905092915050565b600081836118aa91906125ce565b905092915050565b600081836118c0919061259d565b905092915050565b600060048281548110611904577f4e487b7100000000000000000000000000000000000000000000000000000000600052603260045260246000fd5b90600052602060002090600a0201604051806101600160405290816000820160009054906101000a900473ffffffffffffffffffffffffffffffffffffffff1673ffffffffffffffffffffffffffffffffffffffff1673ffffffffffffffffffffffffffffffffffffffff168152602001600182015481526020016002820154815260200160038201548152602001600482015481526020016005820154815260200160068201548152602001600782015481526020016008820160009054906101000a900460ff161515151581526020016008820160019054906101000a900460ff1615151515815260200160098201548152505090506000611a0783611bd6565b90506000611a13611869565b90508183610140015110611a2957505050611af1565b6000600360008681526020019081526020016000206000856101400151815260200190815260200160002060405180604001604052908160008201548152602001600182015481525050905060006001856101400151611a899190612547565b90505b82811015611aeb5760006003600088815260200190815260200160002060008381526020019081526020016000209050826000015181600001819055508260200151816001018190555050600181611ae49190612547565b9050611a8c565b50505050505b50565b600033905090565b60008060009054906101000a900473ffffffffffffffffffffffffffffffffffffffff169050816000806101000a81548173ffffffffffffffffffffffffffffffffffffffff021916908373ffffffffffffffffffffffffffffffffffffffff1602179055508173ffffffffffffffffffffffffffffffffffffffff168173ffffffffffffffffffffffffffffffffffffffff167f8be0079c531659141344cd1fd0a4f28419497f9722a3daafe3b4186f6b6457e060405160405180910390a35050565b60008183611bce9190612628565b905092915050565b600080611be2836116ee565b9050804211611c1957611c146001611c0662015180426118b290919063ffffffff16565b611bc090919063ffffffff16565b611c43565b611c426001611c3462015180846118b290919063ffffffff16565b611bc090919063ffffffff16565b5b915050919050565b600081359050611c5a81612738565b92915050565b600081359050611c6f8161274f565b92915050565b600081519050611c848161274f565b92915050565b600081359050611c9981612766565b92915050565b600081359050611cae8161277d565b92915050565b600081519050611cc38161277d565b92915050565b600060208284031215611cdb57600080fd5b6000611ce984828501611c4b565b91505092915050565b600060208284031215611d0457600080fd5b6000611d1284828501611c75565b91505092915050565b60008060008060808587031215611d3157600080fd5b6000611d3f87828801611c8a565b9450506020611d5087828801611c60565b9350506040611d6187828801611c9f565b9250506060611d7287828801611c9f565b91505092959194509250565b600060208284031215611d9057600080fd5b6000611d9e84828501611c9f565b91505092915050565b600060208284031215611db957600080fd5b6000611dc784828501611cb4565b91505092915050565b60008060408385031215611de357600080fd5b6000611df185828601611c9f565b9250506020611e0285828601611c4b565b9150509250929050565b60008060408385031215611e1f57600080fd5b6000611e2d85828601611c9f565b9250506020611e3e85828601611c9f565b9150509250929050565b600080600060608486031215611e5d57600080fd5b6000611e6b86828701611c9f565b9350506020611e7c86828701611c9f565b9250506040611e8d86828701611c9f565b9150509250925092565b611ea08161265c565b82525050565b611eaf8161266e565b82525050565b611ebe816126b6565b82525050565b6000611ed1600e83612536565b91507f5661756c742066696e69636865640000000000000000000000000000000000006000830152602082019050919050565b6000611f11601183612536565b91507f5661756c74206e6f7420737461727465640000000000000000000000000000006000830152602082019050919050565b6000611f51602683612536565b91507f4f776e61626c653a206e6577206f776e657220697320746865207a65726f206160008301527f64647265737300000000000000000000000000000000000000000000000000006020830152604082019050919050565b6000611fb7601283612536565b91507f5573657220686173206e6f20746f6b656e7300000000000000000000000000006000830152602082019050919050565b6000611ff7600c83612536565b91507f5661756c742070617573656400000000000000000000000000000000000000006000830152602082019050919050565b6000612037602083612536565b91507f4f776e61626c653a2063616c6c6572206973206e6f7420746865206f776e65726000830152602082019050919050565b6000612077601683612536565b91507f43616e2774207472616e7366657220746f6b656e732e000000000000000000006000830152602082019050919050565b60006120b7602183612536565b91507f4465706f736974206d7573742062652067726561746572207468616e207a657260008301527f6f000000000000000000000000000000000000000000000000000000000000006020830152604082019050919050565b600061211d601183612536565b91507f5573657220696e206c6f636b2074696d650000000000000000000000000000006000830152602082019050919050565b612159816126ac565b82525050565b60006020820190506121746000830184611e97565b92915050565b600060608201905061218f6000830186611e97565b61219c6020830185611e97565b6121a96040830184612150565b949350505050565b60006040820190506121c66000830185611e97565b6121d36020830184612150565b9392505050565b60006020820190506121ef6000830184611ea6565b92915050565b600060c08201905061220a6000830189611eb5565b6122176020830188612150565b6122246040830187612150565b6122316060830186612150565b61223e6080830185612150565b61224b60a0830184612150565b979650505050505050565b60006101608201905061226c600083018e611eb5565b612279602083018d612150565b612286604083018c612150565b612293606083018b612150565b6122a0608083018a612150565b6122ad60a0830189612150565b6122ba60c0830188612150565b6122c760e0830187612150565b6122d5610100830186611ea6565b6122e3610120830185611ea6565b6122f1610140830184612150565b9c9b505050505050505050505050565b6000602082019050818103600083015261231a81611ec4565b9050919050565b6000602082019050818103600083015261233a81611f04565b9050919050565b6000602082019050818103600083015261235a81611f44565b9050919050565b6000602082019050818103600083015261237a81611faa565b9050919050565b6000602082019050818103600083015261239a81611fea565b9050919050565b600060208201905081810360008301526123ba8161202a565b9050919050565b600060208201905081810360008301526123da8161206a565b9050919050565b600060208201905081810360008301526123fa816120aa565b9050919050565b6000602082019050818103600083015261241a81612110565b9050919050565b60006020820190506124366000830184612150565b92915050565b60006040820190506124516000830185612150565b61245e6020830184612150565b9392505050565b600060a08201905061247a6000830188612150565b6124876020830187612150565b6124946040830186612150565b6124a16060830185612150565b6124ae6080830184612150565b9695505050505050565b6000610100820190506124ce600083018b612150565b6124db602083018a612150565b6124e86040830189612150565b6124f56060830188612150565b6125026080830187612150565b61250f60a0830186612150565b61251c60c0830185612150565b61252960e0830184611ea6565b9998505050505050505050565b600082825260208201905092915050565b6000612552826126ac565b915061255d836126ac565b9250827fffffffffffffffffffffffffffffffffffffffffffffffffffffffffffffffff03821115612592576125916126da565b5b828201905092915050565b60006125a8826126ac565b91506125b3836126ac565b9250826125c3576125c2612709565b5b828204905092915050565b60006125d9826126ac565b91506125e4836126ac565b9250817fffffffffffffffffffffffffffffffffffffffffffffffffffffffffffffffff048311821515161561261d5761261c6126da565b5b828202905092915050565b6000612633826126ac565b915061263e836126ac565b925082821015612651576126506126da565b5b828203905092915050565b60006126678261268c565b9050919050565b60008115159050919050565b60006126858261265c565b9050919050565b600073ffffffffffffffffffffffffffffffffffffffff82169050919050565b6000819050919050565b60006126c1826126c8565b9050919050565b60006126d38261268c565b9050919050565b7f4e487b7100000000000000000000000000000000000000000000000000000000600052601160045260246000fd5b7f4e487b7100000000000000000000000000000000000000000000000000000000600052601260045260246000fd5b6127418161265c565b811461274c57600080fd5b50565b6127588161266e565b811461276357600080fd5b50565b61276f8161267a565b811461277a57600080fd5b50565b612786816126ac565b811461279157600080fd5b5056fea26469706673582212202e29acd3ba1e384c81e352678e5cfec19cf432ec64010c1ba24e408ac0a25fa864736f6c63430008000033",
  "linkReferences": {},
  "deployedLinkReferences": {}
}