{
  "_format": "hh-sol-artifact-1",
  "contractName": "Vault",
  "sourceName": "contracts/Vault.sol",
  "abi": [
    {
      "inputs": [
        {
          "internalType": "uint256",
          "name": "_taxForNonBabyDogeCoin",
          "type": "uint256"
        }
      ],
      "stateMutability": "nonpayable",
      "type": "constructor"
    },
    {
      "anonymous": false,
      "inputs": [
        {
          "indexed": true,
          "internalType": "address",
          "name": "user",
          "type": "address"
        },
        {
          "indexed": true,
          "internalType": "uint256",
          "name": "pid",
          "type": "uint256"
        },
        {
          "indexed": false,
          "internalType": "uint256",
          "name": "amount",
          "type": "uint256"
        }
      ],
      "name": "Deposit",
      "type": "event"
    },
    {
      "anonymous": false,
      "inputs": [
        {
          "indexed": true,
          "internalType": "address",
          "name": "previousOwner",
          "type": "address"
        },
        {
          "indexed": true,
          "internalType": "address",
          "name": "newOwner",
          "type": "address"
        }
      ],
      "name": "OwnershipTransferred",
      "type": "event"
    },
    {
      "anonymous": false,
      "inputs": [
        {
          "indexed": true,
          "internalType": "address",
          "name": "user",
          "type": "address"
        },
        {
          "indexed": true,
          "internalType": "uint256",
          "name": "pid",
          "type": "uint256"
        },
        {
          "indexed": false,
          "internalType": "uint256",
          "name": "amount",
          "type": "uint256"
        }
      ],
      "name": "Withdraw",
      "type": "event"
    },
    {
      "inputs": [
        {
          "internalType": "uint256",
          "name": "_vid",
          "type": "uint256"
        },
        {
          "internalType": "address",
          "name": "_user",
          "type": "address"
        }
      ],
      "name": "calcRewardsUser",
      "outputs": [
        {
          "internalType": "uint256",
          "name": "",
          "type": "uint256"
        }
      ],
      "stateMutability": "view",
      "type": "function"
    },
    {
      "inputs": [
        {
          "internalType": "contract IERC20",
          "name": "_token",
          "type": "address"
        },
        {
          "internalType": "bool",
          "name": "_isLp",
          "type": "bool"
        },
        {
          "internalType": "uint256",
          "name": "_lockDays",
          "type": "uint256"
        },
        {
          "internalType": "uint256",
          "name": "_amount",
          "type": "uint256"
        }
      ],
      "name": "createVault",
      "outputs": [],
      "stateMutability": "nonpayable",
      "type": "function"
    },
    {
      "inputs": [
        {
          "internalType": "uint256",
          "name": "_vid",
          "type": "uint256"
        },
        {
          "internalType": "uint256",
          "name": "_lockDays",
          "type": "uint256"
        },
        {
          "internalType": "uint256",
          "name": "value",
          "type": "uint256"
        }
      ],
      "name": "deposit",
      "outputs": [
        {
          "internalType": "bool",
          "name": "",
          "type": "bool"
        }
      ],
      "stateMutability": "nonpayable",
      "type": "function"
    },
    {
      "inputs": [
        {
          "internalType": "uint256",
          "name": "_vid",
          "type": "uint256"
        },
        {
          "internalType": "address",
          "name": "_user",
          "type": "address"
        }
      ],
      "name": "getUserInfo",
      "outputs": [
        {
          "internalType": "uint256",
          "name": "",
          "type": "uint256"
        },
        {
          "internalType": "uint256",
          "name": "",
          "type": "uint256"
        },
        {
          "internalType": "uint256",
          "name": "",
          "type": "uint256"
        },
        {
          "internalType": "uint256",
          "name": "",
          "type": "uint256"
        },
        {
          "internalType": "uint256",
          "name": "",
          "type": "uint256"
        }
      ],
      "stateMutability": "view",
      "type": "function"
    },
    {
      "inputs": [
        {
          "internalType": "uint256",
          "name": "_vid",
          "type": "uint256"
        }
      ],
      "name": "getVault",
      "outputs": [
        {
          "internalType": "contract IERC20",
          "name": "",
          "type": "address"
        },
        {
          "internalType": "uint256",
          "name": "",
          "type": "uint256"
        },
        {
          "internalType": "uint256",
          "name": "",
          "type": "uint256"
        },
        {
          "internalType": "uint256",
          "name": "",
          "type": "uint256"
        },
        {
          "internalType": "uint256",
          "name": "",
          "type": "uint256"
        },
        {
          "internalType": "uint256",
          "name": "",
          "type": "uint256"
        }
      ],
      "stateMutability": "view",
      "type": "function"
    },
    {
      "inputs": [],
      "name": "owner",
      "outputs": [
        {
          "internalType": "address",
          "name": "",
          "type": "address"
        }
      ],
      "stateMutability": "view",
      "type": "function"
    },
    {
      "inputs": [],
      "name": "renounceOwnership",
      "outputs": [],
      "stateMutability": "nonpayable",
      "type": "function"
    },
    {
      "inputs": [
        {
          "internalType": "uint256",
          "name": "_vid",
          "type": "uint256"
        }
      ],
      "name": "syncDays",
      "outputs": [],
      "stateMutability": "nonpayable",
      "type": "function"
    },
    {
      "inputs": [],
      "name": "taxForNonBabyDogeCoin",
      "outputs": [
        {
          "internalType": "uint256",
          "name": "",
          "type": "uint256"
        }
      ],
      "stateMutability": "view",
      "type": "function"
    },
    {
      "inputs": [
        {
          "internalType": "uint256",
          "name": "",
          "type": "uint256"
        },
        {
          "internalType": "uint256",
          "name": "",
          "type": "uint256"
        }
      ],
      "name": "totalDay",
      "outputs": [
        {
          "internalType": "uint256",
          "name": "amount",
          "type": "uint256"
        },
        {
          "internalType": "uint256",
          "name": "weight",
          "type": "uint256"
        },
        {
          "internalType": "bool",
          "name": "exists",
          "type": "bool"
        }
      ],
      "stateMutability": "view",
      "type": "function"
    },
    {
      "inputs": [
        {
          "internalType": "address",
          "name": "newOwner",
          "type": "address"
        }
      ],
      "name": "transferOwnership",
      "outputs": [],
      "stateMutability": "nonpayable",
      "type": "function"
    },
    {
      "inputs": [
        {
          "internalType": "uint256",
          "name": "",
          "type": "uint256"
        },
        {
          "internalType": "address",
          "name": "",
          "type": "address"
        }
      ],
      "name": "userInfo",
      "outputs": [
        {
          "internalType": "uint256",
          "name": "userInvestPos",
          "type": "uint256"
        },
        {
          "internalType": "uint256",
          "name": "rewardDebt",
          "type": "uint256"
        },
        {
          "internalType": "uint256",
          "name": "rewardWithdraw",
          "type": "uint256"
        },
        {
          "internalType": "uint256",
          "name": "lockTime",
          "type": "uint256"
        },
        {
          "internalType": "uint256",
          "name": "lockDays",
          "type": "uint256"
        },
        {
          "internalType": "uint256",
          "name": "lastRewardDay",
          "type": "uint256"
        },
        {
          "internalType": "bool",
          "name": "exists",
          "type": "bool"
        }
      ],
      "stateMutability": "view",
      "type": "function"
    },
    {
      "inputs": [
        {
          "internalType": "uint256",
          "name": "",
          "type": "uint256"
        }
      ],
      "name": "vaultInfo",
      "outputs": [
        {
          "internalType": "contract IERC20",
          "name": "token",
          "type": "address"
        },
        {
          "internalType": "uint256",
          "name": "amountReward",
          "type": "uint256"
        },
        {
          "internalType": "uint256",
          "name": "vaultTokenTax",
          "type": "uint256"
        },
        {
          "internalType": "uint256",
          "name": "startVault",
          "type": "uint256"
        },
        {
          "internalType": "uint256",
          "name": "endVault",
          "type": "uint256"
        },
        {
          "internalType": "uint256",
          "name": "lockDays",
          "type": "uint256"
        },
        {
          "internalType": "uint256",
          "name": "userCount",
          "type": "uint256"
        },
        {
          "internalType": "uint256",
          "name": "usersAmount",
          "type": "uint256"
        },
        {
          "internalType": "bool",
          "name": "isLpVault",
          "type": "bool"
        },
        {
          "internalType": "bool",
          "name": "paused",
          "type": "bool"
        },
        {
          "internalType": "uint256",
          "name": "lastTotalDay",
          "type": "uint256"
        }
      ],
      "stateMutability": "view",
      "type": "function"
    },
    {
      "inputs": [
        {
          "internalType": "uint256",
          "name": "_vid",
          "type": "uint256"
        }
      ],
      "name": "withdraw",
      "outputs": [],
      "stateMutability": "nonpayable",
      "type": "function"
    }
  ],
  "bytecode": "0x608060405260006001553480156200001657600080fd5b5060405162002c4638038062002c4683398181016040528101906200003c91906200014d565b6200005c620000506200006a60201b60201c565b6200007260201b60201c565b80600181905550506200019d565b600033905090565b60008060009054906101000a900473ffffffffffffffffffffffffffffffffffffffff169050816000806101000a81548173ffffffffffffffffffffffffffffffffffffffff021916908373ffffffffffffffffffffffffffffffffffffffff1602179055508173ffffffffffffffffffffffffffffffffffffffff168173ffffffffffffffffffffffffffffffffffffffff167f8be0079c531659141344cd1fd0a4f28419497f9722a3daafe3b4186f6b6457e060405160405180910390a35050565b600081519050620001478162000183565b92915050565b6000602082840312156200016057600080fd5b6000620001708482850162000136565b91505092915050565b6000819050919050565b6200018e8162000179565b81146200019a57600080fd5b50565b612a9980620001ad6000396000f3fe608060405234801561001057600080fd5b50600436106100e95760003560e01c8063929060d81161008c578063c06487f311610066578063c06487f31461028b578063e6f5f397146102a7578063e85c7442146102c3578063f2fde38b146102f3576100e9565b8063929060d8146101e657806393f1a40b146102205780639403b63414610256576100e9565b80632e1a7d4d116100c85780632e1a7d4d14610184578063715018a6146101a05780638da5cb5b146101aa5780638f7ed4b3146101c8576100e9565b8062aeef8a146100ee578063025252221461011e5780631069f3b514610150575b600080fd5b61010860048036038101906101039190612118565b61030f565b60405161011591906124aa565b60405180910390f35b610138600480360381019061013391906120dc565b610898565b6040516101479392919061270c565b60405180910390f35b61016a600480360381019061016591906120a0565b6108dc565b60405161017b959493929190612743565b60405180910390f35b61019e6004803603810190610199919061204e565b610a5d565b005b6101a8610e08565b005b6101b2610e90565b6040516101bf919061242f565b60405180910390f35b6101d0610eb9565b6040516101dd91906126f1565b60405180910390f35b61020060048036038101906101fb919061204e565b610ebf565b6040516102179b9a99989796959493929190612526565b60405180910390f35b61023a600480360381019061023591906120a0565b610f63565b60405161024d9796959493929190612796565b60405180910390f35b610270600480360381019061026b919061204e565b610fbf565b604051610282969594939291906124c5565b60405180910390f35b6102a560048036038101906102a09190611feb565b611130565b005b6102c160048036038101906102bc919061204e565b61155a565b005b6102dd60048036038101906102d891906120a0565b6117bd565b6040516102ea91906126f1565b60405180910390f35b61030d60048036038101906103089190611f99565b611b66565b005b6000808211610353576040517f08c379a000000000000000000000000000000000000000000000000000000000815260040161034a906126b1565b60405180910390fd5b60006005858154811061038f577f4e487b7100000000000000000000000000000000000000000000000000000000600052603260045260246000fd5b90600052602060002090600a02019050600015158160080160019054906101000a900460ff161515146103f7576040517f08c379a00000000000000000000000000000000000000000000000000000000081526004016103ee90612651565b60405180910390fd5b806003015442101561043e576040517f08c379a0000000000000000000000000000000000000000000000000000000008152600401610435906125f1565b60405180910390fd5b8060040154421115610485576040517f08c379a000000000000000000000000000000000000000000000000000000000815260040161047c906125d1565b60405180910390fd5b8060000160009054906101000a900473ffffffffffffffffffffffffffffffffffffffff1673ffffffffffffffffffffffffffffffffffffffff166323b872dd3330866040518463ffffffff1660e01b81526004016104e69392919061244a565b602060405180830381600087803b15801561050057600080fd5b505af1158015610514573d6000803e3d6000fd5b505050506040513d601f19601f820116820180604052508101906105389190611fc2565b61054157600080fd5b600061054b611c5e565b905060006003600088815260200190815260200160002060003373ffffffffffffffffffffffffffffffffffffffff1673ffffffffffffffffffffffffffffffffffffffff168152602001908152602001600020905060006105ea633b9aca006105dc86600501546105ce633b9aca008760040154611c7b90919063ffffffff16565b611c9190919063ffffffff16565b611ca790919063ffffffff16565b90508160060160009054906101000a900460ff1661077b5760018260060160006101000a81548160ff0219169083151502179055506000610657603c8060188b610634919061289d565b61063e919061289d565b610648919061289d565b42611ca790919063ffffffff16565b90508460040154811161066a5780610670565b84600401545b905080836003018190555087836004018190555060026040518060400160405280600081526020016000815250908060018154018082558091505060019003906000526020600020906002020160009091909190915060008201518160000155602082015181600101555050600060016002805490506106f091906128f7565b905080846000018190555084846005018190555060018660060160008282546107199190612816565b9250508190555082600285600001548154811061075f577f4e487b7100000000000000000000000000000000000000000000000000000000600052603260045260246000fd5b9060005260206000209060020201600101819055505050610780565b600090505b8560028360000154815481106107bf577f4e487b7100000000000000000000000000000000000000000000000000000000600052603260045260246000fd5b906000526020600020906002020160000160008282546107df9190612816565b925050819055506000600460008a8152602001908152602001600020600085815260200190815260200160002090508060020160009054906101000a900460ff1661082e5761082d8961155a565b5b868160000160008282546108429190612816565b925050819055508181600101600082825461085d9190612816565b92505081905550838560090181905550868560070160008282546108819190612816565b925050819055506001955050505050509392505050565b6004602052816000526040600020602052806000526040600020600091509150508060000154908060010154908060020160009054906101000a900460ff16905083565b6000806000806000806003600089815260200190815260200160002060008873ffffffffffffffffffffffffffffffffffffffff1673ffffffffffffffffffffffffffffffffffffffff1681526020019081526020016000206040518060e00160405290816000820154815260200160018201548152602001600282015481526020016003820154815260200160048201548152602001600582015481526020016006820160009054906101000a900460ff161515151581525050905060028160000151815481106109d7577f4e487b7100000000000000000000000000000000000000000000000000000000600052603260045260246000fd5b9060005260206000209060020201600001546002826000015181548110610a27577f4e487b7100000000000000000000000000000000000000000000000000000000600052603260045260246000fd5b90600052602060002090600202016001015482602001518360400151846060015195509550955095509550509295509295909350565b600060058281548110610a99577f4e487b7100000000000000000000000000000000000000000000000000000000600052603260045260246000fd5b90600052602060002090600a02019050600015158160080160019054906101000a900460ff16151514610b01576040517f08c379a0000000000000000000000000000000000000000000000000000000008152600401610af890612651565b60405180910390fd5b60006003600084815260200190815260200160002060003373ffffffffffffffffffffffffffffffffffffffff1673ffffffffffffffffffffffffffffffffffffffff16815260200190815260200160002090504281600301541115610b9c576040517f08c379a0000000000000000000000000000000000000000000000000000000008152600401610b93906126d1565b60405180910390fd5b610ba58361155a565b6000610bb184336117bd565b9050610bbb611c5e565b826005018190555060006002836000015481548110610c03577f4e487b7100000000000000000000000000000000000000000000000000000000600052603260045260246000fd5b906000526020600020906002020160000154905081836001016000828254610c2b9190612816565b9250508190555060008282610c409190612816565b90508460000160009054906101000a900473ffffffffffffffffffffffffffffffffffffffff1673ffffffffffffffffffffffffffffffffffffffff1663a9059cbb33836040518363ffffffff1660e01b8152600401610ca1929190612481565b602060405180830381600087803b158015610cbb57600080fd5b505af1158015610ccf573d6000803e3d6000fd5b505050506040513d601f19601f82011682018060405250810190610cf39190611fc2565b610cfc57600080fd5b82846002018190555060008460060160006101000a81548160ff02191690831515021790555060006002856000015481548110610d62577f4e487b7100000000000000000000000000000000000000000000000000000000600052603260045260246000fd5b90600052602060002090600202016000018190555060006002856000015481548110610db7577f4e487b7100000000000000000000000000000000000000000000000000000000600052603260045260246000fd5b90600052602060002090600202016001018190555060018560060154610ddd91906128f7565b856006018190555081856007016000828254610df991906128f7565b92505081905550505050505050565b610e10611cbd565b73ffffffffffffffffffffffffffffffffffffffff16610e2e610e90565b73ffffffffffffffffffffffffffffffffffffffff1614610e84576040517f08c379a0000000000000000000000000000000000000000000000000000000008152600401610e7b90612671565b60405180910390fd5b610e8e6000611cc5565b565b60008060009054906101000a900473ffffffffffffffffffffffffffffffffffffffff16905090565b60015481565b60058181548110610ecf57600080fd5b90600052602060002090600a02016000915090508060000160009054906101000a900473ffffffffffffffffffffffffffffffffffffffff16908060010154908060020154908060030154908060040154908060050154908060060154908060070154908060080160009054906101000a900460ff16908060080160019054906101000a900460ff1690806009015490508b565b6003602052816000526040600020602052806000526040600020600091509150508060000154908060010154908060020154908060030154908060040154908060050154908060060160009054906101000a900460ff16905087565b600080600080600080600060058881548110611004577f4e487b7100000000000000000000000000000000000000000000000000000000600052603260045260246000fd5b90600052602060002090600a0201604051806101600160405290816000820160009054906101000a900473ffffffffffffffffffffffffffffffffffffffff1673ffffffffffffffffffffffffffffffffffffffff1673ffffffffffffffffffffffffffffffffffffffff168152602001600182015481526020016002820154815260200160038201548152602001600482015481526020016005820154815260200160068201548152602001600782015481526020016008820160009054906101000a900460ff161515151581526020016008820160019054906101000a900460ff1615151515815260200160098201548152505090508060000151816020015182604001518360a00151846060015185608001519650965096509650965096505091939550919395565b808473ffffffffffffffffffffffffffffffffffffffff166370a08231336040518263ffffffff1660e01b815260040161116a919061242f565b60206040518083038186803b15801561118257600080fd5b505afa158015611196573d6000803e3d6000fd5b505050506040513d601f19601f820116820180604052508101906111ba9190612077565b10156111fb576040517f08c379a00000000000000000000000000000000000000000000000000000000081526004016111f290612631565b60405180910390fd5b6000600154606461120c91906128f7565b606483611219919061286c565b611223919061289d565b90506000600154606484611237919061286c565b611241919061289d565b905060056040518061016001604052808873ffffffffffffffffffffffffffffffffffffffff1681526020018481526020018381526020014281526020016112b5603c8060188a611292919061289d565b61129c919061289d565b6112a6919061289d565b42611ca790919063ffffffff16565b81526020018681526020016000815260200160008152602001871515815260200160001515815260200161130860016112fa6201518042611c9190919063ffffffff16565b611d8990919063ffffffff16565b81525090806001815401808255809150506001900390600052602060002090600a020160009091909190915060008201518160000160006101000a81548173ffffffffffffffffffffffffffffffffffffffff021916908373ffffffffffffffffffffffffffffffffffffffff1602179055506020820151816001015560408201518160020155606082015181600301556080820151816004015560a0820151816005015560c0820151816006015560e082015181600701556101008201518160080160006101000a81548160ff0219169083151502179055506101208201518160080160016101000a81548160ff021916908315150217905550610140820151816009015550506000600160058054905061142491906128f7565b90506000611430611c5e565b9050600060046000848152602001908152602001600020600083815260200190815260200160002090506000816000018190555060018160020160006101000a81548160ff0219169083151502179055508873ffffffffffffffffffffffffffffffffffffffff166323b872dd3330896040518463ffffffff1660e01b81526004016114be9392919061244a565b602060405180830381600087803b1580156114d857600080fd5b505af11580156114ec573d6000803e3d6000fd5b505050506040513d601f19601f820116820180604052508101906115109190611fc2565b61154f576040517f08c379a000000000000000000000000000000000000000000000000000000000815260040161154690612691565b60405180910390fd5b505050505050505050565b600060058281548110611596577f4e487b7100000000000000000000000000000000000000000000000000000000600052603260045260246000fd5b90600052602060002090600a0201604051806101600160405290816000820160009054906101000a900473ffffffffffffffffffffffffffffffffffffffff1673ffffffffffffffffffffffffffffffffffffffff1673ffffffffffffffffffffffffffffffffffffffff168152602001600182015481526020016002820154815260200160038201548152602001600482015481526020016005820154815260200160068201548152602001600782015481526020016008820160009054906101000a900460ff161515151581526020016008820160019054906101000a900460ff161515151581526020016009820154815250509050600061169983611d9f565b905060006116a5611c5e565b905081836101400151106116bb575050506117ba565b6000600460008681526020019081526020016000206000856101400151815260200190815260200160002060405180606001604052908160008201548152602001600182015481526020016002820160009054906101000a900460ff1615151515815250509050600060018561014001516117369190612816565b90505b8281116117b45760006004600088815260200190815260200160002060008381526020019081526020016000209050826000015181600001819055508260200151816001018190555060018160020160006101000a81548160ff021916908315150217905550506001816117ad9190612816565b9050611739565b50505050505b50565b6000806003600085815260200190815260200160002060008473ffffffffffffffffffffffffffffffffffffffff1673ffffffffffffffffffffffffffffffffffffffff1681526020019081526020016000206040518060e00160405290816000820154815260200160018201548152602001600282015481526020016003820154815260200160048201548152602001600582015481526020016006820160009054906101000a900460ff16151515158152505090506000600585815481106118b0577f4e487b7100000000000000000000000000000000000000000000000000000000600052603260045260246000fd5b90600052602060002090600a0201604051806101600160405290816000820160009054906101000a900473ffffffffffffffffffffffffffffffffffffffff1673ffffffffffffffffffffffffffffffffffffffff1673ffffffffffffffffffffffffffffffffffffffff168152602001600182015481526020016002820154815260200160038201548152602001600482015481526020016005820154815260200160068201548152602001600782015481526020016008820160009054906101000a900460ff161515151581526020016008820160019054906101000a900460ff16151515158152602001600982015481525050905060006119b386611d9f565b90506000806119d38460a001518560200151611c9190919063ffffffff16565b90506000806002876000015181548110611a16577f4e487b7100000000000000000000000000000000000000000000000000000000600052603260045260246000fd5b906000526020600020906002020160010154905060008760a0015190505b858111611b55576000600460008d8152602001908152602001600020600083815260200190815260200160002060405180606001604052908160008201548152602001600182015481526020016002820160009054906101000a900460ff1615151515815250509050600081602001511115611b4057611ac581602001518260000151611c9190919063ffffffff16565b9350611b32670de0b6b3a7640000611b24611b158460000151611b07633b9aca00611af98a8c611c7b90919063ffffffff16565b611c7b90919063ffffffff16565b611c9190919063ffffffff16565b88611c7b90919063ffffffff16565b611c9190919063ffffffff16565b86611b3d9190612816565b95505b50600181611b4e9190612816565b9050611a34565b508397505050505050505092915050565b611b6e611cbd565b73ffffffffffffffffffffffffffffffffffffffff16611b8c610e90565b73ffffffffffffffffffffffffffffffffffffffff1614611be2576040517f08c379a0000000000000000000000000000000000000000000000000000000008152600401611bd990612671565b60405180910390fd5b600073ffffffffffffffffffffffffffffffffffffffff168173ffffffffffffffffffffffffffffffffffffffff161415611c52576040517f08c379a0000000000000000000000000000000000000000000000000000000008152600401611c4990612611565b60405180910390fd5b611c5b81611cc5565b50565b6000611c766201518042611c9190919063ffffffff16565b905090565b60008183611c89919061289d565b905092915050565b60008183611c9f919061286c565b905092915050565b60008183611cb59190612816565b905092915050565b600033905090565b60008060009054906101000a900473ffffffffffffffffffffffffffffffffffffffff169050816000806101000a81548173ffffffffffffffffffffffffffffffffffffffff021916908373ffffffffffffffffffffffffffffffffffffffff1602179055508173ffffffffffffffffffffffffffffffffffffffff168173ffffffffffffffffffffffffffffffffffffffff167f8be0079c531659141344cd1fd0a4f28419497f9722a3daafe3b4186f6b6457e060405160405180910390a35050565b60008183611d9791906128f7565b905092915050565b60008060058381548110611ddc577f4e487b7100000000000000000000000000000000000000000000000000000000600052603260045260246000fd5b90600052602060002090600a0201604051806101600160405290816000820160009054906101000a900473ffffffffffffffffffffffffffffffffffffffff1673ffffffffffffffffffffffffffffffffffffffff1673ffffffffffffffffffffffffffffffffffffffff168152602001600182015481526020016002820154815260200160038201548152602001600482015481526020016005820154815260200160068201548152602001600782015481526020016008820160009054906101000a900460ff161515151581526020016008820160019054906101000a900460ff16151515158152602001600982015481525050905080608001514211611f0d57611f086001611efa6201518042611c9190919063ffffffff16565b611d8990919063ffffffff16565b611f13565b80608001515b915050919050565b600081359050611f2a81612a07565b92915050565b600081359050611f3f81612a1e565b92915050565b600081519050611f5481612a1e565b92915050565b600081359050611f6981612a35565b92915050565b600081359050611f7e81612a4c565b92915050565b600081519050611f9381612a4c565b92915050565b600060208284031215611fab57600080fd5b6000611fb984828501611f1b565b91505092915050565b600060208284031215611fd457600080fd5b6000611fe284828501611f45565b91505092915050565b6000806000806080858703121561200157600080fd5b600061200f87828801611f5a565b945050602061202087828801611f30565b935050604061203187828801611f6f565b925050606061204287828801611f6f565b91505092959194509250565b60006020828403121561206057600080fd5b600061206e84828501611f6f565b91505092915050565b60006020828403121561208957600080fd5b600061209784828501611f84565b91505092915050565b600080604083850312156120b357600080fd5b60006120c185828601611f6f565b92505060206120d285828601611f1b565b9150509250929050565b600080604083850312156120ef57600080fd5b60006120fd85828601611f6f565b925050602061210e85828601611f6f565b9150509250929050565b60008060006060848603121561212d57600080fd5b600061213b86828701611f6f565b935050602061214c86828701611f6f565b925050604061215d86828701611f6f565b9150509250925092565b6121708161292b565b82525050565b61217f8161293d565b82525050565b61218e81612985565b82525050565b60006121a1600e83612805565b91507f5661756c742066696e69636865640000000000000000000000000000000000006000830152602082019050919050565b60006121e1601183612805565b91507f5661756c74206e6f7420737461727465640000000000000000000000000000006000830152602082019050919050565b6000612221602683612805565b91507f4f776e61626c653a206e6577206f776e657220697320746865207a65726f206160008301527f64647265737300000000000000000000000000000000000000000000000000006020830152604082019050919050565b6000612287601283612805565b91507f5573657220686173206e6f20746f6b656e7300000000000000000000000000006000830152602082019050919050565b60006122c7600c83612805565b91507f5661756c742070617573656400000000000000000000000000000000000000006000830152602082019050919050565b6000612307602083612805565b91507f4f776e61626c653a2063616c6c6572206973206e6f7420746865206f776e65726000830152602082019050919050565b6000612347601683612805565b91507f43616e2774207472616e7366657220746f6b656e732e000000000000000000006000830152602082019050919050565b6000612387602183612805565b91507f4465706f736974206d7573742062652067726561746572207468616e207a657260008301527f6f000000000000000000000000000000000000000000000000000000000000006020830152604082019050919050565b60006123ed601183612805565b91507f5573657220696e206c6f636b2074696d650000000000000000000000000000006000830152602082019050919050565b6124298161297b565b82525050565b60006020820190506124446000830184612167565b92915050565b600060608201905061245f6000830186612167565b61246c6020830185612167565b6124796040830184612420565b949350505050565b60006040820190506124966000830185612167565b6124a36020830184612420565b9392505050565b60006020820190506124bf6000830184612176565b92915050565b600060c0820190506124da6000830189612185565b6124e76020830188612420565b6124f46040830187612420565b6125016060830186612420565b61250e6080830185612420565b61251b60a0830184612420565b979650505050505050565b60006101608201905061253c600083018e612185565b612549602083018d612420565b612556604083018c612420565b612563606083018b612420565b612570608083018a612420565b61257d60a0830189612420565b61258a60c0830188612420565b61259760e0830187612420565b6125a5610100830186612176565b6125b3610120830185612176565b6125c1610140830184612420565b9c9b505050505050505050505050565b600060208201905081810360008301526125ea81612194565b9050919050565b6000602082019050818103600083015261260a816121d4565b9050919050565b6000602082019050818103600083015261262a81612214565b9050919050565b6000602082019050818103600083015261264a8161227a565b9050919050565b6000602082019050818103600083015261266a816122ba565b9050919050565b6000602082019050818103600083015261268a816122fa565b9050919050565b600060208201905081810360008301526126aa8161233a565b9050919050565b600060208201905081810360008301526126ca8161237a565b9050919050565b600060208201905081810360008301526126ea816123e0565b9050919050565b60006020820190506127066000830184612420565b92915050565b60006060820190506127216000830186612420565b61272e6020830185612420565b61273b6040830184612176565b949350505050565b600060a0820190506127586000830188612420565b6127656020830187612420565b6127726040830186612420565b61277f6060830185612420565b61278c6080830184612420565b9695505050505050565b600060e0820190506127ab600083018a612420565b6127b86020830189612420565b6127c56040830188612420565b6127d26060830187612420565b6127df6080830186612420565b6127ec60a0830185612420565b6127f960c0830184612176565b98975050505050505050565b600082825260208201905092915050565b60006128218261297b565b915061282c8361297b565b9250827fffffffffffffffffffffffffffffffffffffffffffffffffffffffffffffffff03821115612861576128606129a9565b5b828201905092915050565b60006128778261297b565b91506128828361297b565b925082612892576128916129d8565b5b828204905092915050565b60006128a88261297b565b91506128b38361297b565b9250817fffffffffffffffffffffffffffffffffffffffffffffffffffffffffffffffff04831182151516156128ec576128eb6129a9565b5b828202905092915050565b60006129028261297b565b915061290d8361297b565b9250828210156129205761291f6129a9565b5b828203905092915050565b60006129368261295b565b9050919050565b60008115159050919050565b60006129548261292b565b9050919050565b600073ffffffffffffffffffffffffffffffffffffffff82169050919050565b6000819050919050565b600061299082612997565b9050919050565b60006129a28261295b565b9050919050565b7f4e487b7100000000000000000000000000000000000000000000000000000000600052601160045260246000fd5b7f4e487b7100000000000000000000000000000000000000000000000000000000600052601260045260246000fd5b612a108161292b565b8114612a1b57600080fd5b50565b612a278161293d565b8114612a3257600080fd5b50565b612a3e81612949565b8114612a4957600080fd5b50565b612a558161297b565b8114612a6057600080fd5b5056fea2646970667358221220db0ff2737969b1d7aa2cc355810109e22453777d7d956d2dd0bbbe4c65ec76fd64736f6c63430008000033",
  "linkReferences": {},
  "deployedLinkReferences": {}
}