{
  "_format": "hh-sol-artifact-1",
  "contractName": "Vault",
  "sourceName": "contracts/Vault.sol",
  "abi": [
    {
      "anonymous": false,
      "inputs": [
        {
          "indexed": true,
          "internalType": "address",
          "name": "user",
          "type": "address"
        },
        {
          "indexed": true,
          "internalType": "uint256",
          "name": "pid",
          "type": "uint256"
        },
        {
          "indexed": false,
          "internalType": "uint256",
          "name": "amount",
          "type": "uint256"
        }
      ],
      "name": "Deposit",
      "type": "event"
    },
    {
      "anonymous": false,
      "inputs": [
        {
          "indexed": true,
          "internalType": "address",
          "name": "previousOwner",
          "type": "address"
        },
        {
          "indexed": true,
          "internalType": "address",
          "name": "newOwner",
          "type": "address"
        }
      ],
      "name": "OwnershipTransferred",
      "type": "event"
    },
    {
      "anonymous": false,
      "inputs": [
        {
          "indexed": true,
          "internalType": "address",
          "name": "user",
          "type": "address"
        },
        {
          "indexed": true,
          "internalType": "uint256",
          "name": "pid",
          "type": "uint256"
        },
        {
          "indexed": false,
          "internalType": "uint256",
          "name": "amount",
          "type": "uint256"
        }
      ],
      "name": "Withdraw",
      "type": "event"
    },
    {
      "inputs": [
        {
          "internalType": "uint256",
          "name": "",
          "type": "uint256"
        }
      ],
      "name": "addressList",
      "outputs": [
        {
          "internalType": "uint256",
          "name": "",
          "type": "uint256"
        }
      ],
      "stateMutability": "view",
      "type": "function"
    },
    {
      "inputs": [
        {
          "internalType": "contract IERC20",
          "name": "_token",
          "type": "address"
        },
        {
          "internalType": "bool",
          "name": "_isLp",
          "type": "bool"
        },
        {
          "internalType": "uint256",
          "name": "_amount",
          "type": "uint256"
        }
      ],
      "name": "createVault",
      "outputs": [],
      "stateMutability": "nonpayable",
      "type": "function"
    },
    {
      "inputs": [
        {
          "internalType": "uint256",
          "name": "_vid",
          "type": "uint256"
        },
        {
          "internalType": "uint256",
          "name": "_lockTime",
          "type": "uint256"
        },
        {
          "internalType": "uint256",
          "name": "_amount",
          "type": "uint256"
        }
      ],
      "name": "deposit",
      "outputs": [],
      "stateMutability": "nonpayable",
      "type": "function"
    },
    {
      "inputs": [
        {
          "internalType": "uint256",
          "name": "_vid",
          "type": "uint256"
        },
        {
          "internalType": "address",
          "name": "_user",
          "type": "address"
        }
      ],
      "name": "getUserVaultInfo",
      "outputs": [
        {
          "internalType": "uint256",
          "name": "",
          "type": "uint256"
        },
        {
          "internalType": "uint256",
          "name": "",
          "type": "uint256"
        },
        {
          "internalType": "uint256",
          "name": "",
          "type": "uint256"
        }
      ],
      "stateMutability": "view",
      "type": "function"
    },
    {
      "inputs": [
        {
          "internalType": "uint256",
          "name": "_vid",
          "type": "uint256"
        }
      ],
      "name": "getVault",
      "outputs": [
        {
          "internalType": "uint256",
          "name": "",
          "type": "uint256"
        },
        {
          "internalType": "contract IERC20",
          "name": "",
          "type": "address"
        },
        {
          "internalType": "uint256",
          "name": "",
          "type": "uint256"
        },
        {
          "internalType": "uint256",
          "name": "",
          "type": "uint256"
        },
        {
          "internalType": "uint256",
          "name": "",
          "type": "uint256"
        }
      ],
      "stateMutability": "view",
      "type": "function"
    },
    {
      "inputs": [],
      "name": "owner",
      "outputs": [
        {
          "internalType": "address",
          "name": "",
          "type": "address"
        }
      ],
      "stateMutability": "view",
      "type": "function"
    },
    {
      "inputs": [
        {
          "internalType": "uint256",
          "name": "_pid",
          "type": "uint256"
        },
        {
          "internalType": "address",
          "name": "_user",
          "type": "address"
        }
      ],
      "name": "pendingReward",
      "outputs": [],
      "stateMutability": "nonpayable",
      "type": "function"
    },
    {
      "inputs": [],
      "name": "renounceOwnership",
      "outputs": [],
      "stateMutability": "nonpayable",
      "type": "function"
    },
    {
      "inputs": [
        {
          "internalType": "address",
          "name": "newOwner",
          "type": "address"
        }
      ],
      "name": "transferOwnership",
      "outputs": [],
      "stateMutability": "nonpayable",
      "type": "function"
    },
    {
      "inputs": [],
      "name": "updateVault",
      "outputs": [],
      "stateMutability": "nonpayable",
      "type": "function"
    },
    {
      "inputs": [
        {
          "internalType": "uint256",
          "name": "",
          "type": "uint256"
        },
        {
          "internalType": "address",
          "name": "",
          "type": "address"
        }
      ],
      "name": "userInfo",
      "outputs": [
        {
          "internalType": "uint256",
          "name": "amount",
          "type": "uint256"
        },
        {
          "internalType": "uint256",
          "name": "rewardDebt",
          "type": "uint256"
        },
        {
          "internalType": "uint256",
          "name": "lockTime",
          "type": "uint256"
        }
      ],
      "stateMutability": "view",
      "type": "function"
    },
    {
      "inputs": [],
      "name": "vaultId",
      "outputs": [
        {
          "internalType": "uint256",
          "name": "",
          "type": "uint256"
        }
      ],
      "stateMutability": "view",
      "type": "function"
    },
    {
      "inputs": [
        {
          "internalType": "uint256",
          "name": "",
          "type": "uint256"
        }
      ],
      "name": "vaultInfo",
      "outputs": [
        {
          "internalType": "uint256",
          "name": "vid",
          "type": "uint256"
        },
        {
          "internalType": "contract IERC20",
          "name": "token",
          "type": "address"
        },
        {
          "internalType": "uint256",
          "name": "vaultRewardsPerWeight",
          "type": "uint256"
        },
        {
          "internalType": "uint256",
          "name": "vaultTokenReserve",
          "type": "uint256"
        },
        {
          "internalType": "uint256",
          "name": "startBlockTime",
          "type": "uint256"
        },
        {
          "internalType": "uint256",
          "name": "endBlockTime",
          "type": "uint256"
        },
        {
          "internalType": "uint256",
          "name": "userCount",
          "type": "uint256"
        },
        {
          "internalType": "bool",
          "name": "isLpVault",
          "type": "bool"
        },
        {
          "internalType": "bool",
          "name": "created",
          "type": "bool"
        },
        {
          "internalType": "bool",
          "name": "paused",
          "type": "bool"
        },
        {
          "internalType": "bool",
          "name": "closed",
          "type": "bool"
        }
      ],
      "stateMutability": "view",
      "type": "function"
    },
    {
      "inputs": [
        {
          "internalType": "uint256",
          "name": "_vid",
          "type": "uint256"
        }
      ],
      "name": "withdraw",
      "outputs": [],
      "stateMutability": "nonpayable",
      "type": "function"
    }
  ],
  "bytecode": "0x6080604052600060015534801561001557600080fd5b5061003261002761003760201b60201c565b61003f60201b60201c565b610103565b600033905090565b60008060009054906101000a900473ffffffffffffffffffffffffffffffffffffffff169050816000806101000a81548173ffffffffffffffffffffffffffffffffffffffff021916908373ffffffffffffffffffffffffffffffffffffffff1602179055508173ffffffffffffffffffffffffffffffffffffffff168173ffffffffffffffffffffffffffffffffffffffff167f8be0079c531659141344cd1fd0a4f28419497f9722a3daafe3b4186f6b6457e060405160405180910390a35050565b611bc3806101126000396000f3fe608060405234801561001057600080fd5b50600436106100e95760003560e01c8063929060d81161008c57806398969e821161006657806398969e8214610248578063b810fb4314610264578063bc65f0bc14610294578063f2fde38b146102b0576100e9565b8063929060d8146101a857806393f1a40b146101e25780639403b63414610214576100e9565b806333194c0a116100c857806333194c0a14610158578063715018a6146101765780637196e841146101805780638da5cb5b1461018a576100e9565b8062aeef8a146100ee57806324f518331461010a5780632e1a7d4d1461013c575b600080fd5b61010860048036038101906101039190611484565b6102cc565b005b610124600480360381019061011f9190611448565b610638565b60405161013393929190611969565b60405180910390f35b610156600480360381019061015191906113f6565b6106d6565b005b61016061098f565b60405161016d9190611850565b60405180910390f35b61017e610995565b005b610188610a1d565b005b610192610a1f565b60405161019f91906116f5565b60405180910390f35b6101c260048036038101906101bd91906113f6565b610a48565b6040516101d99b9a999897969594939291906118be565b60405180910390f35b6101fc60048036038101906101f79190611448565b610b06565b60405161020b93929190611969565b60405180910390f35b61022e600480360381019061022991906113f6565b610b3d565b60405161023f95949392919061186b565b60405180910390f35b610262600480360381019061025d9190611448565b610cc7565b005b61027e600480360381019061027991906113f6565b610ccb565b60405161028b9190611850565b60405180910390f35b6102ae60048036038101906102a991906113a7565b610cef565b005b6102ca60048036038101906102c59190611355565b611051565b005b600060028481548110610308577f4e487b7100000000000000000000000000000000000000000000000000000000600052603260045260246000fd5b90600052602060002090600802019050818160010160009054906101000a900473ffffffffffffffffffffffffffffffffffffffff1673ffffffffffffffffffffffffffffffffffffffff166370a08231336040518263ffffffff1660e01b815260040161037691906116f5565b60206040518083038186803b15801561038e57600080fd5b505afa1580156103a2573d6000803e3d6000fd5b505050506040513d601f19601f820116820180604052508101906103c6919061141f565b10156103d157600080fd5b600115158160070160019054906101000a900460ff16151514610429576040517f08c379a000000000000000000000000000000000000000000000000000000000815260040161042090611830565b60405180910390fd5b600015158160070160039054906101000a900460ff16151514610481576040517f08c379a0000000000000000000000000000000000000000000000000000000008152600401610478906117d0565b60405180910390fd5b600015158160070160029054906101000a900460ff161515146104d9576040517f08c379a00000000000000000000000000000000000000000000000000000000081526004016104d0906117b0565b60405180910390fd5b60006003600086815260200190815260200160002060003373ffffffffffffffffffffffffffffffffffffffff1673ffffffffffffffffffffffffffffffffffffffff16815260200190815260200160002090508160010160009054906101000a900473ffffffffffffffffffffffffffffffffffffffff1673ffffffffffffffffffffffffffffffffffffffff166323b872dd3330866040518463ffffffff1660e01b815260040161058e93929190611710565b602060405180830381600087803b1580156105a857600080fd5b505af11580156105bc573d6000803e3d6000fd5b505050506040513d601f19601f820116820180604052508101906105e0919061137e565b6105e957600080fd5b600081600001541415610619576001826006015461060791906119b1565b82600601819055508381600201819055505b82816000015461062991906119b1565b81600001819055505050505050565b6000806000806003600087815260200190815260200160002060008673ffffffffffffffffffffffffffffffffffffffff1673ffffffffffffffffffffffffffffffffffffffff16815260200190815260200160002060405180606001604052908160008201548152602001600182015481526020016002820154815250509050806000015181602001518260400151935093509350509250925092565b600060028281548110610712577f4e487b7100000000000000000000000000000000000000000000000000000000600052603260045260246000fd5b90600052602060002090600802019050600115158160070160019054906101000a900460ff1615151461077a576040517f08c379a000000000000000000000000000000000000000000000000000000000815260040161077190611830565b60405180910390fd5b600015158160070160029054906101000a900460ff161515146107d2576040517f08c379a00000000000000000000000000000000000000000000000000000000081526004016107c9906117b0565b60405180910390fd5b60006003600084815260200190815260200160002060003373ffffffffffffffffffffffffffffffffffffffff1673ffffffffffffffffffffffffffffffffffffffff168152602001908152602001600020905060008160010154826000015461083c91906119b1565b90508260010160009054906101000a900473ffffffffffffffffffffffffffffffffffffffff1673ffffffffffffffffffffffffffffffffffffffff1663a9059cbb33836040518363ffffffff1660e01b815260040161089d929190611747565b602060405180830381600087803b1580156108b757600080fd5b505af11580156108cb573d6000803e3d6000fd5b505050506040513d601f19601f820116820180604052508101906108ef919061137e565b6108f857600080fd5b6109058360060154611149565b600183600601546109169190611a07565b83600601819055506003600085815260200190815260200160002060003373ffffffffffffffffffffffffffffffffffffffff1673ffffffffffffffffffffffffffffffffffffffff16815260200190815260200160002060008082016000905560018201600090556002820160009055505050505050565b60015481565b61099d6111e2565b73ffffffffffffffffffffffffffffffffffffffff166109bb610a1f565b73ffffffffffffffffffffffffffffffffffffffff1614610a11576040517f08c379a0000000000000000000000000000000000000000000000000000000008152600401610a08906117f0565b60405180910390fd5b610a1b60006111ea565b565b565b60008060009054906101000a900473ffffffffffffffffffffffffffffffffffffffff16905090565b60028181548110610a5857600080fd5b90600052602060002090600802016000915090508060000154908060010160009054906101000a900473ffffffffffffffffffffffffffffffffffffffff16908060020154908060030154908060040154908060050154908060060154908060070160009054906101000a900460ff16908060070160019054906101000a900460ff16908060070160029054906101000a900460ff16908060070160039054906101000a900460ff1690508b565b6003602052816000526040600020602052806000526040600020600091509150508060000154908060010154908060020154905083565b60008060008060008060028781548110610b80577f4e487b7100000000000000000000000000000000000000000000000000000000600052603260045260246000fd5b906000526020600020906008020160405180610160016040529081600082015481526020016001820160009054906101000a900473ffffffffffffffffffffffffffffffffffffffff1673ffffffffffffffffffffffffffffffffffffffff1673ffffffffffffffffffffffffffffffffffffffff16815260200160028201548152602001600382015481526020016004820154815260200160058201548152602001600682015481526020016007820160009054906101000a900460ff161515151581526020016007820160019054906101000a900460ff161515151581526020016007820160029054906101000a900460ff161515151581526020016007820160039054906101000a900460ff161515151581525050905080600001518160200151826060015183608001518460a00151955095509550955095505091939590929450565b5050565b60048181548110610cdb57600080fd5b906000526020600020016000915090505481565b808373ffffffffffffffffffffffffffffffffffffffff166370a08231336040518263ffffffff1660e01b8152600401610d2991906116f5565b60206040518083038186803b158015610d4157600080fd5b505afa158015610d55573d6000803e3d6000fd5b505050506040513d601f19601f82011682018060405250810190610d79919061141f565b1015610dba576040517f08c379a0000000000000000000000000000000000000000000000000000000008152600401610db190611790565b60405180910390fd5b600260405180610160016040528060015481526020018573ffffffffffffffffffffffffffffffffffffffff168152602001600181526020018381526020014281526020016220f58081526020016000815260200184151581526020016001151581526020016000151581526020016000151581525090806001815401808255809150506001900390600052602060002090600802016000909190919091506000820151816000015560208201518160010160006101000a81548173ffffffffffffffffffffffffffffffffffffffff021916908373ffffffffffffffffffffffffffffffffffffffff16021790555060408201518160020155606082015181600301556080820151816004015560a0820151816005015560c0820151816006015560e08201518160070160006101000a81548160ff0219169083151502179055506101008201518160070160016101000a81548160ff0219169083151502179055506101208201518160070160026101000a81548160ff0219169083151502179055506101408201518160070160036101000a81548160ff021916908315150217905550505060016000815480929190610f7490611ab9565b919050556001819055508273ffffffffffffffffffffffffffffffffffffffff166323b872dd3330846040518463ffffffff1660e01b8152600401610fbb93929190611710565b602060405180830381600087803b158015610fd557600080fd5b505af1158015610fe9573d6000803e3d6000fd5b505050506040513d601f19601f8201168201806040525081019061100d919061137e565b61104c576040517f08c379a000000000000000000000000000000000000000000000000000000000815260040161104390611810565b60405180910390fd5b505050565b6110596111e2565b73ffffffffffffffffffffffffffffffffffffffff16611077610a1f565b73ffffffffffffffffffffffffffffffffffffffff16146110cd576040517f08c379a00000000000000000000000000000000000000000000000000000000081526004016110c4906117f0565b60405180910390fd5b600073ffffffffffffffffffffffffffffffffffffffff168173ffffffffffffffffffffffffffffffffffffffff16141561113d576040517f08c379a000000000000000000000000000000000000000000000000000000000815260040161113490611770565b60405180910390fd5b611146816111ea565b50565b6111df8160405160240161115d9190611850565b6040516020818303038152906040527ff5b1bba9000000000000000000000000000000000000000000000000000000007bffffffffffffffffffffffffffffffffffffffffffffffffffffffff19166020820180517bffffffffffffffffffffffffffffffffffffffffffffffffffffffff83818316178352505050506112ae565b50565b600033905090565b60008060009054906101000a900473ffffffffffffffffffffffffffffffffffffffff169050816000806101000a81548173ffffffffffffffffffffffffffffffffffffffff021916908373ffffffffffffffffffffffffffffffffffffffff1602179055508173ffffffffffffffffffffffffffffffffffffffff168173ffffffffffffffffffffffffffffffffffffffff167f8be0079c531659141344cd1fd0a4f28419497f9722a3daafe3b4186f6b6457e060405160405180910390a35050565b60008151905060006a636f6e736f6c652e6c6f679050602083016000808483855afa5050505050565b6000813590506112e681611b31565b92915050565b6000813590506112fb81611b48565b92915050565b60008151905061131081611b48565b92915050565b60008135905061132581611b5f565b92915050565b60008135905061133a81611b76565b92915050565b60008151905061134f81611b76565b92915050565b60006020828403121561136757600080fd5b6000611375848285016112d7565b91505092915050565b60006020828403121561139057600080fd5b600061139e84828501611301565b91505092915050565b6000806000606084860312156113bc57600080fd5b60006113ca86828701611316565b93505060206113db868287016112ec565b92505060406113ec8682870161132b565b9150509250925092565b60006020828403121561140857600080fd5b60006114168482850161132b565b91505092915050565b60006020828403121561143157600080fd5b600061143f84828501611340565b91505092915050565b6000806040838503121561145b57600080fd5b60006114698582860161132b565b925050602061147a858286016112d7565b9150509250929050565b60008060006060848603121561149957600080fd5b60006114a78682870161132b565b93505060206114b88682870161132b565b92505060406114c98682870161132b565b9150509250925092565b6114dc81611a3b565b82525050565b6114eb81611a4d565b82525050565b6114fa81611a95565b82525050565b600061150d6026836119a0565b91507f4f776e61626c653a206e6577206f776e657220697320746865207a65726f206160008301527f64647265737300000000000000000000000000000000000000000000000000006020830152604082019050919050565b60006115736012836119a0565b91507f5573657220686173206e6f20746f6b656e7300000000000000000000000000006000830152602082019050919050565b60006115b3600c836119a0565b91507f5661756c742070617573656400000000000000000000000000000000000000006000830152602082019050919050565b60006115f3600c836119a0565b91507f5661756c7420636c6f73656400000000000000000000000000000000000000006000830152602082019050919050565b60006116336020836119a0565b91507f4f776e61626c653a2063616c6c6572206973206e6f7420746865206f776e65726000830152602082019050919050565b60006116736016836119a0565b91507f43616e2774207472616e7366657220746f6b656e732e000000000000000000006000830152602082019050919050565b60006116b3600f836119a0565b91507f5661756c74206e6f7420666f756e6400000000000000000000000000000000006000830152602082019050919050565b6116ef81611a8b565b82525050565b600060208201905061170a60008301846114d3565b92915050565b600060608201905061172560008301866114d3565b61173260208301856114d3565b61173f60408301846116e6565b949350505050565b600060408201905061175c60008301856114d3565b61176960208301846116e6565b9392505050565b6000602082019050818103600083015261178981611500565b9050919050565b600060208201905081810360008301526117a981611566565b9050919050565b600060208201905081810360008301526117c9816115a6565b9050919050565b600060208201905081810360008301526117e9816115e6565b9050919050565b6000602082019050818103600083015261180981611626565b9050919050565b6000602082019050818103600083015261182981611666565b9050919050565b60006020820190508181036000830152611849816116a6565b9050919050565b600060208201905061186560008301846116e6565b92915050565b600060a08201905061188060008301886116e6565b61188d60208301876114f1565b61189a60408301866116e6565b6118a760608301856116e6565b6118b460808301846116e6565b9695505050505050565b6000610160820190506118d4600083018e6116e6565b6118e1602083018d6114f1565b6118ee604083018c6116e6565b6118fb606083018b6116e6565b611908608083018a6116e6565b61191560a08301896116e6565b61192260c08301886116e6565b61192f60e08301876114e2565b61193d6101008301866114e2565b61194b6101208301856114e2565b6119596101408301846114e2565b9c9b505050505050505050505050565b600060608201905061197e60008301866116e6565b61198b60208301856116e6565b61199860408301846116e6565b949350505050565b600082825260208201905092915050565b60006119bc82611a8b565b91506119c783611a8b565b9250827fffffffffffffffffffffffffffffffffffffffffffffffffffffffffffffffff038211156119fc576119fb611b02565b5b828201905092915050565b6000611a1282611a8b565b9150611a1d83611a8b565b925082821015611a3057611a2f611b02565b5b828203905092915050565b6000611a4682611a6b565b9050919050565b60008115159050919050565b6000611a6482611a3b565b9050919050565b600073ffffffffffffffffffffffffffffffffffffffff82169050919050565b6000819050919050565b6000611aa082611aa7565b9050919050565b6000611ab282611a6b565b9050919050565b6000611ac482611a8b565b91507fffffffffffffffffffffffffffffffffffffffffffffffffffffffffffffffff821415611af757611af6611b02565b5b600182019050919050565b7f4e487b7100000000000000000000000000000000000000000000000000000000600052601160045260246000fd5b611b3a81611a3b565b8114611b4557600080fd5b50565b611b5181611a4d565b8114611b5c57600080fd5b50565b611b6881611a59565b8114611b7357600080fd5b50565b611b7f81611a8b565b8114611b8a57600080fd5b5056fea264697066735822122007ede6a81c7ae3e41bfadea657fed5957c5edb5ce909a4bd3e40d33f6c2c804964736f6c63430008000033",
  "linkReferences": {},
  "deployedLinkReferences": {}
}