{
  "_format": "hh-sol-artifact-1",
  "contractName": "Vault",
  "sourceName": "contracts/Vault.sol",
  "abi": [
    {
      "anonymous": false,
      "inputs": [
        {
          "indexed": true,
          "internalType": "address",
          "name": "user",
          "type": "address"
        },
        {
          "indexed": true,
          "internalType": "uint256",
          "name": "pid",
          "type": "uint256"
        },
        {
          "indexed": false,
          "internalType": "uint256",
          "name": "amount",
          "type": "uint256"
        }
      ],
      "name": "Deposit",
      "type": "event"
    },
    {
      "anonymous": false,
      "inputs": [
        {
          "indexed": true,
          "internalType": "address",
          "name": "previousOwner",
          "type": "address"
        },
        {
          "indexed": true,
          "internalType": "address",
          "name": "newOwner",
          "type": "address"
        }
      ],
      "name": "OwnershipTransferred",
      "type": "event"
    },
    {
      "anonymous": false,
      "inputs": [
        {
          "indexed": true,
          "internalType": "address",
          "name": "user",
          "type": "address"
        },
        {
          "indexed": true,
          "internalType": "uint256",
          "name": "pid",
          "type": "uint256"
        },
        {
          "indexed": false,
          "internalType": "uint256",
          "name": "amount",
          "type": "uint256"
        }
      ],
      "name": "Withdraw",
      "type": "event"
    },
    {
      "inputs": [
        {
          "internalType": "uint256",
          "name": "",
          "type": "uint256"
        }
      ],
      "name": "addressList",
      "outputs": [
        {
          "internalType": "uint256",
          "name": "",
          "type": "uint256"
        }
      ],
      "stateMutability": "view",
      "type": "function"
    },
    {
      "inputs": [
        {
          "internalType": "contract IERC20",
          "name": "_token",
          "type": "address"
        },
        {
          "internalType": "bool",
          "name": "_isLp",
          "type": "bool"
        },
        {
          "internalType": "uint256",
          "name": "_amount",
          "type": "uint256"
        }
      ],
      "name": "createVault",
      "outputs": [],
      "stateMutability": "nonpayable",
      "type": "function"
    },
    {
      "inputs": [
        {
          "internalType": "uint256",
          "name": "_pid",
          "type": "uint256"
        },
        {
          "internalType": "uint256",
          "name": "_lockTime",
          "type": "uint256"
        },
        {
          "internalType": "uint256",
          "name": "_amount",
          "type": "uint256"
        }
      ],
      "name": "deposit",
      "outputs": [],
      "stateMutability": "nonpayable",
      "type": "function"
    },
    {
      "inputs": [
        {
          "internalType": "uint256",
          "name": "_vid",
          "type": "uint256"
        },
        {
          "internalType": "address",
          "name": "_userId",
          "type": "address"
        }
      ],
      "name": "getUserVaultAmount",
      "outputs": [
        {
          "internalType": "uint256",
          "name": "",
          "type": "uint256"
        }
      ],
      "stateMutability": "view",
      "type": "function"
    },
    {
      "inputs": [
        {
          "internalType": "uint256",
          "name": "_vid",
          "type": "uint256"
        }
      ],
      "name": "getVault",
      "outputs": [
        {
          "internalType": "uint256",
          "name": "",
          "type": "uint256"
        },
        {
          "internalType": "contract IERC20",
          "name": "",
          "type": "address"
        },
        {
          "internalType": "uint256",
          "name": "",
          "type": "uint256"
        },
        {
          "internalType": "uint256",
          "name": "",
          "type": "uint256"
        },
        {
          "internalType": "uint256",
          "name": "",
          "type": "uint256"
        }
      ],
      "stateMutability": "view",
      "type": "function"
    },
    {
      "inputs": [],
      "name": "owner",
      "outputs": [
        {
          "internalType": "address",
          "name": "",
          "type": "address"
        }
      ],
      "stateMutability": "view",
      "type": "function"
    },
    {
      "inputs": [
        {
          "internalType": "uint256",
          "name": "_pid",
          "type": "uint256"
        },
        {
          "internalType": "address",
          "name": "_user",
          "type": "address"
        }
      ],
      "name": "pendingReward",
      "outputs": [],
      "stateMutability": "nonpayable",
      "type": "function"
    },
    {
      "inputs": [],
      "name": "renounceOwnership",
      "outputs": [],
      "stateMutability": "nonpayable",
      "type": "function"
    },
    {
      "inputs": [
        {
          "internalType": "address",
          "name": "newOwner",
          "type": "address"
        }
      ],
      "name": "transferOwnership",
      "outputs": [],
      "stateMutability": "nonpayable",
      "type": "function"
    },
    {
      "inputs": [],
      "name": "updateVault",
      "outputs": [],
      "stateMutability": "nonpayable",
      "type": "function"
    },
    {
      "inputs": [
        {
          "internalType": "uint256",
          "name": "",
          "type": "uint256"
        },
        {
          "internalType": "address",
          "name": "",
          "type": "address"
        }
      ],
      "name": "userInfo",
      "outputs": [
        {
          "internalType": "uint256",
          "name": "amount",
          "type": "uint256"
        },
        {
          "internalType": "uint256",
          "name": "rewardDebt",
          "type": "uint256"
        }
      ],
      "stateMutability": "view",
      "type": "function"
    },
    {
      "inputs": [],
      "name": "vaultId",
      "outputs": [
        {
          "internalType": "uint256",
          "name": "",
          "type": "uint256"
        }
      ],
      "stateMutability": "view",
      "type": "function"
    },
    {
      "inputs": [
        {
          "internalType": "uint256",
          "name": "",
          "type": "uint256"
        }
      ],
      "name": "vaultInfo",
      "outputs": [
        {
          "internalType": "uint256",
          "name": "vid",
          "type": "uint256"
        },
        {
          "internalType": "contract IERC20",
          "name": "token",
          "type": "address"
        },
        {
          "internalType": "uint256",
          "name": "vaultRewardsPerWeight",
          "type": "uint256"
        },
        {
          "internalType": "uint256",
          "name": "vaultTokenReserve",
          "type": "uint256"
        },
        {
          "internalType": "uint256",
          "name": "startBlockTime",
          "type": "uint256"
        },
        {
          "internalType": "uint256",
          "name": "endBlockTime",
          "type": "uint256"
        },
        {
          "internalType": "uint256",
          "name": "userCount",
          "type": "uint256"
        },
        {
          "internalType": "bool",
          "name": "isLpVault",
          "type": "bool"
        },
        {
          "internalType": "bool",
          "name": "created",
          "type": "bool"
        }
      ],
      "stateMutability": "view",
      "type": "function"
    },
    {
      "inputs": [
        {
          "internalType": "uint256",
          "name": "_pid",
          "type": "uint256"
        },
        {
          "internalType": "uint256",
          "name": "_amount",
          "type": "uint256"
        }
      ],
      "name": "withdraw",
      "outputs": [],
      "stateMutability": "nonpayable",
      "type": "function"
    }
  ],
  "bytecode": "0x6080604052600060015534801561001557600080fd5b5061003261002761003760201b60201c565b61003f60201b60201c565b610103565b600033905090565b60008060009054906101000a900473ffffffffffffffffffffffffffffffffffffffff169050816000806101000a81548173ffffffffffffffffffffffffffffffffffffffff021916908373ffffffffffffffffffffffffffffffffffffffff1602179055508173ffffffffffffffffffffffffffffffffffffffff168173ffffffffffffffffffffffffffffffffffffffff167f8be0079c531659141344cd1fd0a4f28419497f9722a3daafe3b4186f6b6457e060405160405180910390a35050565b611647806101126000396000f3fe608060405234801561001057600080fd5b50600436106100e95760003560e01c8063929060d81161008c57806398969e821161006657806398969e8214610243578063b810fb431461025f578063bc65f0bc1461028f578063f2fde38b146102ab576100e9565b8063929060d8146101a657806393f1a40b146101de5780639403b6341461020f576100e9565b8063441a3e70116100c8578063441a3e7014610158578063715018a6146101745780637196e8411461017e5780638da5cb5b14610188576100e9565b8062aeef8a146100ee57806333194c0a1461010a5780633cb791a014610128575b600080fd5b61010860048036038101906101039190610f91565b6102c7565b005b6101126104f9565b60405161011f9190611334565b60405180910390f35b610142600480360381019061013d9190610f19565b6104ff565b60405161014f9190611334565b60405180910390f35b610172600480360381019061016d9190610f55565b610562565b005b61017c610692565b005b61018661071a565b005b61019061071c565b60405161019d9190611202565b60405180910390f35b6101c060048036038101906101bb9190610ec7565b610745565b6040516101d5999897969594939291906113a2565b60405180910390f35b6101f860048036038101906101f39190610f19565b6107dd565b60405161020692919061142f565b60405180910390f35b61022960048036038101906102249190610ec7565b61080e565b60405161023a95949392919061134f565b60405180910390f35b61025d60048036038101906102589190610f19565b6108ae565b005b61027960048036038101906102749190610ec7565b6108b2565b6040516102869190611334565b60405180910390f35b6102a960048036038101906102a49190610e78565b6108d6565b005b6102c560048036038101906102c09190610e26565b610be4565b005b6001151560028481548110610305577f4e487b7100000000000000000000000000000000000000000000000000000000600052603260045260246000fd5b906000526020600020906008020160070160019054906101000a900460ff16151514610366576040517f08c379a000000000000000000000000000000000000000000000000000000000815260040161035d90611314565b60405180910390fd5b6000600284815481106103a2577f4e487b7100000000000000000000000000000000000000000000000000000000600052603260045260246000fd5b9060005260206000209060080201905060006003600086815260200190815260200160002060003373ffffffffffffffffffffffffffffffffffffffff1673ffffffffffffffffffffffffffffffffffffffff168152602001908152602001600020905060008160000154141561041e57600081600101819055505b8160010160009054906101000a900473ffffffffffffffffffffffffffffffffffffffff1673ffffffffffffffffffffffffffffffffffffffff166323b872dd3330866040518463ffffffff1660e01b815260040161047f9392919061121d565b602060405180830381600087803b15801561049957600080fd5b505af11580156104ad573d6000803e3d6000fd5b505050506040513d601f19601f820116820180604052508101906104d19190610e4f565b6104da57600080fd5b8281600001546104ea9190611469565b81600001819055505050505050565b60015481565b6000806003600085815260200190815260200160002060003373ffffffffffffffffffffffffffffffffffffffff1673ffffffffffffffffffffffffffffffffffffffff1681526020019081526020016000209050806000015491505092915050565b600081116105a5576040517f08c379a000000000000000000000000000000000000000000000000000000000815260040161059c906112f4565b60405180910390fd5b60006003600084815260200190815260200160002060003373ffffffffffffffffffffffffffffffffffffffff1673ffffffffffffffffffffffffffffffffffffffff16815260200190815260200160002090508181600001541015610640576040517f08c379a000000000000000000000000000000000000000000000000000000000815260040161063790611294565b60405180910390fd5b60006002848154811061067c577f4e487b7100000000000000000000000000000000000000000000000000000000600052603260045260246000fd5b9060005260206000209060080201905050505050565b61069a610cdc565b73ffffffffffffffffffffffffffffffffffffffff166106b861071c565b73ffffffffffffffffffffffffffffffffffffffff161461070e576040517f08c379a0000000000000000000000000000000000000000000000000000000008152600401610705906112b4565b60405180910390fd5b6107186000610ce4565b565b565b60008060009054906101000a900473ffffffffffffffffffffffffffffffffffffffff16905090565b6002818154811061075557600080fd5b90600052602060002090600802016000915090508060000154908060010160009054906101000a900473ffffffffffffffffffffffffffffffffffffffff16908060020154908060030154908060040154908060050154908060060154908060070160009054906101000a900460ff16908060070160019054906101000a900460ff16905089565b6003602052816000526040600020602052806000526040600020600091509150508060000154908060010154905082565b60008060008060008060028781548110610851577f4e487b7100000000000000000000000000000000000000000000000000000000600052603260045260246000fd5b9060005260206000209060080201905080600001548160010160009054906101000a900473ffffffffffffffffffffffffffffffffffffffff16826003015483600401548460050154955095509550955095505091939590929450565b5050565b600481815481106108c257600080fd5b906000526020600020016000915090505481565b808373ffffffffffffffffffffffffffffffffffffffff166370a08231336040518263ffffffff1660e01b81526004016109109190611202565b60206040518083038186803b15801561092857600080fd5b505afa15801561093c573d6000803e3d6000fd5b505050506040513d601f19601f820116820180604052508101906109609190610ef0565b10156109a1576040517f08c379a000000000000000000000000000000000000000000000000000000000815260040161099890611274565b60405180910390fd5b600260405180610120016040528060015481526020018573ffffffffffffffffffffffffffffffffffffffff168152602001600181526020018381526020014281526020016220f58081526020016000815260200184151581526020016001151581525090806001815401808255809150506001900390600052602060002090600802016000909190919091506000820151816000015560208201518160010160006101000a81548173ffffffffffffffffffffffffffffffffffffffff021916908373ffffffffffffffffffffffffffffffffffffffff16021790555060408201518160020155606082015181600301556080820151816004015560a0820151816005015560c0820151816006015560e08201518160070160006101000a81548160ff0219169083151502179055506101008201518160070160016101000a81548160ff021916908315150217905550505060016000815480929190610b079061153d565b919050556001819055508273ffffffffffffffffffffffffffffffffffffffff166323b872dd3330846040518463ffffffff1660e01b8152600401610b4e9392919061121d565b602060405180830381600087803b158015610b6857600080fd5b505af1158015610b7c573d6000803e3d6000fd5b505050506040513d601f19601f82011682018060405250810190610ba09190610e4f565b610bdf576040517f08c379a0000000000000000000000000000000000000000000000000000000008152600401610bd6906112d4565b60405180910390fd5b505050565b610bec610cdc565b73ffffffffffffffffffffffffffffffffffffffff16610c0a61071c565b73ffffffffffffffffffffffffffffffffffffffff1614610c60576040517f08c379a0000000000000000000000000000000000000000000000000000000008152600401610c57906112b4565b60405180910390fd5b600073ffffffffffffffffffffffffffffffffffffffff168173ffffffffffffffffffffffffffffffffffffffff161415610cd0576040517f08c379a0000000000000000000000000000000000000000000000000000000008152600401610cc790611254565b60405180910390fd5b610cd981610ce4565b50565b600033905090565b60008060009054906101000a900473ffffffffffffffffffffffffffffffffffffffff169050816000806101000a81548173ffffffffffffffffffffffffffffffffffffffff021916908373ffffffffffffffffffffffffffffffffffffffff1602179055508173ffffffffffffffffffffffffffffffffffffffff168173ffffffffffffffffffffffffffffffffffffffff167f8be0079c531659141344cd1fd0a4f28419497f9722a3daafe3b4186f6b6457e060405160405180910390a35050565b600081359050610db7816115b5565b92915050565b600081359050610dcc816115cc565b92915050565b600081519050610de1816115cc565b92915050565b600081359050610df6816115e3565b92915050565b600081359050610e0b816115fa565b92915050565b600081519050610e20816115fa565b92915050565b600060208284031215610e3857600080fd5b6000610e4684828501610da8565b91505092915050565b600060208284031215610e6157600080fd5b6000610e6f84828501610dd2565b91505092915050565b600080600060608486031215610e8d57600080fd5b6000610e9b86828701610de7565b9350506020610eac86828701610dbd565b9250506040610ebd86828701610dfc565b9150509250925092565b600060208284031215610ed957600080fd5b6000610ee784828501610dfc565b91505092915050565b600060208284031215610f0257600080fd5b6000610f1084828501610e11565b91505092915050565b60008060408385031215610f2c57600080fd5b6000610f3a85828601610dfc565b9250506020610f4b85828601610da8565b9150509250929050565b60008060408385031215610f6857600080fd5b6000610f7685828601610dfc565b9250506020610f8785828601610dfc565b9150509250929050565b600080600060608486031215610fa657600080fd5b6000610fb486828701610dfc565b9350506020610fc586828701610dfc565b9250506040610fd686828701610dfc565b9150509250925092565b610fe9816114bf565b82525050565b610ff8816114d1565b82525050565b61100781611519565b82525050565b600061101a602683611458565b91507f4f776e61626c653a206e6577206f776e657220697320746865207a65726f206160008301527f64647265737300000000000000000000000000000000000000000000000000006020830152604082019050919050565b6000611080601283611458565b91507f5573657220686173206e6f20746f6b656e7300000000000000000000000000006000830152602082019050919050565b60006110c0601483611458565b91507f77697468647261773a206e6f7420656e6f7567680000000000000000000000006000830152602082019050919050565b6000611100602083611458565b91507f4f776e61626c653a2063616c6c6572206973206e6f7420746865206f776e65726000830152602082019050919050565b6000611140601683611458565b91507f43616e2774207472616e7366657220746f6b656e732e000000000000000000006000830152602082019050919050565b6000611180600883611458565b91507f616d6f756e7420300000000000000000000000000000000000000000000000006000830152602082019050919050565b60006111c0600f83611458565b91507f5661756c74206e6f7420666f756e6400000000000000000000000000000000006000830152602082019050919050565b6111fc8161150f565b82525050565b60006020820190506112176000830184610fe0565b92915050565b60006060820190506112326000830186610fe0565b61123f6020830185610fe0565b61124c60408301846111f3565b949350505050565b6000602082019050818103600083015261126d8161100d565b9050919050565b6000602082019050818103600083015261128d81611073565b9050919050565b600060208201905081810360008301526112ad816110b3565b9050919050565b600060208201905081810360008301526112cd816110f3565b9050919050565b600060208201905081810360008301526112ed81611133565b9050919050565b6000602082019050818103600083015261130d81611173565b9050919050565b6000602082019050818103600083015261132d816111b3565b9050919050565b600060208201905061134960008301846111f3565b92915050565b600060a08201905061136460008301886111f3565b6113716020830187610ffe565b61137e60408301866111f3565b61138b60608301856111f3565b61139860808301846111f3565b9695505050505050565b6000610120820190506113b8600083018c6111f3565b6113c5602083018b610ffe565b6113d2604083018a6111f3565b6113df60608301896111f3565b6113ec60808301886111f3565b6113f960a08301876111f3565b61140660c08301866111f3565b61141360e0830185610fef565b611421610100830184610fef565b9a9950505050505050505050565b600060408201905061144460008301856111f3565b61145160208301846111f3565b9392505050565b600082825260208201905092915050565b60006114748261150f565b915061147f8361150f565b9250827fffffffffffffffffffffffffffffffffffffffffffffffffffffffffffffffff038211156114b4576114b3611586565b5b828201905092915050565b60006114ca826114ef565b9050919050565b60008115159050919050565b60006114e8826114bf565b9050919050565b600073ffffffffffffffffffffffffffffffffffffffff82169050919050565b6000819050919050565b60006115248261152b565b9050919050565b6000611536826114ef565b9050919050565b60006115488261150f565b91507fffffffffffffffffffffffffffffffffffffffffffffffffffffffffffffffff82141561157b5761157a611586565b5b600182019050919050565b7f4e487b7100000000000000000000000000000000000000000000000000000000600052601160045260246000fd5b6115be816114bf565b81146115c957600080fd5b50565b6115d5816114d1565b81146115e057600080fd5b50565b6115ec816114dd565b81146115f757600080fd5b50565b6116038161150f565b811461160e57600080fd5b5056fea2646970667358221220c5e8dd770a442ac9cebf80f95c7d59f479bdf9efea7e62ead10c54661325970464736f6c63430008000033",
  "linkReferences": {},
  "deployedLinkReferences": {}
}